{
  "contractName": "TwitterOracleMock",
  "abi": [
    {
      "inputs": [
        {
          "internalType": "address",
          "name": "_oraclizeAddr",
          "type": "address"
        }
      ],
      "payable": true,
      "stateMutability": "payable",
      "type": "constructor"
    },
    {
      "anonymous": false,
      "inputs": [
        {
          "indexed": false,
          "internalType": "bytes32",
          "name": "queryId",
          "type": "bytes32"
        },
        {
          "indexed": false,
          "internalType": "string",
          "name": "userId",
          "type": "string"
        }
      ],
      "name": "FindTweetLodged",
      "type": "event"
    },
    {
      "anonymous": false,
      "inputs": [
        {
          "indexed": false,
          "internalType": "string",
          "name": "description",
          "type": "string"
        }
      ],
      "name": "LogNewQuery",
      "type": "event"
    },
    {
      "anonymous": false,
      "inputs": [
        {
          "indexed": false,
          "internalType": "string",
          "name": "result",
          "type": "string"
        },
        {
          "indexed": false,
          "internalType": "bytes",
          "name": "proof",
          "type": "bytes"
        }
      ],
      "name": "LogResult",
      "type": "event"
    },
    {
      "anonymous": false,
      "inputs": [
        {
          "indexed": true,
          "internalType": "address",
          "name": "_owner",
          "type": "address"
        },
        {
          "indexed": true,
          "internalType": "uint256",
          "name": "_balance",
          "type": "uint256"
        }
      ],
      "name": "LogUpdate",
      "type": "event"
    },
    {
      "anonymous": false,
      "inputs": [
        {
          "indexed": true,
          "internalType": "address",
          "name": "previousOwner",
          "type": "address"
        },
        {
          "indexed": true,
          "internalType": "address",
          "name": "newOwner",
          "type": "address"
        }
      ],
      "name": "OwnershipTransferred",
      "type": "event"
    },
    {
      "anonymous": false,
      "inputs": [
        {
          "indexed": false,
          "internalType": "address",
          "name": "account",
          "type": "address"
        }
      ],
      "name": "Paused",
      "type": "event"
    },
    {
      "anonymous": false,
      "inputs": [
        {
          "indexed": true,
          "internalType": "address",
          "name": "account",
          "type": "address"
        }
      ],
      "name": "PauserAdded",
      "type": "event"
    },
    {
      "anonymous": false,
      "inputs": [
        {
          "indexed": true,
          "internalType": "address",
          "name": "account",
          "type": "address"
        }
      ],
      "name": "PauserRemoved",
      "type": "event"
    },
    {
      "anonymous": false,
      "inputs": [
        {
          "indexed": false,
          "internalType": "string",
          "name": "m",
          "type": "string"
        },
        {
          "indexed": false,
          "internalType": "bytes",
          "name": "v",
          "type": "bytes"
        }
      ],
      "name": "TraceBytes",
      "type": "event"
    },
    {
      "anonymous": false,
      "inputs": [
        {
          "indexed": false,
          "internalType": "string",
          "name": "statusId",
          "type": "string"
        },
        {
          "indexed": false,
          "internalType": "string",
          "name": "tweetText",
          "type": "string"
        },
        {
          "indexed": true,
          "internalType": "bytes32",
          "name": "queryId",
          "type": "bytes32"
        }
      ],
      "name": "TweetStored",
      "type": "event"
    },
    {
      "anonymous": false,
      "inputs": [
        {
          "indexed": false,
          "internalType": "address",
          "name": "account",
          "type": "address"
        }
      ],
      "name": "Unpaused",
      "type": "event"
    },
    {
      "payable": false,
      "stateMutability": "nonpayable",
      "type": "fallback"
    },
    {
      "constant": false,
      "inputs": [
        {
          "internalType": "address",
          "name": "account",
          "type": "address"
        }
      ],
      "name": "addPauser",
      "outputs": [],
      "payable": false,
      "stateMutability": "nonpayable",
      "type": "function"
    },
    {
      "constant": true,
      "inputs": [],
      "name": "isOwner",
      "outputs": [
        {
          "internalType": "bool",
          "name": "",
          "type": "bool"
        }
      ],
      "payable": false,
      "stateMutability": "view",
      "type": "function"
    },
    {
      "constant": true,
      "inputs": [
        {
          "internalType": "address",
          "name": "account",
          "type": "address"
        }
      ],
      "name": "isPauser",
      "outputs": [
        {
          "internalType": "bool",
          "name": "",
          "type": "bool"
        }
      ],
      "payable": false,
      "stateMutability": "view",
      "type": "function"
    },
    {
      "constant": true,
      "inputs": [],
      "name": "owner",
      "outputs": [
        {
          "internalType": "address",
          "name": "",
          "type": "address"
        }
      ],
      "payable": false,
      "stateMutability": "view",
      "type": "function"
    },
    {
      "constant": false,
      "inputs": [],
      "name": "pause",
      "outputs": [],
      "payable": false,
      "stateMutability": "nonpayable",
      "type": "function"
    },
    {
      "constant": true,
      "inputs": [],
      "name": "paused",
      "outputs": [
        {
          "internalType": "bool",
          "name": "",
          "type": "bool"
        }
      ],
      "payable": false,
      "stateMutability": "view",
      "type": "function"
    },
    {
      "constant": false,
      "inputs": [],
      "name": "renounceOwnership",
      "outputs": [],
      "payable": false,
      "stateMutability": "nonpayable",
      "type": "function"
    },
    {
      "constant": false,
      "inputs": [],
      "name": "renouncePauser",
      "outputs": [],
      "payable": false,
      "stateMutability": "nonpayable",
      "type": "function"
    },
    {
      "constant": false,
      "inputs": [
        {
          "internalType": "address",
          "name": "newOwner",
          "type": "address"
        }
      ],
      "name": "transferOwnership",
      "outputs": [],
      "payable": false,
      "stateMutability": "nonpayable",
      "type": "function"
    },
    {
      "constant": false,
      "inputs": [],
      "name": "unpause",
      "outputs": [],
      "payable": false,
      "stateMutability": "nonpayable",
      "type": "function"
    },
    {
      "constant": true,
      "inputs": [],
      "name": "oraclize_cbAddress",
      "outputs": [
        {
          "internalType": "address",
          "name": "",
          "type": "address"
        }
      ],
      "payable": false,
      "stateMutability": "view",
      "type": "function"
    },
    {
      "constant": true,
      "inputs": [
        {
          "internalType": "string",
          "name": "_datasource",
          "type": "string"
        }
      ],
      "name": "oraclize_getPrice",
      "outputs": [
        {
          "internalType": "uint256",
          "name": "",
          "type": "uint256"
        }
      ],
      "payable": false,
      "stateMutability": "pure",
      "type": "function"
    },
    {
      "constant": false,
      "inputs": [
        {
          "internalType": "bytes32",
          "name": "_queryId",
          "type": "bytes32"
        },
        {
          "internalType": "string",
          "name": "_result",
          "type": "string"
        },
        {
          "internalType": "bytes",
          "name": "_proof",
          "type": "bytes"
        }
      ],
      "name": "__callback",
      "outputs": [],
      "payable": false,
      "stateMutability": "nonpayable",
      "type": "function"
    },
    {
      "constant": false,
      "inputs": [
        {
          "internalType": "string",
          "name": "_userId",
          "type": "string"
        }
      ],
      "name": "query_findClaimTweet",
      "outputs": [
        {
          "internalType": "bytes32",
          "name": "",
          "type": "bytes32"
        }
      ],
      "payable": true,
      "stateMutability": "payable",
      "type": "function"
    },
    {
      "constant": false,
      "inputs": [
        {
          "internalType": "string",
          "name": "_query",
          "type": "string"
        },
        {
          "internalType": "string",
          "name": "_method",
          "type": "string"
        },
        {
          "internalType": "string",
          "name": "_url",
          "type": "string"
        },
        {
          "internalType": "string",
          "name": "_kwargs",
          "type": "string"
        }
      ],
      "name": "request",
      "outputs": [
        {
          "internalType": "bytes32",
          "name": "",
          "type": "bytes32"
        }
      ],
      "payable": false,
      "stateMutability": "nonpayable",
      "type": "function"
    },
    {
      "constant": false,
      "inputs": [
        {
          "internalType": "string",
          "name": "query",
          "type": "string"
        }
      ],
      "name": "updateQueryString",
      "outputs": [],
      "payable": false,
      "stateMutability": "nonpayable",
      "type": "function"
    },
    {
      "constant": true,
      "inputs": [
        {
          "internalType": "string",
          "name": "_userId",
          "type": "string"
        }
      ],
      "name": "getTweetText",
      "outputs": [
        {
          "internalType": "string",
          "name": "",
          "type": "string"
        }
      ],
      "payable": false,
      "stateMutability": "view",
      "type": "function"
    },
    {
      "constant": true,
      "inputs": [],
      "name": "getBalance",
      "outputs": [
        {
          "internalType": "uint256",
          "name": "_balance",
          "type": "uint256"
        }
      ],
      "payable": false,
      "stateMutability": "view",
      "type": "function"
    }
  ],
  "bytecode": "0x608060405260405162002ad738038062002ad7833981810160405260208110156200002957600080fd5b81019080805190602001909291905050506200004a620001db60201b60201c565b6000806101000a81548173ffffffffffffffffffffffffffffffffffffffff021916908373ffffffffffffffffffffffffffffffffffffffff1602179055506000809054906101000a900473ffffffffffffffffffffffffffffffffffffffff1673ffffffffffffffffffffffffffffffffffffffff16600073ffffffffffffffffffffffffffffffffffffffff167f8be0079c531659141344cd1fd0a4f28419497f9722a3daafe3b4186f6b6457e060405160405180910390a36200012562000119620001db60201b60201c565b620001e360201b60201c565b6000600260006101000a81548160ff02191690831515021790555080600260016101000a81548173ffffffffffffffffffffffffffffffffffffffff021916908373ffffffffffffffffffffffffffffffffffffffff16021790555047620001926200024460201b60201c565b73ffffffffffffffffffffffffffffffffffffffff167fd176e7c6abd789c341ab22cef27aa1fbc7461f5f9d6a6e55faa0b9df32a7051460405160405180910390a35062000431565b600033905090565b620001fe8160016200026d60201b620021541790919060201c565b8073ffffffffffffffffffffffffffffffffffffffff167f6719d08c1888103bea251a4ed56406bd0c3e69723c8a1686e017e7bbe159b6f860405160405180910390a250565b60008060009054906101000a900473ffffffffffffffffffffffffffffffffffffffff16905090565b6200027f82826200035160201b60201c565b15620002f3576040517f08c379a000000000000000000000000000000000000000000000000000000000815260040180806020018281038252601f8152602001807f526f6c65733a206163636f756e7420616c72656164792068617320726f6c650081525060200191505060405180910390fd5b60018260000160008373ffffffffffffffffffffffffffffffffffffffff1673ffffffffffffffffffffffffffffffffffffffff16815260200190815260200160002060006101000a81548160ff0219169083151502179055505050565b60008073ffffffffffffffffffffffffffffffffffffffff168273ffffffffffffffffffffffffffffffffffffffff161415620003da576040517f08c379a000000000000000000000000000000000000000000000000000000000815260040180806020018281038252602281526020018062002ab56022913960400191505060405180910390fd5b8260000160008373ffffffffffffffffffffffffffffffffffffffff1673ffffffffffffffffffffffffffffffffffffffff16815260200190815260200160002060009054906101000a900460ff16905092915050565b61267480620004416000396000f3fe6080604052600436106101095760003560e01c8063715018a6116100955780638f32d59b116100645780638f32d59b14610727578063bcf175c814610756578063cb300785146107ad578063cf2e291414610a4e578063f2fde38b14610b8f57610109565b8063715018a61461065157806382dc1ec4146106685780638456cb59146106b95780638da5cb5b146106d057610109565b806338bbfa50116100dc57806338bbfa50146104225780633f4ba83a1461058b57806346fbf68e146105a25780635c975abb1461060b5780636ef8d66d1461063a57610109565b8063053c351b1461018457806312065fe014610260578063172ac12d1461028b57806336ac01801461035a575b34801561011557600080fd5b506040517f08c379a00000000000000000000000000000000000000000000000000000000081526004018080602001828103825260118152602001807f46616c6c6261636b2066756e6374696f6e00000000000000000000000000000081525060200191505060405180910390fd5b34801561019057600080fd5b5061024a600480360360208110156101a757600080fd5b81019080803590602001906401000000008111156101c457600080fd5b8201836020820111156101d657600080fd5b803590602001918460018302840111640100000000831117156101f857600080fd5b91908080601f016020809104026020016040519081016040528093929190818152602001838380828437600081840152601f19601f820116905080830192505050505050509192919290505050610be0565b6040518082815260200191505060405180910390f35b34801561026c57600080fd5b50610275610bfe565b6040518082815260200191505060405180910390f35b610344600480360360208110156102a157600080fd5b81019080803590602001906401000000008111156102be57600080fd5b8201836020820111156102d057600080fd5b803590602001918460018302840111640100000000831117156102f257600080fd5b91908080601f016020809104026020016040519081016040528093929190818152602001838380828437600081840152601f19601f820116905080830192505050505050509192919290505050610c06565b6040518082815260200191505060405180910390f35b34801561036657600080fd5b506104206004803603602081101561037d57600080fd5b810190808035906020019064010000000081111561039a57600080fd5b8201836020820111156103ac57600080fd5b803590602001918460018302840111640100000000831117156103ce57600080fd5b91908080601f016020809104026020016040519081016040528093929190818152602001838380828437600081840152601f19601f820116905080830192505050505050509192919290505050610dd8565b005b34801561042e57600080fd5b506105896004803603606081101561044557600080fd5b81019080803590602001909291908035906020019064010000000081111561046c57600080fd5b82018360208201111561047e57600080fd5b803590602001918460018302840111640100000000831117156104a057600080fd5b91908080601f016020809104026020016040519081016040528093929190818152602001838380828437600081840152601f19601f8201169050808301925050505050505091929192908035906020019064010000000081111561050357600080fd5b82018360208201111561051557600080fd5b8035906020019184600183028401116401000000008311171561053757600080fd5b91908080601f016020809104026020016040519081016040528093929190818152602001838380828437600081840152601f19601f820116905080830192505050505050509192919290505050610ddb565b005b34801561059757600080fd5b506105a0611339565b005b3480156105ae57600080fd5b506105f1600480360360208110156105c557600080fd5b81019080803573ffffffffffffffffffffffffffffffffffffffff1690602001909291905050506114a7565b604051808215151515815260200191505060405180910390f35b34801561061757600080fd5b506106206114c4565b604051808215151515815260200191505060405180910390f35b34801561064657600080fd5b5061064f6114db565b005b34801561065d57600080fd5b506106666114ed565b005b34801561067457600080fd5b506106b76004803603602081101561068b57600080fd5b81019080803573ffffffffffffffffffffffffffffffffffffffff169060200190929190505050611626565b005b3480156106c557600080fd5b506106ce611697565b005b3480156106dc57600080fd5b506106e5611806565b604051808273ffffffffffffffffffffffffffffffffffffffff1673ffffffffffffffffffffffffffffffffffffffff16815260200191505060405180910390f35b34801561073357600080fd5b5061073c61182f565b604051808215151515815260200191505060405180910390f35b34801561076257600080fd5b5061076b61188d565b604051808273ffffffffffffffffffffffffffffffffffffffff1673ffffffffffffffffffffffffffffffffffffffff16815260200191505060405180910390f35b3480156107b957600080fd5b50610a38600480360360808110156107d057600080fd5b81019080803590602001906401000000008111156107ed57600080fd5b8201836020820111156107ff57600080fd5b8035906020019184600183028401116401000000008311171561082157600080fd5b91908080601f016020809104026020016040519081016040528093929190818152602001838380828437600081840152601f19601f8201169050808301925050505050505091929192908035906020019064010000000081111561088457600080fd5b82018360208201111561089657600080fd5b803590602001918460018302840111640100000000831117156108b857600080fd5b91908080601f016020809104026020016040519081016040528093929190818152602001838380828437600081840152601f19601f8201169050808301925050505050505091929192908035906020019064010000000081111561091b57600080fd5b82018360208201111561092d57600080fd5b8035906020019184600183028401116401000000008311171561094f57600080fd5b91908080601f016020809104026020016040519081016040528093929190818152602001838380828437600081840152601f19601f820116905080830192505050505050509192919290803590602001906401000000008111156109b257600080fd5b8201836020820111156109c457600080fd5b803590602001918460018302840111640100000000831117156109e657600080fd5b91908080601f016020809104026020016040519081016040528093929190818152602001838380828437600081840152601f19601f8201169050808301925050505050505091929192905050506118b7565b6040518082815260200191505060405180910390f35b348015610a5a57600080fd5b50610b1460048036036020811015610a7157600080fd5b8101908080359060200190640100000000811115610a8e57600080fd5b820183602082011115610aa057600080fd5b80359060200191846001830284011164010000000083111715610ac257600080fd5b91908080601f016020809104026020016040519081016040528093929190818152602001838380828437600081840152601f19601f820116905080830192505050505050509192919290505050611a37565b6040518080602001828103825283818151815260200191508051906020019080838360005b83811015610b54578082015181840152602081019050610b39565b50505050905090810190601f168015610b815780820380516001836020036101000a031916815260200191505b509250505060405180910390f35b348015610b9b57600080fd5b50610bde60048036036020811015610bb257600080fd5b81019080803573ffffffffffffffffffffffffffffffffffffffff169060200190929190505050611b42565b005b60008082511415610bf45760649050610bf9565b606490505b919050565b600047905090565b60006060826040516020018080612455603b9139603b0182805190602001908083835b60208310610c4c5780518252602082019150602081019050602083039250610c29565b6001836020036101000a03801982511681845116808217855250505050505090500180612490607d9139607d0191505060405160208183030381529060405290506000610d0060405180608001604052806042815260200161252e604291396040518060400160405280600381526020017f4745540000000000000000000000000000000000000000000000000000000000815250846040518060e0016040528060b781526020016122ff60b791396118b7565b905083600360008381526020019081526020016000209080519060200190610d2992919061222f565b507fe5d85242f0078c93b45bf90642d76990a0944afb431d2c7d61f4c32b339c780a81856040518083815260200180602001828103825283818151815260200191508051906020019080838360005b83811015610d93578082015181840152602081019050610d78565b50505050905090810190601f168015610dc05780820380516001836020036101000a031916815260200191505b50935050505060405180910390a18092505050919050565b50565b600260009054906101000a900460ff1615610e5e576040517f08c379a00000000000000000000000000000000000000000000000000000000081526004018080602001828103825260108152602001807f5061757361626c653a207061757365640000000000000000000000000000000081525060200191505060405180910390fd5b610e6661188d565b73ffffffffffffffffffffffffffffffffffffffff163373ffffffffffffffffffffffffffffffffffffffff1614610ee9576040517f08c379a000000000000000000000000000000000000000000000000000000000815260040180806020018281038252604981526020018061240c6049913960600191505060405180910390fd5b610f9d600360008581526020019081526020016000208054600181600116156101000203166002900480601f016020809104026020016040519081016040528092919081815260200182805460018160011615610100020316600290048015610f935780601f10610f6857610100808354040283529160200191610f93565b820191906000526020600020905b815481529060010190602001808311610f7657829003601f168201915b5050505050611bc8565b610ff2576040517f08c379a00000000000000000000000000000000000000000000000000000000081526004018080602001828103825260518152602001806125ef6051913960600191505060405180910390fd5b7fa985692bf0f6e75fb1a4a4816819e78421191536bab7ffdc6559c4043feb15a38282604051808060200180602001838103835285818151815260200191508051906020019080838360005b8381101561105957808201518184015260208101905061103e565b50505050905090810190601f1680156110865780820380516001836020036101000a031916815260200191505b50838103825284818151815260200191508051906020019080838360005b838110156110bf5780820151818401526020810190506110a4565b50505050905090810190601f1680156110ec5780820380516001836020036101000a031916815260200191505b5094505050505060405180910390a16060600360008581526020019081526020016000208054600181600116156101000203166002900480601f0160208091040260200160405190810160405280929190818152602001828054600181600116156101000203166002900480156111a45780601f10611179576101008083540402835291602001916111a4565b820191906000526020600020905b81548152906001019060200180831161118757829003601f168201915b50505050509050826004826040518082805190602001908083835b602083106111e257805182526020820191506020810190506020830392506111bf565b6001836020036101000a0380198251168184511680821785525050505050509050019150509081526020016040518091039020908051906020019061122892919061222f565b50837f9f64ee73189d8ec2b952cf3a09e90fd56fd62818c56b87166a1ed69f425d299c8285604051808060200180602001838103835285818151815260200191508051906020019080838360005b83811015611291578082015181840152602081019050611276565b50505050905090810190601f1680156112be5780820380516001836020036101000a031916815260200191505b50838103825284818151815260200191508051906020019080838360005b838110156112f75780820151818401526020810190506112dc565b50505050905090810190601f1680156113245780820380516001836020036101000a031916815260200191505b5094505050505060405180910390a250505050565b611349611344611bee565b6114a7565b61139e576040517f08c379a00000000000000000000000000000000000000000000000000000000081526004018080602001828103825260308152602001806123b66030913960400191505060405180910390fd5b600260009054906101000a900460ff16611420576040517f08c379a00000000000000000000000000000000000000000000000000000000081526004018080602001828103825260148152602001807f5061757361626c653a206e6f742070617573656400000000000000000000000081525060200191505060405180910390fd5b6000600260006101000a81548160ff0219169083151502179055507f5db9ee0a495bf2e6ff9c91a7834c1ba4fdd244a5e8aa4e537bd38aeae4b073aa611464611bee565b604051808273ffffffffffffffffffffffffffffffffffffffff1673ffffffffffffffffffffffffffffffffffffffff16815260200191505060405180910390a1565b60006114bd826001611bf690919063ffffffff16565b9050919050565b6000600260009054906101000a900460ff16905090565b6114eb6114e6611bee565b611cd4565b565b6114f561182f565b611567576040517f08c379a00000000000000000000000000000000000000000000000000000000081526004018080602001828103825260208152602001807f4f776e61626c653a2063616c6c6572206973206e6f7420746865206f776e657281525060200191505060405180910390fd5b600073ffffffffffffffffffffffffffffffffffffffff166000809054906101000a900473ffffffffffffffffffffffffffffffffffffffff1673ffffffffffffffffffffffffffffffffffffffff167f8be0079c531659141344cd1fd0a4f28419497f9722a3daafe3b4186f6b6457e060405160405180910390a360008060006101000a81548173ffffffffffffffffffffffffffffffffffffffff021916908373ffffffffffffffffffffffffffffffffffffffff160217905550565b611636611631611bee565b6114a7565b61168b576040517f08c379a00000000000000000000000000000000000000000000000000000000081526004018080602001828103825260308152602001806123b66030913960400191505060405180910390fd5b61169481611d2e565b50565b6116a76116a2611bee565b6114a7565b6116fc576040517f08c379a00000000000000000000000000000000000000000000000000000000081526004018080602001828103825260308152602001806123b66030913960400191505060405180910390fd5b600260009054906101000a900460ff161561177f576040517f08c379a00000000000000000000000000000000000000000000000000000000081526004018080602001828103825260108152602001807f5061757361626c653a207061757365640000000000000000000000000000000081525060200191505060405180910390fd5b6001600260006101000a81548160ff0219169083151502179055507f62e78cea01bee320cd4e420270b5ea74000d11b0c9f74754ebdbfc544b05a2586117c3611bee565b604051808273ffffffffffffffffffffffffffffffffffffffff1673ffffffffffffffffffffffffffffffffffffffff16815260200191505060405180910390a1565b60008060009054906101000a900473ffffffffffffffffffffffffffffffffffffffff16905090565b60008060009054906101000a900473ffffffffffffffffffffffffffffffffffffffff1673ffffffffffffffffffffffffffffffffffffffff16611871611bee565b73ffffffffffffffffffffffffffffffffffffffff1614905090565b6000600260019054906101000a900473ffffffffffffffffffffffffffffffffffffffff16905090565b6000476118f86040518060400160405280600b81526020017f636f6d7075746174696f6e000000000000000000000000000000000000000000815250610be0565b111561199a577f746f97619dd4e795da5586af48fcbd8a87f2860948dec93277b5b67b2f105cab6040518080602001828103825260378152602001806125b86037913960400191505060405180910390a16040517f08c379a00000000000000000000000000000000000000000000000000000000081526004018080602001828103825260268152602001806125926026913960400191505060405180910390fd5b7f746f97619dd4e795da5586af48fcbd8a87f2860948dec93277b5b67b2f105cab60405180806020018281038252602a8152602001806122d5602a913960400191505060405180910390a16000611a296040518060400160405280600b81526020017f636f6d7075746174696f6e00000000000000000000000000000000000000000081525087878787611d88565b905080915050949350505050565b60606004826040518082805190602001908083835b60208310611a6f5780518252602082019150602081019050602083039250611a4c565b6001836020036101000a03801982511681845116808217855250505050505090500191505090815260200160405180910390208054600181600116156101000203166002900480601f016020809104026020016040519081016040528092919081815260200182805460018160011615610100020316600290048015611b365780601f10611b0b57610100808354040283529160200191611b36565b820191906000526020600020905b815481529060010190602001808311611b1957829003601f168201915b50505050509050919050565b611b4a61182f565b611bbc576040517f08c379a00000000000000000000000000000000000000000000000000000000081526004018080602001828103825260208152602001807f4f776e61626c653a2063616c6c6572206973206e6f7420746865206f776e657281525060200191505060405180910390fd5b611bc581611f53565b50565b60006060829050600081511415611be3576000915050611be9565b60019150505b919050565b600033905090565b60008073ffffffffffffffffffffffffffffffffffffffff168273ffffffffffffffffffffffffffffffffffffffff161415611c7d576040517f08c379a00000000000000000000000000000000000000000000000000000000081526004018080602001828103825260228152602001806125706022913960400191505060405180910390fd5b8260000160008373ffffffffffffffffffffffffffffffffffffffff1673ffffffffffffffffffffffffffffffffffffffff16815260200190815260200160002060009054906101000a900460ff16905092915050565b611ce881600161209790919063ffffffff16565b8073ffffffffffffffffffffffffffffffffffffffff167fcd265ebaf09df2871cc7bd4133404a235ba12eff2041bb89d9c714a2621c7c7e60405160405180910390a250565b611d4281600161215490919063ffffffff16565b8073ffffffffffffffffffffffffffffffffffffffff167f6719d08c1888103bea251a4ed56406bd0c3e69723c8a1686e017e7bbe159b6f860405160405180910390a250565b600085858585856040516020018086805190602001908083835b60208310611dc55780518252602082019150602081019050602083039250611da2565b6001836020036101000a03801982511681845116808217855250505050505090500185805190602001908083835b60208310611e165780518252602082019150602081019050602083039250611df3565b6001836020036101000a03801982511681845116808217855250505050505090500184805190602001908083835b60208310611e675780518252602082019150602081019050602083039250611e44565b6001836020036101000a03801982511681845116808217855250505050505090500183805190602001908083835b60208310611eb85780518252602082019150602081019050602083039250611e95565b6001836020036101000a03801982511681845116808217855250505050505090500182805190602001908083835b60208310611f095780518252602082019150602081019050602083039250611ee6565b6001836020036101000a0380198251168184511680821785525050505050509050019550505050505060405160208183030381529060405280519060200120905095945050505050565b600073ffffffffffffffffffffffffffffffffffffffff168173ffffffffffffffffffffffffffffffffffffffff161415611fd9576040517f08c379a00000000000000000000000000000000000000000000000000000000081526004018080602001828103825260268152602001806123e66026913960400191505060405180910390fd5b8073ffffffffffffffffffffffffffffffffffffffff166000809054906101000a900473ffffffffffffffffffffffffffffffffffffffff1673ffffffffffffffffffffffffffffffffffffffff167f8be0079c531659141344cd1fd0a4f28419497f9722a3daafe3b4186f6b6457e060405160405180910390a3806000806101000a81548173ffffffffffffffffffffffffffffffffffffffff021916908373ffffffffffffffffffffffffffffffffffffffff16021790555050565b6120a18282611bf6565b6120f6576040517f08c379a000000000000000000000000000000000000000000000000000000000815260040180806020018281038252602181526020018061250d6021913960400191505060405180910390fd5b60008260000160008373ffffffffffffffffffffffffffffffffffffffff1673ffffffffffffffffffffffffffffffffffffffff16815260200190815260200160002060006101000a81548160ff0219169083151502179055505050565b61215e8282611bf6565b156121d1576040517f08c379a000000000000000000000000000000000000000000000000000000000815260040180806020018281038252601f8152602001807f526f6c65733a206163636f756e7420616c72656164792068617320726f6c650081525060200191505060405180910390fd5b60018260000160008373ffffffffffffffffffffffffffffffffffffffff1673ffffffffffffffffffffffffffffffffffffffff16815260200190815260200160002060006101000a81548160ff0219169083151502179055505050565b828054600181600116156101000203166002900490600052602060002090601f016020900481019282601f1061227057805160ff191683800117855561229e565b8280016001018555821561229e579182015b8281111561229d578251825591602001919060010190612282565b5b5090506122ab91906122af565b5090565b6122d191905b808211156122cd5760008160009055506001016122b5565b5090565b9056fe50726f7661626c652071756572792073656e742c207374616e642d627920666f7220726573706f6e73657b2768656164657273273a207b27636f6e74656e742d74797065273a20276a736f6e272c2027417574686f72697a6174696f6e273a202742656172657220414141414141414141414141414141414141414141447150253246414141414141414f2532427544344335707a584f4d594259513925324263726959596b507745253344374f7a546a576f344b78644d62507164764a71516e4d616f574d666a696353625178794d653857535a4b465559644f61496e277d7d506175736572526f6c653a2063616c6c657220646f6573206e6f742068617665207468652050617573657220726f6c654f776e61626c653a206e6577206f776e657220697320746865207a65726f20616464726573735468652063616c6c6572206f6620746869732066756e6374696f6e206973206e6f7420746865206f66666963616c204f7261636c697a652043616c6c6261636b20416464726573732e68747470733a2f2f6170692e747769747465722e636f6d2f312e312f73746174757365732f757365725f74696d656c696e652e6a736f6e3f69643d393332353936353431383232343138393434267472696d5f757365723d66616c73652674776565745f6d6f64653d657874656e64656426696e636c7564655f656e7469746965733d66616c736526636f756e743d31266578636c7564655f7265706c6965733d66616c736526696e636c7564655f7274733d66616c7365526f6c65733a206163636f756e7420646f6573206e6f74206861766520726f6c656a736f6e28516d644b4b333139566568613833683641596751716878395952734a394d4a45377933336f4358795a344d714845292e5b305d2e66756c6c5f74657874526f6c65733a206163636f756e7420697320746865207a65726f20616464726573734f7261636c652068617320696e73756666696369656e742045544820666f722071756572792e50726f7661626c65207175657279204e4f542073656e742c206164642045544820746f20636f7665722074686520717565727920666565546865204f7261636c697a6520717565727920494420646f6573206e6f74206d6174636820616e204f7261636c697a652072657175657374206d6164652066726f6d207468697320636f6e74726163742ea265627a7a723158200acb32ca932947f6c61c6133b8286da8fb67f13e7d969711f3409b3e383382b564736f6c634300050f0032526f6c65733a206163636f756e7420697320746865207a65726f2061646472657373",
  "source": "pragma solidity ^0.5.0;\n\n//import \"./oraclizeAPI.sol\";\nimport \"openzeppelin-solidity/contracts/ownership/Ownable.sol\";\nimport \"openzeppelin-solidity/contracts/lifecycle/Pausable.sol\";\n\n\n// Claims contract will use ecrecover(bytes32 data, uint8 v, bytes32 r, bytes32 s) returns (address)\n// to verify address and id originate from correct wallet\n\n// @title TwitterClient\n// @notice Use Provable to retrieve post text from Twitter\n//contract UrlRequests is Ownable, Pausable, Destructible, usingOraclize {\ncontract TwitterOracleMock is Ownable, Pausable {\n    // Mock  behaviour- \n    // TODO: move to inherit from mockOracle\n    address private oraclize_cb_address;\n\n    function oraclize_cbAddress()\n\tpublic\n\tview\n\treturns (address)\n    {\n\treturn oraclize_cb_address;\n    }\n\n    function oraclize_getPrice(string memory _datasource) public pure returns (uint) {\n        if (bytes(_datasource).length == 0){\n            return 100;\n        }\n        return 100; //10^6\n    }\n\n    event TraceBytes(string m, bytes v);\n    // @notice Mock Provable query\n    // @dev not accurate representatoin of oraclizeAPI\n    function oraclize_query(\n\tstring memory _dataSource,\n        string memory _query,\n        string memory _method,\n        string memory _url,\n        string memory _kwargs\n    )\n\tinternal\n\t//payable \n\treturns (bytes32) \n    {\n        /*emit TraceBytes('packed query data', abi.encodePacked( _dataSource, _query, _method, _url, _kwargs));*/\n\t\treturn keccak256(abi.encodePacked(\n\t\t\t_dataSource,\n\t\t\t_query,\n\t\t\t_method,\n\t\t\t_url,\n\t\t\t_kwargs\n\t\t));\n    }\n\n    /* Storage */\n    mapping(bytes32 => string) userIdsByQuery;  // query ids => user id // statusId\n    mapping(string => string) tweetsByUserId; // user id => tweet text\n\n    event LogNewQuery(string description);\n    event LogResult(string result, bytes proof);\n    event LogUpdate(address indexed _owner, uint indexed _balance);\n    event TweetStored(string statusId, string tweetText, bytes32 indexed queryId);\n    event FindTweetLodged(bytes32 queryId, string userId);\n\n    constructor(address _oraclizeAddr) public payable {\n\toraclize_cb_address = _oraclizeAddr;\n        emit LogUpdate(owner(), address(this).balance);\n    }\n\n   /*\n    * @notice Fallback function \n    * @dev Always revert\n    */\n    function() external {\n        revert(\"Fallback function\");\n    }\n\n   /* @notice Callback for Provable to return query response\n    * @dev Will store the text of a tweet into this contract's storage\n    * @param _queryId query ID generated when calling oraclize_query\n    * @param _result query result from Provable, should be the tweet text\n    * @param _proof authenticity proof returned by Oraclize - unused\n    */\n    function __callback(\n        bytes32 _queryId,\n        string memory _result,\n        bytes memory _proof\n    )\n        public\n\t\twhenNotPaused\n\t\tonlyOracle\n    {\n        require(\n            stringNotEmpty(userIdsByQuery[_queryId]),\n            \"The Oraclize query ID does not match an Oraclize request made from this contract.\"\n        );\n\n        emit LogResult(_result, _proof);\n\n\t\tstring memory tweetId = userIdsByQuery[_queryId];\n\t\ttweetsByUserId[tweetId] = _result; // @fix this should not be stored due to gas cost\n\n\t\temit TweetStored(tweetId, _result, _queryId);\n    }\n\n    // example post id 1146384868630130689\n    // @dev Retrieve text for a specific tweet id\n    function query_findClaimTweet(string memory _userId)\n        public\n        payable\n\treturns (bytes32)\n\t{\n\t\t// Use computation-resource to add headers to GET request - access app-only Twitter API\n\t\t// TODO: move query string to separate contract for updating (twitter constantly changing their API)\n\n\t\tstring memory query = string(abi.encodePacked(\"https://api.twitter.com/1.1/statuses/user_timeline.json?id=\", _userId, \"932596541822418944&trim_user=false&tweet_mode=extended&include_entities=false&count=1&exclude_replies=false&include_rts=false\"));\n\t\tbytes32 queryId = request(\n\t\t\t\"json(QmdKK319Veha83h6AYgQqhx9YRsJ9MJE7y33oCXyZ4MqHE).[0].full_text\",\n\t\t\t\"GET\",\n\t\t\tquery,\n\t\t\t\"{'headers': {'content-type': 'json', 'Authorization': 'Bearer AAAAAAAAAAAAAAAAAAAAADqP%2FAAAAAAAO%2BuD4C5pzXOMYBYQ9%2BcriYYkPwE%3D7OzTjWo4KxdMbPqdvJqQnMaoWMfjicSbQxyMe8WSZKFUYdOaIn'}}\"\n\t\t);\n\n\t\tuserIdsByQuery[queryId] = _userId;\n\t\temit FindTweetLodged(queryId, _userId);\n\n\t\treturn queryId;\n\t}\n\n\n    /**\n     * @dev Sends a custom content-type in header and returns the header used\n     * as result. Wrap first argument of computation ds with helper needed,\n     * such as json in this case\n     */\n    function request(\n        string memory _query,\n        string memory _method,\n        string memory _url,\n        string memory _kwargs\n    ) \n        public\n\treturns (bytes32)\n    {\n        if (oraclize_getPrice(\"computation\") > address(this).balance) {\n            emit LogNewQuery(\"Provable query NOT sent, add ETH to cover the query fee\");\n\t    revert(\"Oracle has insufficient ETH for query.\");\n\t    // Revert?\n\n        } else {\n            emit LogNewQuery(\"Provable query sent, stand-by for response\");\n            bytes32 queryId = oraclize_query(\"computation\",\n                _query,\n                _method,\n                _url,\n                _kwargs\n            );\n\n\t    return queryId;\n        }\n    }\n\n    function updateQueryString(string memory query) \n\tpublic\n    {\n    }\n\n\n    /// @notice This function returns the text of a specific Twitter post stored in this contract\n    /// @dev This function will return an empty string in the situation where the Twitter post has not been stored yet\n    /// @param _userId status ID for status text to be retrieved\n    /// @return Returns the text of the twitter post, or an empty string in the case where the post has not been stored yet\n    function getTweetText(string memory _userId)\n\tpublic\n\tview\n    returns(string memory)\n    {\n      //  bytes32 postHash = keccak256(abi.encodePacked(_postId));\n        return tweetsByUserId[_userId];\n    }\n\n    /// @notice Returns the balance of this contract\n    /// @dev This contract needs ether to be able to interact with the oracle\n    /// @return Returns the ether balance of this contract\n    function getBalance()\n    public\n    view\n    returns (uint _balance)\n    {\n        return address(this).balance;\n    }\n\n    /// @notice An internal function which checks that a particular string is not empty\n    /// @dev To be used in the Oraclize callback function to make sure the resulting text is not null\n    /// @param _s The string to check if empty/null\n    /// @return Returns false if the string is empty, and true otherwise\n    function stringNotEmpty(string memory _s)\n    internal\n    pure\n    returns(bool)\n    {\n        bytes memory tempString = bytes(_s);\n        if (tempString.length == 0) {\n            return false;\n        } else {\n            return true;\n        }\n    }\n\n\n    modifier onlyOracle {\n        require(\n            msg.sender == oraclize_cbAddress(),\n            \"The caller of this function is not the offical Oraclize Callback Address.\"\n            );\n\t_;\n    }\n\n}\n",
  "sourcePath": "/home/jack/Repositories/jgitgud/woke-dapp/@woke/contracts-src/contracts/mocks/TwitterOracleMock.sol",
  "compiler": {
    "name": "solc",
    "version": "0.5.15+commit.6a57276f.Emscripten.clang"
  },
  "schemaVersion": "3.0.20",
  "updatedAt": "2020-04-13T09:26:12.560Z",
  "networkType": "ethereum",
  "devdoc": {
    "methods": {
      "getBalance()": {
        "details": "This contract needs ether to be able to interact with the oracle",
        "return": "Returns the ether balance of this contract"
      },
      "getTweetText(string)": {
        "details": "This function will return an empty string in the situation where the Twitter post has not been stored yet",
        "params": {
          "_userId": "status ID for status text to be retrieved"
        },
        "return": "Returns the text of the twitter post, or an empty string in the case where the post has not been stored yet"
      },
      "isOwner()": {
        "details": "Returns true if the caller is the current owner."
      },
      "owner()": {
        "details": "Returns the address of the current owner."
      },
      "pause()": {
        "details": "Called by a pauser to pause, triggers stopped state."
      },
      "paused()": {
        "details": "Returns true if the contract is paused, and false otherwise."
      },
      "renounceOwnership()": {
        "details": "Leaves the contract without owner. It will not be possible to call `onlyOwner` functions anymore. Can only be called by the current owner.     * NOTE: Renouncing ownership will leave the contract without an owner, thereby removing any functionality that is only available to the owner."
      },
      "request(string,string,string,string)": {
        "details": "Sends a custom content-type in header and returns the header used as result. Wrap first argument of computation ds with helper needed, such as json in this case"
      },
      "transferOwnership(address)": {
        "details": "Transfers ownership of the contract to a new account (`newOwner`). Can only be called by the current owner."
      },
      "unpause()": {
        "details": "Called by a pauser to unpause, returns to normal state."
      }
    }
  },
  "userdoc": {
    "methods": {
      "getBalance()": {
        "notice": "Returns the balance of this contract"
      },
      "getTweetText(string)": {
        "notice": "This function returns the text of a specific Twitter post stored in this contract"
      }
    }
  }
}