{
  "contractName": "UserRegistry",
  "abi": [
    {
      "inputs": [
        {
          "internalType": "address",
          "name": "_wokeToken",
          "type": "address"
        },
        {
          "internalType": "address",
          "name": "_logNormalPdf",
          "type": "address"
        },
        {
          "internalType": "address",
          "name": "_twitterClient",
          "type": "address"
        },
        {
          "internalType": "address",
          "name": "_tippingAgent",
          "type": "address"
        },
        {
          "internalType": "uint32",
          "name": "_maxTributors",
          "type": "uint32"
        }
      ],
      "payable": true,
      "stateMutability": "payable",
      "type": "constructor"
    },
    {
      "anonymous": false,
      "inputs": [
        {
          "indexed": true,
          "internalType": "address",
          "name": "claimer",
          "type": "address"
        },
        {
          "indexed": true,
          "internalType": "address",
          "name": "referrer",
          "type": "address"
        },
        {
          "indexed": false,
          "internalType": "uint256",
          "name": "amount",
          "type": "uint256"
        }
      ],
      "name": "Bonus",
      "type": "event"
    },
    {
      "anonymous": false,
      "inputs": [
        {
          "indexed": true,
          "internalType": "address",
          "name": "account",
          "type": "address"
        },
        {
          "indexed": false,
          "internalType": "string",
          "name": "userId",
          "type": "string"
        },
        {
          "indexed": false,
          "internalType": "uint256",
          "name": "amount",
          "type": "uint256"
        },
        {
          "indexed": false,
          "internalType": "uint256",
          "name": "bonus",
          "type": "uint256"
        }
      ],
      "name": "Claimed",
      "type": "event"
    },
    {
      "anonymous": false,
      "inputs": [
        {
          "indexed": true,
          "internalType": "address",
          "name": "claimer",
          "type": "address"
        },
        {
          "indexed": false,
          "internalType": "string",
          "name": "userId",
          "type": "string"
        },
        {
          "indexed": false,
          "internalType": "bytes32",
          "name": "queryId",
          "type": "bytes32"
        }
      ],
      "name": "Lodged",
      "type": "event"
    },
    {
      "anonymous": false,
      "inputs": [
        {
          "indexed": true,
          "internalType": "address",
          "name": "previousOwner",
          "type": "address"
        },
        {
          "indexed": true,
          "internalType": "address",
          "name": "newOwner",
          "type": "address"
        }
      ],
      "name": "OwnershipTransferred",
      "type": "event"
    },
    {
      "anonymous": false,
      "inputs": [
        {
          "indexed": false,
          "internalType": "string",
          "name": "fromId",
          "type": "string"
        },
        {
          "indexed": false,
          "internalType": "string",
          "name": "toId",
          "type": "string"
        },
        {
          "indexed": false,
          "internalType": "uint256",
          "name": "amount",
          "type": "uint256"
        }
      ],
      "name": "Tip",
      "type": "event"
    },
    {
      "anonymous": false,
      "inputs": [
        {
          "indexed": true,
          "internalType": "address",
          "name": "from",
          "type": "address"
        },
        {
          "indexed": true,
          "internalType": "address",
          "name": "to",
          "type": "address"
        },
        {
          "indexed": false,
          "internalType": "string",
          "name": "fromId",
          "type": "string"
        },
        {
          "indexed": false,
          "internalType": "string",
          "name": "toId",
          "type": "string"
        },
        {
          "indexed": false,
          "internalType": "uint256",
          "name": "amount",
          "type": "uint256"
        },
        {
          "indexed": false,
          "internalType": "bool",
          "name": "claimed",
          "type": "bool"
        }
      ],
      "name": "Tx",
      "type": "event"
    },
    {
      "constant": true,
      "inputs": [],
      "name": "isOwner",
      "outputs": [
        {
          "internalType": "bool",
          "name": "",
          "type": "bool"
        }
      ],
      "payable": false,
      "stateMutability": "view",
      "type": "function"
    },
    {
      "constant": true,
      "inputs": [],
      "name": "lnpdfAddress",
      "outputs": [
        {
          "internalType": "address",
          "name": "",
          "type": "address"
        }
      ],
      "payable": false,
      "stateMutability": "view",
      "type": "function"
    },
    {
      "constant": true,
      "inputs": [],
      "name": "maxTributors",
      "outputs": [
        {
          "internalType": "uint32",
          "name": "",
          "type": "uint32"
        }
      ],
      "payable": false,
      "stateMutability": "view",
      "type": "function"
    },
    {
      "constant": true,
      "inputs": [],
      "name": "noTributePool",
      "outputs": [
        {
          "internalType": "uint256",
          "name": "",
          "type": "uint256"
        }
      ],
      "payable": false,
      "stateMutability": "view",
      "type": "function"
    },
    {
      "constant": true,
      "inputs": [],
      "name": "owner",
      "outputs": [
        {
          "internalType": "address",
          "name": "",
          "type": "address"
        }
      ],
      "payable": false,
      "stateMutability": "view",
      "type": "function"
    },
    {
      "constant": false,
      "inputs": [],
      "name": "renounceOwnership",
      "outputs": [],
      "payable": false,
      "stateMutability": "nonpayable",
      "type": "function"
    },
    {
      "constant": true,
      "inputs": [],
      "name": "tippingAgent",
      "outputs": [
        {
          "internalType": "address",
          "name": "",
          "type": "address"
        }
      ],
      "payable": false,
      "stateMutability": "view",
      "type": "function"
    },
    {
      "constant": false,
      "inputs": [
        {
          "internalType": "address",
          "name": "newOwner",
          "type": "address"
        }
      ],
      "name": "transferOwnership",
      "outputs": [],
      "payable": false,
      "stateMutability": "nonpayable",
      "type": "function"
    },
    {
      "constant": true,
      "inputs": [],
      "name": "twitterClient",
      "outputs": [
        {
          "internalType": "address",
          "name": "",
          "type": "address"
        }
      ],
      "payable": false,
      "stateMutability": "view",
      "type": "function"
    },
    {
      "constant": true,
      "inputs": [],
      "name": "userCount",
      "outputs": [
        {
          "internalType": "uint256",
          "name": "",
          "type": "uint256"
        }
      ],
      "payable": false,
      "stateMutability": "view",
      "type": "function"
    },
    {
      "constant": true,
      "inputs": [],
      "name": "wokeTokenAddress",
      "outputs": [
        {
          "internalType": "address",
          "name": "",
          "type": "address"
        }
      ],
      "payable": false,
      "stateMutability": "view",
      "type": "function"
    },
    {
      "constant": false,
      "inputs": [
        {
          "internalType": "string",
          "name": "_userId",
          "type": "string"
        }
      ],
      "name": "claimUser",
      "outputs": [
        {
          "internalType": "bytes32",
          "name": "",
          "type": "bytes32"
        }
      ],
      "payable": true,
      "stateMutability": "payable",
      "type": "function"
    },
    {
      "constant": true,
      "inputs": [
        {
          "internalType": "address",
          "name": "claimer",
          "type": "address"
        },
        {
          "internalType": "string",
          "name": "_id",
          "type": "string"
        },
        {
          "internalType": "string",
          "name": "_claimString",
          "type": "string"
        }
      ],
      "name": "verifyClaimString",
      "outputs": [
        {
          "internalType": "bool",
          "name": "",
          "type": "bool"
        },
        {
          "internalType": "uint32",
          "name": "",
          "type": "uint32"
        }
      ],
      "payable": false,
      "stateMutability": "pure",
      "type": "function"
    },
    {
      "constant": false,
      "inputs": [
        {
          "internalType": "string",
          "name": "_id",
          "type": "string"
        }
      ],
      "name": "_fulfillClaim",
      "outputs": [],
      "payable": false,
      "stateMutability": "nonpayable",
      "type": "function"
    },
    {
      "constant": false,
      "inputs": [
        {
          "internalType": "string",
          "name": "_toId",
          "type": "string"
        },
        {
          "internalType": "uint256",
          "name": "_amount",
          "type": "uint256"
        }
      ],
      "name": "transferClaimed",
      "outputs": [],
      "payable": false,
      "stateMutability": "nonpayable",
      "type": "function"
    },
    {
      "constant": false,
      "inputs": [
        {
          "internalType": "string",
          "name": "_toId",
          "type": "string"
        },
        {
          "internalType": "uint256",
          "name": "_amount",
          "type": "uint256"
        }
      ],
      "name": "transferUnclaimed",
      "outputs": [],
      "payable": false,
      "stateMutability": "nonpayable",
      "type": "function"
    },
    {
      "constant": false,
      "inputs": [
        {
          "internalType": "string",
          "name": "_fromId",
          "type": "string"
        },
        {
          "internalType": "string",
          "name": "_toId",
          "type": "string"
        },
        {
          "internalType": "uint256",
          "name": "_amount",
          "type": "uint256"
        }
      ],
      "name": "tip",
      "outputs": [
        {
          "internalType": "uint256",
          "name": "",
          "type": "uint256"
        }
      ],
      "payable": false,
      "stateMutability": "nonpayable",
      "type": "function"
    },
    {
      "constant": false,
      "inputs": [
        {
          "internalType": "uint256",
          "name": "_amount",
          "type": "uint256"
        }
      ],
      "name": "setTipBalance",
      "outputs": [],
      "payable": false,
      "stateMutability": "nonpayable",
      "type": "function"
    },
    {
      "constant": true,
      "inputs": [
        {
          "internalType": "string",
          "name": "_userId",
          "type": "string"
        }
      ],
      "name": "getTipBalance",
      "outputs": [
        {
          "internalType": "uint256",
          "name": "",
          "type": "uint256"
        }
      ],
      "payable": false,
      "stateMutability": "view",
      "type": "function"
    },
    {
      "constant": false,
      "inputs": [
        {
          "internalType": "uint32",
          "name": "_maxTributors",
          "type": "uint32"
        }
      ],
      "name": "setMaxTributors",
      "outputs": [],
      "payable": false,
      "stateMutability": "nonpayable",
      "type": "function"
    },
    {
      "constant": true,
      "inputs": [
        {
          "internalType": "address",
          "name": "_account",
          "type": "address"
        }
      ],
      "name": "getUser",
      "outputs": [
        {
          "internalType": "string",
          "name": "",
          "type": "string"
        }
      ],
      "payable": false,
      "stateMutability": "view",
      "type": "function"
    },
    {
      "constant": true,
      "inputs": [
        {
          "internalType": "string",
          "name": "_userId",
          "type": "string"
        }
      ],
      "name": "getAccount",
      "outputs": [
        {
          "internalType": "address",
          "name": "",
          "type": "address"
        }
      ],
      "payable": false,
      "stateMutability": "view",
      "type": "function"
    },
    {
      "constant": true,
      "inputs": [],
      "name": "myUser",
      "outputs": [
        {
          "internalType": "string",
          "name": "",
          "type": "string"
        }
      ],
      "payable": false,
      "stateMutability": "view",
      "type": "function"
    },
    {
      "constant": true,
      "inputs": [
        {
          "internalType": "string",
          "name": "_userId",
          "type": "string"
        }
      ],
      "name": "unclaimedBalanceOf",
      "outputs": [
        {
          "internalType": "uint256",
          "name": "",
          "type": "uint256"
        }
      ],
      "payable": false,
      "stateMutability": "view",
      "type": "function"
    },
    {
      "constant": true,
      "inputs": [
        {
          "internalType": "string",
          "name": "_userId",
          "type": "string"
        }
      ],
      "name": "balanceOf",
      "outputs": [
        {
          "internalType": "uint256",
          "name": "",
          "type": "uint256"
        }
      ],
      "payable": false,
      "stateMutability": "view",
      "type": "function"
    },
    {
      "constant": true,
      "inputs": [
        {
          "internalType": "string",
          "name": "_userId",
          "type": "string"
        }
      ],
      "name": "userClaimed",
      "outputs": [
        {
          "internalType": "bool",
          "name": "",
          "type": "bool"
        }
      ],
      "payable": false,
      "stateMutability": "view",
      "type": "function"
    },
    {
      "constant": true,
      "inputs": [
        {
          "internalType": "string",
          "name": "_userId",
          "type": "string"
        }
      ],
      "name": "requestLodged",
      "outputs": [
        {
          "internalType": "bool",
          "name": "",
          "type": "bool"
        }
      ],
      "payable": false,
      "stateMutability": "view",
      "type": "function"
    }
  ],
  "bytecode": "0x60806040526001600060146101000a81548160ff0219169083151502179055506040516200612738038062006127833981810160405260a08110156200004457600080fd5b8101908080519060200190929190805190602001909291908051906020019092919080519060200190929190805190602001909291905050506200008d6200033e60201b60201c565b6000806101000a81548173ffffffffffffffffffffffffffffffffffffffff021916908373ffffffffffffffffffffffffffffffffffffffff1602179055506000809054906101000a900473ffffffffffffffffffffffffffffffffffffffff1673ffffffffffffffffffffffffffffffffffffffff16600073ffffffffffffffffffffffffffffffffffffffff167f8be0079c531659141344cd1fd0a4f28419497f9722a3daafe3b4186f6b6457e060405160405180910390a380600b60006101000a81548163ffffffff021916908363ffffffff16021790555082600460006101000a81548173ffffffffffffffffffffffffffffffffffffffff021916908373ffffffffffffffffffffffffffffffffffffffff16021790555081600360006101000a81548173ffffffffffffffffffffffffffffffffffffffff021916908373ffffffffffffffffffffffffffffffffffffffff16021790555084600160006101000a81548173ffffffffffffffffffffffffffffffffffffffff021916908373ffffffffffffffffffffffffffffffffffffffff16021790555083600260006101000a81548173ffffffffffffffffffffffffffffffffffffffff021916908373ffffffffffffffffffffffffffffffffffffffff160217905550600160009054906101000a900473ffffffffffffffffffffffffffffffffffffffff16600560006101000a81548173ffffffffffffffffffffffffffffffffffffffff021916908373ffffffffffffffffffffffffffffffffffffffff160217905550600260009054906101000a900473ffffffffffffffffffffffffffffffffffffffff16600660006101000a81548173ffffffffffffffffffffffffffffffffffffffff021916908373ffffffffffffffffffffffffffffffffffffffff160217905550505050505062000346565b600033905090565b615dd180620003566000396000f3fe60806040526004361061019c5760003560e01c80638da5cb5b116100ec578063d36eb9461161008a578063f2fde38b11610064578063f2fde38b14610d40578063f71d6b2814610d91578063f920d55614610e17578063fd61741d14610fc15761019c565b8063d36eb94614610c02578063d5d1de2614610c59578063da46e04114610ce95761019c565b806399f2c2e5116100c657806399f2c2e5146109ce578063c1b9ab0b14610a05578063cefabc4014610ae5578063d211f70514610b725761019c565b80638da5cb5b146108b85780638f32d59b1461090f578063961ad6201461093e5761019c565b80634518f6b31161015957806370e46c901161013357806370e46c901461064b578063715018a61461072757806383ed7ffa1461073e57806388ad1df31461081a5761019c565b80634518f6b31461046457806357d67c4e1461052a5780636f77926b146105815761019c565b806307973ccf146101a157806319a17900146101cc57806320cebbf61461020d5780632e21c12c1461030657806335ee5f8714610331578063383df7521461040d575b600080fd5b3480156101ad57600080fd5b506101b6610ffc565b6040518082815260200191505060405180910390f35b3480156101d857600080fd5b5061020b600480360360208110156101ef57600080fd5b81019080803563ffffffff169060200190929190505050611002565b005b34801561021957600080fd5b506102f06004803603606081101561023057600080fd5b810190808035906020019064010000000081111561024d57600080fd5b82018360208201111561025f57600080fd5b8035906020019184600183028401116401000000008311171561028157600080fd5b9091929391929390803590602001906401000000008111156102a257600080fd5b8201836020820111156102b457600080fd5b803590602001918460018302840111640100000000831117156102d657600080fd5b9091929391929390803590602001909291905050506110a0565b6040518082815260200191505060405180910390f35b34801561031257600080fd5b5061031b6114ae565b6040518082815260200191505060405180910390f35b34801561033d57600080fd5b506103f76004803603602081101561035457600080fd5b810190808035906020019064010000000081111561037157600080fd5b82018360208201111561038357600080fd5b803590602001918460018302840111640100000000831117156103a557600080fd5b91908080601f016020809104026020016040519081016040528093929190818152602001838380828437600081840152601f19601f8201169050808301925050505050505091929192905050506114b4565b6040518082815260200191505060405180910390f35b34801561041957600080fd5b50610422611623565b604051808273ffffffffffffffffffffffffffffffffffffffff1673ffffffffffffffffffffffffffffffffffffffff16815260200191505060405180910390f35b34801561047057600080fd5b506104e86004803603602081101561048757600080fd5b81019080803590602001906401000000008111156104a457600080fd5b8201836020820111156104b657600080fd5b803590602001918460018302840111640100000000831117156104d857600080fd5b9091929391929390505050611649565b604051808273ffffffffffffffffffffffffffffffffffffffff1673ffffffffffffffffffffffffffffffffffffffff16815260200191505060405180910390f35b34801561053657600080fd5b5061053f61169e565b604051808273ffffffffffffffffffffffffffffffffffffffff1673ffffffffffffffffffffffffffffffffffffffff16815260200191505060405180910390f35b34801561058d57600080fd5b506105d0600480360360208110156105a457600080fd5b81019080803573ffffffffffffffffffffffffffffffffffffffff1690602001909291905050506116c4565b6040518080602001828103825283818151815260200191508051906020019080838360005b838110156106105780820151818401526020810190506105f5565b50505050905090810190601f16801561063d5780820380516001836020036101000a031916815260200191505b509250505060405180910390f35b34801561065757600080fd5b506107116004803603602081101561066e57600080fd5b810190808035906020019064010000000081111561068b57600080fd5b82018360208201111561069d57600080fd5b803590602001918460018302840111640100000000831117156106bf57600080fd5b91908080601f016020809104026020016040519081016040528093929190818152602001838380828437600081840152601f19601f8201169050808301925050505050505091929192905050506117a5565b6040518082815260200191505060405180910390f35b34801561073357600080fd5b5061073c61181b565b005b34801561074a57600080fd5b506108046004803603602081101561076157600080fd5b810190808035906020019064010000000081111561077e57600080fd5b82018360208201111561079057600080fd5b803590602001918460018302840111640100000000831117156107b257600080fd5b91908080601f016020809104026020016040519081016040528093929190818152602001838380828437600081840152601f19601f820116905080830192505050505050509192919290505050611954565b6040518082815260200191505060405180910390f35b34801561082657600080fd5b5061089e6004803603602081101561083d57600080fd5b810190808035906020019064010000000081111561085a57600080fd5b82018360208201111561086c57600080fd5b8035906020019184600183028401116401000000008311171561088e57600080fd5b90919293919293905050506119ca565b604051808215151515815260200191505060405180910390f35b3480156108c457600080fd5b506108cd611a5b565b604051808273ffffffffffffffffffffffffffffffffffffffff1673ffffffffffffffffffffffffffffffffffffffff16815260200191505060405180910390f35b34801561091b57600080fd5b50610924611a84565b604051808215151515815260200191505060405180910390f35b34801561094a57600080fd5b506109cc6004803603604081101561096157600080fd5b810190808035906020019064010000000081111561097e57600080fd5b82018360208201111561099057600080fd5b803590602001918460018302840111640100000000831117156109b257600080fd5b909192939192939080359060200190929190505050611ae2565b005b3480156109da57600080fd5b506109e361206d565b604051808263ffffffff1663ffffffff16815260200191505060405180910390f35b348015610a1157600080fd5b50610acb60048036036020811015610a2857600080fd5b8101908080359060200190640100000000811115610a4557600080fd5b820183602082011115610a5757600080fd5b80359060200191846001830284011164010000000083111715610a7957600080fd5b91908080601f016020809104026020016040519081016040528093929190818152602001838380828437600081840152601f19601f820116905080830192505050505050509192919290505050612083565b604051808215151515815260200191505060405180910390f35b610b5c60048036036020811015610afb57600080fd5b8101908080359060200190640100000000811115610b1857600080fd5b820183602082011115610b2a57600080fd5b80359060200191846001830284011164010000000083111715610b4c57600080fd5b9091929391929390505050612158565b6040518082815260200191505060405180910390f35b348015610b7e57600080fd5b50610c0060048036036040811015610b9557600080fd5b8101908080359060200190640100000000811115610bb257600080fd5b820183602082011115610bc457600080fd5b80359060200191846001830284011164010000000083111715610be657600080fd5b90919293919293908035906020019092919050505061240a565b005b348015610c0e57600080fd5b50610c1761246d565b604051808273ffffffffffffffffffffffffffffffffffffffff1673ffffffffffffffffffffffffffffffffffffffff16815260200191505060405180910390f35b348015610c6557600080fd5b50610c6e612493565b6040518080602001828103825283818151815260200191508051906020019080838360005b83811015610cae578082015181840152602081019050610c93565b50505050905090810190601f168015610cdb5780820380516001836020036101000a031916815260200191505b509250505060405180910390f35b348015610cf557600080fd5b50610cfe612572565b604051808273ffffffffffffffffffffffffffffffffffffffff1673ffffffffffffffffffffffffffffffffffffffff16815260200191505060405180910390f35b348015610d4c57600080fd5b50610d8f60048036036020811015610d6357600080fd5b81019080803573ffffffffffffffffffffffffffffffffffffffff169060200190929190505050612598565b005b348015610d9d57600080fd5b50610e1560048036036020811015610db457600080fd5b8101908080359060200190640100000000811115610dd157600080fd5b820183602082011115610de357600080fd5b80359060200191846001830284011164010000000083111715610e0557600080fd5b909192939192939050505061261e565b005b348015610e2357600080fd5b50610f9460048036036060811015610e3a57600080fd5b81019080803573ffffffffffffffffffffffffffffffffffffffff16906020019092919080359060200190640100000000811115610e7757600080fd5b820183602082011115610e8957600080fd5b80359060200191846001830284011164010000000083111715610eab57600080fd5b91908080601f016020809104026020016040519081016040528093929190818152602001838380828437600081840152601f19601f82011690508083019250505050505050919291929080359060200190640100000000811115610f0e57600080fd5b820183602082011115610f2057600080fd5b80359060200191846001830284011164010000000083111715610f4257600080fd5b91908080601f016020809104026020016040519081016040528093929190818152602001838380828437600081840152601f19601f8201169050808301925050505050505091929192905050506130db565b60405180831515151581526020018263ffffffff1663ffffffff1681526020019250505060405180910390f35b348015610fcd57600080fd5b50610ffa60048036036020811015610fe457600080fd5b81019080803590602001909291905050506132d3565b005b60075481565b61100a611a84565b61107c576040517f08c379a00000000000000000000000000000000000000000000000000000000081526004018080602001828103825260208152602001807f4f776e61626c653a2063616c6c6572206973206e6f7420746865206f776e657281525060200191505060405180910390fd5b80600b60006101000a81548163ffffffff021916908363ffffffff16021790555050565b60006110aa6132ef565b85858080601f016020809104026020016040519081016040528093929190818152602001838380828437600081840152601f19601f820116905080830192505050505050506110f8816133b4565b600060088888604051808383808284378083019250505092505050908152602001604051809103902060020154905060008185116111365784611138565b815b9050600081116111b0576040517f08c379a00000000000000000000000000000000000000000000000000000000081526004018080602001828103825260138152602001807f63616e6e6f7420746970203020746f6b656e730000000000000000000000000081525060200191505060405180910390fd5b6111fd87878080601f016020809104026020016040519081016040528093929190818152602001838380828437600081840152601f19601f82011690508083019250505050505050612083565b1561129a5761129589898080601f016020809104026020016040519081016040528093929190818152602001838380828437600081840152601f19601f8201169050808301925050505050505088888080601f016020809104026020016040519081016040528093929190818152602001838380828437600081840152601f19601f8201169050808301925050505050505083613439565b61132e565b61132d89898080601f016020809104026020016040519081016040528093929190818152602001838380828437600081840152601f19601f8201169050808301925050505050505088888080601f016020809104026020016040519081016040528093929190818152602001838380828437600081840152601f19601f8201169050808301925050505050505083613925565b5b80820360088a8a6040518083838082843780830192505050925050509081526020016040518091039020600201819055506008898960405180838380828437808301925050509250505090815260200160405180910390206002015481830314611400576040517f08c379a000000000000000000000000000000000000000000000000000000000815260040180806020018281038252601e8152602001807f7469702062616c616e636520696e76617269616e742076696f6c61746564000081525060200191505060405180910390fd5b7fc58663f31c3549520494f7c83d9787b7bf8bb4878e12f0bf3ce44e272626a0bd89898989856040518080602001806020018481526020018381038352888882818152602001925080828437600081840152601f19601f8201169050808301925050508381038252868682818152602001925080828437600081840152601f19601f82011690508083019250505097505050505050505060405180910390a180935050505095945050505050565b600f5481565b6000600560009054906101000a900473ffffffffffffffffffffffffffffffffffffffff1673ffffffffffffffffffffffffffffffffffffffff166370a082316008846040518082805190602001908083835b6020831061152a5780518252602082019150602081019050602083039250611507565b6001836020036101000a038019825116818451168082178552505050505050905001915050908152602001604051809103902060000160009054906101000a900473ffffffffffffffffffffffffffffffffffffffff166040518263ffffffff1660e01b8152600401808273ffffffffffffffffffffffffffffffffffffffff1673ffffffffffffffffffffffffffffffffffffffff16815260200191505060206040518083038186803b1580156115e157600080fd5b505afa1580156115f5573d6000803e3d6000fd5b505050506040513d602081101561160b57600080fd5b81019080805190602001909291905050509050919050565b600360009054906101000a900473ffffffffffffffffffffffffffffffffffffffff1681565b600060088383604051808383808284378083019250505092505050908152602001604051809103902060000160009054906101000a900473ffffffffffffffffffffffffffffffffffffffff16905092915050565b600160009054906101000a900473ffffffffffffffffffffffffffffffffffffffff1681565b6060600960008373ffffffffffffffffffffffffffffffffffffffff1673ffffffffffffffffffffffffffffffffffffffff1681526020019081526020016000208054600181600116156101000203166002900480601f0160208091040260200160405190810160405280929190818152602001828054600181600116156101000203166002900480156117995780601f1061176e57610100808354040283529160200191611799565b820191906000526020600020905b81548152906001019060200180831161177c57829003601f168201915b50505050509050919050565b60006008826040518082805190602001908083835b602083106117dd57805182526020820191506020810190506020830392506117ba565b6001836020036101000a0380198251168184511680821785525050505050509050019150509081526020016040518091039020600201549050919050565b611823611a84565b611895576040517f08c379a00000000000000000000000000000000000000000000000000000000081526004018080602001828103825260208152602001807f4f776e61626c653a2063616c6c6572206973206e6f7420746865206f776e657281525060200191505060405180910390fd5b600073ffffffffffffffffffffffffffffffffffffffff166000809054906101000a900473ffffffffffffffffffffffffffffffffffffffff1673ffffffffffffffffffffffffffffffffffffffff167f8be0079c531659141344cd1fd0a4f28419497f9722a3daafe3b4186f6b6457e060405160405180910390a360008060006101000a81548173ffffffffffffffffffffffffffffffffffffffff021916908373ffffffffffffffffffffffffffffffffffffffff160217905550565b60006008826040518082805190602001908083835b6020831061198c5780518252602082019150602081019050602083039250611969565b6001836020036101000a0380198251168184511680821785525050505050509050019150509081526020016040518091039020600101549050919050565b60003373ffffffffffffffffffffffffffffffffffffffff16600a8484604051808383808284378083019250505092505050908152602001604051809103902060009054906101000a900473ffffffffffffffffffffffffffffffffffffffff1673ffffffffffffffffffffffffffffffffffffffff161415611a505760019050611a55565b600090505b92915050565b60008060009054906101000a900473ffffffffffffffffffffffffffffffffffffffff16905090565b60008060009054906101000a900473ffffffffffffffffffffffffffffffffffffffff1673ffffffffffffffffffffffffffffffffffffffff16611ac66146c2565b73ffffffffffffffffffffffffffffffffffffffff1614905090565b611aea6146ca565b82828080601f016020809104026020016040519081016040528093929190818152602001838380828437600081840152601f19601f82011690508083019250505050505050611b38816133b4565b6000600560009054906101000a900473ffffffffffffffffffffffffffffffffffffffff1673ffffffffffffffffffffffffffffffffffffffff166318160ddd6040518163ffffffff1660e01b815260040160206040518083038186803b158015611ba257600080fd5b505afa158015611bb6573d6000803e3d6000fd5b505050506040513d6020811015611bcc57600080fd5b81019080805190602001909291905050509050600560009054906101000a900473ffffffffffffffffffffffffffffffffffffffff1673ffffffffffffffffffffffffffffffffffffffff166359e026f73360088888604051808383808284378083019250505092505050908152602001604051809103902060000160009054906101000a900473ffffffffffffffffffffffffffffffffffffffff16866040518463ffffffff1660e01b8152600401808473ffffffffffffffffffffffffffffffffffffffff1673ffffffffffffffffffffffffffffffffffffffff1681526020018373ffffffffffffffffffffffffffffffffffffffff1673ffffffffffffffffffffffffffffffffffffffff1681526020018281526020019350505050600060405180830381600087803b158015611d0657600080fd5b505af1158015611d1a573d6000803e3d6000fd5b50505050600060149054906101000a900460ff1615611ea557611ea485858080601f016020809104026020016040519081016040528093929190818152602001838380828437600081840152601f19601f82011690508083019250505050505050600560009054906101000a900473ffffffffffffffffffffffffffffffffffffffff1673ffffffffffffffffffffffffffffffffffffffff166370a0823160088989604051808383808284378083019250505092505050908152602001604051809103902060000160009054906101000a900473ffffffffffffffffffffffffffffffffffffffff166040518263ffffffff1660e01b8152600401808273ffffffffffffffffffffffffffffffffffffffff1673ffffffffffffffffffffffffffffffffffffffff16815260200191505060206040518083038186803b158015611e6457600080fd5b505afa158015611e78573d6000803e3d6000fd5b505050506040513d6020811015611e8e57600080fd5b8101908080519060200190929190505050614820565b5b60088585604051808383808284378083019250505092505050908152602001604051809103902060000160009054906101000a900473ffffffffffffffffffffffffffffffffffffffff1673ffffffffffffffffffffffffffffffffffffffff163373ffffffffffffffffffffffffffffffffffffffff167f299eb6f534c4f090c37218944eb2f615b31d9da18a8ecb624f7b76134f71784d600960003373ffffffffffffffffffffffffffffffffffffffff1673ffffffffffffffffffffffffffffffffffffffff16815260200190815260200160002088888860016040518080602001806020018581526020018415151515815260200183810383528881815460018160011615610100020316600290048152602001915080546001816001161561010002031660029004801561201f5780601f10611ff45761010080835404028352916020019161201f565b820191906000526020600020905b81548152906001019060200180831161200257829003601f168201915b50508381038252878782818152602001925080828437600081840152601f19601f82011690508083019250505097505050505050505060405180910390a361206681614b6d565b5050505050565b600b60009054906101000a900463ffffffff1681565b60008073ffffffffffffffffffffffffffffffffffffffff166008836040518082805190602001908083835b602083106120d257805182526020820191506020810190506020830392506120af565b6001836020036101000a038019825116818451168082178552505050505050905001915050908152602001604051809103902060000160009054906101000a900473ffffffffffffffffffffffffffffffffffffffff1673ffffffffffffffffffffffffffffffffffffffff16141561214e5760009050612153565b600190505b919050565b6000612162614c87565b82828080601f016020809104026020016040519081016040528093929190818152602001838380828437600081840152601f19601f820116905080830192505050505050506121b081614ddd565b6121b8614e62565b33600a8585604051808383808284378083019250505092505050908152602001604051809103902060006101000a81548173ffffffffffffffffffffffffffffffffffffffff021916908373ffffffffffffffffffffffffffffffffffffffff1602179055506000600460009054906101000a900473ffffffffffffffffffffffffffffffffffffffff16905060008173ffffffffffffffffffffffffffffffffffffffff1663172ac12d87876040518363ffffffff1660e01b815260040180806020018281038252848482818152602001925080828437600081840152601f19601f8201169050808301925050509350505050602060405180830381600087803b1580156122c657600080fd5b505af11580156122da573d6000803e3d6000fd5b505050506040513d60208110156122f057600080fd5b810190808051906020019092919050505090506000801b81141561237c576040517f08c379a000000000000000000000000000000000000000000000000000000000815260040180806020018281038252600f8152602001807f71756572794964206973207a65726f000000000000000000000000000000000081525060200191505060405180910390fd5b3373ffffffffffffffffffffffffffffffffffffffff167fb0d414ea5b38d8b64668bffef05f15ced84395b44b3be0c8bb3deceeb5626e0e87878460405180806020018381526020018281038252858582818152602001925080828437600081840152601f19601f82011690508083019250505094505050505060405180910390a280935050505092915050565b6124126146ca565b61246861241d612493565b84848080601f016020809104026020016040519081016040528093929190818152602001838380828437600081840152601f19601f8201169050808301925050505050505083613925565b505050565b600260009054906101000a900473ffffffffffffffffffffffffffffffffffffffff1681565b6060600960003373ffffffffffffffffffffffffffffffffffffffff1673ffffffffffffffffffffffffffffffffffffffff1681526020019081526020016000208054600181600116156101000203166002900480601f0160208091040260200160405190810160405280929190818152602001828054600181600116156101000203166002900480156125685780601f1061253d57610100808354040283529160200191612568565b820191906000526020600020905b81548152906001019060200180831161254b57829003601f168201915b5050505050905090565b600460009054906101000a900473ffffffffffffffffffffffffffffffffffffffff1681565b6125a0611a84565b612612576040517f08c379a00000000000000000000000000000000000000000000000000000000081526004018080602001828103825260208152602001807f4f776e61626c653a2063616c6c6572206973206e6f7420746865206f776e657281525060200191505060405180910390fd5b61261b81614f65565b50565b81818080601f016020809104026020016040519081016040528093929190818152602001838380828437600081840152601f19601f8201169050808301925050505050505061266c81614ddd565b600a8383604051808383808284378083019250505092505050908152602001604051809103902060009054906101000a900473ffffffffffffffffffffffffffffffffffffffff1660011515601060008373ffffffffffffffffffffffffffffffffffffffff1673ffffffffffffffffffffffffffffffffffffffff16815260200190815260200160002060009054906101000a900460ff1615151461277a576040517f08c379a000000000000000000000000000000000000000000000000000000000815260040180806020018281038252601d8152602001807f73656e64657220686173206e6f20726571756573742070656e64696e6700000081525060200191505060405180910390fd5b6000600460009054906101000a900473ffffffffffffffffffffffffffffffffffffffff16905060608173ffffffffffffffffffffffffffffffffffffffff1663cf2e291487876040518363ffffffff1660e01b815260040180806020018281038252848482818152602001925080828437600081840152601f19601f820116905080830192505050935050505060006040518083038186803b15801561282057600080fd5b505afa158015612834573d6000803e3d6000fd5b505050506040513d6000823e3d601f19601f82011682018060405250602081101561285e57600080fd5b810190808051604051939291908464010000000082111561287e57600080fd5b8382019150602082018581111561289457600080fd5b82518660018202830111640100000000821117156128b157600080fd5b8083526020830192505050908051906020019080838360005b838110156128e55780820151818401526020810190506128ca565b50505050905090810190601f1680156129125780820380516001836020036101000a031916815260200191505b5060405250505090506000815111612992576040517f08c379a00000000000000000000000000000000000000000000000000000000081526004018080602001828103825260178152602001807f636c61696d20737472696e67206e6f742073746f72656400000000000000000081525060200191505060405180910390fd5b600080612a2b600a8989604051808383808284378083019250505092505050908152602001604051809103902060009054906101000a900473ffffffffffffffffffffffffffffffffffffffff1689898080601f016020809104026020016040519081016040528093929190818152602001838380828437600081840152601f19601f82011690508083019250505050505050856130db565b9150915081612aa2576040517f08c379a00000000000000000000000000000000000000000000000000000000081526004018080602001828103825260148152602001807f696e76616c696420636c61696d20737472696e6700000000000000000000000081525060200191505060405180910390fd5b878760096000600a8c8c604051808383808284378083019250505092505050908152602001604051809103902060009054906101000a900473ffffffffffffffffffffffffffffffffffffffff1673ffffffffffffffffffffffffffffffffffffffff1673ffffffffffffffffffffffffffffffffffffffff1681526020019081526020016000209190612b37929190615cad565b50600a8888604051808383808284378083019250505092505050908152602001604051809103902060009054906101000a900473ffffffffffffffffffffffffffffffffffffffff1660088989604051808383808284378083019250505092505050908152602001604051809103902060000160006101000a81548173ffffffffffffffffffffffffffffffffffffffff021916908373ffffffffffffffffffffffffffffffffffffffff1602179055508060088989604051808383808284378083019250505092505050908152602001604051809103902060000160146101000a81548163ffffffff021916908363ffffffff16021790555060016007600082825401925050819055506000612c9189898080601f016020809104026020016040519081016040528093929190818152602001838380828437600081840152601f19601f820116905080830192505050505050506150a9565b905060088989604051808383808284378083019250505092505050908152602001604051809103902060000160009054906101000a900473ffffffffffffffffffffffffffffffffffffffff1673ffffffffffffffffffffffffffffffffffffffff167f5b45ef85abce1209df7bad74d032adc3ecffef94a35b4e45715744ee333986cd8a8a600560009054906101000a900473ffffffffffffffffffffffffffffffffffffffff1673ffffffffffffffffffffffffffffffffffffffff166370a0823160088f8f604051808383808284378083019250505092505050908152602001604051809103902060000160009054906101000a900473ffffffffffffffffffffffffffffffffffffffff166040518263ffffffff1660e01b8152600401808273ffffffffffffffffffffffffffffffffffffffff1673ffffffffffffffffffffffffffffffffffffffff16815260200191505060206040518083038186803b158015612e0057600080fd5b505afa158015612e14573d6000803e3d6000fd5b505050506040513d6020811015612e2a57600080fd5b81019080805190602001909291905050508560405180806020018481526020018381526020018281038252868682818152602001925080828437600081840152601f19601f8201169050808301925050509550505050505060405180910390a2600060149054906101000a900460ff16156130115761301089898080601f016020809104026020016040519081016040528093929190818152602001838380828437600081840152601f19601f82011690508083019250505050505050600560009054906101000a900473ffffffffffffffffffffffffffffffffffffffff1673ffffffffffffffffffffffffffffffffffffffff166370a0823160088d8d604051808383808284378083019250505092505050908152602001604051809103902060000160009054906101000a900473ffffffffffffffffffffffffffffffffffffffff166040518263ffffffff1660e01b8152600401808273ffffffffffffffffffffffffffffffffffffffff1673ffffffffffffffffffffffffffffffffffffffff16815260200191505060206040518083038186803b158015612fd057600080fd5b505afa158015612fe4573d6000803e3d6000fd5b505050506040513d6020811015612ffa57600080fd5b8101908080519060200190929190505050614820565b5b6000600a8a8a604051808383808284378083019250505092505050908152602001604051809103902060006101000a81548173ffffffffffffffffffffffffffffffffffffffff021916908373ffffffffffffffffffffffffffffffffffffffff16021790555050505050506000601060008373ffffffffffffffffffffffffffffffffffffffff1673ffffffffffffffffffffffffffffffffffffffff16815260200190815260200160002060006101000a81548160ff02191690831515021790555050505050565b60008073__Helpers_______________________________63cfce664d868686600a60f81b6040518563ffffffff1660e01b8152600401808573ffffffffffffffffffffffffffffffffffffffff1673ffffffffffffffffffffffffffffffffffffffff1681526020018060200180602001847effffffffffffffffffffffffffffffffffffffffffffffffffffffffffffff19167effffffffffffffffffffffffffffffffffffffffffffffffffffffffffffff19168152602001838103835286818151815260200191508051906020019080838360005b838110156131cf5780820151818401526020810190506131b4565b50505050905090810190601f1680156131fc5780820380516001836020036101000a031916815260200191505b50838103825285818151815260200191508051906020019080838360005b8381101561323557808201518184015260208101905061321a565b50505050905090810190601f1680156132625780820380516001836020036101000a031916815260200191505b509650505050505050604080518083038186803b15801561328257600080fd5b505af4158015613296573d6000803e3d6000fd5b505050506040513d60408110156132ac57600080fd5b81019080805190602001909291908051906020019092919050505091509150935093915050565b6132db6146ca565b6132ec6132e6612493565b82614820565b50565b600360009054906101000a900473ffffffffffffffffffffffffffffffffffffffff1673ffffffffffffffffffffffffffffffffffffffff163373ffffffffffffffffffffffffffffffffffffffff16146133b2576040517f08c379a00000000000000000000000000000000000000000000000000000000081526004018080602001828103825260148152602001807f73656e646572206e6f7420746970206167656e7400000000000000000000000081525060200191505060405180910390fd5b565b600115156133c182612083565b151514613436576040517f08c379a00000000000000000000000000000000000000000000000000000000081526004018080602001828103825260108152602001807f75736572206e6f7420636c61696d65640000000000000000000000000000000081525060200191505060405180910390fd5b50565b6134416132ef565b8161344b816133b4565b600082116134c1576040517f08c379a00000000000000000000000000000000000000000000000000000000081526004018080602001828103825260148152602001807f63616e6e6f742073656e64203020746f6b656e7300000000000000000000000081525060200191505060405180910390fd5b60006008856040518082805190602001908083835b602083106134f957805182526020820191506020810190506020830392506134d6565b6001836020036101000a038019825116818451168082178552505050505050905001915050908152602001604051809103902060000160009054906101000a900473ffffffffffffffffffffffffffffffffffffffff16905060006008856040518082805190602001908083835b6020831061358a5780518252602082019150602081019050602083039250613567565b6001836020036101000a038019825116818451168082178552505050505050905001915050908152602001604051809103902060000160009054906101000a900473ffffffffffffffffffffffffffffffffffffffff169050600560009054906101000a900473ffffffffffffffffffffffffffffffffffffffff1673ffffffffffffffffffffffffffffffffffffffff166359e026f78383876040518463ffffffff1660e01b8152600401808473ffffffffffffffffffffffffffffffffffffffff1673ffffffffffffffffffffffffffffffffffffffff1681526020018373ffffffffffffffffffffffffffffffffffffffff1673ffffffffffffffffffffffffffffffffffffffff1681526020018281526020019350505050600060405180830381600087803b1580156136c057600080fd5b505af11580156136d4573d6000803e3d6000fd5b50505050600060149054906101000a900460ff16156137d1576137d085600560009054906101000a900473ffffffffffffffffffffffffffffffffffffffff1673ffffffffffffffffffffffffffffffffffffffff166370a08231846040518263ffffffff1660e01b8152600401808273ffffffffffffffffffffffffffffffffffffffff1673ffffffffffffffffffffffffffffffffffffffff16815260200191505060206040518083038186803b15801561379057600080fd5b505afa1580156137a4573d6000803e3d6000fd5b505050506040513d60208110156137ba57600080fd5b8101908080519060200190929190505050614820565b5b8073ffffffffffffffffffffffffffffffffffffffff168273ffffffffffffffffffffffffffffffffffffffff167f299eb6f534c4f090c37218944eb2f615b31d9da18a8ecb624f7b76134f71784d888888600160405180806020018060200185815260200184151515158152602001838103835287818151815260200191508051906020019080838360005b8381101561387957808201518184015260208101905061385e565b50505050905090810190601f1680156138a65780820380516001836020036101000a031916815260200191505b50838103825286818151815260200191508051906020019080838360005b838110156138df5780820151818401526020810190506138c4565b50505050905090810190601f16801561390c5780820380516001836020036101000a031916815260200191505b50965050505050505060405180910390a3505050505050565b8261392f816133b4565b8261393981614ddd565b6000600560009054906101000a900473ffffffffffffffffffffffffffffffffffffffff1673ffffffffffffffffffffffffffffffffffffffff166318160ddd6040518163ffffffff1660e01b815260040160206040518083038186803b1580156139a357600080fd5b505afa1580156139b7573d6000803e3d6000fd5b505050506040513d60208110156139cd57600080fd5b8101908080519060200190929190505050905060008411613a56576040517f08c379a00000000000000000000000000000000000000000000000000000000081526004018080602001828103825260148152602001807f63616e6e6f742073656e64203020746f6b656e7300000000000000000000000081525060200191505060405180910390fd5b60006008876040518082805190602001908083835b60208310613a8e5780518252602082019150602081019050602083039250613a6b565b6001836020036101000a038019825116818451168082178552505050505050905001915050908152602001604051809103902060000160009054906101000a900473ffffffffffffffffffffffffffffffffffffffff169050600560009054906101000a900473ffffffffffffffffffffffffffffffffffffffff1673ffffffffffffffffffffffffffffffffffffffff166359e026f78230886040518463ffffffff1660e01b8152600401808473ffffffffffffffffffffffffffffffffffffffff1673ffffffffffffffffffffffffffffffffffffffff1681526020018373ffffffffffffffffffffffffffffffffffffffff1673ffffffffffffffffffffffffffffffffffffffff1681526020018281526020019350505050600060405180830381600087803b158015613bc457600080fd5b505af1158015613bd8573d6000803e3d6000fd5b5050505060006008876040518082805190602001908083835b60208310613c145780518252602082019150602081019050602083039250613bf1565b6001836020036101000a038019825116818451168082178552505050505050905001915050908152602001604051809103902060030160008373ffffffffffffffffffffffffffffffffffffffff1673ffffffffffffffffffffffffffffffffffffffff1681526020019081526020016000205414156142ad57600b60009054906101000a900463ffffffff1663ffffffff166008876040518082805190602001908083835b60208310613cdd5780518252602082019150602081019050602083039250613cba565b6001836020036101000a03801982511681845116808217855250505050505090500191505090815260200160405180910390206004018054905010156142a8576008866040518082805190602001908083835b60208310613d535780518252602082019150602081019050602083039250613d30565b6001836020036101000a03801982511681845116808217855250505050505090500191505090815260200160405180910390206004018190806001815401808255809150509060018203906000526020600020016000909192909190916101000a81548173ffffffffffffffffffffffffffffffffffffffff021916908373ffffffffffffffffffffffffffffffffffffffff160217905550506000600660009054906101000a900473ffffffffffffffffffffffffffffffffffffffff1673ffffffffffffffffffffffffffffffffffffffff16635b004cb460088a6040518082805190602001908083835b60208310613e635780518252602082019150602081019050602083039250613e40565b6001836020036101000a038019825116818451168082178552505050505050905001915050908152602001604051809103902060000160149054906101000a900463ffffffff166040518263ffffffff1660e01b8152600401808263ffffffff1663ffffffff16815260200191505060206040518083038186803b158015613eea57600080fd5b505afa158015613efe573d6000803e3d6000fd5b505050506040513d6020811015613f1457600080fd5b81019080805190602001909291905050509050600d876040518082805190602001908083835b60208310613f5d5780518252602082019150602081019050602083039250613f3a565b6001836020036101000a038019825116818451168082178552505050505050905001915050908152602001604051809103902060009054906101000a900464ffffffffff1664ffffffffff168164ffffffffff16111561414e5780600d886040518082805190602001908083835b60208310613fee5780518252602082019150602081019050602083039250613fcb565b6001836020036101000a038019825116818451168082178552505050505050905001915050908152602001604051809103902060006101000a81548164ffffffffff021916908364ffffffffff1602179055506008886040518082805190602001908083835b602083106140775780518252602082019150602081019050602083039250614054565b6001836020036101000a038019825116818451168082178552505050505050905001915050908152602001604051809103902060000160149054906101000a900463ffffffff1663ffffffff16600e886040518082805190602001908083835b602083106140fa57805182526020820191506020810190506020830392506140d7565b6001836020036101000a038019825116818451168082178552505050505050905001915050908152602001604051809103902060006101000a81548164ffffffffff021916908364ffffffffff1602179055505b8064ffffffffff16600c886040518082805190602001908083835b6020831061418c5780518252602082019150602081019050602083039250614169565b6001836020036101000a038019825116818451168082178552505050505050905001915050908152602001604051809103902060008282829054906101000a900465ffffffffffff160192506101000a81548165ffffffffffff021916908365ffffffffffff160217905550856008886040518082805190602001908083835b6020831061422f578051825260208201915060208101905060208303925061420c565b6001836020036101000a038019825116818451168082178552505050505050905001915050908152602001604051809103902060030160008473ffffffffffffffffffffffffffffffffffffffff1673ffffffffffffffffffffffffffffffffffffffff16815260200190815260200160002081905550505b614365565b846008876040518082805190602001908083835b602083106142e457805182526020820191506020810190506020830392506142c1565b6001836020036101000a038019825116818451168082178552505050505050905001915050908152602001604051809103902060030160008373ffffffffffffffffffffffffffffffffffffffff1673ffffffffffffffffffffffffffffffffffffffff168152602001908152602001600020600082825401925050819055505b846008876040518082805190602001908083835b6020831061439c5780518252602082019150602081019050602083039250614379565b6001836020036101000a038019825116818451168082178552505050505050905001915050908152602001604051809103902060010160008282540192505081905550600060149054906101000a900460ff16156144d8576144d787600560009054906101000a900473ffffffffffffffffffffffffffffffffffffffff1673ffffffffffffffffffffffffffffffffffffffff166370a08231846040518263ffffffff1660e01b8152600401808273ffffffffffffffffffffffffffffffffffffffff1673ffffffffffffffffffffffffffffffffffffffff16815260200191505060206040518083038186803b15801561449757600080fd5b505afa1580156144ab573d6000803e3d6000fd5b505050506040513d60208110156144c157600080fd5b8101908080519060200190929190505050614820565b5b6008866040518082805190602001908083835b6020831061450e57805182526020820191506020810190506020830392506144eb565b6001836020036101000a038019825116818451168082178552505050505050905001915050908152602001604051809103902060000160009054906101000a900473ffffffffffffffffffffffffffffffffffffffff1673ffffffffffffffffffffffffffffffffffffffff168173ffffffffffffffffffffffffffffffffffffffff167f299eb6f534c4f090c37218944eb2f615b31d9da18a8ecb624f7b76134f71784d898989600060405180806020018060200185815260200184151515158152602001838103835287818151815260200191508051906020019080838360005b8381101561460c5780820151818401526020810190506145f1565b50505050905090810190601f1680156146395780820380516001836020036101000a031916815260200191505b50838103825286818151815260200191508051906020019080838360005b83811015614672578082015181840152602081019050614657565b50505050905090810190601f16801561469f5780820380516001836020036101000a031916815260200191505b50965050505050505060405180910390a3506146ba81614b6d565b505050505050565b600033905090565b6060600960003373ffffffffffffffffffffffffffffffffffffffff1673ffffffffffffffffffffffffffffffffffffffff1681526020019081526020016000208054600181600116156101000203166002900480601f01602080910402602001604051908101604052809291908181526020018280546001816001161561010002031660029004801561479f5780601f106147745761010080835404028352916020019161479f565b820191906000526020600020905b81548152906001019060200180831161478257829003601f168201915b50505050509050600081511161481d576040517f08c379a00000000000000000000000000000000000000000000000000000000081526004018080602001828103825260158152602001807f73656e64657220686173206e6f2075736572204944000000000000000000000081525060200191505060405180910390fd5b50565b600560009054906101000a900473ffffffffffffffffffffffffffffffffffffffff1673ffffffffffffffffffffffffffffffffffffffff166370a082316008846040518082805190602001908083835b602083106148945780518252602082019150602081019050602083039250614871565b6001836020036101000a038019825116818451168082178552505050505050905001915050908152602001604051809103902060000160009054906101000a900473ffffffffffffffffffffffffffffffffffffffff166040518263ffffffff1660e01b8152600401808273ffffffffffffffffffffffffffffffffffffffff1673ffffffffffffffffffffffffffffffffffffffff16815260200191505060206040518083038186803b15801561494b57600080fd5b505afa15801561495f573d6000803e3d6000fd5b505050506040513d602081101561497557600080fd5b810190808051906020019092919050505081116149925780614af9565b600560009054906101000a900473ffffffffffffffffffffffffffffffffffffffff1673ffffffffffffffffffffffffffffffffffffffff166370a082316008846040518082805190602001908083835b60208310614a0657805182526020820191506020810190506020830392506149e3565b6001836020036101000a038019825116818451168082178552505050505050905001915050908152602001604051809103902060000160009054906101000a900473ffffffffffffffffffffffffffffffffffffffff166040518263ffffffff1660e01b8152600401808273ffffffffffffffffffffffffffffffffffffffff1673ffffffffffffffffffffffffffffffffffffffff16815260200191505060206040518083038186803b158015614abd57600080fd5b505afa158015614ad1573d6000803e3d6000fd5b505050506040513d6020811015614ae757600080fd5b81019080805190602001909291905050505b6008836040518082805190602001908083835b60208310614b2f5780518252602082019150602081019050602083039250614b0c565b6001836020036101000a0380198251168184511680821785525050505050509050019150509081526020016040518091039020600201819055505050565b80600560009054906101000a900473ffffffffffffffffffffffffffffffffffffffff1673ffffffffffffffffffffffffffffffffffffffff166318160ddd6040518163ffffffff1660e01b815260040160206040518083038186803b158015614bd657600080fd5b505afa158015614bea573d6000803e3d6000fd5b505050506040513d6020811015614c0057600080fd5b810190808051906020019092919050505014614c84576040517f08c379a00000000000000000000000000000000000000000000000000000000081526004018080602001828103825260108152602001807f737570706c7920696e76617269616e740000000000000000000000000000000081525060200191505060405180910390fd5b50565b6060600960003373ffffffffffffffffffffffffffffffffffffffff1673ffffffffffffffffffffffffffffffffffffffff1681526020019081526020016000208054600181600116156101000203166002900480601f016020809104026020016040519081016040528092919081815260200182805460018160011615610100020316600290048015614d5c5780601f10614d3157610100808354040283529160200191614d5c565b820191906000526020600020905b815481529060010190602001808311614d3f57829003601f168201915b505050505090506000815114614dda576040517f08c379a000000000000000000000000000000000000000000000000000000000815260040180806020018281038252601a8152602001807f73656e64657220616c726561647920686173207573657220494400000000000081525060200191505060405180910390fd5b50565b60001515614dea82612083565b151514614e5f576040517f08c379a00000000000000000000000000000000000000000000000000000000081526004018080602001828103825260148152602001807f7573657220616c726561647920636c61696d656400000000000000000000000081525060200191505060405180910390fd5b50565b60001515601060003373ffffffffffffffffffffffffffffffffffffffff1673ffffffffffffffffffffffffffffffffffffffff16815260200190815260200160002060009054906101000a900460ff16151514614f0b576040517f08c379a0000000000000000000000000000000000000000000000000000000008152600401808060200182810382526024815260200180615d796024913960400191505060405180910390fd5b6001601060003373ffffffffffffffffffffffffffffffffffffffff1673ffffffffffffffffffffffffffffffffffffffff16815260200190815260200160002060006101000a81548160ff021916908315150217905550565b600073ffffffffffffffffffffffffffffffffffffffff168173ffffffffffffffffffffffffffffffffffffffff161415614feb576040517f08c379a0000000000000000000000000000000000000000000000000000000008152600401808060200182810382526026815260200180615d536026913960400191505060405180910390fd5b8073ffffffffffffffffffffffffffffffffffffffff166000809054906101000a900473ffffffffffffffffffffffffffffffffffffffff1673ffffffffffffffffffffffffffffffffffffffff167f8be0079c531659141344cd1fd0a4f28419497f9722a3daafe3b4186f6b6457e060405160405180910390a3806000806101000a81548173ffffffffffffffffffffffffffffffffffffffff021916908373ffffffffffffffffffffffffffffffffffffffff16021790555050565b600080600560009054906101000a900473ffffffffffffffffffffffffffffffffffffffff1673ffffffffffffffffffffffffffffffffffffffff1663bacb60876040518163ffffffff1660e01b815260040160206040518083038186803b15801561511457600080fd5b505afa158015615128573d6000803e3d6000fd5b505050506040513d602081101561513e57600080fd5b81019080805190602001909291905050509050600560009054906101000a900473ffffffffffffffffffffffffffffffffffffffff1673ffffffffffffffffffffffffffffffffffffffff1663c37215e76008856040518082805190602001908083835b602083106151c557805182526020820191506020810190506020830392506151a2565b6001836020036101000a038019825116818451168082178552505050505050905001915050908152602001604051809103902060000160009054906101000a900473ffffffffffffffffffffffffffffffffffffffff166008866040518082805190602001908083835b60208310615252578051825260208201915060208101905060208303925061522f565b6001836020036101000a038019825116818451168082178552505050505050905001915050908152602001604051809103902060000160149054906101000a900463ffffffff166040518363ffffffff1660e01b8152600401808373ffffffffffffffffffffffffffffffffffffffff1673ffffffffffffffffffffffffffffffffffffffff1681526020018263ffffffff16815260200192505050602060405180830381600087803b15801561530857600080fd5b505af115801561531c573d6000803e3d6000fd5b505050506040513d602081101561533257600080fd5b81019080805190602001909291905050509150600073__Distribution__________________________631f6d23716008600d8787600260009054906101000a900473ffffffffffffffffffffffffffffffffffffffff166040518663ffffffff1660e01b815260040180868152602001858152602001806020018481526020018373ffffffffffffffffffffffffffffffffffffffff1673ffffffffffffffffffffffffffffffffffffffff168152602001828103825285818151815260200191508051906020019080838360005b8381101561541d578082015181840152602081019050615402565b50505050905090810190601f16801561544a5780820380516001836020036101000a031916815260200191505b50965050505050505060206040518083038186803b15801561546b57600080fd5b505af415801561547f573d6000803e3d6000fd5b505050506040513d602081101561549557600080fd5b810190808051906020019092919050505090508281111561551e576040517f08c379a000000000000000000000000000000000000000000000000000000000815260040180806020018281038252600f8152602001807f54524942555445204d495343414c43000000000000000000000000000000000081525060200191505060405180910390fd5b60006008856040518082805190602001908083835b602083106155565780518252602082019150602081019050602083039250615533565b6001836020036101000a038019825116818451168082178552505050505050905001915050908152602001604051809103902090506000808260000160149054906101000a900463ffffffff1663ffffffff161115615a30576000826004018054905014156156cc57838260000160149054906101000a900463ffffffff1663ffffffff1611156156c757600560009054906101000a900473ffffffffffffffffffffffffffffffffffffffff1673ffffffffffffffffffffffffffffffffffffffff166350a301938360000160009054906101000a900473ffffffffffffffffffffffffffffffffffffffff16856040518363ffffffff1660e01b8152600401808373ffffffffffffffffffffffffffffffffffffffff1673ffffffffffffffffffffffffffffffffffffffff16815260200182815260200192505050600060405180830381600087803b1580156156ae57600080fd5b505af11580156156c2573d6000803e3d6000fd5b505050505b615a2f565b73__Distribution__________________________63adcd8b5a60086009600160009054906101000a900473ffffffffffffffffffffffffffffffffffffffff16600260009054906101000a900473ffffffffffffffffffffffffffffffffffffffff168b89600c8e6040518082805190602001908083835b602083106157685780518252602082019150602081019050602083039250615745565b6001836020036101000a038019825116818451168082178552505050505050905001915050908152602001604051809103902060009054906101000a900465ffffffffffff166040518863ffffffff1660e01b8152600401808881526020018781526020018673ffffffffffffffffffffffffffffffffffffffff1673ffffffffffffffffffffffffffffffffffffffff1681526020018573ffffffffffffffffffffffffffffffffffffffff1673ffffffffffffffffffffffffffffffffffffffff168152602001806020018481526020018365ffffffffffff1665ffffffffffff168152602001828103825285818151815260200191508051906020019080838360005b8381101561588957808201518184015260208101905061586e565b50505050905090810190601f1680156158b65780820380516001836020036101000a031916815260200191505b509850505050505050505060206040518083038186803b1580156158d957600080fd5b505af41580156158ed573d6000803e3d6000fd5b505050506040513d602081101561590357600080fd5b810190808051906020019092919050505090506000600d876040518082805190602001908083835b6020831061594e578051825260208201915060208101905060208303925061592b565b6001836020036101000a038019825116818451168082178552505050505050905001915050908152602001604051809103902060006101000a81548164ffffffffff021916908364ffffffffff1602179055506000600c876040518082805190602001908083835b602083106159d957805182526020820191506020810190506020830392506159b6565b6001836020036101000a038019825116818451168082178552505050505050905001915050908152602001604051809103902060006101000a81548165ffffffffffff021916908365ffffffffffff1602179055505b5b60006008876040518082805190602001908083835b60208310615a685780518252602082019150602081019050602083039250615a45565b6001836020036101000a03801982511681845116808217855250505050505090500191505090815260200160405180910390206001015490506000811115615c2c57600560009054906101000a900473ffffffffffffffffffffffffffffffffffffffff1673ffffffffffffffffffffffffffffffffffffffff166359e026f73060088a6040518082805190602001908083835b60208310615b1f5780518252602082019150602081019050602083039250615afc565b6001836020036101000a038019825116818451168082178552505050505050905001915050908152602001604051809103902060000160009054906101000a900473ffffffffffffffffffffffffffffffffffffffff16846040518463ffffffff1660e01b8152600401808473ffffffffffffffffffffffffffffffffffffffff1673ffffffffffffffffffffffffffffffffffffffff1681526020018373ffffffffffffffffffffffffffffffffffffffff1673ffffffffffffffffffffffffffffffffffffffff1681526020018281526020019350505050600060405180830381600087803b158015615c1357600080fd5b505af1158015615c27573d6000803e3d6000fd5b505050505b60006008886040518082805190602001908083835b60208310615c645780518252602082019150602081019050602083039250615c41565b6001836020036101000a03801982511681845116808217855250505050505090500191505090815260200160405180910390206001018190555081860395505050505050919050565b828054600181600116156101000203166002900490600052602060002090601f016020900481019282601f10615cee57803560ff1916838001178555615d1c565b82800160010185558215615d1c579182015b82811115615d1b578235825591602001919060010190615d00565b5b509050615d299190615d2d565b5090565b615d4f91905b80821115615d4b576000816000905550600101615d33565b5090565b9056fe4f776e61626c653a206e6577206f776e657220697320746865207a65726f206164647265737373656e64657220616c726561647920686173206120726571756573742070656e64696e67a265627a7a72315820826fd7310f405d21083a4b668950a9c06172a6980d6e43852c66c38d526cc83b64736f6c634300050f0032",
  "source": "pragma solidity ^0.5.0;\n/*\n * @title Woke Network User Registry Contract\n * @desc Registers and stores user IDs and manages token transfers.\n */\n\nimport \"openzeppelin-solidity/contracts/math/SafeMath.sol\";\nimport \"openzeppelin-solidity/contracts/ownership/Ownable.sol\";\nimport \"./WokeToken.sol\";\nimport \"./mocks/TwitterOracleMock.sol\";\nimport \"./libraries/Helpers.sol\";\nimport \"./libraries/Structs.sol\";\nimport \"./libraries/Distribution.sol\";\nimport \"./Math/LogNormalPDF.sol\";\n\ncontract UserRegistry is Ownable {\n\tusing SafeMath for uint256;\n\n\tbyte constant appId = 0x0A;\t\t// Auth app, only twitter for now\n\tbool DEFAULT_TIP_ALL = true;\t// Tipping switch (alpha)\n\n\t// Woke Token Contracts\n\taddress public wokeTokenAddress;\n\taddress public lnpdfAddress;\n\n\t// Dapp Agents\n\taddress public tippingAgent;\n\taddress public twitterClient;\n\n\tWokeToken wokeToken;\n\tLogNormalPDF logNormalPDF;\n\n\t// User accounts\n\tuint256 public userCount;\n\tmapping(string => Structs.User) private users;\t// userId => User\n\tmapping(address => string) private userIds;\t\t// account => Twitter userId\n\tmapping(string => address) private requester;\t// claim string needs a nonce\n\n\t// Distribution calculation\n\t// sizeOf weighting sum: bits >= log_2(lnpdf.maximum() * maxTributors) ~ 46 bits;\n\tuint32 public maxTributors;\n\tmapping(string => uint48) private weightSums;\t// userId => sum of referrer weightingss\n\tmapping(string => uint40) private maxWeights;\t// userId => max referrer weighting\n\tmapping(string => uint40) private maxFollowers;\t// userId => max referrer followers\n\n\t// Bonus pool received by smaller influence users\n\tuint256 public noTributePool; // Excess tokens minted by influence whales\n\n\t// Safety\n\tmapping(address => bool) private requestMutexes; // Oracle requests are blocking\n\n\t// @desc Instantiate user registry\n\t// @param _twitterClient\tAddress of provable client contract for twitter api requests\n\t// @param _tippingAgent\t\t\n\tconstructor(\n\t\taddress _wokeToken, \n\t\taddress _logNormalPdf,\n\t\taddress _twitterClient, \n\t\taddress _tippingAgent,\n\t\tuint32 _maxTributors\n\t) public payable \n\t{\n\t\tmaxTributors = _maxTributors;\n\t\ttwitterClient = _twitterClient;\n\t\ttippingAgent = _tippingAgent;\n\n\t\twokeTokenAddress = _wokeToken;\n\t\tlnpdfAddress = _logNormalPdf;\n\t\twokeToken = WokeToken(wokeTokenAddress);\n\t\tlogNormalPDF = LogNormalPDF(lnpdfAddress);\n\t}\n\n\t// @desc Connect a wallet to a Twitter user ID and claim any unclaimed TXs  \n\t// @returns Provable query ID\n\tfunction claimUser(string calldata _userId) external payable\n\t\thasNoUser\n\t\tuserNotClaimed(_userId)\n\t\trequestUnlocked\n\treturns (bytes32)\n\t{\n\t\trequester[_userId] = msg.sender;\n\n\t\tTwitterOracleMock client = TwitterOracleMock(twitterClient);\n\t\tbytes32 queryId = client.query_findClaimTweet(_userId);\n\n\t\trequire(queryId != bytes32(0), 'queryId is zero');\n\t\t//if(queryId == bytes32(0)) {\n\t\t//\t// Query failure, revert\n\t\t//\t//emit TraceBytes32('failed query', queryId);\n\t\t//}\n\t\temit Lodged(msg.sender, _userId, queryId);\n\n\t\treturn queryId;\n\t}\n\n\t// @desc Verify proof message\n\t// @param _claimString: Tweet text which should contain a signed claim string\n\tfunction verifyClaimString(address claimer, string memory _id, string memory _claimString)\n\t\tpublic pure\n\treturns (bool, uint32)\n\t{\n\t\treturn Helpers.verifyClaimString(claimer, _id, _claimString, appId);\n\t}\n\n\t// @desc Finalize user claim - create user, receive unclaimed transactions and bonus\n\t// @param _id: User id\n\tfunction _fulfillClaim(string calldata _id) external\n\t\tuserNotClaimed(_id)\n\t\trequestLocked(requester[_id])\n\t{\n\t\tTwitterOracleMock client = TwitterOracleMock(twitterClient);\n\t\tstring memory claimString = client.getTweetText(_id);\n\t\trequire(bytes(claimString).length > 0, \"claim string not stored\");\n\n\t\t(bool verified, uint32 followers) = verifyClaimString(requester[_id], _id, claimString);\n\t\trequire(verified, \"invalid claim string\");\n\n\t\t// Link wallet to twitter id\n\t\tuserIds[requester[_id]] = _id; // store user address\n\t\tusers[_id].account = requester[_id];\n\t\tusers[_id].followers = followers;\n\t\tuserCount += 1;\n\n\t\tuint256 joinBonus = _distributeClaimBonus(_id);\n\n\t\t// Claim unclaimed transactions and join bonus\n\t\temit Claimed(\n\t\t\tusers[_id].account, _id,\n\t\t\twokeToken.balanceOf(users[_id].account),\n\t\t\tjoinBonus\n\t\t);\n\n\t\t// Enable tipping\n\t\tif(DEFAULT_TIP_ALL) {\n\t\t\t_setTipBalance(_id, wokeToken.balanceOf(users[_id].account));\n\t\t}\n\n\t\trequester[_id] = address(0); \n\t}\n\n\t// @desc Mint new tokens then distribute to user and tributors\n\t// @param _id: User's twitter ID\n\t// @returns joinBonus: amount of minted tokens received by new user\n\tfunction _distributeClaimBonus(string memory _id) private\n\treturns (uint256 minted)\n\t{\n\t\t// 1. Mint new tokens\n\t\tuint256 prevFollowerBalance = wokeToken.followerBalance();\n\t\tminted = wokeToken.curvedMint(users[_id].account, users[_id].followers);\n\n\t\t// 2. Calculate tribute bonus weight, tribute bonus pool = minted - joinBonus\n\t\t// TODO pass maxWeights storage reference vs copy maxWeight value\n\t\tuint256 tributeBonusPool = Distribution._calcTributeBonus(users, maxWeights, _id, minted, lnpdfAddress);\n\t\trequire(tributeBonusPool <= minted, 'TRIBUTE MISCALC');\n\n\t\t// 3. Calculate tribute distribution\n\t\tStructs.User storage user = users[_id];\n\t\tuint256 deducted;\n\n\t\t// No bonus for users without followers\n\t\tif(user.followers > 0) {\n\t\t\tif(user.referrers.length == 0) {\n\t\t\t\t// Limit influence whale impact on minting\n\t\t\t\tif(user.followers > prevFollowerBalance) {\n\t\t\t\t\twokeToken.burnExcess(user.account, tributeBonusPool);\n\t\t\t\t}\n\t\t\t} else {\n\t\t\t\t// Distribute minted tokens to tributors\n\t\t\t\tdeducted = Distribution._distributeTributeBonuses(\n\t\t\t\t\tusers,\n\t\t\t\t\tuserIds,\n\t\t\t\t\twokeTokenAddress,\n\t\t\t\t\tlnpdfAddress,\n\t\t\t\t\t_id,\n\t\t\t\t\ttributeBonusPool,\n\t\t\t\t\tweightSums[_id]\n\t\t\t\t);\n\n\t\t\t\t// TODO check if this frees any storage \n\t\t\t\tmaxWeights[_id] = 0;\n\t\t\t\tweightSums[_id] = 0;\n\t\t\t}\n\t\t}\n\n\t\t// 4. Transfer tributes (unclaimed transactions) to new claimed user\n\t\tuint256 unclaimedBalance = users[_id].unclaimedBalance;\n\t\tif(unclaimedBalance > 0) {\n\t\t\t// Transfer the unclaimed amount and bonus from the token contract to the user\n\t\t\twokeToken.internalTransfer(address(this), users[_id].account, unclaimedBalance);\n\t\t}\n\t\tusers[_id].unclaimedBalance = 0;\n\n\t\t//uint256 claimedAmount = (minted - tributeBonusPool) + unclaimedBalance;\n\t\treturn minted - deducted;\n\t}\n\n\t// @desc Transfer tokens between claimed userIds\n\t// @dev Off-chain interface\n\tfunction transferClaimed(string calldata _toId, uint256 _amount) \n\t\texternal\n\t\thasUser\n\t\tuserIsClaimed(_toId)\n\t\tsupplyInvariant\n\t{\n\t\twokeToken.internalTransfer(msg.sender, users[_toId].account, _amount);\n\n\t\tif(DEFAULT_TIP_ALL) {\n\t\t\t_setTipBalance(_toId, wokeToken.balanceOf(users[_toId].account));\n\t\t}\n\n\t\t//emit Tx(userIds[msg.sender], _toId, userIds[msg.sender], _toId, _amount, true);\n\t\temit Tx(msg.sender, users[_toId].account, userIds[msg.sender], _toId, _amount, true);\n\t}\n\n\t// @desc Transfer tokens between claimed userIds\n\t// @dev Internal user - e.g. tipping\n\tfunction _transferClaimed(string memory _fromId, string memory _toId, uint256 _amount) \n\t\tinternal\n\t\tonlyTipAgent\n\t\tuserIsClaimed(_toId)\n\t{\n\t\trequire(_amount > 0, 'cannot send 0 tokens');\n\n\t\taddress from = users[_fromId].account;\n\t\taddress to = users[_toId].account;\n\t\t// @TODO naughty naughty\n\t\t//approve(tippingAgent, _amount);\n\t\t//transferFrom(from, to, _amount);\n\t\twokeToken.internalTransfer(from, to, _amount);\n\n\t\tif(DEFAULT_TIP_ALL) {\n\t\t\t_setTipBalance(_toId, wokeToken.balanceOf(to));\n\t\t}\n\n\t\t//emit Tx(userIds[msg.sender], _toId, userIds[msg.sender], _toId, _amount, true);\n\t\temit Tx(from, to, _fromId, _toId, _amount, true);\n\t}\n\n\t// @desc Transfer tokens from a claimed user to an unclaimed user\n\t// @dev Off-chain interface\n\tfunction transferUnclaimed(string calldata _toId, uint256 _amount)\n\t\texternal\n\t\thasUser\n\t{\n\t\t_transferUnclaimed(myUser(), _toId, _amount);\n\t}\n\n\t// @desc Transfer tokens from a claimed user to an unclaimed user\n\tfunction _transferUnclaimed(string memory _fromId, string memory _toId, uint256 _amount)\n\t\tinternal\n\t\tuserIsClaimed(_fromId)\n\t\tuserNotClaimed(_toId)\n\t\tsupplyInvariant\n\t{\n\t\trequire(_amount > 0, 'cannot send 0 tokens');\n\n\t\taddress from = users[_fromId].account;\n\n\t\t// 1. Transfer the amount from the the sender to the token contract\n\t\t// @TODO should use built in approval functionality\n\t\t//approve(tippingAgent, _amount);\n\t\twokeToken.internalTransfer(from, address(this), _amount);\n\n\t\t// 2. Set the unclaimed balance for the receiving user\n\t\t// Must limit tributors to avoid exceeding gas limit when sending _fulfillClaim()\n\t\tif(users[_toId].referralAmount[from] == 0) {\n\t\t\t// New tributor\n\t\t\tif(users[_toId].referrers.length < maxTributors) {\n\t\t\t\tusers[_toId].referrers.push(from);\n\t\t\t\t// Store bonus weights to save gas in _fulfillClaim()\n\t\t\t\tuint40 weight = logNormalPDF.lnpdf(users[_fromId].followers);\n\t\t\t\tif(weight > maxWeights[_toId]) {\n\t\t\t\t\tmaxWeights[_toId] = weight;\n\t\t\t\t\tmaxFollowers[_toId] = users[_fromId].followers;\n\t\t\t\t}\n\t\t\t\tweightSums[_toId] += weight;\n\t\t\t\tusers[_toId].referralAmount[from] = _amount;\n\t\t\t}\n\t\t} else {\n\t\t\t// Existing tributor\n\t\t\tusers[_toId].referralAmount[from] += _amount;\n\t\t}\n\n\t\tusers[_toId].unclaimedBalance += _amount;\n\n\t\tif(DEFAULT_TIP_ALL) {\n\t\t\t_setTipBalance(_fromId, wokeToken.balanceOf(from));\n\t\t}\n\n\t\temit Tx(from, users[_toId].account, _fromId, _toId, _amount, false);\n\t}\n\n\t// @desc Authorized transfer between users\n\t// @dev Called by twitter tipping bot\n\tfunction tip(string calldata _fromId, string calldata _toId, uint256 _amount)\n\t\texternal\n\t\tonlyTipAgent\n\t\tuserIsClaimed(_fromId)\n\treturns(uint256)\n\t{\n\t\t// @TODO should perform this check off chain\n\t\tuint256 tipBalance = users[_fromId].tipBalance;\n\t\tuint256 amount = _amount > tipBalance ? tipBalance : _amount;\n\n\t\trequire(amount > 0, \"cannot tip 0 tokens\");\n\n\t\tif(userClaimed(_toId)) {\n\t\t\t_transferClaimed(_fromId, _toId, amount);\n\t\t} else {\n\t\t\t_transferUnclaimed(_fromId, _toId, amount);\n\t\t}\n\n\t\tusers[_fromId].tipBalance = tipBalance - amount;\n\t\trequire(tipBalance - amount == users[_fromId].tipBalance, \"tip balance invariant violated\");\n\n\t\temit Tip(_fromId, _toId, amount);\n\t\treturn amount;\n\t}\n\n\tfunction setTipBalance(uint256 _amount) external\n\t\thasUser\n\t{\n\t\t_setTipBalance(myUser(), _amount);\n\t}\n\n\tfunction _setTipBalance(string memory _userId, uint256 _amount) private\n\t{\n\t\tusers[_userId].tipBalance = _amount > wokeToken.balanceOf(users[_userId].account) ? wokeToken.balanceOf(users[_userId].account) : _amount;\n\t}\n\n\tfunction getTipBalance(string memory _userId) public view\n\treturns (uint256)\n\t{\n\t\treturn users[_userId].tipBalance;\n\t}\n\n    function setMaxTributors(uint32 _maxTributors) public\n\t\tonlyOwner\n\t{\n\t\tmaxTributors = _maxTributors;\n\t}\n\n\t/* HELPERS */\n\tfunction getUser(address _account) public view\n\treturns (string memory)\n\t{\n\t\treturn userIds[_account];\n\t}\n\n\tfunction getAccount(string calldata _userId) external view\n\treturns (address)\n\t{\n\t\treturn users[_userId].account;\n\t}\n\n\tfunction myUser() public view\n\treturns (string memory)\n\t{\n\t\treturn userIds[msg.sender];\n\t}\n\n\tfunction unclaimedBalanceOf(string memory _userId) public view\n\treturns (uint256)\n\t{\n\t\treturn users[_userId].unclaimedBalance;\n\t}\n\n\tfunction balanceOf(string memory _userId)\n\t\tpublic view\n\t\treturns (uint256)\n\t{\n\t\treturn wokeToken.balanceOf(users[_userId].account);\n\t}\n\n\t//function setTwitterClient(address _twitterClient) external\n\t//\tonlyOwner\n\t//{\n\t//\ttwitterClient = _twitterClient;\n\t//}\n\n\t//function setWokeToken(address _wokeToken) external\n\t//\tonlyOwner\n\t//{\n\t//\twokeTokenAddress = _wokeToken;\n\t//\twokeToken = WokeToken(wokeTokenAddress);\n\t//}\n\n\n\t/* MODIFIERS */\n\t// @note using internal functions inside of modifiers reduces the amount of\n\t// code inlined, thus reducing bytecode for small increase in gas usage.\n\tmodifier userNotClaimed(string memory _userId) {\n\t\t_userNotClaimed(_userId);\n\t\t_;\n\t}\n\tfunction _userNotClaimed(string memory _userId) internal view\n\t{\n\t\trequire(userClaimed(_userId) == false, \"user already claimed\");\n\t}\n\n\tmodifier userIsClaimed(string memory _userId) {\n\t\t_userIsClaimed(_userId);\n\t\t_;\n\t}\n\n\tfunction _userIsClaimed(string memory _userId) internal view {\n\t\trequire(userClaimed(_userId) == true, \"user not claimed\");\n\t}\n\n\tfunction userClaimed(string memory _userId) public view\n\treturns (bool)\n\t{\n\t\tif(users[_userId].account == address(0)) {\n\t\t\treturn false;\n\t\t}\n\t\treturn true;\n\t}\n\n\t// @note has<Type>() implies check for mapping of (msg.sender => <Type>)\n\t// @notice Check if sending account has a claimed user\n\tmodifier hasUser() {\n\t\t_hasUser();\n\t\t_;\n\t}\n\tfunction _hasUser() internal view {\n\t\tbytes memory temp = bytes(userIds[msg.sender]);\n\t\trequire(temp.length > 0, \"sender has no user ID\");\n\t}\n\n\tmodifier hasNoUser() {\n\t\t_hasNoUser();\n\t\t_;\n\t}\n\tfunction _hasNoUser() internal view {\n\t\tbytes memory temp = bytes(userIds[msg.sender]);\n\t\trequire(temp.length == 0, \"sender already has user ID\");\n\t}\n\n\t// @desc Check if user has pending request\n\t// @dev User by app to confirm user's claim has been lodged \n\tfunction requestLodged(string calldata _userId) external view\n\treturns (bool)\n\t{\n\t\tif(requester[_userId] == msg.sender) {\n\t\t\treturn true;\n\t\t}\n\t\treturn false;\n\t}\n\n\t// @desc Acquire twitterClient request lock for sender iniating request\n\t// @dev Require the request lock is available\n\tmodifier requestUnlocked() {\n\t\t_requestUnlocked();\n\t\t_;\n\t}\n\tfunction _requestUnlocked() internal {\n\t\trequire(requestMutexes[msg.sender] == false, \"sender already has a request pending\");\n\t\trequestMutexes[msg.sender] = true;\n\t}\n\n\t// @desc Release twitterClient request lock for account that initiated request\n\t// @dev Requires the request lock to be acquired\n\tmodifier requestLocked(address _requester) {\n\t\trequire(requestMutexes[_requester] == true, \"sender has no request pending\");\n\t\t_;\n\t\trequestMutexes[_requester] = false;\n\t}\n\n\tmodifier onlyClient() {\n\t\trequire(msg.sender == twitterClient, \"sender not client\");\n\t\t_;\n\t}\n\n\tmodifier onlyTipAgent() {\n\t\t_onlyTipAgent();\n\t\t_;\n\t}\n\tfunction _onlyTipAgent() internal view {\n\t\trequire(msg.sender == tippingAgent, \"sender not tip agent\");\n\t}\n\n\t// @desc Authenticate account is owner of user ID\n\t// @dev This should be redundant given the user claiming process, but\n\t//\t    it is left in for added safety during development.\n\tmodifier isUser(string memory _userId) {\n\t\t_isUser(_userId);\n\t\t_;\n\t}\n\tfunction _isUser(string memory _userId) internal view\n\t{\n\t\tstring memory temp = string(userIds[msg.sender]);\n\t\trequire(keccak256(abi.encodePacked((temp))) == keccak256(\n\t\t\tabi.encodePacked((_userId))),\n\t\t\t\"Sender not the owner of user ID\"\n\t\t);\n\t}\n\n\t// @desc Ensure function does not affect supply\n\tmodifier supplyInvariant() {\n\t\tuint256 supply = wokeToken.totalSupply();\n\t\t_;\n\t\t_supplyInvariant(supply);\n\t}\n\tfunction _supplyInvariant(uint256 original) internal view {\n\t\trequire(wokeToken.totalSupply() == original, \"supply invariant\");\n\t}\n\n\t// Events\n\tevent Lodged (address indexed claimer, string userId, bytes32 queryId);\n\tevent Claimed (address indexed account, string userId, uint256 amount, uint256 bonus);\n\tevent Bonus (address indexed claimer, address indexed referrer, uint256 amount);\n\tevent Tx(address indexed from, address indexed to, string fromId, string toId, uint256 amount, bool claimed);\n\tevent Tip(string fromId, string toId, uint256 amount);\n}\n",
  "sourcePath": "/home/jack/Repositories/jack0son/woke-dapp/@woke/contracts-src/contracts/UserRegistry.sol",
  "compiler": {
    "name": "solc",
    "version": "0.5.15+commit.6a57276f.Emscripten.clang"
  },
  "schemaVersion": "3.0.20",
  "updatedAt": "2020-11-06T04:27:15.284Z",
  "networkType": "ethereum",
  "devdoc": {
    "methods": {
      "isOwner()": {
        "details": "Returns true if the caller is the current owner."
      },
      "owner()": {
        "details": "Returns the address of the current owner."
      },
      "renounceOwnership()": {
        "details": "Leaves the contract without owner. It will not be possible to call `onlyOwner` functions anymore. Can only be called by the current owner.     * NOTE: Renouncing ownership will leave the contract without an owner, thereby removing any functionality that is only available to the owner."
      },
      "transferOwnership(address)": {
        "details": "Transfers ownership of the contract to a new account (`newOwner`). Can only be called by the current owner."
      }
    }
  },
  "userdoc": {
    "methods": {}
  }
}