{
  "contractName": "WokeToken",
  "abi": [
    {
      "inputs": [
        {
          "internalType": "address",
          "name": "_twitterClient",
          "type": "address"
        },
        {
          "internalType": "address",
          "name": "_tippingAgent",
          "type": "address"
        },
        {
          "internalType": "uint32",
          "name": "_maxSupply",
          "type": "uint32"
        }
      ],
      "payable": true,
      "stateMutability": "payable",
      "type": "constructor"
    },
    {
      "anonymous": false,
      "inputs": [
        {
          "indexed": true,
          "internalType": "address",
          "name": "owner",
          "type": "address"
        },
        {
          "indexed": true,
          "internalType": "address",
          "name": "spender",
          "type": "address"
        },
        {
          "indexed": false,
          "internalType": "uint256",
          "name": "value",
          "type": "uint256"
        }
      ],
      "name": "Approval",
      "type": "event"
    },
    {
      "anonymous": false,
      "inputs": [
        {
          "indexed": true,
          "internalType": "address",
          "name": "account",
          "type": "address"
        },
        {
          "indexed": false,
          "internalType": "string",
          "name": "userId",
          "type": "string"
        },
        {
          "indexed": false,
          "internalType": "uint256",
          "name": "amount",
          "type": "uint256"
        }
      ],
      "name": "Claimed",
      "type": "event"
    },
    {
      "anonymous": false,
      "inputs": [
        {
          "indexed": true,
          "internalType": "address",
          "name": "claimer",
          "type": "address"
        },
        {
          "indexed": false,
          "internalType": "string",
          "name": "userId",
          "type": "string"
        },
        {
          "indexed": false,
          "internalType": "bytes32",
          "name": "queryId",
          "type": "bytes32"
        }
      ],
      "name": "Lodged",
      "type": "event"
    },
    {
      "anonymous": false,
      "inputs": [
        {
          "indexed": true,
          "internalType": "address",
          "name": "previousOwner",
          "type": "address"
        },
        {
          "indexed": true,
          "internalType": "address",
          "name": "newOwner",
          "type": "address"
        }
      ],
      "name": "OwnershipTransferred",
      "type": "event"
    },
    {
      "anonymous": false,
      "inputs": [
        {
          "indexed": true,
          "internalType": "address",
          "name": "claimer",
          "type": "address"
        },
        {
          "indexed": true,
          "internalType": "address",
          "name": "referrer",
          "type": "address"
        },
        {
          "indexed": false,
          "internalType": "string",
          "name": "claimerId",
          "type": "string"
        },
        {
          "indexed": false,
          "internalType": "string",
          "name": "referrerId",
          "type": "string"
        },
        {
          "indexed": false,
          "internalType": "uint256",
          "name": "amount",
          "type": "uint256"
        }
      ],
      "name": "Reward",
      "type": "event"
    },
    {
      "anonymous": false,
      "inputs": [
        {
          "indexed": true,
          "internalType": "address",
          "name": "account",
          "type": "address"
        },
        {
          "indexed": false,
          "internalType": "uint256",
          "name": "followers",
          "type": "uint256"
        },
        {
          "indexed": false,
          "internalType": "uint256",
          "name": "amount",
          "type": "uint256"
        }
      ],
      "name": "Summoned",
      "type": "event"
    },
    {
      "anonymous": false,
      "inputs": [
        {
          "indexed": false,
          "internalType": "string",
          "name": "fromId",
          "type": "string"
        },
        {
          "indexed": false,
          "internalType": "string",
          "name": "toId",
          "type": "string"
        },
        {
          "indexed": false,
          "internalType": "uint256",
          "name": "amount",
          "type": "uint256"
        }
      ],
      "name": "Tip",
      "type": "event"
    },
    {
      "anonymous": false,
      "inputs": [
        {
          "indexed": false,
          "internalType": "string",
          "name": "m",
          "type": "string"
        },
        {
          "indexed": false,
          "internalType": "bytes32",
          "name": "v",
          "type": "bytes32"
        }
      ],
      "name": "TraceBytes32",
      "type": "event"
    },
    {
      "anonymous": false,
      "inputs": [
        {
          "indexed": false,
          "internalType": "string",
          "name": "m",
          "type": "string"
        },
        {
          "indexed": false,
          "internalType": "string",
          "name": "v",
          "type": "string"
        }
      ],
      "name": "TraceString",
      "type": "event"
    },
    {
      "anonymous": false,
      "inputs": [
        {
          "indexed": false,
          "internalType": "string",
          "name": "m",
          "type": "string"
        },
        {
          "indexed": false,
          "internalType": "uint256",
          "name": "v",
          "type": "uint256"
        }
      ],
      "name": "TraceUint256",
      "type": "event"
    },
    {
      "anonymous": false,
      "inputs": [
        {
          "indexed": false,
          "internalType": "string",
          "name": "m",
          "type": "string"
        },
        {
          "indexed": false,
          "internalType": "uint64",
          "name": "v",
          "type": "uint64"
        }
      ],
      "name": "TraceUint64",
      "type": "event"
    },
    {
      "anonymous": false,
      "inputs": [
        {
          "indexed": true,
          "internalType": "address",
          "name": "from",
          "type": "address"
        },
        {
          "indexed": true,
          "internalType": "address",
          "name": "to",
          "type": "address"
        },
        {
          "indexed": false,
          "internalType": "uint256",
          "name": "value",
          "type": "uint256"
        }
      ],
      "name": "Transfer",
      "type": "event"
    },
    {
      "anonymous": false,
      "inputs": [
        {
          "indexed": true,
          "internalType": "address",
          "name": "from",
          "type": "address"
        },
        {
          "indexed": true,
          "internalType": "address",
          "name": "to",
          "type": "address"
        },
        {
          "indexed": false,
          "internalType": "string",
          "name": "fromId",
          "type": "string"
        },
        {
          "indexed": false,
          "internalType": "string",
          "name": "toId",
          "type": "string"
        },
        {
          "indexed": false,
          "internalType": "uint256",
          "name": "amount",
          "type": "uint256"
        },
        {
          "indexed": false,
          "internalType": "bool",
          "name": "claimed",
          "type": "bool"
        }
      ],
      "name": "Tx",
      "type": "event"
    },
    {
      "anonymous": false,
      "inputs": [
        {
          "indexed": false,
          "internalType": "bool",
          "name": "value",
          "type": "bool"
        },
        {
          "indexed": false,
          "internalType": "address",
          "name": "recovered",
          "type": "address"
        },
        {
          "indexed": false,
          "internalType": "address",
          "name": "claimer",
          "type": "address"
        },
        {
          "indexed": false,
          "internalType": "string",
          "name": "userId",
          "type": "string"
        }
      ],
      "name": "Verification",
      "type": "event"
    },
    {
      "constant": true,
      "inputs": [
        {
          "internalType": "address",
          "name": "owner",
          "type": "address"
        },
        {
          "internalType": "address",
          "name": "spender",
          "type": "address"
        }
      ],
      "name": "allowance",
      "outputs": [
        {
          "internalType": "uint256",
          "name": "",
          "type": "uint256"
        }
      ],
      "payable": false,
      "stateMutability": "view",
      "type": "function"
    },
    {
      "constant": false,
      "inputs": [
        {
          "internalType": "address",
          "name": "spender",
          "type": "address"
        },
        {
          "internalType": "uint256",
          "name": "amount",
          "type": "uint256"
        }
      ],
      "name": "approve",
      "outputs": [
        {
          "internalType": "bool",
          "name": "",
          "type": "bool"
        }
      ],
      "payable": false,
      "stateMutability": "nonpayable",
      "type": "function"
    },
    {
      "constant": true,
      "inputs": [
        {
          "internalType": "address",
          "name": "account",
          "type": "address"
        }
      ],
      "name": "balanceOf",
      "outputs": [
        {
          "internalType": "uint256",
          "name": "",
          "type": "uint256"
        }
      ],
      "payable": false,
      "stateMutability": "view",
      "type": "function"
    },
    {
      "constant": false,
      "inputs": [
        {
          "internalType": "address",
          "name": "spender",
          "type": "address"
        },
        {
          "internalType": "uint256",
          "name": "subtractedValue",
          "type": "uint256"
        }
      ],
      "name": "decreaseAllowance",
      "outputs": [
        {
          "internalType": "bool",
          "name": "",
          "type": "bool"
        }
      ],
      "payable": false,
      "stateMutability": "nonpayable",
      "type": "function"
    },
    {
      "constant": false,
      "inputs": [
        {
          "internalType": "address",
          "name": "spender",
          "type": "address"
        },
        {
          "internalType": "uint256",
          "name": "addedValue",
          "type": "uint256"
        }
      ],
      "name": "increaseAllowance",
      "outputs": [
        {
          "internalType": "bool",
          "name": "",
          "type": "bool"
        }
      ],
      "payable": false,
      "stateMutability": "nonpayable",
      "type": "function"
    },
    {
      "constant": true,
      "inputs": [],
      "name": "isOwner",
      "outputs": [
        {
          "internalType": "bool",
          "name": "",
          "type": "bool"
        }
      ],
      "payable": false,
      "stateMutability": "view",
      "type": "function"
    },
    {
      "constant": true,
      "inputs": [],
      "name": "maxSupply",
      "outputs": [
        {
          "internalType": "uint256",
          "name": "",
          "type": "uint256"
        }
      ],
      "payable": false,
      "stateMutability": "view",
      "type": "function"
    },
    {
      "constant": true,
      "inputs": [],
      "name": "owner",
      "outputs": [
        {
          "internalType": "address",
          "name": "",
          "type": "address"
        }
      ],
      "payable": false,
      "stateMutability": "view",
      "type": "function"
    },
    {
      "constant": false,
      "inputs": [],
      "name": "renounceOwnership",
      "outputs": [],
      "payable": false,
      "stateMutability": "nonpayable",
      "type": "function"
    },
    {
      "constant": true,
      "inputs": [],
      "name": "tippingAgent",
      "outputs": [
        {
          "internalType": "address",
          "name": "",
          "type": "address"
        }
      ],
      "payable": false,
      "stateMutability": "view",
      "type": "function"
    },
    {
      "constant": true,
      "inputs": [],
      "name": "totalSupply",
      "outputs": [
        {
          "internalType": "uint256",
          "name": "",
          "type": "uint256"
        }
      ],
      "payable": false,
      "stateMutability": "view",
      "type": "function"
    },
    {
      "constant": false,
      "inputs": [
        {
          "internalType": "address",
          "name": "recipient",
          "type": "address"
        },
        {
          "internalType": "uint256",
          "name": "amount",
          "type": "uint256"
        }
      ],
      "name": "transfer",
      "outputs": [
        {
          "internalType": "bool",
          "name": "",
          "type": "bool"
        }
      ],
      "payable": false,
      "stateMutability": "nonpayable",
      "type": "function"
    },
    {
      "constant": false,
      "inputs": [
        {
          "internalType": "address",
          "name": "sender",
          "type": "address"
        },
        {
          "internalType": "address",
          "name": "recipient",
          "type": "address"
        },
        {
          "internalType": "uint256",
          "name": "amount",
          "type": "uint256"
        }
      ],
      "name": "transferFrom",
      "outputs": [
        {
          "internalType": "bool",
          "name": "",
          "type": "bool"
        }
      ],
      "payable": false,
      "stateMutability": "nonpayable",
      "type": "function"
    },
    {
      "constant": false,
      "inputs": [
        {
          "internalType": "address",
          "name": "newOwner",
          "type": "address"
        }
      ],
      "name": "transferOwnership",
      "outputs": [],
      "payable": false,
      "stateMutability": "nonpayable",
      "type": "function"
    },
    {
      "constant": true,
      "inputs": [],
      "name": "twitterClient",
      "outputs": [
        {
          "internalType": "address",
          "name": "",
          "type": "address"
        }
      ],
      "payable": false,
      "stateMutability": "view",
      "type": "function"
    },
    {
      "constant": false,
      "inputs": [
        {
          "internalType": "string",
          "name": "_user",
          "type": "string"
        }
      ],
      "name": "claimUser",
      "outputs": [
        {
          "internalType": "bytes32",
          "name": "",
          "type": "bytes32"
        }
      ],
      "payable": true,
      "stateMutability": "payable",
      "type": "function"
    },
    {
      "constant": false,
      "inputs": [
        {
          "internalType": "string",
          "name": "_id",
          "type": "string"
        }
      ],
      "name": "_fulfillClaim",
      "outputs": [],
      "payable": false,
      "stateMutability": "nonpayable",
      "type": "function"
    },
    {
      "constant": false,
      "inputs": [
        {
          "internalType": "string",
          "name": "_toId",
          "type": "string"
        },
        {
          "internalType": "uint256",
          "name": "_amount",
          "type": "uint256"
        }
      ],
      "name": "transferUnclaimed",
      "outputs": [],
      "payable": false,
      "stateMutability": "nonpayable",
      "type": "function"
    },
    {
      "constant": false,
      "inputs": [
        {
          "internalType": "string",
          "name": "_toId",
          "type": "string"
        },
        {
          "internalType": "uint256",
          "name": "_amount",
          "type": "uint256"
        }
      ],
      "name": "transferClaimed",
      "outputs": [],
      "payable": false,
      "stateMutability": "nonpayable",
      "type": "function"
    },
    {
      "constant": false,
      "inputs": [
        {
          "internalType": "string",
          "name": "_fromId",
          "type": "string"
        },
        {
          "internalType": "string",
          "name": "_toId",
          "type": "string"
        },
        {
          "internalType": "uint256",
          "name": "_amount",
          "type": "uint256"
        }
      ],
      "name": "tip",
      "outputs": [
        {
          "internalType": "uint256",
          "name": "",
          "type": "uint256"
        }
      ],
      "payable": false,
      "stateMutability": "nonpayable",
      "type": "function"
    },
    {
      "constant": false,
      "inputs": [
        {
          "internalType": "uint256",
          "name": "_amount",
          "type": "uint256"
        }
      ],
      "name": "setTipBalance",
      "outputs": [],
      "payable": false,
      "stateMutability": "nonpayable",
      "type": "function"
    },
    {
      "constant": true,
      "inputs": [
        {
          "internalType": "uint256",
          "name": "_followers",
          "type": "uint256"
        }
      ],
      "name": "calculateBonus",
      "outputs": [
        {
          "internalType": "uint256",
          "name": "",
          "type": "uint256"
        }
      ],
      "payable": false,
      "stateMutability": "view",
      "type": "function"
    },
    {
      "constant": true,
      "inputs": [
        {
          "internalType": "uint256",
          "name": "_contribution",
          "type": "uint256"
        },
        {
          "internalType": "uint256",
          "name": "_followers",
          "type": "uint256"
        }
      ],
      "name": "calculateReward",
      "outputs": [
        {
          "internalType": "uint256",
          "name": "",
          "type": "uint256"
        }
      ],
      "payable": false,
      "stateMutability": "view",
      "type": "function"
    },
    {
      "constant": false,
      "inputs": [
        {
          "internalType": "address",
          "name": "claimer",
          "type": "address"
        },
        {
          "internalType": "string",
          "name": "_id",
          "type": "string"
        },
        {
          "internalType": "string",
          "name": "_claimString",
          "type": "string"
        }
      ],
      "name": "verifyClaimString",
      "outputs": [
        {
          "internalType": "bool",
          "name": "",
          "type": "bool"
        }
      ],
      "payable": false,
      "stateMutability": "nonpayable",
      "type": "function"
    },
    {
      "constant": true,
      "inputs": [
        {
          "internalType": "address",
          "name": "account",
          "type": "address"
        }
      ],
      "name": "getUser",
      "outputs": [
        {
          "internalType": "string",
          "name": "",
          "type": "string"
        }
      ],
      "payable": false,
      "stateMutability": "view",
      "type": "function"
    },
    {
      "constant": true,
      "inputs": [],
      "name": "myUser",
      "outputs": [
        {
          "internalType": "string",
          "name": "",
          "type": "string"
        }
      ],
      "payable": false,
      "stateMutability": "view",
      "type": "function"
    },
    {
      "constant": true,
      "inputs": [],
      "name": "getUserCount",
      "outputs": [
        {
          "internalType": "uint256",
          "name": "",
          "type": "uint256"
        }
      ],
      "payable": false,
      "stateMutability": "view",
      "type": "function"
    },
    {
      "constant": true,
      "inputs": [
        {
          "internalType": "string",
          "name": "_userId",
          "type": "string"
        }
      ],
      "name": "unclaimedBalance",
      "outputs": [
        {
          "internalType": "uint256",
          "name": "",
          "type": "uint256"
        }
      ],
      "payable": false,
      "stateMutability": "view",
      "type": "function"
    },
    {
      "constant": true,
      "inputs": [
        {
          "internalType": "string",
          "name": "_userId",
          "type": "string"
        }
      ],
      "name": "userBalance",
      "outputs": [
        {
          "internalType": "uint256",
          "name": "",
          "type": "uint256"
        }
      ],
      "payable": false,
      "stateMutability": "view",
      "type": "function"
    },
    {
      "constant": true,
      "inputs": [
        {
          "internalType": "string",
          "name": "_userId",
          "type": "string"
        }
      ],
      "name": "userClaimed",
      "outputs": [
        {
          "internalType": "bool",
          "name": "",
          "type": "bool"
        }
      ],
      "payable": false,
      "stateMutability": "view",
      "type": "function"
    },
    {
      "constant": true,
      "inputs": [
        {
          "internalType": "string",
          "name": "_userId",
          "type": "string"
        }
      ],
      "name": "lodgedRequest",
      "outputs": [
        {
          "internalType": "bool",
          "name": "",
          "type": "bool"
        }
      ],
      "payable": false,
      "stateMutability": "view",
      "type": "function"
    }
  ],
  "bytecode": "0x60806040526001600460006101000a81548160ff021916908315150217905550600160f81b600560146101000a81548160ff021916908360f81c0217905550600a60f81b600560156101000a81548160ff021916908360f81c0217905550604051620064b0380380620064b0833981810160405260608110156200008257600080fd5b81019080805190602001909291908051906020019092919080519060200190929190505050620000b76200021260201b60201c565b6000806101000a81548173ffffffffffffffffffffffffffffffffffffffff021916908373ffffffffffffffffffffffffffffffffffffffff1602179055506000809054906101000a900473ffffffffffffffffffffffffffffffffffffffff1673ffffffffffffffffffffffffffffffffffffffff16600073ffffffffffffffffffffffffffffffffffffffff167f8be0079c531659141344cd1fd0a4f28419497f9722a3daafe3b4186f6b6457e060405160405180910390a382600560006101000a81548173ffffffffffffffffffffffffffffffffffffffff021916908373ffffffffffffffffffffffffffffffffffffffff16021790555081600460016101000a81548173ffffffffffffffffffffffffffffffffffffffff021916908373ffffffffffffffffffffffffffffffffffffffff1602179055508063ffffffff166006819055506000600a819055505050506200021a565b600033905090565b616286806200022a6000396000f3fe6080604052600436106101d85760003560e01c8063a457c2d711610102578063d5d1de2611610095578063f2fde38b11610064578063f2fde38b14610fd8578063f71d6b2814611029578063f920d556146110f1578063fd61741d14611288576101d8565b8063d5d1de2614610d90578063da46e04114610e20578063da8ab64c14610e77578063dd62ed3e14610f53576101d8565b8063c1b9ab0b116100d1578063c1b9ab0b14610ae4578063cefabc4014610bc4578063d211f70514610c93578063d5abeb0114610d65576101d8565b8063a457c2d7146108f3578063a9059cbb14610966578063b5cb15f7146109d9578063b797ad7414610a04576101d8565b8063395093511161017a578063715018a611610149578063715018a6146107845780638da5cb5b1461079b5780638f32d59b146107f2578063961ad62014610821576101d8565b806339509351146105935780636081f5cb146106065780636f77926b1461065557806370a082311461071f576101d8565b806318160ddd116101b657806318160ddd1461038557806320cebbf6146103b057806323b872dd146104a9578063383df7521461053c576101d8565b8063095ea7b3146101dd57806313ed0846146102505780631536aedd146102a9575b600080fd5b3480156101e957600080fd5b506102366004803603604081101561020057600080fd5b81019080803573ffffffffffffffffffffffffffffffffffffffff169060200190929190803590602001909291905050506112c3565b604051808215151515815260200191505060405180910390f35b34801561025c57600080fd5b506102936004803603604081101561027357600080fd5b8101908080359060200190929190803590602001909291905050506112e1565b6040518082815260200191505060405180910390f35b3480156102b557600080fd5b5061036f600480360360208110156102cc57600080fd5b81019080803590602001906401000000008111156102e957600080fd5b8201836020820111156102fb57600080fd5b8035906020019184600183028401116401000000008311171561031d57600080fd5b91908080601f016020809104026020016040519081016040528093929190818152602001838380828437600081840152601f19601f820116905080830192505050505050509192919290505050611312565b6040518082815260200191505060405180910390f35b34801561039157600080fd5b5061039a6113b0565b6040518082815260200191505060405180910390f35b3480156103bc57600080fd5b50610493600480360360608110156103d357600080fd5b81019080803590602001906401000000008111156103f057600080fd5b82018360208201111561040257600080fd5b8035906020019184600183028401116401000000008311171561042457600080fd5b90919293919293908035906020019064010000000081111561044557600080fd5b82018360208201111561045757600080fd5b8035906020019184600183028401116401000000008311171561047957600080fd5b9091929391929390803590602001909291905050506113ba565b6040518082815260200191505060405180910390f35b3480156104b557600080fd5b50610522600480360360608110156104cc57600080fd5b81019080803573ffffffffffffffffffffffffffffffffffffffff169060200190929190803573ffffffffffffffffffffffffffffffffffffffff169060200190929190803590602001909291905050506117c8565b604051808215151515815260200191505060405180910390f35b34801561054857600080fd5b506105516118a1565b604051808273ffffffffffffffffffffffffffffffffffffffff1673ffffffffffffffffffffffffffffffffffffffff16815260200191505060405180910390f35b34801561059f57600080fd5b506105ec600480360360408110156105b657600080fd5b81019080803573ffffffffffffffffffffffffffffffffffffffff169060200190929190803590602001909291905050506118c7565b604051808215151515815260200191505060405180910390f35b34801561061257600080fd5b5061063f6004803603602081101561062957600080fd5b810190808035906020019092919050505061197a565b6040518082815260200191505060405180910390f35b34801561066157600080fd5b506106a46004803603602081101561067857600080fd5b81019080803573ffffffffffffffffffffffffffffffffffffffff1690602001909291905050506119bb565b6040518080602001828103825283818151815260200191508051906020019080838360005b838110156106e45780820151818401526020810190506106c9565b50505050905090810190601f1680156107115780820380516001836020036101000a031916815260200191505b509250505060405180910390f35b34801561072b57600080fd5b5061076e6004803603602081101561074257600080fd5b81019080803573ffffffffffffffffffffffffffffffffffffffff169060200190929190505050611a9c565b6040518082815260200191505060405180910390f35b34801561079057600080fd5b50610799611ae5565b005b3480156107a757600080fd5b506107b0611c1e565b604051808273ffffffffffffffffffffffffffffffffffffffff1673ffffffffffffffffffffffffffffffffffffffff16815260200191505060405180910390f35b3480156107fe57600080fd5b50610807611c47565b604051808215151515815260200191505060405180910390f35b34801561082d57600080fd5b506108f16004803603604081101561084457600080fd5b810190808035906020019064010000000081111561086157600080fd5b82018360208201111561087357600080fd5b8035906020019184600183028401116401000000008311171561089557600080fd5b91908080601f016020809104026020016040519081016040528093929190818152602001838380828437600081840152601f19601f82011690508083019250505050505050919291929080359060200190929190505050611ca5565b005b3480156108ff57600080fd5b5061094c6004803603604081101561091657600080fd5b81019080803573ffffffffffffffffffffffffffffffffffffffff16906020019092919080359060200190929190505050612050565b604051808215151515815260200191505060405180910390f35b34801561097257600080fd5b506109bf6004803603604081101561098957600080fd5b81019080803573ffffffffffffffffffffffffffffffffffffffff1690602001909291908035906020019092919050505061211d565b604051808215151515815260200191505060405180910390f35b3480156109e557600080fd5b506109ee61213b565b6040518082815260200191505060405180910390f35b348015610a1057600080fd5b50610aca60048036036020811015610a2757600080fd5b8101908080359060200190640100000000811115610a4457600080fd5b820183602082011115610a5657600080fd5b80359060200191846001830284011164010000000083111715610a7857600080fd5b91908080601f016020809104026020016040519081016040528093929190818152602001838380828437600081840152601f19601f820116905080830192505050505050509192919290505050612145565b604051808215151515815260200191505060405180910390f35b348015610af057600080fd5b50610baa60048036036020811015610b0757600080fd5b8101908080359060200190640100000000811115610b2457600080fd5b820183602082011115610b3657600080fd5b80359060200191846001830284011164010000000083111715610b5857600080fd5b91908080601f016020809104026020016040519081016040528093929190818152602001838380828437600081840152601f19601f820116905080830192505050505050509192919290505050612217565b604051808215151515815260200191505060405180910390f35b610c7d60048036036020811015610bda57600080fd5b8101908080359060200190640100000000811115610bf757600080fd5b820183602082011115610c0957600080fd5b80359060200191846001830284011164010000000083111715610c2b57600080fd5b91908080601f016020809104026020016040519081016040528093929190818152602001838380828437600081840152601f19601f8201169050808301925050505050505091929192905050506122ec565b6040518082815260200191505060405180910390f35b348015610c9f57600080fd5b50610d6360048036036040811015610cb657600080fd5b8101908080359060200190640100000000811115610cd357600080fd5b820183602082011115610ce557600080fd5b80359060200191846001830284011164010000000083111715610d0757600080fd5b91908080601f016020809104026020016040519081016040528093929190818152602001838380828437600081840152601f19601f82011690508083019250505050505050919291929080359060200190929190505050612610565b005b348015610d7157600080fd5b50610d7a6126a4565b6040518082815260200191505060405180910390f35b348015610d9c57600080fd5b50610da56126aa565b6040518080602001828103825283818151815260200191508051906020019080838360005b83811015610de5578082015181840152602081019050610dca565b50505050905090810190601f168015610e125780820380516001836020036101000a031916815260200191505b509250505060405180910390f35b348015610e2c57600080fd5b50610e35612789565b604051808273ffffffffffffffffffffffffffffffffffffffff1673ffffffffffffffffffffffffffffffffffffffff16815260200191505060405180910390f35b348015610e8357600080fd5b50610f3d60048036036020811015610e9a57600080fd5b8101908080359060200190640100000000811115610eb757600080fd5b820183602082011115610ec957600080fd5b80359060200191846001830284011164010000000083111715610eeb57600080fd5b91908080601f016020809104026020016040519081016040528093929190818152602001838380828437600081840152601f19601f8201169050808301925050505050505091929192905050506127af565b6040518082815260200191505060405180910390f35b348015610f5f57600080fd5b50610fc260048036036040811015610f7657600080fd5b81019080803573ffffffffffffffffffffffffffffffffffffffff169060200190929190803573ffffffffffffffffffffffffffffffffffffffff169060200190929190505050612825565b6040518082815260200191505060405180910390f35b348015610fe457600080fd5b5061102760048036036020811015610ffb57600080fd5b81019080803573ffffffffffffffffffffffffffffffffffffffff1690602001909291905050506128ac565b005b34801561103557600080fd5b506110ef6004803603602081101561104c57600080fd5b810190808035906020019064010000000081111561106957600080fd5b82018360208201111561107b57600080fd5b8035906020019184600183028401116401000000008311171561109d57600080fd5b91908080601f016020809104026020016040519081016040528093929190818152602001838380828437600081840152601f19601f820116905080830192505050505050509192919290505050612932565b005b3480156110fd57600080fd5b5061126e6004803603606081101561111457600080fd5b81019080803573ffffffffffffffffffffffffffffffffffffffff1690602001909291908035906020019064010000000081111561115157600080fd5b82018360208201111561116357600080fd5b8035906020019184600183028401116401000000008311171561118557600080fd5b91908080601f016020809104026020016040519081016040528093929190818152602001838380828437600081840152601f19601f820116905080830192505050505050509192919290803590602001906401000000008111156111e857600080fd5b8201836020820111156111fa57600080fd5b8035906020019184600183028401116401000000008311171561121c57600080fd5b91908080601f016020809104026020016040519081016040528093929190818152602001838380828437600081840152601f19601f820116905080830192505050505050509192919290505050613284565b604051808215151515815260200191505060405180910390f35b34801561129457600080fd5b506112c1600480360360208110156112ab57600080fd5b81019080803590602001909291905050506136db565b005b60006112d76112d06136f7565b84846136ff565b6001905092915050565b600080600a54905060008114156112f757600190505b6000818486028161130457fe5b049050809250505092915050565b60006113a96008836040518082805190602001908083835b6020831061134d578051825260208201915060208101905060208303925061132a565b6001836020036101000a038019825116818451168082178552505050505050905001915050908152602001604051809103902060000160009054906101000a900473ffffffffffffffffffffffffffffffffffffffff16611a9c565b9050919050565b6000600354905090565b60006113c46138f6565b85858080601f016020809104026020016040519081016040528093929190818152602001838380828437600081840152601f19601f82011690508083019250505050505050611412816139bb565b600060088888604051808383808284378083019250505092505050908152602001604051809103902060030154905060008185116114505784611452565b815b9050600081116114ca576040517f08c379a00000000000000000000000000000000000000000000000000000000081526004018080602001828103825260138152602001807f63616e6e6f7420746970203020746f6b656e730000000000000000000000000081525060200191505060405180910390fd5b61151787878080601f016020809104026020016040519081016040528093929190818152602001838380828437600081840152601f19601f82011690508083019250505050505050612217565b156115b4576115af89898080601f016020809104026020016040519081016040528093929190818152602001838380828437600081840152601f19601f8201169050808301925050505050505088888080601f016020809104026020016040519081016040528093929190818152602001838380828437600081840152601f19601f8201169050808301925050505050505083613a40565b611648565b61164789898080601f016020809104026020016040519081016040528093929190818152602001838380828437600081840152601f19601f8201169050808301925050505050505088888080601f016020809104026020016040519081016040528093929190818152602001838380828437600081840152601f19601f8201169050808301925050505050505083613d87565b5b80820360088a8a604051808383808284378083019250505092505050908152602001604051809103902060030181905550600889896040518083838082843780830192505050925050509081526020016040518091039020600301548183031461171a576040517f08c379a000000000000000000000000000000000000000000000000000000000815260040180806020018281038252601e8152602001807f7469702062616c616e636520696e76617269616e742076696f6c61746564000081525060200191505060405180910390fd5b7fc58663f31c3549520494f7c83d9787b7bf8bb4878e12f0bf3ce44e272626a0bd89898989856040518080602001806020018481526020018381038352888882818152602001925080828437600081840152601f19601f8201169050808301925050508381038252868682818152602001925080828437600081840152601f19601f82011690508083019250505097505050505050505060405180910390a180935050505095945050505050565b60006117d58484846142c3565b611896846117e16136f7565b611891856040518060600160405280602881526020016161bc60289139600260008b73ffffffffffffffffffffffffffffffffffffffff1673ffffffffffffffffffffffffffffffffffffffff16815260200190815260200160002060006118476136f7565b73ffffffffffffffffffffffffffffffffffffffff1673ffffffffffffffffffffffffffffffffffffffff1681526020019081526020016000205461457d9092919063ffffffff16565b6136ff565b600190509392505050565b600460019054906101000a900473ffffffffffffffffffffffffffffffffffffffff1681565b60006119706118d46136f7565b8461196b85600260006118e56136f7565b73ffffffffffffffffffffffffffffffffffffffff1673ffffffffffffffffffffffffffffffffffffffff16815260200190815260200160002060008973ffffffffffffffffffffffffffffffffffffffff1673ffffffffffffffffffffffffffffffffffffffff1681526020019081526020016000205461463d90919063ffffffff16565b6136ff565b6001905092915050565b60008061198630611a9c565b90506000600a549050600081141561199d57600190505b600081838602816119aa57fe5b046032019050809350505050919050565b6060600760008373ffffffffffffffffffffffffffffffffffffffff1673ffffffffffffffffffffffffffffffffffffffff1681526020019081526020016000208054600181600116156101000203166002900480601f016020809104026020016040519081016040528092919081815260200182805460018160011615610100020316600290048015611a905780601f10611a6557610100808354040283529160200191611a90565b820191906000526020600020905b815481529060010190602001808311611a7357829003601f168201915b50505050509050919050565b6000600160008373ffffffffffffffffffffffffffffffffffffffff1673ffffffffffffffffffffffffffffffffffffffff168152602001908152602001600020549050919050565b611aed611c47565b611b5f576040517f08c379a00000000000000000000000000000000000000000000000000000000081526004018080602001828103825260208152602001807f4f776e61626c653a2063616c6c6572206973206e6f7420746865206f776e657281525060200191505060405180910390fd5b600073ffffffffffffffffffffffffffffffffffffffff166000809054906101000a900473ffffffffffffffffffffffffffffffffffffffff1673ffffffffffffffffffffffffffffffffffffffff167f8be0079c531659141344cd1fd0a4f28419497f9722a3daafe3b4186f6b6457e060405160405180910390a360008060006101000a81548173ffffffffffffffffffffffffffffffffffffffff021916908373ffffffffffffffffffffffffffffffffffffffff160217905550565b60008060009054906101000a900473ffffffffffffffffffffffffffffffffffffffff16905090565b60008060009054906101000a900473ffffffffffffffffffffffffffffffffffffffff1673ffffffffffffffffffffffffffffffffffffffff16611c896136f7565b73ffffffffffffffffffffffffffffffffffffffff1614905090565b611cad6146c5565b81611cb7816139bb565b6000611cc16113b0565b9050611d596008856040518082805190602001908083835b60208310611cfc5780518252602082019150602081019050602083039250611cd9565b6001836020036101000a038019825116818451168082178552505050505050905001915050908152602001604051809103902060000160009054906101000a900473ffffffffffffffffffffffffffffffffffffffff168461211d565b50600460009054906101000a900460ff1615611e0e57611e0d84611e086008876040518082805190602001908083835b60208310611dac5780518252602082019150602081019050602083039250611d89565b6001836020036101000a038019825116818451168082178552505050505050905001915050908152602001604051809103902060000160009054906101000a900473ffffffffffffffffffffffffffffffffffffffff16611a9c565b61481b565b5b6008846040518082805190602001908083835b60208310611e445780518252602082019150602081019050602083039250611e21565b6001836020036101000a038019825116818451168082178552505050505050905001915050908152602001604051809103902060000160009054906101000a900473ffffffffffffffffffffffffffffffffffffffff1673ffffffffffffffffffffffffffffffffffffffff163373ffffffffffffffffffffffffffffffffffffffff167f299eb6f534c4f090c37218944eb2f615b31d9da18a8ecb624f7b76134f71784d600760003373ffffffffffffffffffffffffffffffffffffffff1673ffffffffffffffffffffffffffffffffffffffff1681526020019081526020016000208787600160405180806020018060200185815260200184151515158152602001838103835287818154600181600116156101000203166002900481526020019150805460018160011615610100020316600290048015611fc95780601f10611f9e57610100808354040283529160200191611fc9565b820191906000526020600020905b815481529060010190602001808311611fac57829003601f168201915b5050838103825286818151815260200191508051906020019080838360005b83811015612003578082015181840152602081019050611fe8565b50505050905090810190601f1680156120305780820380516001836020036101000a031916815260200191505b50965050505050505060405180910390a361204a816149c6565b50505050565b600061211361205d6136f7565b8461210e8560405180606001604052806025815260200161622d60259139600260006120876136f7565b73ffffffffffffffffffffffffffffffffffffffff1673ffffffffffffffffffffffffffffffffffffffff16815260200190815260200160002060008a73ffffffffffffffffffffffffffffffffffffffff1673ffffffffffffffffffffffffffffffffffffffff1681526020019081526020016000205461457d9092919063ffffffff16565b6136ff565b6001905092915050565b600061213161212a6136f7565b84846142c3565b6001905092915050565b6000600a54905090565b60003373ffffffffffffffffffffffffffffffffffffffff166009836040518082805190602001908083835b602083106121945780518252602082019150602081019050602083039250612171565b6001836020036101000a038019825116818451168082178552505050505050905001915050908152602001604051809103902060009054906101000a900473ffffffffffffffffffffffffffffffffffffffff1673ffffffffffffffffffffffffffffffffffffffff16141561220d5760019050612212565b600090505b919050565b60008073ffffffffffffffffffffffffffffffffffffffff166008836040518082805190602001908083835b602083106122665780518252602082019150602081019050602083039250612243565b6001836020036101000a038019825116818451168082178552505050505050905001915050908152602001604051809103902060000160009054906101000a900473ffffffffffffffffffffffffffffffffffffffff1673ffffffffffffffffffffffffffffffffffffffff1614156122e257600090506122e7565b600190505b919050565b60006122f6614a45565b8161230081614b9b565b612308614c20565b336009846040518082805190602001908083835b6020831061233f578051825260208201915060208101905060208303925061231c565b6001836020036101000a038019825116818451168082178552505050505050905001915050908152602001604051809103902060006101000a81548173ffffffffffffffffffffffffffffffffffffffff021916908373ffffffffffffffffffffffffffffffffffffffff1602179055506000600560009054906101000a900473ffffffffffffffffffffffffffffffffffffffff16905060008173ffffffffffffffffffffffffffffffffffffffff1663172ac12d866040518263ffffffff1660e01b81526004018080602001828103825283818151815260200191508051906020019080838360005b8381101561244557808201518184015260208101905061242a565b50505050905090810190601f1680156124725780820380516001836020036101000a031916815260200191505b5092505050602060405180830381600087803b15801561249157600080fd5b505af11580156124a5573d6000803e3d6000fd5b505050506040513d60208110156124bb57600080fd5b810190808051906020019092919050505090506000801b81141561254a577fc3c858231d63b35575acb09da666966e863f764aa377762376c845c9163122c78160405180806020018381526020018281038252600c8152602001807f6661696c656420717565727900000000000000000000000000000000000000008152506020019250505060405180910390a15b3373ffffffffffffffffffffffffffffffffffffffff167fb0d414ea5b38d8b64668bffef05f15ced84395b44b3be0c8bb3deceeb5626e0e86836040518080602001838152602001828103825284818151815260200191508051906020019080838360005b838110156125ca5780820151818401526020810190506125af565b50505050905090810190601f1680156125f75780820380516001836020036101000a031916815260200191505b50935050505060405180910390a2809350505050919050565b6126186146c5565b6000811161268e576040517f08c379a00000000000000000000000000000000000000000000000000000000081526004018080602001828103825260148152602001807f63616e6e6f742073656e64203020746f6b656e7300000000000000000000000081525060200191505060405180910390fd5b6126a06126996126aa565b8383613d87565b5050565b60065481565b6060600760003373ffffffffffffffffffffffffffffffffffffffff1673ffffffffffffffffffffffffffffffffffffffff1681526020019081526020016000208054600181600116156101000203166002900480601f01602080910402602001604051908101604052809291908181526020018280546001816001161561010002031660029004801561277f5780601f106127545761010080835404028352916020019161277f565b820191906000526020600020905b81548152906001019060200180831161276257829003601f168201915b5050505050905090565b600560009054906101000a900473ffffffffffffffffffffffffffffffffffffffff1681565b60006008826040518082805190602001908083835b602083106127e757805182526020820191506020810190506020830392506127c4565b6001836020036101000a0380198251168184511680821785525050505050509050019150509081526020016040518091039020600201549050919050565b6000600260008473ffffffffffffffffffffffffffffffffffffffff1673ffffffffffffffffffffffffffffffffffffffff16815260200190815260200160002060008373ffffffffffffffffffffffffffffffffffffffff1673ffffffffffffffffffffffffffffffffffffffff16815260200190815260200160002054905092915050565b6128b4611c47565b612926576040517f08c379a00000000000000000000000000000000000000000000000000000000081526004018080602001828103825260208152602001807f4f776e61626c653a2063616c6c6572206973206e6f7420746865206f776e657281525060200191505060405180910390fd5b61292f81614d23565b50565b8061293c81614b9b565b6009826040518082805190602001908083835b60208310612972578051825260208201915060208101905060208303925061294f565b6001836020036101000a038019825116818451168082178552505050505050905001915050908152602001604051809103902060009054906101000a900473ffffffffffffffffffffffffffffffffffffffff1660011515600b60008373ffffffffffffffffffffffffffffffffffffffff1673ffffffffffffffffffffffffffffffffffffffff16815260200190815260200160002060009054906101000a900460ff16151514612a8c576040517f08c379a000000000000000000000000000000000000000000000000000000000815260040180806020018281038252601d8152602001807f73656e64657220686173206e6f20726571756573742070656e64696e6700000081525060200191505060405180910390fd5b6000600560009054906101000a900473ffffffffffffffffffffffffffffffffffffffff16905060608173ffffffffffffffffffffffffffffffffffffffff1663cf2e2914866040518263ffffffff1660e01b81526004018080602001828103825283818151815260200191508051906020019080838360005b83811015612b21578082015181840152602081019050612b06565b50505050905090810190601f168015612b4e5780820380516001836020036101000a031916815260200191505b509250505060006040518083038186803b158015612b6b57600080fd5b505afa158015612b7f573d6000803e3d6000fd5b505050506040513d6000823e3d601f19601f820116820180604052506020811015612ba957600080fd5b8101908080516040519392919084640100000000821115612bc957600080fd5b83820191506020820185811115612bdf57600080fd5b8251866001820283011164010000000082111715612bfc57600080fd5b8083526020830192505050908051906020019080838360005b83811015612c30578082015181840152602081019050612c15565b50505050905090810190601f168015612c5d5780820380516001836020036101000a031916815260200191505b5060405250505090506000815111612cdd576040517f08c379a00000000000000000000000000000000000000000000000000000000081526004018080602001828103825260178152602001807f636c61696d20737472696e67206e6f742073746f72656400000000000000000081525060200191505060405180910390fd5b60006009866040518082805190602001908083835b60208310612d155780518252602082019150602081019050602083039250612cf2565b6001836020036101000a038019825116818451168082178552505050505050905001915050908152602001604051809103902060009054906101000a900473ffffffffffffffffffffffffffffffffffffffff169050612d76818784613284565b612de8576040517f08c379a00000000000000000000000000000000000000000000000000000000081526004018080602001828103825260148152602001807f696e76616c696420636c61696d20737472696e6700000000000000000000000081525060200191505060405180910390fd5b60006001905086600760008473ffffffffffffffffffffffffffffffffffffffff1673ffffffffffffffffffffffffffffffffffffffff1681526020019081526020016000209080519060200190612e41929190615fc8565b50816008886040518082805190602001908083835b60208310612e795780518252602082019150602081019050602083039250612e56565b6001836020036101000a038019825116818451168082178552505050505050905001915050908152602001604051809103902060000160006101000a81548173ffffffffffffffffffffffffffffffffffffffff021916908373ffffffffffffffffffffffffffffffffffffffff1602179055508173ffffffffffffffffffffffffffffffffffffffff167f9d2f14df77ba038ff6f9ba99bbdcfbc30f1650b9574e3b7bbae993df15a92f3088612f308a85614e67565b6040518080602001838152602001828103825284818151815260200191508051906020019080838360005b83811015612f76578082015181840152602081019050612f5b565b50505050905090810190601f168015612fa35780820380516001836020036101000a031916815260200191505b50935050505060405180910390a26001600a600082825401925050819055507faeb8c2b338abd1e5a2367a3d632ebceaadbd1a5857a0c3851fc35c647c13656b6130786008896040518082805190602001908083835b6020831061301c5780518252602082019150602081019050602083039250612ff9565b6001836020036101000a038019825116818451168082178552505050505050905001915050908152602001604051809103902060000160009054906101000a900473ffffffffffffffffffffffffffffffffffffffff16611a9c565b60405180806020018381526020018281038252600e8152602001807f62616c616e6365436c61696d65640000000000000000000000000000000000008152506020019250505060405180910390a1600460009054906101000a900460ff161561317a576131798761317460088a6040518082805190602001908083835b6020831061311857805182526020820191506020810190506020830392506130f5565b6001836020036101000a038019825116818451168082178552505050505050905001915050908152602001604051809103902060000160009054906101000a900473ffffffffffffffffffffffffffffffffffffffff16611a9c565b61481b565b5b60006009886040518082805190602001908083835b602083106131b2578051825260208201915060208101905060208303925061318f565b6001836020036101000a038019825116818451168082178552505050505050905001915050908152602001604051809103902060006101000a81548173ffffffffffffffffffffffffffffffffffffffff021916908373ffffffffffffffffffffffffffffffffffffffff160217905550505050506000600b60008373ffffffffffffffffffffffffffffffffffffffff1673ffffffffffffffffffffffffffffffffffffffff16815260200190815260200160002060006101000a81548160ff021916908315150217905550505050565b6000808473ffffffffffffffffffffffffffffffffffffffff1684600560159054906101000a900460f81b6040516020018084815260200183805190602001908083835b602083106132eb57805182526020820191506020810190506020830392506132c8565b6001836020036101000a038019825116818451168082178552505050505050905001827effffffffffffffffffffffffffffffffffffffffffffffffffffffffffffff19167effffffffffffffffffffffffffffffffffffffffffffffffffffffffffffff191681526001019350505050604051602081830303815290604052805190602001209050600061337f8261538d565b9050606060008061338f876153e5565b63ffffffff169250925092507fb0cba7c0496bd573058f61e2b1b7387d48a9f5b44c0c30b7c6d4c54cbd9ed80a8160405180806020018367ffffffffffffffff1667ffffffffffffffff168152602001828103825260098152602001807f666f6c6c6f7765727300000000000000000000000000000000000000000000008152506020019250505060405180910390a1606061342a8461581e565b9050600560149054906101000a900460f81b7effffffffffffffffffffffffffffffffffffffffffffffffffffffffffffff1916837effffffffffffffffffffffffffffffffffffffffffffffffffffffffffffff1916146134f4576040517f08c379a00000000000000000000000000000000000000000000000000000000081526004018080602001828103825260148152602001807f696e76616c696420617574682076657273696f6e00000000000000000000000081525060200191505060405180910390fd5b60006135008683615990565b90508a73ffffffffffffffffffffffffffffffffffffffff168173ffffffffffffffffffffffffffffffffffffffff1614613586576040517f08c379a00000000000000000000000000000000000000000000000000000000081526004018080602001828103825260308152602001806160d66030913960400191505060405180910390fd5b60008b73ffffffffffffffffffffffffffffffffffffffff168273ffffffffffffffffffffffffffffffffffffffff161490507f2aafcfe170146f3e2f0835dfcc4558c3f7b23df8203d1b5759201f95673a0ac281838e8e60405180851515151581526020018473ffffffffffffffffffffffffffffffffffffffff1673ffffffffffffffffffffffffffffffffffffffff1681526020018373ffffffffffffffffffffffffffffffffffffffff1673ffffffffffffffffffffffffffffffffffffffff16815260200180602001828103825283818151815260200191508051906020019080838360005b8381101561368c578082015181840152602081019050613671565b50505050905090810190601f1680156136b95780820380516001836020036101000a031916815260200191505b509550505050505060405180910390a180985050505050505050509392505050565b6136e36146c5565b6136f46136ee6126aa565b8261481b565b50565b600033905090565b600073ffffffffffffffffffffffffffffffffffffffff168373ffffffffffffffffffffffffffffffffffffffff161415613785576040517f08c379a00000000000000000000000000000000000000000000000000000000081526004018080602001828103825260248152602001806162096024913960400191505060405180910390fd5b600073ffffffffffffffffffffffffffffffffffffffff168273ffffffffffffffffffffffffffffffffffffffff16141561380b576040517f08c379a000000000000000000000000000000000000000000000000000000000815260040180806020018281038252602281526020018061612c6022913960400191505060405180910390fd5b80600260008573ffffffffffffffffffffffffffffffffffffffff1673ffffffffffffffffffffffffffffffffffffffff16815260200190815260200160002060008473ffffffffffffffffffffffffffffffffffffffff1673ffffffffffffffffffffffffffffffffffffffff168152602001908152602001600020819055508173ffffffffffffffffffffffffffffffffffffffff168373ffffffffffffffffffffffffffffffffffffffff167f8c5be1e5ebec7d5bd14f71427d1e84f3dd0314c0f7b2291e5b200ac8c7c3b925836040518082815260200191505060405180910390a3505050565b600460019054906101000a900473ffffffffffffffffffffffffffffffffffffffff1673ffffffffffffffffffffffffffffffffffffffff163373ffffffffffffffffffffffffffffffffffffffff16146139b9576040517f08c379a00000000000000000000000000000000000000000000000000000000081526004018080602001828103825260148152602001807f73656e646572206e6f7420746970206167656e7400000000000000000000000081525060200191505060405180910390fd5b565b600115156139c882612217565b151514613a3d576040517f08c379a00000000000000000000000000000000000000000000000000000000081526004018080602001828103825260108152602001807f75736572206e6f7420636c61696d65640000000000000000000000000000000081525060200191505060405180910390fd5b50565b613a486138f6565b81613a52816139bb565b6000613a5c6113b0565b905060008311613ad4576040517f08c379a00000000000000000000000000000000000000000000000000000000081526004018080602001828103825260148152602001807f63616e6e6f742073656e64203020746f6b656e7300000000000000000000000081525060200191505060405180910390fd5b60006008866040518082805190602001908083835b60208310613b0c5780518252602082019150602081019050602083039250613ae9565b6001836020036101000a038019825116818451168082178552505050505050905001915050908152602001604051809103902060000160009054906101000a900473ffffffffffffffffffffffffffffffffffffffff16905060006008866040518082805190602001908083835b60208310613b9d5780518252602082019150602081019050602083039250613b7a565b6001836020036101000a038019825116818451168082178552505050505050905001915050908152602001604051809103902060000160009054906101000a900473ffffffffffffffffffffffffffffffffffffffff169050613c018282876142c3565b600460009054906101000a900460ff1615613c2957613c2886613c2383611a9c565b61481b565b5b8073ffffffffffffffffffffffffffffffffffffffff168273ffffffffffffffffffffffffffffffffffffffff167f299eb6f534c4f090c37218944eb2f615b31d9da18a8ecb624f7b76134f71784d898989600160405180806020018060200185815260200184151515158152602001838103835287818151815260200191508051906020019080838360005b83811015613cd1578082015181840152602081019050613cb6565b50505050905090810190601f168015613cfe5780820380516001836020036101000a031916815260200191505b50838103825286818151815260200191508051906020019080838360005b83811015613d37578082015181840152602081019050613d1c565b50505050905090810190601f168015613d645780820380516001836020036101000a031916815260200191505b50965050505050505060405180910390a35050613d80816149c6565b5050505050565b82613d91816139bb565b82613d9b81614b9b565b6000613da56113b0565b905060008411613e1d576040517f08c379a00000000000000000000000000000000000000000000000000000000081526004018080602001828103825260148152602001807f63616e6e6f742073656e64203020746f6b656e7300000000000000000000000081525060200191505060405180910390fd5b60006008876040518082805190602001908083835b60208310613e555780518252602082019150602081019050602083039250613e32565b6001836020036101000a038019825116818451168082178552505050505050905001915050908152602001604051809103902060000160009054906101000a900473ffffffffffffffffffffffffffffffffffffffff169050613eb98130876142c3565b846008876040518082805190602001908083835b60208310613ef05780518252602082019150602081019050602083039250613ecd565b6001836020036101000a038019825116818451168082178552505050505050905001915050908152602001604051809103902060020160008282540192505081905550846008876040518082805190602001908083835b60208310613f6a5780518252602082019150602081019050602083039250613f47565b6001836020036101000a038019825116818451168082178552505050505050905001915050908152602001604051809103902060040160008373ffffffffffffffffffffffffffffffffffffffff1673ffffffffffffffffffffffffffffffffffffffff168152602001908152602001600020819055506008866040518082805190602001908083835b602083106140175780518252602082019150602081019050602083039250613ff4565b6001836020036101000a03801982511681845116808217855250505050505090500191505090815260200160405180910390206005018190806001815401808255809150509060018203906000526020600020016000909192909190916101000a81548173ffffffffffffffffffffffffffffffffffffffff021916908373ffffffffffffffffffffffffffffffffffffffff16021790555050600460009054906101000a900460ff16156140d9576140d8876140d383611a9c565b61481b565b5b6008866040518082805190602001908083835b6020831061410f57805182526020820191506020810190506020830392506140ec565b6001836020036101000a038019825116818451168082178552505050505050905001915050908152602001604051809103902060000160009054906101000a900473ffffffffffffffffffffffffffffffffffffffff1673ffffffffffffffffffffffffffffffffffffffff168173ffffffffffffffffffffffffffffffffffffffff167f299eb6f534c4f090c37218944eb2f615b31d9da18a8ecb624f7b76134f71784d898989600060405180806020018060200185815260200184151515158152602001838103835287818151815260200191508051906020019080838360005b8381101561420d5780820151818401526020810190506141f2565b50505050905090810190601f16801561423a5780820380516001836020036101000a031916815260200191505b50838103825286818151815260200191508051906020019080838360005b83811015614273578082015181840152602081019050614258565b50505050905090810190601f1680156142a05780820380516001836020036101000a031916815260200191505b50965050505050505060405180910390a3506142bb816149c6565b505050505050565b600073ffffffffffffffffffffffffffffffffffffffff168373ffffffffffffffffffffffffffffffffffffffff161415614349576040517f08c379a00000000000000000000000000000000000000000000000000000000081526004018080602001828103825260258152602001806161e46025913960400191505060405180910390fd5b600073ffffffffffffffffffffffffffffffffffffffff168273ffffffffffffffffffffffffffffffffffffffff1614156143cf576040517f08c379a00000000000000000000000000000000000000000000000000000000081526004018080602001828103825260238152602001806160b36023913960400191505060405180910390fd5b61443b8160405180606001604052806026815260200161614e60269139600160008773ffffffffffffffffffffffffffffffffffffffff1673ffffffffffffffffffffffffffffffffffffffff1681526020019081526020016000205461457d9092919063ffffffff16565b600160008573ffffffffffffffffffffffffffffffffffffffff1673ffffffffffffffffffffffffffffffffffffffff168152602001908152602001600020819055506144d081600160008573ffffffffffffffffffffffffffffffffffffffff1673ffffffffffffffffffffffffffffffffffffffff1681526020019081526020016000205461463d90919063ffffffff16565b600160008473ffffffffffffffffffffffffffffffffffffffff1673ffffffffffffffffffffffffffffffffffffffff168152602001908152602001600020819055508173ffffffffffffffffffffffffffffffffffffffff168373ffffffffffffffffffffffffffffffffffffffff167fddf252ad1be2c89b69c2b068fc378daa952ba7f163c4a11628f55a4df523b3ef836040518082815260200191505060405180910390a3505050565b600083831115829061462a576040517f08c379a00000000000000000000000000000000000000000000000000000000081526004018080602001828103825283818151815260200191508051906020019080838360005b838110156145ef5780820151818401526020810190506145d4565b50505050905090810190601f16801561461c5780820380516001836020036101000a031916815260200191505b509250505060405180910390fd5b5060008385039050809150509392505050565b6000808284019050838110156146bb576040517f08c379a000000000000000000000000000000000000000000000000000000000815260040180806020018281038252601b8152602001807f536166654d6174683a206164646974696f6e206f766572666c6f77000000000081525060200191505060405180910390fd5b8091505092915050565b6060600760003373ffffffffffffffffffffffffffffffffffffffff1673ffffffffffffffffffffffffffffffffffffffff1681526020019081526020016000208054600181600116156101000203166002900480601f01602080910402602001604051908101604052809291908181526020018280546001816001161561010002031660029004801561479a5780601f1061476f5761010080835404028352916020019161479a565b820191906000526020600020905b81548152906001019060200180831161477d57829003601f168201915b505050505090506000815111614818576040517f08c379a00000000000000000000000000000000000000000000000000000000081526004018080602001828103825260158152602001807f73656e64657220686173206e6f2075736572204944000000000000000000000081525060200191505060405180910390fd5b50565b6148b06008836040518082805190602001908083835b602083106148545780518252602082019150602081019050602083039250614831565b6001836020036101000a038019825116818451168082178552505050505050905001915050908152602001604051809103902060000160009054906101000a900473ffffffffffffffffffffffffffffffffffffffff16611a9c565b81116148bc5780614952565b6149516008836040518082805190602001908083835b602083106148f557805182526020820191506020810190506020830392506148d2565b6001836020036101000a038019825116818451168082178552505050505050905001915050908152602001604051809103902060000160009054906101000a900473ffffffffffffffffffffffffffffffffffffffff16611a9c565b5b6008836040518082805190602001908083835b602083106149885780518252602082019150602081019050602083039250614965565b6001836020036101000a0380198251168184511680821785525050505050509050019150509081526020016040518091039020600301819055505050565b806149cf6113b0565b14614a42576040517f08c379a00000000000000000000000000000000000000000000000000000000081526004018080602001828103825260108152602001807f737570706c7920696e76617269616e740000000000000000000000000000000081525060200191505060405180910390fd5b50565b6060600760003373ffffffffffffffffffffffffffffffffffffffff1673ffffffffffffffffffffffffffffffffffffffff1681526020019081526020016000208054600181600116156101000203166002900480601f016020809104026020016040519081016040528092919081815260200182805460018160011615610100020316600290048015614b1a5780601f10614aef57610100808354040283529160200191614b1a565b820191906000526020600020905b815481529060010190602001808311614afd57829003601f168201915b505050505090506000815114614b98576040517f08c379a000000000000000000000000000000000000000000000000000000000815260040180806020018281038252601a8152602001807f73656e64657220616c726561647920686173207573657220494400000000000081525060200191505060405180910390fd5b50565b60001515614ba882612217565b151514614c1d576040517f08c379a00000000000000000000000000000000000000000000000000000000081526004018080602001828103825260148152602001807f7573657220616c726561647920636c61696d656400000000000000000000000081525060200191505060405180910390fd5b50565b60001515600b60003373ffffffffffffffffffffffffffffffffffffffff1673ffffffffffffffffffffffffffffffffffffffff16815260200190815260200160002060009054906101000a900460ff16151514614cc9576040517f08c379a00000000000000000000000000000000000000000000000000000000081526004018080602001828103825260248152602001806161986024913960400191505060405180910390fd5b6001600b60003373ffffffffffffffffffffffffffffffffffffffff1673ffffffffffffffffffffffffffffffffffffffff16815260200190815260200160002060006101000a81548160ff021916908315150217905550565b600073ffffffffffffffffffffffffffffffffffffffff168173ffffffffffffffffffffffffffffffffffffffff161415614da9576040517f08c379a00000000000000000000000000000000000000000000000000000000081526004018080602001828103825260268152602001806161066026913960400191505060405180910390fd5b8073ffffffffffffffffffffffffffffffffffffffff166000809054906101000a900473ffffffffffffffffffffffffffffffffffffffff1673ffffffffffffffffffffffffffffffffffffffff167f8be0079c531659141344cd1fd0a4f28419497f9722a3daafe3b4186f6b6457e060405160405180910390a3806000806101000a81548173ffffffffffffffffffffffffffffffffffffffff021916908373ffffffffffffffffffffffffffffffffffffffff16021790555050565b600082614e73816139bb565b6000614e7e8461197a565b9050614e88616048565b6008866040518082805190602001908083835b60208310614ebe5780518252602082019150602081019050602083039250614e9b565b6001836020036101000a03801982511681845116808217855250505050505090500191505090815260200160405180910390206040518060a00160405290816000820160009054906101000a900473ffffffffffffffffffffffffffffffffffffffff1673ffffffffffffffffffffffffffffffffffffffff1673ffffffffffffffffffffffffffffffffffffffff16815260200160018201548152602001600282015481526020016003820154815260200160058201805480602002602001604051908101604052809291908181526020018280548015614ff557602002820191906000526020600020905b8160009054906101000a900473ffffffffffffffffffffffffffffffffffffffff1673ffffffffffffffffffffffffffffffffffffffff1681526020019060010190808311614fab575b505050505081525050905061500e816000015183615a72565b50806000015173ffffffffffffffffffffffffffffffffffffffff167f5c41f4ea011db1ad5568b9114b1d3cab1ef32c9fbcda67408d722503d19002fc8684604051808381526020018281526020019250505060405180910390a260008160400151905060008111156153735761508a308360000151836142c3565b600082608001515111156153725760008090505b826080015151811015615370576000836080015182815181106150bd57fe5b6020026020010151905060006151858261518060088d6040518082805190602001908083835b6020831061510657805182526020820191506020810190506020830392506150e3565b6001836020036101000a038019825116818451168082178552505050505050905001915050908152602001604051809103902060040160008673ffffffffffffffffffffffffffffffffffffffff1673ffffffffffffffffffffffffffffffffffffffff168152602001908152602001600020548c6112e1565b615a72565b9050600081111561532f578173ffffffffffffffffffffffffffffffffffffffff16856000015173ffffffffffffffffffffffffffffffffffffffff167fc34f78c4e0a61a7446f4555b63c4031ce1ef800e1f3a36724db362bd9346a63e8c600760008773ffffffffffffffffffffffffffffffffffffffff1673ffffffffffffffffffffffffffffffffffffffff16815260200190815260200160002085604051808060200180602001848152602001838103835286818151815260200191508051906020019080838360005b8381101561526e578082015181840152602081019050615253565b50505050905090810190601f16801561529b5780820380516001836020036101000a031916815260200191505b5083810382528581815460018160011615610100020316600290048152602001915080546001816001161561010002031660029004801561531d5780601f106152f25761010080835404028352916020019161531d565b820191906000526020600020905b81548152906001019060200180831161530057829003601f168201915b50509550505050505060405180910390a35b8460800151838151811061533f57fe5b60200260200101600073ffffffffffffffffffffffffffffffffffffffff168152505050808060010191505061509e565b505b5b600082604001818152505080830194505050505092915050565b60008160405160200180807f19457468657265756d205369676e6564204d6573736167653a0a333200000000815250601c01828152602001915050604051602081830303815290604052805190602001209050919050565b60606000806000600990506000858260ff166001885103038151811061540757fe5b602001015160f81c60f81b9050606060826040519080825280601f01601f19166020018201604052801561544a5781602001600182028038833980820191505090505b50905060008090505b60828110156154c95787818560ff1660038b510303038151811061547357fe5b602001015160f81c60f81b82826081038151811061548d57fe5b60200101907effffffffffffffffffffffffffffffffffffffffffffffffffffffffffffff1916908160001a9053508080600101915050615453565b50606061569873__Strings_______________________________63d18e9b0d8660ff168b51038b518c6040518463ffffffff1660e01b81526004018084815260200183815260200180602001828103825283818151815260200191508051906020019080838360005b8381101561554e578082015181840152602081019050615533565b50505050905090810190601f16801561557b5780820380516001836020036101000a031916815260200191505b5094505050505060006040518083038186803b15801561559a57600080fd5b505af41580156155ae573d6000803e3d6000fd5b505050506040513d6000823e3d601f19601f8201168201806040525060208110156155d857600080fd5b81019080805160405193929190846401000000008211156155f857600080fd5b8382019150602082018581111561560e57600080fd5b825186600182028301116401000000008211171561562b57600080fd5b8083526020830192505050908051906020019080838360005b8381101561565f578082015181840152602081019050615644565b50505050905090810190601f16801561568c5780820380516001836020036101000a031916815260200191505b5060405250505061581e565b905060006156a582615aa9565b60e01c90507fad32e83c9322068f49f7a247253392fca01bc70546750bb12fd3bf67940af0e382604051808060200180602001838103835260068152602001807f6642797465730000000000000000000000000000000000000000000000000000815250602001838103825284818151815260200191508051906020019080838360005b83811015615744578082015181840152602081019050615729565b50505050905090810190601f1680156157715780820380516001836020036101000a031916815260200191505b50935050505060405180910390a17f94ecf0a5d009635618b71e100a518cc65ea421ea74e1c309691c0669b0d5168c8160405180806020018363ffffffff1663ffffffff168152602001828103825260098152602001807f666f6c6c6f7765727300000000000000000000000000000000000000000000008152506020019250505060405180910390a1826158088560f81c615acd565b60f81b8297509750975050505050509193909250565b60606000600283518161582d57fe5b0614615884576040517f08c379a00000000000000000000000000000000000000000000000000000000081526004018080602001828103825260248152602001806161746024913960400191505060405180910390fd5b6060600283518161589157fe5b046040519080825280601f01601f1916602001820160405280156158c45781602001600182028038833980820191505090505b50905060008090505b60028451816158d857fe5b048110156159865760008482600202815181106158f157fe5b602001015160f81c60f81b60f81c9050600085600184600202018151811061591557fe5b602001015160f81c60f81b60f81c905061592e81615acd565b601061593984615acd565b020160f81b84848151811061594a57fe5b60200101907effffffffffffffffffffffffffffffffffffffffffffffffffffffffffffff1916908160001a90535050508060010190506158cd565b5080915050919050565b60008060008060418551146159ab5760009350505050615a6c565b6020850151925060408501519150606085015160001a9050601b8160ff1610156159d657601b810190505b601b8160ff16141580156159ee5750601c8160ff1614155b156159ff5760009350505050615a6c565b60018682858560405160008152602001604052604051808581526020018460ff1660ff1681526020018381526020018281526020019450505050506020604051602081039080840390855afa158015615a5c573d6000803e3d6000fd5b5050506020604051035193505050505b92915050565b6000600654615a7f6113b0565b83011115615a9657615a8f6113b0565b6006540391505b615aa08383615e0b565b81905092915050565b60008082511415615ac057600060e01b9050615ac8565b600482015190505b919050565b60007f30000000000000000000000000000000000000000000000000000000000000007effffffffffffffffffffffffffffffffffffffffffffffffffffffffffffff19168260f81b7effffffffffffffffffffffffffffffffffffffffffffffffffffffffffffff191610158015615bad57507f39000000000000000000000000000000000000000000000000000000000000007effffffffffffffffffffffffffffffffffffffffffffffffffffffffffffff19168260f81b7effffffffffffffffffffffffffffffffffffffffffffffffffffffffffffff191611155b15615bdf577f300000000000000000000000000000000000000000000000000000000000000060f81c82039050615e06565b7f61000000000000000000000000000000000000000000000000000000000000007effffffffffffffffffffffffffffffffffffffffffffffffffffffffffffff19168260f81b7effffffffffffffffffffffffffffffffffffffffffffffffffffffffffffff191610158015615cbd57507f66000000000000000000000000000000000000000000000000000000000000007effffffffffffffffffffffffffffffffffffffffffffffffffffffffffffff19168260f81b7effffffffffffffffffffffffffffffffffffffffffffffffffffffffffffff191611155b15615cf2577f610000000000000000000000000000000000000000000000000000000000000060f81c82600a01039050615e06565b7f41000000000000000000000000000000000000000000000000000000000000007effffffffffffffffffffffffffffffffffffffffffffffffffffffffffffff19168260f81b7effffffffffffffffffffffffffffffffffffffffffffffffffffffffffffff191610158015615dd057507f46000000000000000000000000000000000000000000000000000000000000007effffffffffffffffffffffffffffffffffffffffffffffffffffffffffffff19168260f81b7effffffffffffffffffffffffffffffffffffffffffffffffffffffffffffff191611155b15615e05577f410000000000000000000000000000000000000000000000000000000000000060f81c82600a01039050615e06565b5b919050565b600073ffffffffffffffffffffffffffffffffffffffff168273ffffffffffffffffffffffffffffffffffffffff161415615eae576040517f08c379a000000000000000000000000000000000000000000000000000000000815260040180806020018281038252601f8152602001807f45524332303a206d696e7420746f20746865207a65726f20616464726573730081525060200191505060405180910390fd5b615ec38160035461463d90919063ffffffff16565b600381905550615f1b81600160008573ffffffffffffffffffffffffffffffffffffffff1673ffffffffffffffffffffffffffffffffffffffff1681526020019081526020016000205461463d90919063ffffffff16565b600160008473ffffffffffffffffffffffffffffffffffffffff1673ffffffffffffffffffffffffffffffffffffffff168152602001908152602001600020819055508173ffffffffffffffffffffffffffffffffffffffff16600073ffffffffffffffffffffffffffffffffffffffff167fddf252ad1be2c89b69c2b068fc378daa952ba7f163c4a11628f55a4df523b3ef836040518082815260200191505060405180910390a35050565b828054600181600116156101000203166002900490600052602060002090601f016020900481019282601f1061600957805160ff1916838001178555616037565b82800160010185558215616037579182015b8281111561603657825182559160200191906001019061601b565b5b509050616044919061608d565b5090565b6040518060a00160405280600073ffffffffffffffffffffffffffffffffffffffff168152602001600081526020016000815260200160008152602001606081525090565b6160af91905b808211156160ab576000816000905550600101616093565b5090565b9056fe45524332303a207472616e7366657220746f20746865207a65726f20616464726573737265636f7665726564206164647265737320646f6573206e6f74206d6174636820636c61696d657220616464726573734f776e61626c653a206e6577206f776e657220697320746865207a65726f206164647265737345524332303a20617070726f766520746f20746865207a65726f206164647265737345524332303a207472616e7366657220616d6f756e7420657863656564732062616c616e6365417474656d707420746f20636f6e7665727420756e6576656e2068657820737472696e6773656e64657220616c726561647920686173206120726571756573742070656e64696e6745524332303a207472616e7366657220616d6f756e74206578636565647320616c6c6f77616e636545524332303a207472616e736665722066726f6d20746865207a65726f206164647265737345524332303a20617070726f76652066726f6d20746865207a65726f206164647265737345524332303a2064656372656173656420616c6c6f77616e63652062656c6f77207a65726fa265627a7a7231582055d536a89e32d7e7c50f32c02cc47f3f0d5f702260f660db0693a606b051f2c064736f6c634300050f0032",
  "source": "pragma solidity ^0.5.0;\n\nimport \"openzeppelin-solidity/contracts/ownership/Ownable.sol\";\nimport \"openzeppelin-solidity/contracts/token/ERC20/ERC20.sol\";\nimport \"openzeppelin-solidity/contracts/math/SafeMath.sol\";\nimport \"./libraries/Strings.sol\";\nimport \"./libraries/ECDSA.sol\";\nimport \"./libraries/Helpers.sol\";\n\nimport \"./mocks/TwitterOracleMock.sol\";\n\n/*\n * @title WokeToken ERC20 Contract\n * @notice Registers and stores user IDs and manages token transfers.\n */\n\n/*\n *\tNeeds multisig with admin wallet that prevents spamming of claims to \n *\tlarge profile accounts.\n * TODO:\n *  - more rigourous invariant modifiers\n *  - could get a multiplier based on the size of the unclaimed pool\n *  - replace @notice tag with something clearer\n *  - Neccessity of sending userID with transaction with user is alread claimed?\n *  - look into replace 'Claimed' terminology with roles\n */\n\ncontract WokeToken is Ownable, ERC20 {\n\tstruct User {\n\t\taddress account;\n\t\tuint256 followers;\n\t\tuint256 unclaimedBalance;\n\t\tuint256 tipBalance;\n\t\tmapping(address => uint256) referralAmount;\n\t\taddress[] referrers;\n\t}\n\n\t/* CONTRACT STORAGE */\n\t// Constants\n\tbool DEFAULT_TIP_ALL = true;\n\n\t// Protocol contracts\n\taddress public tippingAgent;\n\taddress public twitterClient;\n\tbyte authVersion = 0x01; // Claim string / auth token version\n\tbyte appId = 0x0A;\t\t// Auth app, only twitter for now\n\n\n\t// Token generation parameters\n\tuint256 public maxSupply;\n\t//uint32 public reward;\n\t//uint32 public multiplier;\n\t//uint32 public halving;\n\n\t// User accounts\n\tmapping(address => string) userIds; // Mapping of addresses to twitter account IDs (handles are mutable alias for ID)\n\tmapping(string => User) users;\n\tmapping(string => address) requester; // claim string needs a nonce\n\n\tuint256 private userCount;\n\n\t// Safety\n\tmapping(address => bool) private requestMutexes; // Oracle requests are blocking\n\t/*----------------*/\n\n\t// @dev Create token with given generation parameters\n\t// @param _twitterClient\tAddress of provable client contract for twitter api requests\n\t// @param _tippingAgent\t\tAddress of chainlink client contract for twitter api requests\n\t// @param _maxSupply\t\tTotal supply of wokeTokens allowed to exist\n\t// @param _reward\t\t\tLinear coeffient for token generation curve\n\t// @param _multiplier\t\tReward multiplier for Eth contribution\n\tconstructor(\n\t\taddress _twitterClient, \n\t\taddress _tippingAgent, \n\t\t//uint32 _reward, \n\t\t//uint32 _multiplier, \n\t\t//uint32 _halving,\n\t\tuint32 _maxSupply\n\t) public payable {\n\t\ttwitterClient = _twitterClient;\n\t\ttippingAgent = _tippingAgent;\n\t\tmaxSupply = _maxSupply;\n\t\t//reward = _reward;\n\t\t//multiplier = _multiplier;\n\t\tuserCount = 0;\n\t}\n\n\t// @notice Connect a wallet to a Twitter user ID and claim any unclaimed TXs  \n\t// @returns Provable query ID\n\tfunction claimUser(string memory _user) public payable\n\t\thasNoUser\n\t\tuserNotClaimed(_user)\n\t\trequestUnlocked\n\treturns (bytes32)\n\t{\n\t\trequester[_user] = msg.sender;\n\n\t\tTwitterOracleMock client = TwitterOracleMock(twitterClient);\n\t\tbytes32 queryId = client.query_findClaimTweet(_user);\n\t\t//bytes32 queryId = bytes32(0);\n\n\t\tif(queryId == bytes32(0)) {\n\t\t\t// Query failure, revert\n\t\t\temit TraceBytes32('failed query', queryId);\n\t\t}\n\n\t\temit Lodged(msg.sender, _user, queryId);\n\n\t\treturn queryId;\n\t}\n\n\t// @notice Receive claimer data from client and action claim\n\t// @param _id user id\n\t// @param _claimString tweet text which should contain a signed claim string\n\tfunction _fulfillClaim(string memory _id) public\n\t\tuserNotClaimed(_id)\n\t\trequestLocked(requester[_id])\n\t{\n\t\tTwitterOracleMock client = TwitterOracleMock(twitterClient);\n\t\tstring memory claimString = client.getTweetText(_id);\n\t\trequire(bytes(claimString).length > 0, \"claim string not stored\");\n\n\t\taddress claimer = requester[_id];\n\t\trequire(verifyClaimString(claimer, _id, claimString), \"invalid claim string\");\n\n\t\tuint256 _followers = 1; // change to function argument\n\n\t\t// address _claimer\n\n\t\t// Link wallet and twitter handle\n\t\tuserIds[claimer] = _id;\n\t\tusers[_id].account = claimer;\n\n\t\t// Claim unclaimed transactions and join bonus\n\t\temit Claimed(claimer, _id, claimBonus(_id, _followers));\n\t\tuserCount += 1;\n\n\t\temit TraceUint256('balanceClaimed', balanceOf(users[_id].account));\n\t\tif(DEFAULT_TIP_ALL) {\n\t\t\t_setTipBalance(_id, balanceOf(users[_id].account));\n\t\t}\n\n\t\trequester[_id] = address(0); // @fix delete this value\n\t}\n\n\t// @notice Transfer a new userId's bonus to their account\n\t// @param _id\t\t\tUser ID\n\t// @param _followers\tNumber of follwers\n\t// @returns Total amount claimed\n\tfunction claimBonus(string memory _id, uint256 _followers)\n\t\tprivate\n\t\tuserIsClaimed(_id)\n\treturns (uint256)\n\t{\n\t\t// Mint new tokens based on userIds followers\n\t\tuint256 bonus = calculateBonus(_followers);\n\n\t\tUser memory user = users[_id];\n\t\tmint(user.account, bonus);\n\t\temit Summoned(user.account, _followers, bonus);\n\n\t\tuint unclaimedBalance = user.unclaimedBalance;\n\n\t\t// Transfer the unclaimed amount and bonus from the token contract to the user\n\t\tif(unclaimedBalance > 0) {\n\t\t\t_transfer(address(this), user.account, unclaimedBalance); \n\t\t\t// @dev this conditional should always pass\n\t\t\tif(user.referrers.length > 0) {\n\t\t\t\tfor(uint i = 0; i < user.referrers.length; i++) {\n\t\t\t\t\taddress referrer = user.referrers[i];\n\t\t\t\t\t// Summon new tokens directly to referrers wallet\n\t\t\t\t\tuint reward = mint(\n\t\t\t\t\t\treferrer,\n\t\t\t\t\t\tcalculateReward(users[_id].referralAmount[referrer], _followers)\n\t\t\t\t\t);\n\t\t\t\t\tif(reward > 0) {\n\t\t\t\t\t\temit Reward(user.account, referrer, _id, userIds[referrer], reward);\n\t\t\t\t\t}\n\t\t\t\t\tdelete user.referrers[i];\n\t\t\t\t}\n\t\t\t}\n\t\t}\n\n\t\tuser.unclaimedBalance = 0;\n\n\t\treturn bonus + unclaimedBalance;\n\t}\n\n\t// @notice Mint the given amount, or the remaining unminted supply\n\t// @returns Amount minted\n\tfunction mint(address _recipient, uint256 _amount) internal\n\treturns (uint256)\n\t{\n\t\tif(_amount + totalSupply() > maxSupply) {\n\t\t\t_amount = maxSupply - totalSupply();\n\t\t}\n\t\t_mint(_recipient, _amount);\n\t\treturn _amount;\n\t}\n\n\t// @notice Trans\n\t//function transferUnclaimed(uint32 _from, uint32 _to, uint32 _amount)\n\tfunction transferUnclaimed(string memory _toId, uint256 _amount)\n\t\tpublic\n\t\thasUser\n\t{\n\t\trequire(_amount > 0, 'cannot send 0 tokens');\n\n\t\t_transferUnclaimed(myUser(), _toId, _amount);\n\t}\n\n\t// @notice Trans\n\tfunction _transferUnclaimed(string memory _fromId, string memory _toId, uint256 _amount)\n\t\tinternal\n\t\tuserIsClaimed(_fromId)\n\t\tuserNotClaimed(_toId)\n\t\tsupplyInvariant\n\t{\n\t\trequire(_amount > 0, 'cannot send 0 tokens');\n\n\t\taddress from = users[_fromId].account;\n\n\t\t// 1. Transfer the amount from the the sender to the token contract\n\t\t// @TODO naughty naughty\n\t\t//approve(tippingAgent, _amount);\n\t\t//transferFrom(from, address(this), _amount); // @dev Use safe math\n\t\t_transfer(from, address(this), _amount); // @dev Use safe math\n\n\t\t// 2. Set the unclaimed balance for the receiving user\n\t\tusers[_toId].unclaimedBalance += _amount;\n\t\tusers[_toId].referralAmount[from] = _amount;\n\t\tusers[_toId].referrers.push(from);\n\n\t\tif(DEFAULT_TIP_ALL) {\n\t\t\t_setTipBalance(_fromId, balanceOf(from));\n\t\t}\n\n\t\t//emit Tx(userIds[msg.sender], _toId, userIds[msg.sender], _toId, _amount, false);\n\t\temit Tx(from, users[_toId].account, _fromId, _toId, _amount, false);\n\t}\n\n\t// @notice Transfer tokens between claimed userIds\n\tfunction transferClaimed(string memory _toId, uint256 _amount) \n\t\tpublic\n\t\thasUser\n\t\tuserIsClaimed(_toId)\n\t\tsupplyInvariant\n\t{\n\t\ttransfer(users[_toId].account, _amount);\n\n\t\tif(DEFAULT_TIP_ALL) {\n\t\t\t_setTipBalance(_toId, balanceOf(users[_toId].account));\n\t\t}\n\n\t\t//emit Tx(userIds[msg.sender], _toId, userIds[msg.sender], _toId, _amount, true);\n\t\temit Tx(msg.sender, users[_toId].account, userIds[msg.sender], _toId, _amount, true);\n\t}\n\n\t// @notice Transfer tokens between claimed userIds\n\tfunction _transferClaimed(string memory _fromId, string memory _toId, uint256 _amount) \n\t\tinternal\n\t\tonlyTipAgent\n\t\tuserIsClaimed(_toId)\n\t\tsupplyInvariant\n\t{\n\t\trequire(_amount > 0, 'cannot send 0 tokens');\n\n\t\taddress from = users[_fromId].account;\n\t\taddress to = users[_toId].account;\n\t\t// @TODO naughty naughty\n\t\t//approve(tippingAgent, _amount);\n\t\t//transferFrom(from, to, _amount);\n\t\t_transfer(from, to, _amount);\n\n\t\tif(DEFAULT_TIP_ALL) {\n\t\t\t_setTipBalance(_toId, balanceOf(to));\n\t\t}\n\n\t\t//emit Tx(userIds[msg.sender], _toId, userIds[msg.sender], _toId, _amount, true);\n\t\temit Tx(from, to, _fromId, _toId, _amount, true);\n\t}\n\n\tfunction tip(string calldata _fromId, string calldata _toId, uint256 _amount)\n\t\texternal\n\t\tonlyTipAgent\n\t\tuserIsClaimed(_fromId)\n\t\treturns(uint256)\n\t{\n\t\t// @TODO should perform this check off chain\n\t\tuint256 tipBalance = users[_fromId].tipBalance;\n\t\tuint256 amount = _amount > tipBalance ? tipBalance : _amount;\n\n\t\trequire(amount > 0, \"cannot tip 0 tokens\");\n\n\t\tif(userClaimed(_toId)) {\n\t\t\t_transferClaimed(_fromId, _toId, amount);\n\t\t} else {\n\t\t\t_transferUnclaimed(_fromId, _toId, amount);\n\t\t}\n\n\t\tusers[_fromId].tipBalance = tipBalance - amount;\n\t\trequire(tipBalance - amount == users[_fromId].tipBalance, \"tip balance invariant violated\");\n\n\t\temit Tip(_fromId, _toId, amount);\n\t\treturn amount;\n\t}\n\n\tfunction setTipBalance(uint256 _amount)\n\t\texternal\n\t\thasUser\n\t{\n\t\t_setTipBalance(myUser(), _amount);\n\t}\n\n\tfunction _setTipBalance(string memory _userId, uint256 _amount)\n\t\tprivate\n\t{\n\t\t//uint256 userBalance = balanceOf(users[_userId].account);\n\t\t//uint256 amount = _amount > balanceOf(users[_userId].account) ? balanceOf(users[_userId].account) : _amount;\n\t\t\n\t\tusers[_userId].tipBalance = _amount > balanceOf(users[_userId].account) ? balanceOf(users[_userId].account) : _amount;\n\t\t//users[_userId].tipBalance = amount;\n\t}\n\n\t/* TOKEN GENERATION PARAMETERS */\n\t// Calculate the joining bonus based\n\t// @dev Defines token generation curve\n\tfunction calculateBonus(uint256 _followers) \n\tpublic view\n\treturns(uint256)\n\t{\n\t\t// @fix factor in halving e.g. *(halving/2)\n\t\t// @fix factor in userCount\n\t\t// @fix use safeMath\n\t\tuint256 unclaimedPool = balanceOf(address(this)); // total unclaimed tokens\n\n\t\tuint256 count = userCount;\n\t\tif(count == 0) {\n\t\t\tcount = 1;\n\t\t}\n\t\t\n\t\tuint256 bonus = 50 + ((_followers * unclaimedPool) / count); // * multiplier\n\t\treturn bonus;\n\t}\n\n\t// @notice Calculate the referral reward for an unclaimed user joining\n\t// @param _contribution: Amount sent by referrer to unclaimed user\n\t// @param _followers: Unclaimed user's follwer count\n\tfunction calculateReward(uint256 _contribution, uint256 _followers) \n\tpublic view\n\treturns(uint256)\n\t{\n\t\tuint256 count = userCount;\n\t\tif(count == 0) {\n\t\t\tcount = 1;\n\t\t}\n\t\tuint reward = (_contribution * _followers) / count;\n\t\treturn reward;\n\t}\n\n\tfunction verifyClaimString(address claimer, string memory _id, string memory _claimString)\n\tpublic\n\treturns (bool)\n\t{\n\t\t// Reconstruct the message hash\n\t\t// message = address + userId + appId // @fix + nonce\n\t\tbytes32 hash = keccak256(abi.encodePacked(uint256(claimer), _id, appId));\n\t\tbytes32 msgHash = ECDSA.messageHash(hash);\n\n\t\t// Extract signature from claim string\n\t\t(bytes memory sigHex, byte _authVersion, uint64 followersCount) = Helpers.parseClaim(bytes(_claimString));\n\t\temit TraceUint64('followers', followersCount);\n\t\tbytes memory sig = Strings.fromHex(sigHex);\n\n\t\trequire(_authVersion == authVersion, 'invalid auth version');\n\n\t\taddress recovered = ECDSA.recover(msgHash, sig);\n\t\trequire(recovered == claimer, 'recovered address does not match claimer address');\n\n\t\tbool result = (recovered == claimer);\n\t\temit Verification(result, recovered, claimer, _id);\n\n\t\treturn result;\n\t}\n\n\t/*-----------------------------*/\n\n\n\t/* HELPERS */\n\tfunction getUser(address account) public view\n\treturns (string memory)\n\t{\n\t\treturn userIds[account];\n\t}\n\n\tfunction myUser() public view\n\treturns (string memory)\n\t{\n\t\treturn userIds[msg.sender];\n\t}\n\n\tfunction getUserCount() public view\n\treturns (uint256)\n\t{\n\t\treturn userCount;\n\t}\n\n\tfunction unclaimedBalance(string memory _userId) public view\n\treturns (uint256)\n\t{\n\t\treturn users[_userId].unclaimedBalance;\n\t}\n\n\tfunction userBalance(string memory _userId) public view\n\treturns (uint256)\n\t{\n\t\t// unclaimed vs claimed?\n\t\treturn balanceOf(users[_userId].account);\n\t}\n\n\tfunction userClaimed(string memory _userId) public view\n\treturns (bool)\n\t{\n\t\tif(users[_userId].account == address(0)) {\n\t\t\treturn false;\n\t\t}\n\t\treturn true;\n\t}\n\n\n\t// @TODO rename to hasLodgedRequest\n\tfunction lodgedRequest(string memory _userId) public view\n\treturns (bool)\n\t{\n\t\tif(requester[_userId] == msg.sender) {\n\t\t\treturn true;\n\t\t}\n\t\treturn false;\n\t}\n\n\t/*\n\tfunction getTipBalance(string memory _userId) public view\n\treturns (uint256)\n\t{\n\t\treturn users[_userId].tipBalance;\n\t}\n\t*/\n\t/*---------*/\n\n\t/* MODIFIERS */\n\t// @note using internal functions inside of modifiers reduces the amount of\n\t// code inlined, thus reducing bytecode for small increase in gas usage.\n\tmodifier userNotClaimed(string memory _userId) {\n\t\t_userNotClaimed(_userId);\n\t\t_;\n\t}\n\tfunction _userNotClaimed(string memory _userId) internal view\n\t{\n\t\trequire(userClaimed(_userId) == false, \"user already claimed\");\n\t}\n\n\tmodifier userIsClaimed(string memory _userId) {\n\t\t_userIsClaimed(_userId);\n\t\t_;\n\t}\n\tfunction _userIsClaimed(string memory _userId) internal view {\n\t\trequire(userClaimed(_userId) == true, \"user not claimed\");\n\t}\n\n\t// @note has<Type>() implies check for mapping of (msg.sender => <Type>)\n\t// @notice Check if sending account has a claimed user\n\tmodifier hasUser() {\n\t\t_hasUser();\n\t\t_;\n\t}\n\tfunction _hasUser() internal view {\n\t\tbytes memory temp = bytes(userIds[msg.sender]);\n\t\trequire(temp.length > 0, \"sender has no user ID\");\n\t}\n\n\tmodifier hasNoUser() {\n\t\t_hasNoUser();\n\t\t_;\n\t}\n\tfunction _hasNoUser() internal view {\n\t\tbytes memory temp = bytes(userIds[msg.sender]);\n\t\trequire(temp.length == 0, \"sender already has user ID\");\n\t}\n\n\n\t// @notice Authenticate account is owner of user ID\n\t// @dev This should be redundant given the user claiming process, but\n\t//\t    it is left in for added safety during development.\n\tmodifier isUser(string memory _userId) {\n\t\t_isUser(_userId);\n\t\t_;\n\t}\n\n\tfunction _isUser(string memory _userId) internal view\n\t{\n\t\tstring memory temp = string(userIds[msg.sender]);\n\t\trequire(keccak256(abi.encodePacked((temp))) == keccak256(abi.encodePacked((_userId))),\n\t\t\t\t\"Sender not the owner of user ID\");\n\t}\n\n\t// @notice Acquire twitterClient request lock for sender iniating request\n\t// @dev Require the request lock is available\n\tmodifier requestUnlocked() {\n\t\t_requestUnlocked();\n\t\t_;\n\t}\n\tfunction _requestUnlocked() internal {\n\t\trequire(requestMutexes[msg.sender] == false, \"sender already has a request pending\");\n\t\trequestMutexes[msg.sender] = true;\n\t}\n\n\t// @notice Release twitterClient for account that initiated request\n\t// @dev Requires the request lock to be acquired\n\tmodifier requestLocked(address _requester) {\n\t\trequire(requestMutexes[_requester] == true, \"sender has no request pending\");\n\t\t_;\n\t\trequestMutexes[_requester] = false;\n\t}\n\n\tmodifier onlyClient() {\n\t\trequire(msg.sender == twitterClient, \"sender not client\");\n\t\t_;\n\t}\n\n\tmodifier onlyTipAgent() {\n\t\t_onlyTipAgent();\n\t\t_;\n\t}\n\tfunction _onlyTipAgent() internal view {\n\t\trequire(msg.sender == tippingAgent, \"sender not tip agent\");\n\t}\n\n\tmodifier supplyInvariant() {\n\t\tuint256 supply = totalSupply();\n\t\t_;\n\t\t_supplyInvariant(supply);\n\t}\n\tfunction _supplyInvariant(uint256 original) internal view {\n\t\trequire(totalSupply() == original, \"supply invariant\");\n\t}\n\n\t/* EVENTS */\n\tevent TraceString(string m, string v);\n\tevent TraceUint256(string m, uint256 v);\n\tevent TraceUint64(string m, uint64 v);\n\tevent TraceBytes32(string m, bytes32 v);\n\t//event TraceBytes(string m, bytes v);\n\t//event TraceByte(string m, byte v);\n\n\t// @param claimed: recipient is claimed\n\t//event Tx(string fromId, string toId, string indexed fromId_ind, string indexed toId_ind, uint256 amount, bool claimed);\n\tevent Tx(address indexed from, address indexed to, string fromId, string toId, uint256 amount, bool claimed);\n\tevent Tip(string fromId, string toId, uint256 amount);\n\n\tevent Claimed (address indexed account, string userId, uint256 amount);\n\tevent Summoned (address indexed account, uint256 followers, uint256 amount);\n\tevent Reward (address indexed claimer, address indexed referrer, string claimerId, string referrerId, uint256 amount);\n\tevent Verification(bool value, address recovered, address claimer, string userId);\n\tevent Lodged (address indexed claimer, string userId, bytes32 queryId);\n}\n",
  "sourcePath": "/home/jack/Repositories/jgitgud/woke-dapp/@woke/contracts-src/contracts/WokeToken.sol",
  "compiler": {
    "name": "solc",
    "version": "0.5.15+commit.6a57276f.Emscripten.clang"
  },
  "schemaVersion": "3.0.20",
  "updatedAt": "2020-05-15T07:20:05.368Z",
  "devdoc": {
    "methods": {
      "allowance(address,address)": {
        "details": "See {IERC20-allowance}."
      },
      "approve(address,uint256)": {
        "details": "See {IERC20-approve}.     * Requirements:     * - `spender` cannot be the zero address."
      },
      "balanceOf(address)": {
        "details": "See {IERC20-balanceOf}."
      },
      "decreaseAllowance(address,uint256)": {
        "details": "Atomically decreases the allowance granted to `spender` by the caller.     * This is an alternative to {approve} that can be used as a mitigation for problems described in {IERC20-approve}.     * Emits an {Approval} event indicating the updated allowance.     * Requirements:     * - `spender` cannot be the zero address. - `spender` must have allowance for the caller of at least `subtractedValue`."
      },
      "increaseAllowance(address,uint256)": {
        "details": "Atomically increases the allowance granted to `spender` by the caller.     * This is an alternative to {approve} that can be used as a mitigation for problems described in {IERC20-approve}.     * Emits an {Approval} event indicating the updated allowance.     * Requirements:     * - `spender` cannot be the zero address."
      },
      "isOwner()": {
        "details": "Returns true if the caller is the current owner."
      },
      "owner()": {
        "details": "Returns the address of the current owner."
      },
      "renounceOwnership()": {
        "details": "Leaves the contract without owner. It will not be possible to call `onlyOwner` functions anymore. Can only be called by the current owner.     * NOTE: Renouncing ownership will leave the contract without an owner, thereby removing any functionality that is only available to the owner."
      },
      "totalSupply()": {
        "details": "See {IERC20-totalSupply}."
      },
      "transfer(address,uint256)": {
        "details": "See {IERC20-transfer}.     * Requirements:     * - `recipient` cannot be the zero address. - the caller must have a balance of at least `amount`."
      },
      "transferFrom(address,address,uint256)": {
        "details": "See {IERC20-transferFrom}.     * Emits an {Approval} event indicating the updated allowance. This is not required by the EIP. See the note at the beginning of {ERC20};     * Requirements: - `sender` and `recipient` cannot be the zero address. - `sender` must have a balance of at least `amount`. - the caller must have allowance for `sender`'s tokens of at least `amount`."
      },
      "transferOwnership(address)": {
        "details": "Transfers ownership of the contract to a new account (`newOwner`). Can only be called by the current owner."
      }
    }
  },
  "userdoc": {
    "methods": {}
  }
}