{
  "contractName": "WokeToken",
  "abi": [
    {
      "inputs": [
        {
          "internalType": "address",
          "name": "_twitterClient",
          "type": "address"
        },
        {
          "internalType": "address",
          "name": "_tippingAgent",
          "type": "address"
        },
        {
          "internalType": "uint32",
          "name": "_maxSupply",
          "type": "uint32"
        }
      ],
      "payable": true,
      "stateMutability": "payable",
      "type": "constructor"
    },
    {
      "anonymous": false,
      "inputs": [
        {
          "indexed": true,
          "internalType": "address",
          "name": "owner",
          "type": "address"
        },
        {
          "indexed": true,
          "internalType": "address",
          "name": "spender",
          "type": "address"
        },
        {
          "indexed": false,
          "internalType": "uint256",
          "name": "value",
          "type": "uint256"
        }
      ],
      "name": "Approval",
      "type": "event"
    },
    {
      "anonymous": false,
      "inputs": [
        {
          "indexed": true,
          "internalType": "address",
          "name": "account",
          "type": "address"
        },
        {
          "indexed": false,
          "internalType": "string",
          "name": "userId",
          "type": "string"
        },
        {
          "indexed": false,
          "internalType": "uint256",
          "name": "amount",
          "type": "uint256"
        }
      ],
      "name": "Claimed",
      "type": "event"
    },
    {
      "anonymous": false,
      "inputs": [
        {
          "indexed": true,
          "internalType": "address",
          "name": "claimer",
          "type": "address"
        },
        {
          "indexed": false,
          "internalType": "string",
          "name": "userId",
          "type": "string"
        },
        {
          "indexed": false,
          "internalType": "bytes32",
          "name": "queryId",
          "type": "bytes32"
        }
      ],
      "name": "Lodged",
      "type": "event"
    },
    {
      "anonymous": false,
      "inputs": [
        {
          "indexed": true,
          "internalType": "address",
          "name": "previousOwner",
          "type": "address"
        },
        {
          "indexed": true,
          "internalType": "address",
          "name": "newOwner",
          "type": "address"
        }
      ],
      "name": "OwnershipTransferred",
      "type": "event"
    },
    {
      "anonymous": false,
      "inputs": [
        {
          "indexed": true,
          "internalType": "address",
          "name": "claimer",
          "type": "address"
        },
        {
          "indexed": true,
          "internalType": "address",
          "name": "referrer",
          "type": "address"
        },
        {
          "indexed": false,
          "internalType": "string",
          "name": "claimerId",
          "type": "string"
        },
        {
          "indexed": false,
          "internalType": "string",
          "name": "referrerId",
          "type": "string"
        },
        {
          "indexed": false,
          "internalType": "uint256",
          "name": "amount",
          "type": "uint256"
        }
      ],
      "name": "Reward",
      "type": "event"
    },
    {
      "anonymous": false,
      "inputs": [
        {
          "indexed": false,
          "internalType": "string",
          "name": "fromId",
          "type": "string"
        },
        {
          "indexed": false,
          "internalType": "string",
          "name": "toId",
          "type": "string"
        },
        {
          "indexed": false,
          "internalType": "uint256",
          "name": "amount",
          "type": "uint256"
        }
      ],
      "name": "Tip",
      "type": "event"
    },
    {
      "anonymous": false,
      "inputs": [
        {
          "indexed": false,
          "internalType": "string",
          "name": "m",
          "type": "string"
        },
        {
          "indexed": false,
          "internalType": "bytes1",
          "name": "v",
          "type": "bytes1"
        }
      ],
      "name": "TraceByte",
      "type": "event"
    },
    {
      "anonymous": false,
      "inputs": [
        {
          "indexed": false,
          "internalType": "string",
          "name": "m",
          "type": "string"
        },
        {
          "indexed": false,
          "internalType": "bytes",
          "name": "v",
          "type": "bytes"
        }
      ],
      "name": "TraceBytes",
      "type": "event"
    },
    {
      "anonymous": false,
      "inputs": [
        {
          "indexed": false,
          "internalType": "string",
          "name": "m",
          "type": "string"
        },
        {
          "indexed": false,
          "internalType": "bytes32",
          "name": "v",
          "type": "bytes32"
        }
      ],
      "name": "TraceBytes32",
      "type": "event"
    },
    {
      "anonymous": false,
      "inputs": [
        {
          "indexed": false,
          "internalType": "string",
          "name": "m",
          "type": "string"
        },
        {
          "indexed": false,
          "internalType": "string",
          "name": "v",
          "type": "string"
        }
      ],
      "name": "TraceString",
      "type": "event"
    },
    {
      "anonymous": false,
      "inputs": [
        {
          "indexed": false,
          "internalType": "string",
          "name": "m",
          "type": "string"
        },
        {
          "indexed": false,
          "internalType": "uint256",
          "name": "v",
          "type": "uint256"
        }
      ],
      "name": "TraceUint256",
      "type": "event"
    },
    {
      "anonymous": false,
      "inputs": [
        {
          "indexed": true,
          "internalType": "address",
          "name": "from",
          "type": "address"
        },
        {
          "indexed": true,
          "internalType": "address",
          "name": "to",
          "type": "address"
        },
        {
          "indexed": false,
          "internalType": "uint256",
          "name": "value",
          "type": "uint256"
        }
      ],
      "name": "Transfer",
      "type": "event"
    },
    {
      "anonymous": false,
      "inputs": [
        {
          "indexed": true,
          "internalType": "address",
          "name": "from",
          "type": "address"
        },
        {
          "indexed": true,
          "internalType": "address",
          "name": "to",
          "type": "address"
        },
        {
          "indexed": false,
          "internalType": "string",
          "name": "fromId",
          "type": "string"
        },
        {
          "indexed": false,
          "internalType": "string",
          "name": "toId",
          "type": "string"
        },
        {
          "indexed": false,
          "internalType": "uint256",
          "name": "amount",
          "type": "uint256"
        },
        {
          "indexed": false,
          "internalType": "bool",
          "name": "claimed",
          "type": "bool"
        }
      ],
      "name": "Tx",
      "type": "event"
    },
    {
      "anonymous": false,
      "inputs": [
        {
          "indexed": false,
          "internalType": "bool",
          "name": "value",
          "type": "bool"
        },
        {
          "indexed": false,
          "internalType": "address",
          "name": "recovered",
          "type": "address"
        },
        {
          "indexed": false,
          "internalType": "address",
          "name": "claimer",
          "type": "address"
        },
        {
          "indexed": false,
          "internalType": "string",
          "name": "userId",
          "type": "string"
        }
      ],
      "name": "Verification",
      "type": "event"
    },
    {
      "constant": true,
      "inputs": [
        {
          "internalType": "address",
          "name": "owner",
          "type": "address"
        },
        {
          "internalType": "address",
          "name": "spender",
          "type": "address"
        }
      ],
      "name": "allowance",
      "outputs": [
        {
          "internalType": "uint256",
          "name": "",
          "type": "uint256"
        }
      ],
      "payable": false,
      "stateMutability": "view",
      "type": "function"
    },
    {
      "constant": false,
      "inputs": [
        {
          "internalType": "address",
          "name": "spender",
          "type": "address"
        },
        {
          "internalType": "uint256",
          "name": "amount",
          "type": "uint256"
        }
      ],
      "name": "approve",
      "outputs": [
        {
          "internalType": "bool",
          "name": "",
          "type": "bool"
        }
      ],
      "payable": false,
      "stateMutability": "nonpayable",
      "type": "function"
    },
    {
      "constant": true,
      "inputs": [
        {
          "internalType": "address",
          "name": "account",
          "type": "address"
        }
      ],
      "name": "balanceOf",
      "outputs": [
        {
          "internalType": "uint256",
          "name": "",
          "type": "uint256"
        }
      ],
      "payable": false,
      "stateMutability": "view",
      "type": "function"
    },
    {
      "constant": false,
      "inputs": [
        {
          "internalType": "address",
          "name": "spender",
          "type": "address"
        },
        {
          "internalType": "uint256",
          "name": "subtractedValue",
          "type": "uint256"
        }
      ],
      "name": "decreaseAllowance",
      "outputs": [
        {
          "internalType": "bool",
          "name": "",
          "type": "bool"
        }
      ],
      "payable": false,
      "stateMutability": "nonpayable",
      "type": "function"
    },
    {
      "constant": false,
      "inputs": [
        {
          "internalType": "address",
          "name": "spender",
          "type": "address"
        },
        {
          "internalType": "uint256",
          "name": "addedValue",
          "type": "uint256"
        }
      ],
      "name": "increaseAllowance",
      "outputs": [
        {
          "internalType": "bool",
          "name": "",
          "type": "bool"
        }
      ],
      "payable": false,
      "stateMutability": "nonpayable",
      "type": "function"
    },
    {
      "constant": true,
      "inputs": [],
      "name": "isOwner",
      "outputs": [
        {
          "internalType": "bool",
          "name": "",
          "type": "bool"
        }
      ],
      "payable": false,
      "stateMutability": "view",
      "type": "function"
    },
    {
      "constant": true,
      "inputs": [],
      "name": "maxSupply",
      "outputs": [
        {
          "internalType": "uint256",
          "name": "",
          "type": "uint256"
        }
      ],
      "payable": false,
      "stateMutability": "view",
      "type": "function"
    },
    {
      "constant": true,
      "inputs": [],
      "name": "owner",
      "outputs": [
        {
          "internalType": "address",
          "name": "",
          "type": "address"
        }
      ],
      "payable": false,
      "stateMutability": "view",
      "type": "function"
    },
    {
      "constant": false,
      "inputs": [],
      "name": "renounceOwnership",
      "outputs": [],
      "payable": false,
      "stateMutability": "nonpayable",
      "type": "function"
    },
    {
      "constant": true,
      "inputs": [],
      "name": "tippingAgent",
      "outputs": [
        {
          "internalType": "address",
          "name": "",
          "type": "address"
        }
      ],
      "payable": false,
      "stateMutability": "view",
      "type": "function"
    },
    {
      "constant": true,
      "inputs": [],
      "name": "totalSupply",
      "outputs": [
        {
          "internalType": "uint256",
          "name": "",
          "type": "uint256"
        }
      ],
      "payable": false,
      "stateMutability": "view",
      "type": "function"
    },
    {
      "constant": false,
      "inputs": [
        {
          "internalType": "address",
          "name": "recipient",
          "type": "address"
        },
        {
          "internalType": "uint256",
          "name": "amount",
          "type": "uint256"
        }
      ],
      "name": "transfer",
      "outputs": [
        {
          "internalType": "bool",
          "name": "",
          "type": "bool"
        }
      ],
      "payable": false,
      "stateMutability": "nonpayable",
      "type": "function"
    },
    {
      "constant": false,
      "inputs": [
        {
          "internalType": "address",
          "name": "sender",
          "type": "address"
        },
        {
          "internalType": "address",
          "name": "recipient",
          "type": "address"
        },
        {
          "internalType": "uint256",
          "name": "amount",
          "type": "uint256"
        }
      ],
      "name": "transferFrom",
      "outputs": [
        {
          "internalType": "bool",
          "name": "",
          "type": "bool"
        }
      ],
      "payable": false,
      "stateMutability": "nonpayable",
      "type": "function"
    },
    {
      "constant": false,
      "inputs": [
        {
          "internalType": "address",
          "name": "newOwner",
          "type": "address"
        }
      ],
      "name": "transferOwnership",
      "outputs": [],
      "payable": false,
      "stateMutability": "nonpayable",
      "type": "function"
    },
    {
      "constant": true,
      "inputs": [],
      "name": "twitterClient",
      "outputs": [
        {
          "internalType": "address",
          "name": "",
          "type": "address"
        }
      ],
      "payable": false,
      "stateMutability": "view",
      "type": "function"
    },
    {
      "constant": false,
      "inputs": [
        {
          "internalType": "string",
          "name": "_user",
          "type": "string"
        }
      ],
      "name": "claimUser",
      "outputs": [
        {
          "internalType": "bytes32",
          "name": "",
          "type": "bytes32"
        }
      ],
      "payable": true,
      "stateMutability": "payable",
      "type": "function"
    },
    {
      "constant": false,
      "inputs": [
        {
          "internalType": "string",
          "name": "_id",
          "type": "string"
        }
      ],
      "name": "_fulfillClaim",
      "outputs": [],
      "payable": false,
      "stateMutability": "nonpayable",
      "type": "function"
    },
    {
      "constant": false,
      "inputs": [
        {
          "internalType": "string",
          "name": "_toId",
          "type": "string"
        },
        {
          "internalType": "uint256",
          "name": "_amount",
          "type": "uint256"
        }
      ],
      "name": "transferUnclaimed",
      "outputs": [],
      "payable": false,
      "stateMutability": "nonpayable",
      "type": "function"
    },
    {
      "constant": false,
      "inputs": [
        {
          "internalType": "string",
          "name": "_toId",
          "type": "string"
        },
        {
          "internalType": "uint256",
          "name": "_amount",
          "type": "uint256"
        }
      ],
      "name": "transferClaimed",
      "outputs": [],
      "payable": false,
      "stateMutability": "nonpayable",
      "type": "function"
    },
    {
      "constant": false,
      "inputs": [
        {
          "internalType": "string",
          "name": "_fromId",
          "type": "string"
        },
        {
          "internalType": "string",
          "name": "_toId",
          "type": "string"
        },
        {
          "internalType": "uint256",
          "name": "_amount",
          "type": "uint256"
        }
      ],
      "name": "tip",
      "outputs": [
        {
          "internalType": "uint256",
          "name": "",
          "type": "uint256"
        }
      ],
      "payable": false,
      "stateMutability": "nonpayable",
      "type": "function"
    },
    {
      "constant": false,
      "inputs": [
        {
          "internalType": "uint256",
          "name": "_amount",
          "type": "uint256"
        }
      ],
      "name": "setTipBalance",
      "outputs": [],
      "payable": false,
      "stateMutability": "nonpayable",
      "type": "function"
    },
    {
      "constant": true,
      "inputs": [
        {
          "internalType": "uint256",
          "name": "_followers",
          "type": "uint256"
        }
      ],
      "name": "calculateBonus",
      "outputs": [
        {
          "internalType": "uint256",
          "name": "",
          "type": "uint256"
        }
      ],
      "payable": false,
      "stateMutability": "view",
      "type": "function"
    },
    {
      "constant": true,
      "inputs": [
        {
          "internalType": "uint256",
          "name": "_contribution",
          "type": "uint256"
        },
        {
          "internalType": "uint256",
          "name": "_followers",
          "type": "uint256"
        }
      ],
      "name": "calculateReward",
      "outputs": [
        {
          "internalType": "uint256",
          "name": "",
          "type": "uint256"
        }
      ],
      "payable": false,
      "stateMutability": "view",
      "type": "function"
    },
    {
      "constant": false,
      "inputs": [
        {
          "internalType": "address",
          "name": "claimer",
          "type": "address"
        },
        {
          "internalType": "string",
          "name": "_id",
          "type": "string"
        },
        {
          "internalType": "string",
          "name": "_claimString",
          "type": "string"
        }
      ],
      "name": "verifyClaimString",
      "outputs": [
        {
          "internalType": "bool",
          "name": "",
          "type": "bool"
        }
      ],
      "payable": false,
      "stateMutability": "nonpayable",
      "type": "function"
    },
    {
      "constant": true,
      "inputs": [
        {
          "internalType": "address",
          "name": "account",
          "type": "address"
        }
      ],
      "name": "getUser",
      "outputs": [
        {
          "internalType": "string",
          "name": "",
          "type": "string"
        }
      ],
      "payable": false,
      "stateMutability": "view",
      "type": "function"
    },
    {
      "constant": true,
      "inputs": [],
      "name": "myUser",
      "outputs": [
        {
          "internalType": "string",
          "name": "",
          "type": "string"
        }
      ],
      "payable": false,
      "stateMutability": "view",
      "type": "function"
    },
    {
      "constant": true,
      "inputs": [],
      "name": "getUserCount",
      "outputs": [
        {
          "internalType": "uint256",
          "name": "",
          "type": "uint256"
        }
      ],
      "payable": false,
      "stateMutability": "view",
      "type": "function"
    },
    {
      "constant": true,
      "inputs": [
        {
          "internalType": "string",
          "name": "_userId",
          "type": "string"
        }
      ],
      "name": "userClaimed",
      "outputs": [
        {
          "internalType": "bool",
          "name": "",
          "type": "bool"
        }
      ],
      "payable": false,
      "stateMutability": "view",
      "type": "function"
    },
    {
      "constant": true,
      "inputs": [
        {
          "internalType": "string",
          "name": "_userId",
          "type": "string"
        }
      ],
      "name": "lodgedRequest",
      "outputs": [
        {
          "internalType": "bool",
          "name": "",
          "type": "bool"
        }
      ],
      "payable": false,
      "stateMutability": "view",
      "type": "function"
    }
  ],
  "bytecode": "0x60806040526001600460006101000a81548160ff021916908315150217905550600160f81b600560146101000a81548160ff021916908360f81c0217905550600a60f81b600560156101000a81548160ff021916908360f81c02179055506040516200622138038062006221833981810160405260608110156200008257600080fd5b81019080805190602001909291908051906020019092919080519060200190929190505050620000b76200021260201b60201c565b6000806101000a81548173ffffffffffffffffffffffffffffffffffffffff021916908373ffffffffffffffffffffffffffffffffffffffff1602179055506000809054906101000a900473ffffffffffffffffffffffffffffffffffffffff1673ffffffffffffffffffffffffffffffffffffffff16600073ffffffffffffffffffffffffffffffffffffffff167f8be0079c531659141344cd1fd0a4f28419497f9722a3daafe3b4186f6b6457e060405160405180910390a382600560006101000a81548173ffffffffffffffffffffffffffffffffffffffff021916908373ffffffffffffffffffffffffffffffffffffffff16021790555081600460016101000a81548173ffffffffffffffffffffffffffffffffffffffff021916908373ffffffffffffffffffffffffffffffffffffffff1602179055508063ffffffff166006819055506000600a819055505050506200021a565b600033905090565b615ff7806200022a6000396000f3fe6080604052600436106101c25760003560e01c8063a457c2d7116100f7578063d5abeb0111610095578063f2fde38b11610064578063f2fde38b14610e0a578063f71d6b2814610e5b578063f920d55614610f23578063fd61741d146110ba576101c2565b8063d5abeb0114610c73578063d5d1de2614610c9e578063da46e04114610d2e578063dd62ed3e14610d85576101c2565b8063b797ad74116100d1578063b797ad7414610912578063c1b9ab0b146109f2578063cefabc4014610ad2578063d211f70514610ba1576101c2565b8063a457c2d714610801578063a9059cbb14610874578063b5cb15f7146108e7576101c2565b80636081f5cb11610164578063715018a61161013e578063715018a6146106925780638da5cb5b146106a95780638f32d59b14610700578063961ad6201461072f576101c2565b80636081f5cb146105145780636f77926b1461056357806370a082311461062d576101c2565b806320cebbf6116101a057806320cebbf6146102be57806323b872dd146103b7578063383df7521461044a57806339509351146104a1576101c2565b8063095ea7b3146101c757806313ed08461461023a57806318160ddd14610293575b600080fd5b3480156101d357600080fd5b50610220600480360360408110156101ea57600080fd5b81019080803573ffffffffffffffffffffffffffffffffffffffff169060200190929190803590602001909291905050506110f5565b604051808215151515815260200191505060405180910390f35b34801561024657600080fd5b5061027d6004803603604081101561025d57600080fd5b810190808035906020019092919080359060200190929190505050611113565b6040518082815260200191505060405180910390f35b34801561029f57600080fd5b506102a8611144565b6040518082815260200191505060405180910390f35b3480156102ca57600080fd5b506103a1600480360360608110156102e157600080fd5b81019080803590602001906401000000008111156102fe57600080fd5b82018360208201111561031057600080fd5b8035906020019184600183028401116401000000008311171561033257600080fd5b90919293919293908035906020019064010000000081111561035357600080fd5b82018360208201111561036557600080fd5b8035906020019184600183028401116401000000008311171561038757600080fd5b90919293919293908035906020019092919050505061114e565b6040518082815260200191505060405180910390f35b3480156103c357600080fd5b50610430600480360360608110156103da57600080fd5b81019080803573ffffffffffffffffffffffffffffffffffffffff169060200190929190803573ffffffffffffffffffffffffffffffffffffffff16906020019092919080359060200190929190505050611634565b604051808215151515815260200191505060405180910390f35b34801561045657600080fd5b5061045f61170d565b604051808273ffffffffffffffffffffffffffffffffffffffff1673ffffffffffffffffffffffffffffffffffffffff16815260200191505060405180910390f35b3480156104ad57600080fd5b506104fa600480360360408110156104c457600080fd5b81019080803573ffffffffffffffffffffffffffffffffffffffff16906020019092919080359060200190929190505050611733565b604051808215151515815260200191505060405180910390f35b34801561052057600080fd5b5061054d6004803603602081101561053757600080fd5b81019080803590602001909291905050506117e6565b6040518082815260200191505060405180910390f35b34801561056f57600080fd5b506105b26004803603602081101561058657600080fd5b81019080803573ffffffffffffffffffffffffffffffffffffffff169060200190929190505050611827565b6040518080602001828103825283818151815260200191508051906020019080838360005b838110156105f25780820151818401526020810190506105d7565b50505050905090810190601f16801561061f5780820380516001836020036101000a031916815260200191505b509250505060405180910390f35b34801561063957600080fd5b5061067c6004803603602081101561065057600080fd5b81019080803573ffffffffffffffffffffffffffffffffffffffff169060200190929190505050611908565b6040518082815260200191505060405180910390f35b34801561069e57600080fd5b506106a7611951565b005b3480156106b557600080fd5b506106be611a8a565b604051808273ffffffffffffffffffffffffffffffffffffffff1673ffffffffffffffffffffffffffffffffffffffff16815260200191505060405180910390f35b34801561070c57600080fd5b50610715611ab3565b604051808215151515815260200191505060405180910390f35b34801561073b57600080fd5b506107ff6004803603604081101561075257600080fd5b810190808035906020019064010000000081111561076f57600080fd5b82018360208201111561078157600080fd5b803590602001918460018302840111640100000000831117156107a357600080fd5b91908080601f016020809104026020016040519081016040528093929190818152602001838380828437600081840152601f19601f82011690508083019250505050505050919291929080359060200190929190505050611b11565b005b34801561080d57600080fd5b5061085a6004803603604081101561082457600080fd5b81019080803573ffffffffffffffffffffffffffffffffffffffff1690602001909291908035906020019092919050505061208b565b604051808215151515815260200191505060405180910390f35b34801561088057600080fd5b506108cd6004803603604081101561089757600080fd5b81019080803573ffffffffffffffffffffffffffffffffffffffff16906020019092919080359060200190929190505050612158565b604051808215151515815260200191505060405180910390f35b3480156108f357600080fd5b506108fc612176565b6040518082815260200191505060405180910390f35b34801561091e57600080fd5b506109d86004803603602081101561093557600080fd5b810190808035906020019064010000000081111561095257600080fd5b82018360208201111561096457600080fd5b8035906020019184600183028401116401000000008311171561098657600080fd5b91908080601f016020809104026020016040519081016040528093929190818152602001838380828437600081840152601f19601f820116905080830192505050505050509192919290505050612180565b604051808215151515815260200191505060405180910390f35b3480156109fe57600080fd5b50610ab860048036036020811015610a1557600080fd5b8101908080359060200190640100000000811115610a3257600080fd5b820183602082011115610a4457600080fd5b80359060200191846001830284011164010000000083111715610a6657600080fd5b91908080601f016020809104026020016040519081016040528093929190818152602001838380828437600081840152601f19601f820116905080830192505050505050509192919290505050612252565b604051808215151515815260200191505060405180910390f35b610b8b60048036036020811015610ae857600080fd5b8101908080359060200190640100000000811115610b0557600080fd5b820183602082011115610b1757600080fd5b80359060200191846001830284011164010000000083111715610b3957600080fd5b91908080601f016020809104026020016040519081016040528093929190818152602001838380828437600081840152601f19601f820116905080830192505050505050509192919290505050612327565b6040518082815260200191505060405180910390f35b348015610bad57600080fd5b50610c7160048036036040811015610bc457600080fd5b8101908080359060200190640100000000811115610be157600080fd5b820183602082011115610bf357600080fd5b80359060200191846001830284011164010000000083111715610c1557600080fd5b91908080601f016020809104026020016040519081016040528093929190818152602001838380828437600081840152601f19601f82011690508083019250505050505050919291929080359060200190929190505050612a39565b005b348015610c7f57600080fd5b50610c88612c19565b6040518082815260200191505060405180910390f35b348015610caa57600080fd5b50610cb3612c1f565b6040518080602001828103825283818151815260200191508051906020019080838360005b83811015610cf3578082015181840152602081019050610cd8565b50505050905090810190601f168015610d205780820380516001836020036101000a031916815260200191505b509250505060405180910390f35b348015610d3a57600080fd5b50610d43612cfe565b604051808273ffffffffffffffffffffffffffffffffffffffff1673ffffffffffffffffffffffffffffffffffffffff16815260200191505060405180910390f35b348015610d9157600080fd5b50610df460048036036040811015610da857600080fd5b81019080803573ffffffffffffffffffffffffffffffffffffffff169060200190929190803573ffffffffffffffffffffffffffffffffffffffff169060200190929190505050612d24565b6040518082815260200191505060405180910390f35b348015610e1657600080fd5b50610e5960048036036020811015610e2d57600080fd5b81019080803573ffffffffffffffffffffffffffffffffffffffff169060200190929190505050612dab565b005b348015610e6757600080fd5b50610f2160048036036020811015610e7e57600080fd5b8101908080359060200190640100000000811115610e9b57600080fd5b820183602082011115610ead57600080fd5b80359060200191846001830284011164010000000083111715610ecf57600080fd5b91908080601f016020809104026020016040519081016040528093929190818152602001838380828437600081840152601f19601f820116905080830192505050505050509192919290505050612e31565b005b348015610f2f57600080fd5b506110a060048036036060811015610f4657600080fd5b81019080803573ffffffffffffffffffffffffffffffffffffffff16906020019092919080359060200190640100000000811115610f8357600080fd5b820183602082011115610f9557600080fd5b80359060200191846001830284011164010000000083111715610fb757600080fd5b91908080601f016020809104026020016040519081016040528093929190818152602001838380828437600081840152601f19601f8201169050808301925050505050505091929192908035906020019064010000000081111561101a57600080fd5b82018360208201111561102c57600080fd5b8035906020019184600183028401116401000000008311171561104e57600080fd5b91908080601f016020809104026020016040519081016040528093929190818152602001838380828437600081840152601f19601f8201169050808301925050505050505091929192905050506136f8565b604051808215151515815260200191505060405180910390f35b3480156110c657600080fd5b506110f3600480360360208110156110dd57600080fd5b8101908080359060200190929190505050613ac1565b005b6000611109611102613c29565b8484613c31565b6001905092915050565b600080600a549050600081141561112957600190505b6000818486028161113657fe5b049050809250505092915050565b6000600354905090565b6000600460019054906101000a900473ffffffffffffffffffffffffffffffffffffffff1673ffffffffffffffffffffffffffffffffffffffff163373ffffffffffffffffffffffffffffffffffffffff1614611213576040517f08c379a000000000000000000000000000000000000000000000000000000000815260040180806020018281038252601b8152602001807f53656e646572206973206e6f742074697070696e67206167656e74000000000081525060200191505060405180910390fd5b85858080601f016020809104026020016040519081016040528093929190818152602001838380828437600081840152601f19601f820116905080830192505050505050506001151561126582612252565b1515146112da576040517f08c379a000000000000000000000000000000000000000000000000000000000815260040180806020018281038252601d8152602001807f5573657220686173206e6f74206265656e20636c61696d65642079657400000081525060200191505060405180910390fd5b60008314156112ec576000915061162a565b6000600886866040518083838082843780830192505050925050509081526020016040518091039020600301549050600081851161132a578461132c565b815b905061137b87878080601f016020809104026020016040519081016040528093929190818152602001838380828437600081840152601f19601f82011690508083019250505050505050612252565b156114185761141389898080601f016020809104026020016040519081016040528093929190818152602001838380828437600081840152601f19601f8201169050808301925050505050505088888080601f016020809104026020016040519081016040528093929190818152602001838380828437600081840152601f19601f8201169050808301925050505050505083613e28565b6114ac565b6114ab89898080601f016020809104026020016040519081016040528093929190818152602001838380828437600081840152601f19601f8201169050808301925050505050505088888080601f016020809104026020016040519081016040528093929190818152602001838380828437600081840152601f19601f8201169050808301925050505050505083614339565b5b80600888886040518083838082843780830192505050925050509081526020016040518091039020600301600082825403925050819055506008878760405180838380828437808301925050509250505090815260200160405180910390206003015481830314611585576040517f08c379a000000000000000000000000000000000000000000000000000000000815260040180806020018281038252601e8152602001807f5469702062616c616e636520696e76617269616e742076696f6c61746564000081525060200191505060405180910390fd5b7fc58663f31c3549520494f7c83d9787b7bf8bb4878e12f0bf3ce44e272626a0bd89898989856040518080602001806020018481526020018381038352888882818152602001925080828437600081840152601f19601f8201169050808301925050508381038252868682818152602001925080828437600081840152601f19601f82011690508083019250505097505050505050505060405180910390a180935050505b5095945050505050565b6000611641848484614949565b6117028461164d613c29565b6116fd85604051806060016040528060288152602001615f0960289139600260008b73ffffffffffffffffffffffffffffffffffffffff1673ffffffffffffffffffffffffffffffffffffffff16815260200190815260200160002060006116b3613c29565b73ffffffffffffffffffffffffffffffffffffffff1673ffffffffffffffffffffffffffffffffffffffff16815260200190815260200160002054614c039092919063ffffffff16565b613c31565b600190509392505050565b600460019054906101000a900473ffffffffffffffffffffffffffffffffffffffff1681565b60006117dc611740613c29565b846117d78560026000611751613c29565b73ffffffffffffffffffffffffffffffffffffffff1673ffffffffffffffffffffffffffffffffffffffff16815260200190815260200160002060008973ffffffffffffffffffffffffffffffffffffffff1673ffffffffffffffffffffffffffffffffffffffff16815260200190815260200160002054614cc390919063ffffffff16565b613c31565b6001905092915050565b6000806117f230611908565b90506000600a549050600081141561180957600190505b6000818386028161181657fe5b046032019050809350505050919050565b6060600760008373ffffffffffffffffffffffffffffffffffffffff1673ffffffffffffffffffffffffffffffffffffffff1681526020019081526020016000208054600181600116156101000203166002900480601f0160208091040260200160405190810160405280929190818152602001828054600181600116156101000203166002900480156118fc5780601f106118d1576101008083540402835291602001916118fc565b820191906000526020600020905b8154815290600101906020018083116118df57829003601f168201915b50505050509050919050565b6000600160008373ffffffffffffffffffffffffffffffffffffffff1673ffffffffffffffffffffffffffffffffffffffff168152602001908152602001600020549050919050565b611959611ab3565b6119cb576040517f08c379a00000000000000000000000000000000000000000000000000000000081526004018080602001828103825260208152602001807f4f776e61626c653a2063616c6c6572206973206e6f7420746865206f776e657281525060200191505060405180910390fd5b600073ffffffffffffffffffffffffffffffffffffffff166000809054906101000a900473ffffffffffffffffffffffffffffffffffffffff1673ffffffffffffffffffffffffffffffffffffffff167f8be0079c531659141344cd1fd0a4f28419497f9722a3daafe3b4186f6b6457e060405160405180910390a360008060006101000a81548173ffffffffffffffffffffffffffffffffffffffff021916908373ffffffffffffffffffffffffffffffffffffffff160217905550565b60008060009054906101000a900473ffffffffffffffffffffffffffffffffffffffff16905090565b60008060009054906101000a900473ffffffffffffffffffffffffffffffffffffffff1673ffffffffffffffffffffffffffffffffffffffff16611af5613c29565b73ffffffffffffffffffffffffffffffffffffffff1614905090565b6060600760003373ffffffffffffffffffffffffffffffffffffffff1673ffffffffffffffffffffffffffffffffffffffff1681526020019081526020016000208054600181600116156101000203166002900480601f016020809104026020016040519081016040528092919081815260200182805460018160011615610100020316600290048015611be65780601f10611bbb57610100808354040283529160200191611be6565b820191906000526020600020905b815481529060010190602001808311611bc957829003601f168201915b505050505090506000815111611c64576040517f08c379a000000000000000000000000000000000000000000000000000000000815260040180806020018281038252601e8152602001807f53656e64657220646f6573206e6f74206861766520612075736572204944000081525060200191505060405180910390fd5b8260011515611c7282612252565b151514611ce7576040517f08c379a000000000000000000000000000000000000000000000000000000000815260040180806020018281038252601d8152602001807f5573657220686173206e6f74206265656e20636c61696d65642079657400000081525060200191505060405180910390fd5b6000611cf1611144565b9050611d896008866040518082805190602001908083835b60208310611d2c5780518252602082019150602081019050602083039250611d09565b6001836020036101000a038019825116818451168082178552505050505050905001915050908152602001604051809103902060000160009054906101000a900473ffffffffffffffffffffffffffffffffffffffff1685612158565b50600460009054906101000a900460ff1615611e3e57611e3d85611e386008886040518082805190602001908083835b60208310611ddc5780518252602082019150602081019050602083039250611db9565b6001836020036101000a038019825116818451168082178552505050505050905001915050908152602001604051809103902060000160009054906101000a900473ffffffffffffffffffffffffffffffffffffffff16611908565b614d4b565b5b6008856040518082805190602001908083835b60208310611e745780518252602082019150602081019050602083039250611e51565b6001836020036101000a038019825116818451168082178552505050505050905001915050908152602001604051809103902060000160009054906101000a900473ffffffffffffffffffffffffffffffffffffffff1673ffffffffffffffffffffffffffffffffffffffff163373ffffffffffffffffffffffffffffffffffffffff167f299eb6f534c4f090c37218944eb2f615b31d9da18a8ecb624f7b76134f71784d600760003373ffffffffffffffffffffffffffffffffffffffff1673ffffffffffffffffffffffffffffffffffffffff1681526020019081526020016000208888600160405180806020018060200185815260200184151515158152602001838103835287818154600181600116156101000203166002900481526020019150805460018160011615610100020316600290048015611ff95780601f10611fce57610100808354040283529160200191611ff9565b820191906000526020600020905b815481529060010190602001808311611fdc57829003601f168201915b5050838103825286818151815260200191508051906020019080838360005b83811015612033578082015181840152602081019050612018565b50505050905090810190601f1680156120605780820380516001836020036101000a031916815260200191505b50965050505050505060405180910390a38061207a611144565b1461208457600080fd5b5050505050565b600061214e612098613c29565b8461214985604051806060016040528060258152602001615f9e60259139600260006120c2613c29565b73ffffffffffffffffffffffffffffffffffffffff1673ffffffffffffffffffffffffffffffffffffffff16815260200190815260200160002060008a73ffffffffffffffffffffffffffffffffffffffff1673ffffffffffffffffffffffffffffffffffffffff16815260200190815260200160002054614c039092919063ffffffff16565b613c31565b6001905092915050565b600061216c612165613c29565b8484614949565b6001905092915050565b6000600a54905090565b60003373ffffffffffffffffffffffffffffffffffffffff166009836040518082805190602001908083835b602083106121cf57805182526020820191506020810190506020830392506121ac565b6001836020036101000a038019825116818451168082178552505050505050905001915050908152602001604051809103902060009054906101000a900473ffffffffffffffffffffffffffffffffffffffff1673ffffffffffffffffffffffffffffffffffffffff161415612248576001905061224d565b600090505b919050565b60008073ffffffffffffffffffffffffffffffffffffffff166008836040518082805190602001908083835b602083106122a1578051825260208201915060208101905060208303925061227e565b6001836020036101000a038019825116818451168082178552505050505050905001915050908152602001604051809103902060000160009054906101000a900473ffffffffffffffffffffffffffffffffffffffff1673ffffffffffffffffffffffffffffffffffffffff16141561231d5760009050612322565b600190505b919050565b60006060600760003373ffffffffffffffffffffffffffffffffffffffff1673ffffffffffffffffffffffffffffffffffffffff1681526020019081526020016000208054600181600116156101000203166002900480601f0160208091040260200160405190810160405280929190818152602001828054600181600116156101000203166002900480156123fe5780601f106123d3576101008083540402835291602001916123fe565b820191906000526020600020905b8154815290600101906020018083116123e157829003601f168201915b50505050509050600081511461247c576040517f08c379a000000000000000000000000000000000000000000000000000000000815260040180806020018281038252601c8152602001807f53656e64657220616c726561647920686173206120757365722049440000000081525060200191505060405180910390fd5b7f5cac219670487bdd987babd458a2c1322a09b1c7a3aeb3dd9982e568447bbd2d600760003373ffffffffffffffffffffffffffffffffffffffff1673ffffffffffffffffffffffffffffffffffffffff168152602001908152602001600020604051808060200180602001838103835260098152602001807f6861734e6f55736572000000000000000000000000000000000000000000000081525060200183810382528481815460018160011615610100020316600290048152602001915080546001816001161561010002031660029004801561259d5780601f106125725761010080835404028352916020019161259d565b820191906000526020600020905b81548152906001019060200180831161258057829003601f168201915b5050935050505060405180910390a182600015156125ba82612252565b15151461262f576040517f08c379a00000000000000000000000000000000000000000000000000000000081526004018080602001828103825260178152602001807f5573657220697320616c726561647920636c61696d656400000000000000000081525060200191505060405180910390fd5b60001515600b60003373ffffffffffffffffffffffffffffffffffffffff1673ffffffffffffffffffffffffffffffffffffffff16815260200190815260200160002060009054906101000a900460ff161515146126d8576040517f08c379a0000000000000000000000000000000000000000000000000000000008152600401808060200182810382526024815260200180615f7a6024913960400191505060405180910390fd5b6001600b60003373ffffffffffffffffffffffffffffffffffffffff1673ffffffffffffffffffffffffffffffffffffffff16815260200190815260200160002060006101000a81548160ff021916908315150217905550336009856040518082805190602001908083835b602083106127675780518252602082019150602081019050602083039250612744565b6001836020036101000a038019825116818451168082178552505050505050905001915050908152602001604051809103902060006101000a81548173ffffffffffffffffffffffffffffffffffffffff021916908373ffffffffffffffffffffffffffffffffffffffff1602179055506000600560009054906101000a900473ffffffffffffffffffffffffffffffffffffffff16905060008173ffffffffffffffffffffffffffffffffffffffff16637f3c1e34876040518263ffffffff1660e01b81526004018080602001828103825283818151815260200191508051906020019080838360005b8381101561286d578082015181840152602081019050612852565b50505050905090810190601f16801561289a5780820380516001836020036101000a031916815260200191505b5092505050602060405180830381600087803b1580156128b957600080fd5b505af11580156128cd573d6000803e3d6000fd5b505050506040513d60208110156128e357600080fd5b810190808051906020019092919050505090506000801b811415612972577fc3c858231d63b35575acb09da666966e863f764aa377762376c845c9163122c78160405180806020018381526020018281038252600c8152602001807f6661696c656420717565727900000000000000000000000000000000000000008152506020019250505060405180910390a15b3373ffffffffffffffffffffffffffffffffffffffff167fb0d414ea5b38d8b64668bffef05f15ced84395b44b3be0c8bb3deceeb5626e0e87836040518080602001838152602001828103825284818151815260200191508051906020019080838360005b838110156129f25780820151818401526020810190506129d7565b50505050905090810190601f168015612a1f5780820380516001836020036101000a031916815260200191505b50935050505060405180910390a280945050505050919050565b6060600760003373ffffffffffffffffffffffffffffffffffffffff1673ffffffffffffffffffffffffffffffffffffffff1681526020019081526020016000208054600181600116156101000203166002900480601f016020809104026020016040519081016040528092919081815260200182805460018160011615610100020316600290048015612b0e5780601f10612ae357610100808354040283529160200191612b0e565b820191906000526020600020905b815481529060010190602001808311612af157829003601f168201915b505050505090506000815111612b8c576040517f08c379a000000000000000000000000000000000000000000000000000000000815260040180806020018281038252601e8152602001807f53656e64657220646f6573206e6f74206861766520612075736572204944000081525060200191505060405180910390fd5b60008211612c02576040517f08c379a00000000000000000000000000000000000000000000000000000000081526004018080602001828103825260148152602001807f43616e6e6f742073656e64203020746f6b656e7300000000000000000000000081525060200191505060405180910390fd5b612c14612c0d612c1f565b8484614339565b505050565b60065481565b6060600760003373ffffffffffffffffffffffffffffffffffffffff1673ffffffffffffffffffffffffffffffffffffffff1681526020019081526020016000208054600181600116156101000203166002900480601f016020809104026020016040519081016040528092919081815260200182805460018160011615610100020316600290048015612cf45780601f10612cc957610100808354040283529160200191612cf4565b820191906000526020600020905b815481529060010190602001808311612cd757829003601f168201915b5050505050905090565b600560009054906101000a900473ffffffffffffffffffffffffffffffffffffffff1681565b6000600260008473ffffffffffffffffffffffffffffffffffffffff1673ffffffffffffffffffffffffffffffffffffffff16815260200190815260200160002060008373ffffffffffffffffffffffffffffffffffffffff1673ffffffffffffffffffffffffffffffffffffffff16815260200190815260200160002054905092915050565b612db3611ab3565b612e25576040517f08c379a00000000000000000000000000000000000000000000000000000000081526004018080602001828103825260208152602001807f4f776e61626c653a2063616c6c6572206973206e6f7420746865206f776e657281525060200191505060405180910390fd5b612e2e81614de4565b50565b8060001515612e3f82612252565b151514612eb4576040517f08c379a00000000000000000000000000000000000000000000000000000000081526004018080602001828103825260178152602001807f5573657220697320616c726561647920636c61696d656400000000000000000081525060200191505060405180910390fd5b6009826040518082805190602001908083835b60208310612eea5780518252602082019150602081019050602083039250612ec7565b6001836020036101000a038019825116818451168082178552505050505050905001915050908152602001604051809103902060009054906101000a900473ffffffffffffffffffffffffffffffffffffffff1660011515600b60008373ffffffffffffffffffffffffffffffffffffffff1673ffffffffffffffffffffffffffffffffffffffff16815260200190815260200160002060009054906101000a900460ff16151514613004576040517f08c379a000000000000000000000000000000000000000000000000000000000815260040180806020018281038252601d8152602001807f53656e64657220686173206e6f20726571756573742070656e64696e6700000081525060200191505060405180910390fd5b6000600560009054906101000a900473ffffffffffffffffffffffffffffffffffffffff16905060608173ffffffffffffffffffffffffffffffffffffffff1663cf2e2914866040518263ffffffff1660e01b81526004018080602001828103825283818151815260200191508051906020019080838360005b8381101561309957808201518184015260208101905061307e565b50505050905090810190601f1680156130c65780820380516001836020036101000a031916815260200191505b509250505060006040518083038186803b1580156130e357600080fd5b505afa1580156130f7573d6000803e3d6000fd5b505050506040513d6000823e3d601f19601f82011682018060405250602081101561312157600080fd5b810190808051604051939291908464010000000082111561314157600080fd5b8382019150602082018581111561315757600080fd5b825186600182028301116401000000008211171561317457600080fd5b8083526020830192505050908051906020019080838360005b838110156131a857808201518184015260208101905061318d565b50505050905090810190601f1680156131d55780820380516001836020036101000a031916815260200191505b5060405250505090506000815111613255576040517f08c379a00000000000000000000000000000000000000000000000000000000081526004018080602001828103825260178152602001807f636c61696d20737472696e67206e6f742073746f72656400000000000000000081525060200191505060405180910390fd5b60006009866040518082805190602001908083835b6020831061328d578051825260208201915060208101905060208303925061326a565b6001836020036101000a038019825116818451168082178552505050505050905001915050908152602001604051809103902060009054906101000a900473ffffffffffffffffffffffffffffffffffffffff1690506132ee8187846136f8565b613360576040517f08c379a00000000000000000000000000000000000000000000000000000000081526004018080602001828103825260148152602001807f696e76616c696420636c61696d20737472696e6700000000000000000000000081525060200191505060405180910390fd5b60006001905086600760008473ffffffffffffffffffffffffffffffffffffffff1673ffffffffffffffffffffffffffffffffffffffff16815260200190815260200160002090805190602001906133b9929190615d39565b50816008886040518082805190602001908083835b602083106133f157805182526020820191506020810190506020830392506133ce565b6001836020036101000a038019825116818451168082178552505050505050905001915050908152602001604051809103902060000160006101000a81548173ffffffffffffffffffffffffffffffffffffffff021916908373ffffffffffffffffffffffffffffffffffffffff1602179055508173ffffffffffffffffffffffffffffffffffffffff167f9d2f14df77ba038ff6f9ba99bbdcfbc30f1650b9574e3b7bbae993df15a92f30886134a88a85614f28565b6040518080602001838152602001828103825284818151815260200191508051906020019080838360005b838110156134ee5780820151818401526020810190506134d3565b50505050905090810190601f16801561351b5780820380516001836020036101000a031916815260200191505b50935050505060405180910390a26001600a60008282540192505081905550600460009054906101000a900460ff16156135ee576135ed876135e860088a6040518082805190602001908083835b6020831061358c5780518252602082019150602081019050602083039250613569565b6001836020036101000a038019825116818451168082178552505050505050905001915050908152602001604051809103902060000160009054906101000a900473ffffffffffffffffffffffffffffffffffffffff16611908565b614d4b565b5b60006009886040518082805190602001908083835b602083106136265780518252602082019150602081019050602083039250613603565b6001836020036101000a038019825116818451168082178552505050505050905001915050908152602001604051809103902060006101000a81548173ffffffffffffffffffffffffffffffffffffffff021916908373ffffffffffffffffffffffffffffffffffffffff160217905550505050506000600b60008373ffffffffffffffffffffffffffffffffffffffff1673ffffffffffffffffffffffffffffffffffffffff16815260200190815260200160002060006101000a81548160ff021916908315150217905550505050565b6000808473ffffffffffffffffffffffffffffffffffffffff1684600560159054906101000a900460f81b6040516020018084815260200183805190602001908083835b6020831061375f578051825260208201915060208101905060208303925061373c565b6001836020036101000a038019825116818451168082178552505050505050905001827effffffffffffffffffffffffffffffffffffffffffffffffffffffffffffff19167effffffffffffffffffffffffffffffffffffffffffffffffffffffffffffff19168152600101935050505060405160208183030381529060405280519060200120905060006137f38261546d565b905060606000613802866154c5565b915091506060613811836155b3565b9050600560149054906101000a900460f81b7effffffffffffffffffffffffffffffffffffffffffffffffffffffffffffff1916827effffffffffffffffffffffffffffffffffffffffffffffffffffffffffffff1916146138db576040517f08c379a00000000000000000000000000000000000000000000000000000000081526004018080602001828103825260148152602001807f696e76616c696420617574682076657273696f6e00000000000000000000000081525060200191505060405180910390fd5b60006138e78583615725565b90508973ffffffffffffffffffffffffffffffffffffffff168173ffffffffffffffffffffffffffffffffffffffff161461396d576040517f08c379a0000000000000000000000000000000000000000000000000000000008152600401808060200182810382526030815260200180615e476030913960400191505060405180910390fd5b60008a73ffffffffffffffffffffffffffffffffffffffff168273ffffffffffffffffffffffffffffffffffffffff161490507f2aafcfe170146f3e2f0835dfcc4558c3f7b23df8203d1b5759201f95673a0ac281838d8d60405180851515151581526020018473ffffffffffffffffffffffffffffffffffffffff1673ffffffffffffffffffffffffffffffffffffffff1681526020018373ffffffffffffffffffffffffffffffffffffffff1673ffffffffffffffffffffffffffffffffffffffff16815260200180602001828103825283818151815260200191508051906020019080838360005b83811015613a73578082015181840152602081019050613a58565b50505050905090810190601f168015613aa05780820380516001836020036101000a031916815260200191505b509550505050505060405180910390a1809750505050505050509392505050565b6060600760003373ffffffffffffffffffffffffffffffffffffffff1673ffffffffffffffffffffffffffffffffffffffff1681526020019081526020016000208054600181600116156101000203166002900480601f016020809104026020016040519081016040528092919081815260200182805460018160011615610100020316600290048015613b965780601f10613b6b57610100808354040283529160200191613b96565b820191906000526020600020905b815481529060010190602001808311613b7957829003601f168201915b505050505090506000815111613c14576040517f08c379a000000000000000000000000000000000000000000000000000000000815260040180806020018281038252601e8152602001807f53656e64657220646f6573206e6f74206861766520612075736572204944000081525060200191505060405180910390fd5b613c25613c1f612c1f565b83614d4b565b5050565b600033905090565b600073ffffffffffffffffffffffffffffffffffffffff168373ffffffffffffffffffffffffffffffffffffffff161415613cb7576040517f08c379a0000000000000000000000000000000000000000000000000000000008152600401808060200182810382526024815260200180615f566024913960400191505060405180910390fd5b600073ffffffffffffffffffffffffffffffffffffffff168273ffffffffffffffffffffffffffffffffffffffff161415613d3d576040517f08c379a0000000000000000000000000000000000000000000000000000000008152600401808060200182810382526022815260200180615e9d6022913960400191505060405180910390fd5b80600260008573ffffffffffffffffffffffffffffffffffffffff1673ffffffffffffffffffffffffffffffffffffffff16815260200190815260200160002060008473ffffffffffffffffffffffffffffffffffffffff1673ffffffffffffffffffffffffffffffffffffffff168152602001908152602001600020819055508173ffffffffffffffffffffffffffffffffffffffff168373ffffffffffffffffffffffffffffffffffffffff167f8c5be1e5ebec7d5bd14f71427d1e84f3dd0314c0f7b2291e5b200ac8c7c3b925836040518082815260200191505060405180910390a3505050565b600460019054906101000a900473ffffffffffffffffffffffffffffffffffffffff1673ffffffffffffffffffffffffffffffffffffffff163373ffffffffffffffffffffffffffffffffffffffff1614613eeb576040517f08c379a000000000000000000000000000000000000000000000000000000000815260040180806020018281038252601b8152602001807f53656e646572206973206e6f742074697070696e67206167656e74000000000081525060200191505060405180910390fd5b8160011515613ef982612252565b151514613f6e576040517f08c379a000000000000000000000000000000000000000000000000000000000815260040180806020018281038252601d8152602001807f5573657220686173206e6f74206265656e20636c61696d65642079657400000081525060200191505060405180910390fd5b6000613f78611144565b905060008311613ff0576040517f08c379a00000000000000000000000000000000000000000000000000000000081526004018080602001828103825260148152602001807f43616e6e6f742073656e64203020746f6b656e7300000000000000000000000081525060200191505060405180910390fd5b60006008866040518082805190602001908083835b602083106140285780518252602082019150602081019050602083039250614005565b6001836020036101000a038019825116818451168082178552505050505050905001915050908152602001604051809103902060000160009054906101000a900473ffffffffffffffffffffffffffffffffffffffff16905060006008866040518082805190602001908083835b602083106140b95780518252602082019150602081019050602083039250614096565b6001836020036101000a038019825116818451168082178552505050505050905001915050908152602001604051809103902060000160009054906101000a900473ffffffffffffffffffffffffffffffffffffffff16905061411d828287614949565b600460009054906101000a900460ff16156141d1576141d0866141cb6008896040518082805190602001908083835b6020831061416f578051825260208201915060208101905060208303925061414c565b6001836020036101000a038019825116818451168082178552505050505050905001915050908152602001604051809103902060000160009054906101000a900473ffffffffffffffffffffffffffffffffffffffff16611908565b614d4b565b5b8073ffffffffffffffffffffffffffffffffffffffff168273ffffffffffffffffffffffffffffffffffffffff167f299eb6f534c4f090c37218944eb2f615b31d9da18a8ecb624f7b76134f71784d898989600160405180806020018060200185815260200184151515158152602001838103835287818151815260200191508051906020019080838360005b8381101561427957808201518184015260208101905061425e565b50505050905090810190601f1680156142a65780820380516001836020036101000a031916815260200191505b50838103825286818151815260200191508051906020019080838360005b838110156142df5780820151818401526020810190506142c4565b50505050905090810190601f16801561430c5780820380516001836020036101000a031916815260200191505b50965050505050505060405180910390a3505080614328611144565b1461433257600080fd5b5050505050565b826001151561434782612252565b1515146143bc576040517f08c379a000000000000000000000000000000000000000000000000000000000815260040180806020018281038252601d8152602001807f5573657220686173206e6f74206265656e20636c61696d65642079657400000081525060200191505060405180910390fd5b82600015156143ca82612252565b15151461443f576040517f08c379a00000000000000000000000000000000000000000000000000000000081526004018080602001828103825260178152602001807f5573657220697320616c726561647920636c61696d656400000000000000000081525060200191505060405180910390fd5b6000614449611144565b9050600084116144c1576040517f08c379a00000000000000000000000000000000000000000000000000000000081526004018080602001828103825260148152602001807f43616e6e6f742073656e64203020746f6b656e7300000000000000000000000081525060200191505060405180910390fd5b60006008876040518082805190602001908083835b602083106144f957805182526020820191506020810190506020830392506144d6565b6001836020036101000a038019825116818451168082178552505050505050905001915050908152602001604051809103902060000160009054906101000a900473ffffffffffffffffffffffffffffffffffffffff16905061455d813087614949565b846008876040518082805190602001908083835b602083106145945780518252602082019150602081019050602083039250614571565b6001836020036101000a038019825116818451168082178552505050505050905001915050908152602001604051809103902060020160008282540192505081905550846008876040518082805190602001908083835b6020831061460e57805182526020820191506020810190506020830392506145eb565b6001836020036101000a038019825116818451168082178552505050505050905001915050908152602001604051809103902060040160008373ffffffffffffffffffffffffffffffffffffffff1673ffffffffffffffffffffffffffffffffffffffff168152602001908152602001600020819055506008866040518082805190602001908083835b602083106146bb5780518252602082019150602081019050602083039250614698565b6001836020036101000a03801982511681845116808217855250505050505090500191505090815260200160405180910390206005018190806001815401808255809150509060018203906000526020600020016000909192909190916101000a81548173ffffffffffffffffffffffffffffffffffffffff021916908373ffffffffffffffffffffffffffffffffffffffff160217905550506008866040518082805190602001908083835b6020831061478b5780518252602082019150602081019050602083039250614768565b6001836020036101000a038019825116818451168082178552505050505050905001915050908152602001604051809103902060000160009054906101000a900473ffffffffffffffffffffffffffffffffffffffff1673ffffffffffffffffffffffffffffffffffffffff168173ffffffffffffffffffffffffffffffffffffffff167f299eb6f534c4f090c37218944eb2f615b31d9da18a8ecb624f7b76134f71784d898989600060405180806020018060200185815260200184151515158152602001838103835287818151815260200191508051906020019080838360005b8381101561488957808201518184015260208101905061486e565b50505050905090810190601f1680156148b65780820380516001836020036101000a031916815260200191505b50838103825286818151815260200191508051906020019080838360005b838110156148ef5780820151818401526020810190506148d4565b50505050905090810190601f16801561491c5780820380516001836020036101000a031916815260200191505b50965050505050505060405180910390a35080614937611144565b1461494157600080fd5b505050505050565b600073ffffffffffffffffffffffffffffffffffffffff168373ffffffffffffffffffffffffffffffffffffffff1614156149cf576040517f08c379a0000000000000000000000000000000000000000000000000000000008152600401808060200182810382526025815260200180615f316025913960400191505060405180910390fd5b600073ffffffffffffffffffffffffffffffffffffffff168273ffffffffffffffffffffffffffffffffffffffff161415614a55576040517f08c379a0000000000000000000000000000000000000000000000000000000008152600401808060200182810382526023815260200180615e246023913960400191505060405180910390fd5b614ac181604051806060016040528060268152602001615ebf60269139600160008773ffffffffffffffffffffffffffffffffffffffff1673ffffffffffffffffffffffffffffffffffffffff16815260200190815260200160002054614c039092919063ffffffff16565b600160008573ffffffffffffffffffffffffffffffffffffffff1673ffffffffffffffffffffffffffffffffffffffff16815260200190815260200160002081905550614b5681600160008573ffffffffffffffffffffffffffffffffffffffff1673ffffffffffffffffffffffffffffffffffffffff16815260200190815260200160002054614cc390919063ffffffff16565b600160008473ffffffffffffffffffffffffffffffffffffffff1673ffffffffffffffffffffffffffffffffffffffff168152602001908152602001600020819055508173ffffffffffffffffffffffffffffffffffffffff168373ffffffffffffffffffffffffffffffffffffffff167fddf252ad1be2c89b69c2b068fc378daa952ba7f163c4a11628f55a4df523b3ef836040518082815260200191505060405180910390a3505050565b6000838311158290614cb0576040517f08c379a00000000000000000000000000000000000000000000000000000000081526004018080602001828103825283818151815260200191508051906020019080838360005b83811015614c75578082015181840152602081019050614c5a565b50505050905090810190601f168015614ca25780820380516001836020036101000a031916815260200191505b509250505060405180910390fd5b5060008385039050809150509392505050565b600080828401905083811015614d41576040517f08c379a000000000000000000000000000000000000000000000000000000000815260040180806020018281038252601b8152602001807f536166654d6174683a206164646974696f6e206f766572666c6f77000000000081525060200191505060405180910390fd5b8091505092915050565b6000614d5633611908565b8211614d625781614d6c565b614d6b33611908565b5b9050806008846040518082805190602001908083835b60208310614da55780518252602082019150602081019050602083039250614d82565b6001836020036101000a038019825116818451168082178552505050505050905001915050908152602001604051809103902060030181905550505050565b600073ffffffffffffffffffffffffffffffffffffffff168173ffffffffffffffffffffffffffffffffffffffff161415614e6a576040517f08c379a0000000000000000000000000000000000000000000000000000000008152600401808060200182810382526026815260200180615e776026913960400191505060405180910390fd5b8073ffffffffffffffffffffffffffffffffffffffff166000809054906101000a900473ffffffffffffffffffffffffffffffffffffffff1673ffffffffffffffffffffffffffffffffffffffff167f8be0079c531659141344cd1fd0a4f28419497f9722a3daafe3b4186f6b6457e060405160405180910390a3806000806101000a81548173ffffffffffffffffffffffffffffffffffffffff021916908373ffffffffffffffffffffffffffffffffffffffff16021790555050565b60008260011515614f3882612252565b151514614fad576040517f08c379a000000000000000000000000000000000000000000000000000000000815260040180806020018281038252601d8152602001807f5573657220686173206e6f74206265656e20636c61696d65642079657400000081525060200191505060405180910390fd5b6000614fb8846117e6565b9050614fc2615db9565b6008866040518082805190602001908083835b60208310614ff85780518252602082019150602081019050602083039250614fd5565b6001836020036101000a03801982511681845116808217855250505050505090500191505090815260200160405180910390206040518060a00160405290816000820160009054906101000a900473ffffffffffffffffffffffffffffffffffffffff1673ffffffffffffffffffffffffffffffffffffffff1673ffffffffffffffffffffffffffffffffffffffff1681526020016001820154815260200160028201548152602001600382015481526020016005820180548060200260200160405190810160405280929190818152602001828054801561512f57602002820191906000526020600020905b8160009054906101000a900473ffffffffffffffffffffffffffffffffffffffff1673ffffffffffffffffffffffffffffffffffffffff16815260200190600101908083116150e5575b5050505050815250509050615148816000015183615807565b5060008160400151905060008111156154535761516a30836000015183614949565b600082608001515111156154525760008090505b8260800151518110156154505760008360800151828151811061519d57fe5b6020026020010151905060006152658261526060088d6040518082805190602001908083835b602083106151e657805182526020820191506020810190506020830392506151c3565b6001836020036101000a038019825116818451168082178552505050505050905001915050908152602001604051809103902060040160008673ffffffffffffffffffffffffffffffffffffffff1673ffffffffffffffffffffffffffffffffffffffff168152602001908152602001600020548c611113565b615807565b9050600081111561540f578173ffffffffffffffffffffffffffffffffffffffff16856000015173ffffffffffffffffffffffffffffffffffffffff167fc34f78c4e0a61a7446f4555b63c4031ce1ef800e1f3a36724db362bd9346a63e8c600760008773ffffffffffffffffffffffffffffffffffffffff1673ffffffffffffffffffffffffffffffffffffffff16815260200190815260200160002085604051808060200180602001848152602001838103835286818151815260200191508051906020019080838360005b8381101561534e578082015181840152602081019050615333565b50505050905090810190601f16801561537b5780820380516001836020036101000a031916815260200191505b508381038252858181546001816001161561010002031660029004815260200191508054600181600116156101000203166002900480156153fd5780601f106153d2576101008083540402835291602001916153fd565b820191906000526020600020905b8154815290600101906020018083116153e057829003601f168201915b50509550505050505060405180910390a35b8460800151838151811061541f57fe5b60200260200101600073ffffffffffffffffffffffffffffffffffffffff168152505050808060010191505061517e565b505b5b600082604001818152505080830194505050505092915050565b60008160405160200180807f19457468657265756d205369676e6564204d6573736167653a0a333200000000815250601c01828152602001915050604051602081830303815290604052805190602001209050919050565b6060600080836001855103815181106154da57fe5b602001015160f81c60f81b9050606060826040519080825280601f01601f19166020018201604052801561551d5781602001600182028038833980820191505090505b50905060008090505b60828110156155975785816003885103038151811061554157fe5b602001015160f81c60f81b82826081038151811061555b57fe5b60200101907effffffffffffffffffffffffffffffffffffffffffffffffffffffffffffff1916908160001a9053508080600101915050615526565b50806155a58360f81c61583e565b60f81b935093505050915091565b6060600060028351816155c257fe5b0614615619576040517f08c379a0000000000000000000000000000000000000000000000000000000008152600401808060200182810382526024815260200180615ee56024913960400191505060405180910390fd5b6060600283518161562657fe5b046040519080825280601f01601f1916602001820160405280156156595781602001600182028038833980820191505090505b50905060008090505b600284518161566d57fe5b0481101561571b57600084826002028151811061568657fe5b602001015160f81c60f81b60f81c905060008560018460020201815181106156aa57fe5b602001015160f81c60f81b60f81c90506156c38161583e565b60106156ce8461583e565b020160f81b8484815181106156df57fe5b60200101907effffffffffffffffffffffffffffffffffffffffffffffffffffffffffffff1916908160001a9053505050806001019050615662565b5080915050919050565b60008060008060418551146157405760009350505050615801565b6020850151925060408501519150606085015160001a9050601b8160ff16101561576b57601b810190505b601b8160ff16141580156157835750601c8160ff1614155b156157945760009350505050615801565b60018682858560405160008152602001604052604051808581526020018460ff1660ff1681526020018381526020018281526020019450505050506020604051602081039080840390855afa1580156157f1573d6000803e3d6000fd5b5050506020604051035193505050505b92915050565b6000600654615814611144565b8301111561582b57615824611144565b6006540391505b6158358383615b7c565b81905092915050565b60007f30000000000000000000000000000000000000000000000000000000000000007effffffffffffffffffffffffffffffffffffffffffffffffffffffffffffff19168260f81b7effffffffffffffffffffffffffffffffffffffffffffffffffffffffffffff19161015801561591e57507f39000000000000000000000000000000000000000000000000000000000000007effffffffffffffffffffffffffffffffffffffffffffffffffffffffffffff19168260f81b7effffffffffffffffffffffffffffffffffffffffffffffffffffffffffffff191611155b15615950577f300000000000000000000000000000000000000000000000000000000000000060f81c82039050615b77565b7f61000000000000000000000000000000000000000000000000000000000000007effffffffffffffffffffffffffffffffffffffffffffffffffffffffffffff19168260f81b7effffffffffffffffffffffffffffffffffffffffffffffffffffffffffffff191610158015615a2e57507f66000000000000000000000000000000000000000000000000000000000000007effffffffffffffffffffffffffffffffffffffffffffffffffffffffffffff19168260f81b7effffffffffffffffffffffffffffffffffffffffffffffffffffffffffffff191611155b15615a63577f610000000000000000000000000000000000000000000000000000000000000060f81c82600a01039050615b77565b7f41000000000000000000000000000000000000000000000000000000000000007effffffffffffffffffffffffffffffffffffffffffffffffffffffffffffff19168260f81b7effffffffffffffffffffffffffffffffffffffffffffffffffffffffffffff191610158015615b4157507f46000000000000000000000000000000000000000000000000000000000000007effffffffffffffffffffffffffffffffffffffffffffffffffffffffffffff19168260f81b7effffffffffffffffffffffffffffffffffffffffffffffffffffffffffffff191611155b15615b76577f410000000000000000000000000000000000000000000000000000000000000060f81c82600a01039050615b77565b5b919050565b600073ffffffffffffffffffffffffffffffffffffffff168273ffffffffffffffffffffffffffffffffffffffff161415615c1f576040517f08c379a000000000000000000000000000000000000000000000000000000000815260040180806020018281038252601f8152602001807f45524332303a206d696e7420746f20746865207a65726f20616464726573730081525060200191505060405180910390fd5b615c3481600354614cc390919063ffffffff16565b600381905550615c8c81600160008573ffffffffffffffffffffffffffffffffffffffff1673ffffffffffffffffffffffffffffffffffffffff16815260200190815260200160002054614cc390919063ffffffff16565b600160008473ffffffffffffffffffffffffffffffffffffffff1673ffffffffffffffffffffffffffffffffffffffff168152602001908152602001600020819055508173ffffffffffffffffffffffffffffffffffffffff16600073ffffffffffffffffffffffffffffffffffffffff167fddf252ad1be2c89b69c2b068fc378daa952ba7f163c4a11628f55a4df523b3ef836040518082815260200191505060405180910390a35050565b828054600181600116156101000203166002900490600052602060002090601f016020900481019282601f10615d7a57805160ff1916838001178555615da8565b82800160010185558215615da8579182015b82811115615da7578251825591602001919060010190615d8c565b5b509050615db59190615dfe565b5090565b6040518060a00160405280600073ffffffffffffffffffffffffffffffffffffffff168152602001600081526020016000815260200160008152602001606081525090565b615e2091905b80821115615e1c576000816000905550600101615e04565b5090565b9056fe45524332303a207472616e7366657220746f20746865207a65726f20616464726573735265636f7665726564206164647265737320646f6573206e6f74206d6174636820636c61696d657220616464726573734f776e61626c653a206e6577206f776e657220697320746865207a65726f206164647265737345524332303a20617070726f766520746f20746865207a65726f206164647265737345524332303a207472616e7366657220616d6f756e7420657863656564732062616c616e6365417474656d707420746f20636f6e7665727420756e6576656e2068657820737472696e6745524332303a207472616e7366657220616d6f756e74206578636565647320616c6c6f77616e636545524332303a207472616e736665722066726f6d20746865207a65726f206164647265737345524332303a20617070726f76652066726f6d20746865207a65726f206164647265737353656e64657220616c726561647920686173206120726571756573742070656e64696e6745524332303a2064656372656173656420616c6c6f77616e63652062656c6f77207a65726fa265627a7a723158200e4514e2882188a53ceb1f8e795532b6260ee3bca8368a20a1e1db0f2572a26264736f6c634300050c0032",
  "source": "pragma solidity ^0.5.0;\n\nimport \"openzeppelin-solidity/contracts/ownership/Ownable.sol\";\nimport \"openzeppelin-solidity/contracts/token/ERC20/ERC20.sol\";\nimport \"./libraries/Strings.sol\";\nimport \"./libraries/ECDSA.sol\";\n\nimport \"./mocks/TwitterOracleMock.sol\";\n\n/*\n * @title WokeToken ERC20 Contract\n * @notice Deployed by dev team to set the parameters for token distribution and transfer.\n */\n\n/*\n *\tNeeds multisig with admin wallet that prevents spamming of claims to \n *\tlarge profile accounts.\n * TODO:\n *  - more rigourous invariant modifiers\n *  - could get a multiplier based on the size of the unclaimed pool\n *  - Research how zeppelin implements escrow to avoid issues with unclaimed tokens\n *  - Abstract twitter client to generic social client for multiple social networks\n *  - fix context and mutator modifiers\n *  - confirm use of public vs external\n *  - separate unclaimed token pool from main token supply\n *  - fix redundancy in user validity modifiers\n *  - separate social network validation into \n *  - fix data types for gen parameters and transfers\n *  - replace @notice tag with something clearer\n *  - Evaluate neccessity of sending userID with transaction with user is alread claimed\n *  - look into replace 'Claimed' terminology with roles\n */\n\ncontract WokeToken is Ownable, ERC20 {\n\tstruct User {\n\t\taddress account;\n\t\tuint256 followers;\n\t\tuint256 unclaimedBalance;\n\t\tuint256 tipBalance;\n\t\tmapping(address => uint256) referralAmount;\n\t\taddress[] referrers;\n\t}\n\n\t/* CONTRACT STORAGE */\n\t// Constants\n\tbool DEFAULT_TIP_ALL = true;\n\n\t// Protocol contracts\n\taddress public tippingAgent;\n\taddress public twitterClient;\n\tbyte authVersion = 0x01; // Claim string / auth token version\n\tbyte appId = 0x0A;\t\t// Auth app, only twitter for now\n\n\n\t// Token generation parameters\n\tuint256 public maxSupply;\n\t//uint32 public reward;\n\t//uint32 public multiplier;\n\t//uint32 public halving;\n\n\t// User accounts\n\tmapping(address => string) userIds; // Mapping of addresses to twitter account IDs (handles are mutable alias for ID)\n\tmapping(string => User) users;\n\tmapping(string => address) requester; // claim string needs a nonce\n\n\tuint256 private userCount;\n\n\t// Safety\n\tmapping(address => bool) private requestMutexes; // Oracle requests are blocking\n\t/*----------------*/\n\n\t// @dev Create token with given generation parameters\n\t// @param _twitterClient\tAddress of provable client contract for twitter api requests\n\t// @param _tippingAgent\t\tAddress of chainlink client contract for twitter api requests\n\t// @param _maxSupply\t\tTotal supply of wokeTokens allowed to exist\n\t// @param _reward\t\t\tLinear coeffient for token generation curve\n\t// @param _multiplier\t\tReward multiplier for Eth contribution\n\tconstructor(\n\t\taddress _twitterClient, \n\t\taddress _tippingAgent, \n\t\t//uint32 _reward, \n\t\t//uint32 _multiplier, \n\t\t//uint32 _halving,\n\t\tuint32 _maxSupply\n\t) \n\tpublic payable\n\t{\n\t\ttwitterClient = _twitterClient;\n\t\ttippingAgent = _tippingAgent;\n\t\tmaxSupply = _maxSupply;\n\t\t//reward = _reward;\n\t\t//multiplier = _multiplier;\n\t\tuserCount = 0;\n\t}\n\n\t// @notice Connect a wallet to a Twitter user ID and claim any unclaimed TXs  \n\t// @returns Provable query ID\n\tfunction claimUser(string memory _user) public payable\n\thasNoUser\n\tuserNotClaimed(_user)\n\trequestUnlocked\n\treturns (bytes32)\n\t{\n\t\trequester[_user] = msg.sender;\n\n\t\tTwitterOracleMock client = TwitterOracleMock(twitterClient);\n\t\tbytes32 queryId = client.findTweet(_user);\n\t\t//bytes32 queryId = bytes32(0);\n\n\t\tif(queryId == bytes32(0)) {\n\t\t\t// Query failure, revert\n\t\t\temit TraceBytes32('failed query', queryId);\n\t\t}\n\n\t\temit Lodged(msg.sender, _user, queryId);\n\n\t\treturn queryId;\n\t}\n\n\t// @notice Receive claimer data from client and action claim\n\t// @param _id user id\n\t// @param _claimString tweet text which should contain a signed claim string\n\t//function _fulfillClaim(string memory _id, string memory _claimString) public\n\tfunction _fulfillClaim(string memory _id) public\n\t\t//\tonlyClient\n\t\tuserNotClaimed(_id)\n\t\trequestLocked(requester[_id])\n\t{\n\t\tTwitterOracleMock client = TwitterOracleMock(twitterClient);\n\t\tstring memory claimString = client.getTweetText(_id);\n\t\trequire(bytes(claimString).length > 0, 'claim string not stored');\n\n\t\taddress claimer = requester[_id];\n\t\trequire(verifyClaimString(claimer, _id, claimString), 'invalid claim string');\n\n\t\tuint256 _followers = 1; // change to function argument\n\n\t\t// address _claimer\n\n\t\t// Link wallet and twitter handle\n\t\tuserIds[claimer] = _id;\n\t\tusers[_id].account = claimer;\n\n\t\t// Claim unclaimed transactions and join bonus\n\t\temit Claimed(claimer, _id, claimBonus(_id, _followers));\n\t\tuserCount += 1;\n\n\t\tif(DEFAULT_TIP_ALL) {\n\t\t\t_setTipBalance(_id, balanceOf(users[_id].account));\n\t\t}\n\n\t\trequester[_id] = address(0); // @fix delete this value\n\t}\n\n\t// @notice Transfer a new userId's bonus to their account\n\t// @returns Total amount claimed\n\tfunction claimBonus(string memory _id, uint256 _followers)\n\t\tprivate\n\t\tuserIsClaimed(_id)\n\treturns (uint256)\n\t{\n\t\t// Mint new tokens based on userIds followers\n\t\tuint256 bonus = calculateBonus(_followers);\n\n\t\tUser memory user = users[_id];\n\t\tmint(user.account, bonus);\n\n\t\tuint unclaimedBalance = user.unclaimedBalance;\n\n\t\t// Transfer the unclaimed amount and bonus from the token contract to the user\n\t\tif(unclaimedBalance > 0) {\n\t\t\t_transfer(address(this), user.account, unclaimedBalance); \n\t\t\t// @dev this conditional should always pass\n\t\t\tif(user.referrers.length > 0) {\n\t\t\t\tfor(uint i = 0; i < user.referrers.length; i++) {\n\t\t\t\t\taddress referrer = user.referrers[i];\n\t\t\t\t\tuint reward = mint(\n\t\t\t\t\t\treferrer,\n\t\t\t\t\t\tcalculateReward(users[_id].referralAmount[referrer], _followers)\n\t\t\t\t\t);\n\t\t\t\t\tif(reward > 0) {\n\t\t\t\t\t\temit Reward(user.account, referrer, _id, userIds[referrer], reward);\n\t\t\t\t\t}\n\t\t\t\t\tdelete user.referrers[i];\n\t\t\t\t}\n\t\t\t}\n\t\t}\n\n\t\tuser.unclaimedBalance = 0;\n\n\t\treturn bonus + unclaimedBalance;\n\t}\n\n\t// @notice Mint the given amount, or the remaining unminted supply\n\t// @returns Amount minted\n\tfunction mint(address _recipient, uint256 _amount) internal\n\treturns (uint256)\n\t{\n\t\tif(_amount + totalSupply() > maxSupply) {\n\t\t\t_amount = maxSupply - totalSupply();\n\t\t}\n\t\t_mint(_recipient, _amount);\n\t\treturn _amount;\n\t}\n\n\t// @notice Trans\n\t//function transferUnclaimed(uint32 _from, uint32 _to, uint32 _amount)\n\tfunction transferUnclaimed(string memory _toId, uint256 _amount)\n\t\tpublic\n\t\thasUser\n\t{\n\t\trequire(_amount > 0, 'Cannot send 0 tokens');\n\n\t\t_transferUnclaimed(myUser(), _toId, _amount);\n\n\t\t//emit Tx(userIds[msg.sender], _toId, userIds[msg.sender], _toId, _amount, false);\n\t\t//emit Tx(msg.sender, users[_toId].account, userIds[msg.sender], _toId, _amount, false);\n\t}\n\n\t// @notice Trans\n\tfunction _transferUnclaimed(string memory _fromId, string memory _toId, uint256 _amount)\n\t\tprivate\n\t\tuserIsClaimed(_fromId)\n\t\tuserNotClaimed(_toId)\n\t\tsupplyInvariant\n\t{\n\t\trequire(_amount > 0, 'Cannot send 0 tokens');\n\n\t\taddress from = users[_fromId].account;\n\n\t\t// 1. Transfer the amount from the the sender to the token contract\n\t\t// @TODO naughty naughty\n\t\t//approve(tippingAgent, _amount);\n\t\t//transferFrom(from, address(this), _amount); // @dev Use safe math\n\t\t_transfer(from, address(this), _amount); // @dev Use safe math\n\n\t\t// 2. Set the unclaimed balance for the receiving user\n\t\tusers[_toId].unclaimedBalance += _amount;\n\t\tusers[_toId].referralAmount[from] = _amount;\n\t\tusers[_toId].referrers.push(from);\n\n\t\t//emit Tx(userIds[msg.sender], _toId, userIds[msg.sender], _toId, _amount, false);\n\t\temit Tx(from, users[_toId].account, _fromId, _toId, _amount, false);\n\t}\n\n\t// @notice Transfer tokens between claimed userIds\n\tfunction transferClaimed(string memory _toId, uint256 _amount) \n\t\tpublic\n\t\thasUser\n\t\tuserIsClaimed(_toId)\n\t\tsupplyInvariant\n\t{\n\t\ttransfer(users[_toId].account, _amount);\n\n\t\tif(DEFAULT_TIP_ALL) {\n\t\t\t_setTipBalance(_toId, balanceOf(users[_toId].account));\n\t\t}\n\n\t\t//emit Tx(userIds[msg.sender], _toId, userIds[msg.sender], _toId, _amount, true);\n\t\temit Tx(msg.sender, users[_toId].account, userIds[msg.sender], _toId, _amount, true);\n\t}\n\n\t// @notice Transfer tokens between claimed userIds\n\tfunction _transferClaimed(string memory _fromId, string memory _toId, uint256 _amount) \n\t\tinternal\n\t\tonlyTipAgent\n\t\tuserIsClaimed(_toId)\n\t\tsupplyInvariant\n\t{\n\t\trequire(_amount > 0, 'Cannot send 0 tokens');\n\n\t\taddress from = users[_fromId].account;\n\t\taddress to = users[_toId].account;\n\t\t// @TODO naughty naughty\n\t\t//approve(tippingAgent, _amount);\n\t\t//transferFrom(from, to, _amount);\n\t\t_transfer(from, to, _amount);\n\n\t\tif(DEFAULT_TIP_ALL) {\n\t\t\t_setTipBalance(_toId, balanceOf(users[_toId].account));\n\t\t}\n\n\t\t//emit Tx(userIds[msg.sender], _toId, userIds[msg.sender], _toId, _amount, true);\n\t\temit Tx(from, to, _fromId, _toId, _amount, true);\n\t}\n\n\tfunction tip(string calldata _fromId, string calldata _toId, uint256 _amount)\n\t\texternal\n\t\tonlyTipAgent\n\t\tuserIsClaimed(_fromId)\n\t\treturns(uint256)\n\t{\n\n\t\t// @TODO should perform this check off chain\n\t\tif(_amount == 0) {\n\t\t\treturn 0;\n\t\t}\n\n\t\tuint256 tipBalance = users[_toId].tipBalance;\n\t\tuint256 amount = _amount > tipBalance ? tipBalance : _amount;\n\n\t\tif(userClaimed(_toId)) {\n\t\t\t_transferClaimed(_fromId, _toId, amount);\n\t\t} else {\n\t\t\t_transferUnclaimed(_fromId, _toId, amount);\n\t\t}\n\n\t\tusers[_toId].tipBalance -= amount;\n\t\trequire(tipBalance - amount == users[_toId].tipBalance, \"Tip balance invariant violated\");\n\n\t\temit Tip(_fromId, _toId, amount);\n\t\treturn amount;\n\t}\n\n\tfunction setTipBalance(uint256 _amount)\n\t\texternal\n\t\thasUser\n\t{\n\t\t_setTipBalance(myUser(), _amount);\n\t}\n\n\tfunction _setTipBalance(string memory _userId, uint256 _amount)\n\t\tprivate\n\t{\n\t\tuint256 amount = _amount > balanceOf(msg.sender) ? balanceOf(msg.sender) : _amount;\n\t\tusers[_userId].tipBalance = amount;\n\t}\n\n\t/* TOKEN GENERATION PARAMETERS */\n\t// Calculate the joining bonus based\n\t// @dev Defines token generation curve\n\tfunction calculateBonus(uint256 _followers) \n\tpublic view\n\treturns(uint256)\n\t{\n\t\t// @fix factor in halving e.g. *(halving/2)\n\t\t// @fix factor in userCount\n\t\t// @fix use safeMath\n\t\tuint256 unclaimedPool = balanceOf(address(this)); // total unclaimed tokens\n\n\t\tuint256 count = userCount;\n\t\tif(count == 0) {\n\t\t\tcount = 1;\n\t\t}\n\t\t\n\t\tuint256 bonus = 50 + ((_followers * unclaimedPool) / count); // * multiplier\n\t\treturn bonus;\n\t}\n\n\t// @notice Calculate the referral reward for an unclaimed user joining\n\t// @param _contribution: Amount sent by referrer to unclaimed user\n\t// @param _followers: Unclaimed user's follwer count\n\tfunction calculateReward(uint256 _contribution, uint256 _followers) \n\tpublic view\n\treturns(uint256)\n\t{\n\t\tuint256 count = userCount;\n\t\tif(count == 0) {\n\t\t\tcount = 1;\n\t\t}\n\t\tuint reward = (_contribution * _followers) / count;\n\t\treturn reward;\n\t}\n\n\tfunction verifyClaimString(address claimer, string memory _id, string memory _claimString)\n\tpublic\n\treturns (bool)\n\t{\n\t\t// Reconstruct the message hash\n\t\t// message = address + userId + appId // @fix + nonce\n\t\tbytes32 hash = keccak256(abi.encodePacked(uint256(claimer), _id, appId));\n\t\tbytes32 msgHash = ECDSA.messageHash(hash);\n\n\t\t// Extract signature from claim string\n\t\t(bytes memory sigHex, byte _authVersion) = parseClaim(bytes(_claimString));\n\t\tbytes memory sig = Strings.fromHex(sigHex);\n\n\t\trequire(_authVersion == authVersion, 'invalid auth version');\n\n\t\taddress recovered = ECDSA.recover(msgHash, sig);\n\t\trequire(recovered == claimer, 'Recovered address does not match claimer address');\n\n\t\tbool result = (recovered == claimer);\n\t\temit Verification(result, recovered, claimer, _id);\n\n\t\treturn result;\n\t}\n\n\t// @param cs claim string\n\tfunction parseClaim(bytes memory _cs) internal\n\treturns (bytes memory, byte)\n\t{\n\t\tbyte version = _cs[_cs.length - 1];\n\t\t//uint prefixLen = _cs.length - 67; // [prefix][sig],<version>\n\t\tbytes memory sig = new bytes(130);\n\n\t\t// @fix replace loop with mload to save gas\n\t\tfor(uint i = 0; i < 130; i++) {\n\t\t\tsig[129 - i] = _cs[_cs.length - 3 - i];\n\t\t}\n\n\t\treturn (sig, byte(Strings.fromHexChar(uint8(version))));\n\t}\n\t/*-----------------------------*/\n\n\n\t/* HELPERS */\n\tfunction getUser(address account) public view\n\treturns (string memory)\n\t{\n\t\treturn userIds[account];\n\t}\n\n\tfunction myUser() public view\n\treturns (string memory)\n\t{\n\t\treturn userIds[msg.sender];\n\t}\n\n\tfunction getUserCount() public view\n\treturns (uint256)\n\t{\n\t\treturn userCount;\n\t}\n\n\tfunction userClaimed(string memory _userId) public view\n\treturns (bool)\n\t{\n\t\tif(users[_userId].account == address(0)) {\n\t\t\treturn false;\n\t\t}\n\t\treturn true;\n\t}\n\n\t// @TODO rename to hasLodgedRequest\n\tfunction lodgedRequest(string memory _userId) public view\n\treturns (bool)\n\t{\n\t\tif(requester[_userId] == msg.sender) {\n\t\t\treturn true;\n\t\t}\n\t\treturn false;\n\t}\n\t/*---------*/\n\n\t/* MODIFIERS */\n\tmodifier userNotClaimed(string memory _user) {\n\t\trequire(userClaimed(_user) == false, \"User is already claimed\");\n\t\t_;\n\t}\n\n\tmodifier userIsClaimed(string memory _user) {\n\t\trequire(userClaimed(_user) == true, \"User has not been claimed yet\");\n\t\t_;\n\t}\n\n\t// @note has<Type>() implies check for mapping of (msg.sender => <Type>)\n\t// @notice Check if sending account has a claimed user\n\tmodifier hasUser() {\n\t\tbytes memory temp = bytes(userIds[msg.sender]);\n\t\trequire(temp.length > 0, \"Sender does not have a user ID\");\n\t\t_;\n\t}\n\n\tmodifier hasNoUser() {\n\t\tbytes memory temp = bytes(userIds[msg.sender]);\n\t\trequire(temp.length == 0, \"Sender already has a user ID\");\n\t\temit TraceString('hasNoUser', userIds[msg.sender]);\n\t\t_;\n\t}\n\n\t// @notice Authenticate account is owner of user ID\n\t// @dev This should be redundant given the user claiming process, but\n\t//\t    it is left in for added safety during development.\n\tmodifier isUser(string memory _id) {\n\t\tstring memory temp = string(userIds[msg.sender]);\n\t\trequire(keccak256(abi.encodePacked((temp))) == keccak256(abi.encodePacked((_id))),\n\t\t\t\t\"Sender is not the owner of this user ID\");\n\t\t\t\t_;\n\t}\n\n\t// @notice Acquire twitterClient request lock for sender iniating request\n\t// @dev Require the request lock is available\n\tmodifier requestUnlocked() {\n\t\trequire(requestMutexes[msg.sender] == false, \"Sender already has a request pending\");\n\t\trequestMutexes[msg.sender] = true;\n\t\t_;\n\t}\n\n\t// @notice Release twitterClient for account that initiated request\n\t// @dev Requires the request lock to be acquired\n\tmodifier requestLocked(address _requester) {\n\t\trequire(requestMutexes[_requester] == true, \"Sender has no request pending\");\n\t\t_;\n\t\trequestMutexes[_requester] = false;\n\t}\n\n\tmodifier onlyClient() {\n\t\trequire(msg.sender == twitterClient, \"Sender is not Twitter Client\");\n\t\t_;\n\t}\n\n\tmodifier onlyTipAgent() {\n\t\trequire(msg.sender == tippingAgent, \"Sender is not tipping agent\");\n\t\t_;\n\t}\n\n\tmodifier supplyInvariant() {\n\t\tuint256 supply = totalSupply();\n\t\t_;\n\t\trequire(totalSupply() == supply);\n\t}\n\n\t/* EVENTS */\n\tevent TraceString(string m, string v);\n\tevent TraceUint256(string m, uint256 v);\n\tevent TraceBytes32(string m, bytes32 v);\n\tevent TraceBytes(string m, bytes v);\n\tevent TraceByte(string m, byte v);\n\n\t// @param claimed: recipient is claimed\n\t//event Tx(string fromId, string toId, string indexed fromId_ind, string indexed toId_ind, uint256 amount, bool claimed);\n\tevent Tx(address indexed from, address indexed to, string fromId, string toId, uint256 amount, bool claimed);\n\tevent Tip(string fromId, string toId, uint256 amount);\n\n\tevent Claimed (address indexed account, string userId, uint256 amount);\n\tevent Reward (address indexed claimer, address indexed referrer, string claimerId, string referrerId, uint256 amount);\n\tevent Verification(bool value, address recovered, address claimer, string userId);\n\tevent Lodged (address indexed claimer, string userId, bytes32 queryId);\n}\n",
  "sourcePath": "/home/jack/Repositories/jgitgud/woke-dapp/@woke/contracts-src/contracts/WokeToken.sol",
  "compiler": {
    "name": "solc",
    "version": "0.5.12+commit.7709ece9.Emscripten.clang"
  },
  "schemaVersion": "3.0.20",
  "updatedAt": "2020-02-15T12:10:36.154Z",
  "networkType": "ethereum",
  "devdoc": {
    "methods": {
      "allowance(address,address)": {
        "details": "See {IERC20-allowance}."
      },
      "approve(address,uint256)": {
        "details": "See {IERC20-approve}.     * Requirements:     * - `spender` cannot be the zero address."
      },
      "balanceOf(address)": {
        "details": "See {IERC20-balanceOf}."
      },
      "decreaseAllowance(address,uint256)": {
        "details": "Atomically decreases the allowance granted to `spender` by the caller.     * This is an alternative to {approve} that can be used as a mitigation for problems described in {IERC20-approve}.     * Emits an {Approval} event indicating the updated allowance.     * Requirements:     * - `spender` cannot be the zero address. - `spender` must have allowance for the caller of at least `subtractedValue`."
      },
      "increaseAllowance(address,uint256)": {
        "details": "Atomically increases the allowance granted to `spender` by the caller.     * This is an alternative to {approve} that can be used as a mitigation for problems described in {IERC20-approve}.     * Emits an {Approval} event indicating the updated allowance.     * Requirements:     * - `spender` cannot be the zero address."
      },
      "isOwner()": {
        "details": "Returns true if the caller is the current owner."
      },
      "owner()": {
        "details": "Returns the address of the current owner."
      },
      "renounceOwnership()": {
        "details": "Leaves the contract without owner. It will not be possible to call `onlyOwner` functions anymore. Can only be called by the current owner.     * NOTE: Renouncing ownership will leave the contract without an owner, thereby removing any functionality that is only available to the owner."
      },
      "totalSupply()": {
        "details": "See {IERC20-totalSupply}."
      },
      "transfer(address,uint256)": {
        "details": "See {IERC20-transfer}.     * Requirements:     * - `recipient` cannot be the zero address. - the caller must have a balance of at least `amount`."
      },
      "transferFrom(address,address,uint256)": {
        "details": "See {IERC20-transferFrom}.     * Emits an {Approval} event indicating the updated allowance. This is not required by the EIP. See the note at the beginning of {ERC20};     * Requirements: - `sender` and `recipient` cannot be the zero address. - `sender` must have a balance of at least `amount`. - the caller must have allowance for `sender`'s tokens of at least `amount`."
      },
      "transferOwnership(address)": {
        "details": "Transfers ownership of the contract to a new account (`newOwner`). Can only be called by the current owner."
      }
    }
  },
  "userdoc": {
    "methods": {}
  }
}