{
  "contractName": "WokeToken",
  "abi": [
    {
      "inputs": [
        {
          "internalType": "address",
          "name": "_twitterClient",
          "type": "address"
        },
        {
          "internalType": "uint32",
          "name": "_maxSupply",
          "type": "uint32"
        }
      ],
      "payable": true,
      "stateMutability": "payable",
      "type": "constructor"
    },
    {
      "anonymous": false,
      "inputs": [
        {
          "indexed": true,
          "internalType": "address",
          "name": "owner",
          "type": "address"
        },
        {
          "indexed": true,
          "internalType": "address",
          "name": "spender",
          "type": "address"
        },
        {
          "indexed": false,
          "internalType": "uint256",
          "name": "value",
          "type": "uint256"
        }
      ],
      "name": "Approval",
      "type": "event"
    },
    {
      "anonymous": false,
      "inputs": [
        {
          "indexed": true,
          "internalType": "address",
          "name": "account",
          "type": "address"
        },
        {
          "indexed": false,
          "internalType": "string",
          "name": "userId",
          "type": "string"
        },
        {
          "indexed": false,
          "internalType": "uint256",
          "name": "amount",
          "type": "uint256"
        }
      ],
      "name": "Claimed",
      "type": "event"
    },
    {
      "anonymous": false,
      "inputs": [
        {
          "indexed": true,
          "internalType": "address",
          "name": "claimer",
          "type": "address"
        },
        {
          "indexed": false,
          "internalType": "string",
          "name": "userId",
          "type": "string"
        },
        {
          "indexed": false,
          "internalType": "bytes32",
          "name": "queryId",
          "type": "bytes32"
        }
      ],
      "name": "Lodged",
      "type": "event"
    },
    {
      "anonymous": false,
      "inputs": [
        {
          "indexed": true,
          "internalType": "address",
          "name": "previousOwner",
          "type": "address"
        },
        {
          "indexed": true,
          "internalType": "address",
          "name": "newOwner",
          "type": "address"
        }
      ],
      "name": "OwnershipTransferred",
      "type": "event"
    },
    {
      "anonymous": false,
      "inputs": [
        {
          "indexed": true,
          "internalType": "address",
          "name": "claimer",
          "type": "address"
        },
        {
          "indexed": true,
          "internalType": "address",
          "name": "referrer",
          "type": "address"
        },
        {
          "indexed": false,
          "internalType": "string",
          "name": "claimerId",
          "type": "string"
        },
        {
          "indexed": false,
          "internalType": "string",
          "name": "referrerId",
          "type": "string"
        },
        {
          "indexed": false,
          "internalType": "uint256",
          "name": "amount",
          "type": "uint256"
        }
      ],
      "name": "Reward",
      "type": "event"
    },
    {
      "anonymous": false,
      "inputs": [
        {
          "indexed": false,
          "internalType": "string",
          "name": "m",
          "type": "string"
        },
        {
          "indexed": false,
          "internalType": "bytes1",
          "name": "v",
          "type": "bytes1"
        }
      ],
      "name": "TraceByte",
      "type": "event"
    },
    {
      "anonymous": false,
      "inputs": [
        {
          "indexed": false,
          "internalType": "string",
          "name": "m",
          "type": "string"
        },
        {
          "indexed": false,
          "internalType": "bytes",
          "name": "v",
          "type": "bytes"
        }
      ],
      "name": "TraceBytes",
      "type": "event"
    },
    {
      "anonymous": false,
      "inputs": [
        {
          "indexed": false,
          "internalType": "string",
          "name": "m",
          "type": "string"
        },
        {
          "indexed": false,
          "internalType": "bytes32",
          "name": "v",
          "type": "bytes32"
        }
      ],
      "name": "TraceBytes32",
      "type": "event"
    },
    {
      "anonymous": false,
      "inputs": [
        {
          "indexed": false,
          "internalType": "string",
          "name": "m",
          "type": "string"
        },
        {
          "indexed": false,
          "internalType": "string",
          "name": "v",
          "type": "string"
        }
      ],
      "name": "TraceString",
      "type": "event"
    },
    {
      "anonymous": false,
      "inputs": [
        {
          "indexed": false,
          "internalType": "string",
          "name": "m",
          "type": "string"
        },
        {
          "indexed": false,
          "internalType": "uint256",
          "name": "v",
          "type": "uint256"
        }
      ],
      "name": "TraceUint256",
      "type": "event"
    },
    {
      "anonymous": false,
      "inputs": [
        {
          "indexed": true,
          "internalType": "address",
          "name": "from",
          "type": "address"
        },
        {
          "indexed": true,
          "internalType": "address",
          "name": "to",
          "type": "address"
        },
        {
          "indexed": false,
          "internalType": "uint256",
          "name": "value",
          "type": "uint256"
        }
      ],
      "name": "Transfer",
      "type": "event"
    },
    {
      "anonymous": false,
      "inputs": [
        {
          "indexed": true,
          "internalType": "address",
          "name": "from",
          "type": "address"
        },
        {
          "indexed": true,
          "internalType": "address",
          "name": "to",
          "type": "address"
        },
        {
          "indexed": false,
          "internalType": "string",
          "name": "fromId",
          "type": "string"
        },
        {
          "indexed": false,
          "internalType": "string",
          "name": "toId",
          "type": "string"
        },
        {
          "indexed": false,
          "internalType": "uint256",
          "name": "amount",
          "type": "uint256"
        },
        {
          "indexed": false,
          "internalType": "bool",
          "name": "claimed",
          "type": "bool"
        }
      ],
      "name": "Tx",
      "type": "event"
    },
    {
      "anonymous": false,
      "inputs": [
        {
          "indexed": false,
          "internalType": "bool",
          "name": "value",
          "type": "bool"
        },
        {
          "indexed": false,
          "internalType": "address",
          "name": "recovered",
          "type": "address"
        },
        {
          "indexed": false,
          "internalType": "address",
          "name": "claimer",
          "type": "address"
        },
        {
          "indexed": false,
          "internalType": "string",
          "name": "userId",
          "type": "string"
        }
      ],
      "name": "Verification",
      "type": "event"
    },
    {
      "constant": true,
      "inputs": [
        {
          "internalType": "address",
          "name": "owner",
          "type": "address"
        },
        {
          "internalType": "address",
          "name": "spender",
          "type": "address"
        }
      ],
      "name": "allowance",
      "outputs": [
        {
          "internalType": "uint256",
          "name": "",
          "type": "uint256"
        }
      ],
      "payable": false,
      "stateMutability": "view",
      "type": "function"
    },
    {
      "constant": false,
      "inputs": [
        {
          "internalType": "address",
          "name": "spender",
          "type": "address"
        },
        {
          "internalType": "uint256",
          "name": "amount",
          "type": "uint256"
        }
      ],
      "name": "approve",
      "outputs": [
        {
          "internalType": "bool",
          "name": "",
          "type": "bool"
        }
      ],
      "payable": false,
      "stateMutability": "nonpayable",
      "type": "function"
    },
    {
      "constant": true,
      "inputs": [
        {
          "internalType": "address",
          "name": "account",
          "type": "address"
        }
      ],
      "name": "balanceOf",
      "outputs": [
        {
          "internalType": "uint256",
          "name": "",
          "type": "uint256"
        }
      ],
      "payable": false,
      "stateMutability": "view",
      "type": "function"
    },
    {
      "constant": false,
      "inputs": [
        {
          "internalType": "address",
          "name": "spender",
          "type": "address"
        },
        {
          "internalType": "uint256",
          "name": "subtractedValue",
          "type": "uint256"
        }
      ],
      "name": "decreaseAllowance",
      "outputs": [
        {
          "internalType": "bool",
          "name": "",
          "type": "bool"
        }
      ],
      "payable": false,
      "stateMutability": "nonpayable",
      "type": "function"
    },
    {
      "constant": false,
      "inputs": [
        {
          "internalType": "address",
          "name": "spender",
          "type": "address"
        },
        {
          "internalType": "uint256",
          "name": "addedValue",
          "type": "uint256"
        }
      ],
      "name": "increaseAllowance",
      "outputs": [
        {
          "internalType": "bool",
          "name": "",
          "type": "bool"
        }
      ],
      "payable": false,
      "stateMutability": "nonpayable",
      "type": "function"
    },
    {
      "constant": true,
      "inputs": [],
      "name": "isOwner",
      "outputs": [
        {
          "internalType": "bool",
          "name": "",
          "type": "bool"
        }
      ],
      "payable": false,
      "stateMutability": "view",
      "type": "function"
    },
    {
      "constant": true,
      "inputs": [],
      "name": "maxSupply",
      "outputs": [
        {
          "internalType": "uint256",
          "name": "",
          "type": "uint256"
        }
      ],
      "payable": false,
      "stateMutability": "view",
      "type": "function"
    },
    {
      "constant": true,
      "inputs": [],
      "name": "owner",
      "outputs": [
        {
          "internalType": "address",
          "name": "",
          "type": "address"
        }
      ],
      "payable": false,
      "stateMutability": "view",
      "type": "function"
    },
    {
      "constant": false,
      "inputs": [],
      "name": "renounceOwnership",
      "outputs": [],
      "payable": false,
      "stateMutability": "nonpayable",
      "type": "function"
    },
    {
      "constant": true,
      "inputs": [],
      "name": "totalSupply",
      "outputs": [
        {
          "internalType": "uint256",
          "name": "",
          "type": "uint256"
        }
      ],
      "payable": false,
      "stateMutability": "view",
      "type": "function"
    },
    {
      "constant": false,
      "inputs": [
        {
          "internalType": "address",
          "name": "recipient",
          "type": "address"
        },
        {
          "internalType": "uint256",
          "name": "amount",
          "type": "uint256"
        }
      ],
      "name": "transfer",
      "outputs": [
        {
          "internalType": "bool",
          "name": "",
          "type": "bool"
        }
      ],
      "payable": false,
      "stateMutability": "nonpayable",
      "type": "function"
    },
    {
      "constant": false,
      "inputs": [
        {
          "internalType": "address",
          "name": "sender",
          "type": "address"
        },
        {
          "internalType": "address",
          "name": "recipient",
          "type": "address"
        },
        {
          "internalType": "uint256",
          "name": "amount",
          "type": "uint256"
        }
      ],
      "name": "transferFrom",
      "outputs": [
        {
          "internalType": "bool",
          "name": "",
          "type": "bool"
        }
      ],
      "payable": false,
      "stateMutability": "nonpayable",
      "type": "function"
    },
    {
      "constant": false,
      "inputs": [
        {
          "internalType": "address",
          "name": "newOwner",
          "type": "address"
        }
      ],
      "name": "transferOwnership",
      "outputs": [],
      "payable": false,
      "stateMutability": "nonpayable",
      "type": "function"
    },
    {
      "constant": true,
      "inputs": [],
      "name": "twitterClient",
      "outputs": [
        {
          "internalType": "address",
          "name": "",
          "type": "address"
        }
      ],
      "payable": false,
      "stateMutability": "view",
      "type": "function"
    },
    {
      "constant": false,
      "inputs": [
        {
          "internalType": "string",
          "name": "_user",
          "type": "string"
        }
      ],
      "name": "claimUser",
      "outputs": [
        {
          "internalType": "bytes32",
          "name": "",
          "type": "bytes32"
        }
      ],
      "payable": true,
      "stateMutability": "payable",
      "type": "function"
    },
    {
      "constant": false,
      "inputs": [
        {
          "internalType": "string",
          "name": "_id",
          "type": "string"
        }
      ],
      "name": "_fulfillClaim",
      "outputs": [],
      "payable": false,
      "stateMutability": "nonpayable",
      "type": "function"
    },
    {
      "constant": false,
      "inputs": [
        {
          "internalType": "string",
          "name": "_toId",
          "type": "string"
        },
        {
          "internalType": "uint256",
          "name": "_amount",
          "type": "uint256"
        }
      ],
      "name": "transferUnclaimed",
      "outputs": [],
      "payable": false,
      "stateMutability": "nonpayable",
      "type": "function"
    },
    {
      "constant": false,
      "inputs": [
        {
          "internalType": "string",
          "name": "_toId",
          "type": "string"
        },
        {
          "internalType": "uint256",
          "name": "_amount",
          "type": "uint256"
        }
      ],
      "name": "transferClaimed",
      "outputs": [],
      "payable": false,
      "stateMutability": "nonpayable",
      "type": "function"
    },
    {
      "constant": true,
      "inputs": [
        {
          "internalType": "uint256",
          "name": "_followers",
          "type": "uint256"
        }
      ],
      "name": "calculateBonus",
      "outputs": [
        {
          "internalType": "uint256",
          "name": "",
          "type": "uint256"
        }
      ],
      "payable": false,
      "stateMutability": "view",
      "type": "function"
    },
    {
      "constant": true,
      "inputs": [
        {
          "internalType": "uint256",
          "name": "_contribution",
          "type": "uint256"
        },
        {
          "internalType": "uint256",
          "name": "_followers",
          "type": "uint256"
        }
      ],
      "name": "calculateReward",
      "outputs": [
        {
          "internalType": "uint256",
          "name": "",
          "type": "uint256"
        }
      ],
      "payable": false,
      "stateMutability": "view",
      "type": "function"
    },
    {
      "constant": false,
      "inputs": [
        {
          "internalType": "address",
          "name": "claimer",
          "type": "address"
        },
        {
          "internalType": "string",
          "name": "_id",
          "type": "string"
        },
        {
          "internalType": "string",
          "name": "_claimString",
          "type": "string"
        }
      ],
      "name": "verifyClaimString",
      "outputs": [
        {
          "internalType": "bool",
          "name": "",
          "type": "bool"
        }
      ],
      "payable": false,
      "stateMutability": "nonpayable",
      "type": "function"
    },
    {
      "constant": true,
      "inputs": [
        {
          "internalType": "address",
          "name": "account",
          "type": "address"
        }
      ],
      "name": "getUser",
      "outputs": [
        {
          "internalType": "string",
          "name": "",
          "type": "string"
        }
      ],
      "payable": false,
      "stateMutability": "view",
      "type": "function"
    },
    {
      "constant": true,
      "inputs": [],
      "name": "myUser",
      "outputs": [
        {
          "internalType": "string",
          "name": "",
          "type": "string"
        }
      ],
      "payable": false,
      "stateMutability": "view",
      "type": "function"
    },
    {
      "constant": true,
      "inputs": [],
      "name": "getUserCount",
      "outputs": [
        {
          "internalType": "uint256",
          "name": "",
          "type": "uint256"
        }
      ],
      "payable": false,
      "stateMutability": "view",
      "type": "function"
    },
    {
      "constant": true,
      "inputs": [
        {
          "internalType": "string",
          "name": "_userId",
          "type": "string"
        }
      ],
      "name": "userClaimed",
      "outputs": [
        {
          "internalType": "bool",
          "name": "",
          "type": "bool"
        }
      ],
      "payable": false,
      "stateMutability": "view",
      "type": "function"
    },
    {
      "constant": true,
      "inputs": [
        {
          "internalType": "string",
          "name": "_userId",
          "type": "string"
        }
      ],
      "name": "lodgedRequest",
      "outputs": [
        {
          "internalType": "bool",
          "name": "",
          "type": "bool"
        }
      ],
      "payable": false,
      "stateMutability": "view",
      "type": "function"
    }
  ],
  "bytecode": "0x6080604052600160f81b600460146101000a81548160ff021916908360f81c0217905550600a60f81b600460156101000a81548160ff021916908360f81c0217905550604051620050ce380380620050ce833981810160405260408110156200006757600080fd5b81019080805190602001909291908051906020019092919050505062000092620001ab60201b60201c565b6000806101000a81548173ffffffffffffffffffffffffffffffffffffffff021916908373ffffffffffffffffffffffffffffffffffffffff1602179055506000809054906101000a900473ffffffffffffffffffffffffffffffffffffffff1673ffffffffffffffffffffffffffffffffffffffff16600073ffffffffffffffffffffffffffffffffffffffff167f8be0079c531659141344cd1fd0a4f28419497f9722a3daafe3b4186f6b6457e060405160405180910390a381600460006101000a81548173ffffffffffffffffffffffffffffffffffffffff021916908373ffffffffffffffffffffffffffffffffffffffff1602179055508063ffffffff1660058190555060006009819055505050620001b3565b600033905090565b614f0b80620001c36000396000f3fe6080604052600436106101815760003560e01c8063a9059cbb116100d1578063d5abeb011161008a578063dd62ed3e11610064578063dd62ed3e14610bf4578063f2fde38b14610c79578063f71d6b2814610cca578063f920d55614610d9257610181565b8063d5abeb0114610ae2578063d5d1de2614610b0d578063da46e04114610b9d57610181565b8063a9059cbb146106e3578063b5cb15f714610756578063b797ad7414610781578063c1b9ab0b14610861578063cefabc4014610941578063d211f70514610a1057610181565b80636f77926b1161013e5780638da5cb5b116101185780638da5cb5b146105185780638f32d59b1461056f578063961ad6201461059e578063a457c2d71461067057610181565b80636f77926b146103d257806370a082311461049c578063715018a61461050157610181565b8063095ea7b31461018657806313ed0846146101f957806318160ddd1461025257806323b872dd1461027d57806339509351146103105780636081f5cb14610383575b600080fd5b34801561019257600080fd5b506101df600480360360408110156101a957600080fd5b81019080803573ffffffffffffffffffffffffffffffffffffffff16906020019092919080359060200190929190505050610f29565b604051808215151515815260200191505060405180910390f35b34801561020557600080fd5b5061023c6004803603604081101561021c57600080fd5b810190808035906020019092919080359060200190929190505050610f47565b6040518082815260200191505060405180910390f35b34801561025e57600080fd5b50610267610f78565b6040518082815260200191505060405180910390f35b34801561028957600080fd5b506102f6600480360360608110156102a057600080fd5b81019080803573ffffffffffffffffffffffffffffffffffffffff169060200190929190803573ffffffffffffffffffffffffffffffffffffffff16906020019092919080359060200190929190505050610f82565b604051808215151515815260200191505060405180910390f35b34801561031c57600080fd5b506103696004803603604081101561033357600080fd5b81019080803573ffffffffffffffffffffffffffffffffffffffff1690602001909291908035906020019092919050505061105b565b604051808215151515815260200191505060405180910390f35b34801561038f57600080fd5b506103bc600480360360208110156103a657600080fd5b810190808035906020019092919050505061110e565b6040518082815260200191505060405180910390f35b3480156103de57600080fd5b50610421600480360360208110156103f557600080fd5b81019080803573ffffffffffffffffffffffffffffffffffffffff16906020019092919050505061114f565b6040518080602001828103825283818151815260200191508051906020019080838360005b83811015610461578082015181840152602081019050610446565b50505050905090810190601f16801561048e5780820380516001836020036101000a031916815260200191505b509250505060405180910390f35b3480156104a857600080fd5b506104eb600480360360208110156104bf57600080fd5b81019080803573ffffffffffffffffffffffffffffffffffffffff169060200190929190505050611230565b6040518082815260200191505060405180910390f35b34801561050d57600080fd5b50610516611279565b005b34801561052457600080fd5b5061052d6113b2565b604051808273ffffffffffffffffffffffffffffffffffffffff1673ffffffffffffffffffffffffffffffffffffffff16815260200191505060405180910390f35b34801561057b57600080fd5b506105846113db565b604051808215151515815260200191505060405180910390f35b3480156105aa57600080fd5b5061066e600480360360408110156105c157600080fd5b81019080803590602001906401000000008111156105de57600080fd5b8201836020820111156105f057600080fd5b8035906020019184600183028401116401000000008311171561061257600080fd5b91908080601f016020809104026020016040519081016040528093929190818152602001838380828437600081840152601f19601f82011690508083019250505050505050919291929080359060200190929190505050611439565b005b34801561067c57600080fd5b506106c96004803603604081101561069357600080fd5b81019080803573ffffffffffffffffffffffffffffffffffffffff16906020019092919080359060200190929190505050611955565b604051808215151515815260200191505060405180910390f35b3480156106ef57600080fd5b5061073c6004803603604081101561070657600080fd5b81019080803573ffffffffffffffffffffffffffffffffffffffff16906020019092919080359060200190929190505050611a22565b604051808215151515815260200191505060405180910390f35b34801561076257600080fd5b5061076b611a40565b6040518082815260200191505060405180910390f35b34801561078d57600080fd5b50610847600480360360208110156107a457600080fd5b81019080803590602001906401000000008111156107c157600080fd5b8201836020820111156107d357600080fd5b803590602001918460018302840111640100000000831117156107f557600080fd5b91908080601f016020809104026020016040519081016040528093929190818152602001838380828437600081840152601f19601f820116905080830192505050505050509192919290505050611a4a565b604051808215151515815260200191505060405180910390f35b34801561086d57600080fd5b506109276004803603602081101561088457600080fd5b81019080803590602001906401000000008111156108a157600080fd5b8201836020820111156108b357600080fd5b803590602001918460018302840111640100000000831117156108d557600080fd5b91908080601f016020809104026020016040519081016040528093929190818152602001838380828437600081840152601f19601f820116905080830192505050505050509192919290505050611b1c565b604051808215151515815260200191505060405180910390f35b6109fa6004803603602081101561095757600080fd5b810190808035906020019064010000000081111561097457600080fd5b82018360208201111561098657600080fd5b803590602001918460018302840111640100000000831117156109a857600080fd5b91908080601f016020809104026020016040519081016040528093929190818152602001838380828437600081840152601f19601f820116905080830192505050505050509192919290505050611bf1565b6040518082815260200191505060405180910390f35b348015610a1c57600080fd5b50610ae060048036036040811015610a3357600080fd5b8101908080359060200190640100000000811115610a5057600080fd5b820183602082011115610a6257600080fd5b80359060200191846001830284011164010000000083111715610a8457600080fd5b91908080601f016020809104026020016040519081016040528093929190818152602001838380828437600081840152601f19601f82011690508083019250505050505050919291929080359060200190929190505050612303565b005b348015610aee57600080fd5b50610af761298b565b6040518082815260200191505060405180910390f35b348015610b1957600080fd5b50610b22612991565b6040518080602001828103825283818151815260200191508051906020019080838360005b83811015610b62578082015181840152602081019050610b47565b50505050905090810190601f168015610b8f5780820380516001836020036101000a031916815260200191505b509250505060405180910390f35b348015610ba957600080fd5b50610bb2612a70565b604051808273ffffffffffffffffffffffffffffffffffffffff1673ffffffffffffffffffffffffffffffffffffffff16815260200191505060405180910390f35b348015610c0057600080fd5b50610c6360048036036040811015610c1757600080fd5b81019080803573ffffffffffffffffffffffffffffffffffffffff169060200190929190803573ffffffffffffffffffffffffffffffffffffffff169060200190929190505050612a96565b6040518082815260200191505060405180910390f35b348015610c8557600080fd5b50610cc860048036036020811015610c9c57600080fd5b81019080803573ffffffffffffffffffffffffffffffffffffffff169060200190929190505050612b1d565b005b348015610cd657600080fd5b50610d9060048036036020811015610ced57600080fd5b8101908080359060200190640100000000811115610d0a57600080fd5b820183602082011115610d1c57600080fd5b80359060200191846001830284011164010000000083111715610d3e57600080fd5b91908080601f016020809104026020016040519081016040528093929190818152602001838380828437600081840152601f19601f820116905080830192505050505050509192919290505050612ba3565b005b348015610d9e57600080fd5b50610f0f60048036036060811015610db557600080fd5b81019080803573ffffffffffffffffffffffffffffffffffffffff16906020019092919080359060200190640100000000811115610df257600080fd5b820183602082011115610e0457600080fd5b80359060200191846001830284011164010000000083111715610e2657600080fd5b91908080601f016020809104026020016040519081016040528093929190818152602001838380828437600081840152601f19601f82011690508083019250505050505050919291929080359060200190640100000000811115610e8957600080fd5b820183602082011115610e9b57600080fd5b80359060200191846001830284011164010000000083111715610ebd57600080fd5b91908080601f016020809104026020016040519081016040528093929190818152602001838380828437600081840152601f19601f82011690508083019250505050505050919291929050505061333f565b604051808215151515815260200191505060405180910390f35b6000610f3d610f36613708565b8484613710565b6001905092915050565b60008060095490506000811415610f5d57600190505b60008184860281610f6a57fe5b049050809250505092915050565b6000600354905090565b6000610f8f848484613907565b61105084610f9b613708565b61104b85604051806060016040528060288152602001614e1d60289139600260008b73ffffffffffffffffffffffffffffffffffffffff1673ffffffffffffffffffffffffffffffffffffffff1681526020019081526020016000206000611001613708565b73ffffffffffffffffffffffffffffffffffffffff1673ffffffffffffffffffffffffffffffffffffffff16815260200190815260200160002054613bc19092919063ffffffff16565b613710565b600190509392505050565b6000611104611068613708565b846110ff8560026000611079613708565b73ffffffffffffffffffffffffffffffffffffffff1673ffffffffffffffffffffffffffffffffffffffff16815260200190815260200160002060008973ffffffffffffffffffffffffffffffffffffffff1673ffffffffffffffffffffffffffffffffffffffff16815260200190815260200160002054613c8190919063ffffffff16565b613710565b6001905092915050565b60008061111a30611230565b905060006009549050600081141561113157600190505b6000818386028161113e57fe5b046032019050809350505050919050565b6060600660008373ffffffffffffffffffffffffffffffffffffffff1673ffffffffffffffffffffffffffffffffffffffff1681526020019081526020016000208054600181600116156101000203166002900480601f0160208091040260200160405190810160405280929190818152602001828054600181600116156101000203166002900480156112245780601f106111f957610100808354040283529160200191611224565b820191906000526020600020905b81548152906001019060200180831161120757829003601f168201915b50505050509050919050565b6000600160008373ffffffffffffffffffffffffffffffffffffffff1673ffffffffffffffffffffffffffffffffffffffff168152602001908152602001600020549050919050565b6112816113db565b6112f3576040517f08c379a00000000000000000000000000000000000000000000000000000000081526004018080602001828103825260208152602001807f4f776e61626c653a2063616c6c6572206973206e6f7420746865206f776e657281525060200191505060405180910390fd5b600073ffffffffffffffffffffffffffffffffffffffff166000809054906101000a900473ffffffffffffffffffffffffffffffffffffffff1673ffffffffffffffffffffffffffffffffffffffff167f8be0079c531659141344cd1fd0a4f28419497f9722a3daafe3b4186f6b6457e060405160405180910390a360008060006101000a81548173ffffffffffffffffffffffffffffffffffffffff021916908373ffffffffffffffffffffffffffffffffffffffff160217905550565b60008060009054906101000a900473ffffffffffffffffffffffffffffffffffffffff16905090565b60008060009054906101000a900473ffffffffffffffffffffffffffffffffffffffff1673ffffffffffffffffffffffffffffffffffffffff1661141d613708565b73ffffffffffffffffffffffffffffffffffffffff1614905090565b6060600660003373ffffffffffffffffffffffffffffffffffffffff1673ffffffffffffffffffffffffffffffffffffffff1681526020019081526020016000208054600181600116156101000203166002900480601f01602080910402602001604051908101604052809291908181526020018280546001816001161561010002031660029004801561150e5780601f106114e35761010080835404028352916020019161150e565b820191906000526020600020905b8154815290600101906020018083116114f157829003601f168201915b50505050509050600081511161158c576040517f08c379a000000000000000000000000000000000000000000000000000000000815260040180806020018281038252601e8152602001807f53656e64657220646f6573206e6f74206861766520612075736572204944000081525060200191505060405180910390fd5b826001151561159a82611b1c565b15151461160f576040517f08c379a000000000000000000000000000000000000000000000000000000000815260040180806020018281038252601d8152602001807f5573657220686173206e6f74206265656e20636c61696d65642079657400000081525060200191505060405180910390fd5b60008311611685576040517f08c379a00000000000000000000000000000000000000000000000000000000081526004018080602001828103825260148152602001807f43616e6e6f742073656e64203020746f6b656e7300000000000000000000000081525060200191505060405180910390fd5b61171b6007856040518082805190602001908083835b602083106116be578051825260208201915060208101905060208303925061169b565b6001836020036101000a038019825116818451168082178552505050505050905001915050908152602001604051809103902060000160009054906101000a900473ffffffffffffffffffffffffffffffffffffffff1684611a22565b506007846040518082805190602001908083835b60208310611752578051825260208201915060208101905060208303925061172f565b6001836020036101000a038019825116818451168082178552505050505050905001915050908152602001604051809103902060000160009054906101000a900473ffffffffffffffffffffffffffffffffffffffff1673ffffffffffffffffffffffffffffffffffffffff163373ffffffffffffffffffffffffffffffffffffffff167f299eb6f534c4f090c37218944eb2f615b31d9da18a8ecb624f7b76134f71784d600660003373ffffffffffffffffffffffffffffffffffffffff1673ffffffffffffffffffffffffffffffffffffffff16815260200190815260200160002087876001604051808060200180602001858152602001841515151581526020018381038352878181546001816001161561010002031660029004815260200191508054600181600116156101000203166002900480156118d75780601f106118ac576101008083540402835291602001916118d7565b820191906000526020600020905b8154815290600101906020018083116118ba57829003601f168201915b5050838103825286818151815260200191508051906020019080838360005b838110156119115780820151818401526020810190506118f6565b50505050905090810190601f16801561193e5780820380516001836020036101000a031916815260200191505b50965050505050505060405180910390a350505050565b6000611a18611962613708565b84611a1385604051806060016040528060258152602001614eb2602591396002600061198c613708565b73ffffffffffffffffffffffffffffffffffffffff1673ffffffffffffffffffffffffffffffffffffffff16815260200190815260200160002060008a73ffffffffffffffffffffffffffffffffffffffff1673ffffffffffffffffffffffffffffffffffffffff16815260200190815260200160002054613bc19092919063ffffffff16565b613710565b6001905092915050565b6000611a36611a2f613708565b8484613907565b6001905092915050565b6000600954905090565b60003373ffffffffffffffffffffffffffffffffffffffff166008836040518082805190602001908083835b60208310611a995780518252602082019150602081019050602083039250611a76565b6001836020036101000a038019825116818451168082178552505050505050905001915050908152602001604051809103902060009054906101000a900473ffffffffffffffffffffffffffffffffffffffff1673ffffffffffffffffffffffffffffffffffffffff161415611b125760019050611b17565b600090505b919050565b60008073ffffffffffffffffffffffffffffffffffffffff166007836040518082805190602001908083835b60208310611b6b5780518252602082019150602081019050602083039250611b48565b6001836020036101000a038019825116818451168082178552505050505050905001915050908152602001604051809103902060000160009054906101000a900473ffffffffffffffffffffffffffffffffffffffff1673ffffffffffffffffffffffffffffffffffffffff161415611be75760009050611bec565b600190505b919050565b60006060600660003373ffffffffffffffffffffffffffffffffffffffff1673ffffffffffffffffffffffffffffffffffffffff1681526020019081526020016000208054600181600116156101000203166002900480601f016020809104026020016040519081016040528092919081815260200182805460018160011615610100020316600290048015611cc85780601f10611c9d57610100808354040283529160200191611cc8565b820191906000526020600020905b815481529060010190602001808311611cab57829003601f168201915b505050505090506000815114611d46576040517f08c379a000000000000000000000000000000000000000000000000000000000815260040180806020018281038252601c8152602001807f53656e64657220616c726561647920686173206120757365722049440000000081525060200191505060405180910390fd5b7f5cac219670487bdd987babd458a2c1322a09b1c7a3aeb3dd9982e568447bbd2d600660003373ffffffffffffffffffffffffffffffffffffffff1673ffffffffffffffffffffffffffffffffffffffff168152602001908152602001600020604051808060200180602001838103835260098152602001807f6861734e6f557365720000000000000000000000000000000000000000000000815250602001838103825284818154600181600116156101000203166002900481526020019150805460018160011615610100020316600290048015611e675780601f10611e3c57610100808354040283529160200191611e67565b820191906000526020600020905b815481529060010190602001808311611e4a57829003601f168201915b5050935050505060405180910390a18260001515611e8482611b1c565b151514611ef9576040517f08c379a00000000000000000000000000000000000000000000000000000000081526004018080602001828103825260178152602001807f5573657220697320616c726561647920636c61696d656400000000000000000081525060200191505060405180910390fd5b60001515600a60003373ffffffffffffffffffffffffffffffffffffffff1673ffffffffffffffffffffffffffffffffffffffff16815260200190815260200160002060009054906101000a900460ff16151514611fa2576040517f08c379a0000000000000000000000000000000000000000000000000000000008152600401808060200182810382526024815260200180614e8e6024913960400191505060405180910390fd5b6001600a60003373ffffffffffffffffffffffffffffffffffffffff1673ffffffffffffffffffffffffffffffffffffffff16815260200190815260200160002060006101000a81548160ff021916908315150217905550336008856040518082805190602001908083835b60208310612031578051825260208201915060208101905060208303925061200e565b6001836020036101000a038019825116818451168082178552505050505050905001915050908152602001604051809103902060006101000a81548173ffffffffffffffffffffffffffffffffffffffff021916908373ffffffffffffffffffffffffffffffffffffffff1602179055506000600460009054906101000a900473ffffffffffffffffffffffffffffffffffffffff16905060008173ffffffffffffffffffffffffffffffffffffffff16637f3c1e34876040518263ffffffff1660e01b81526004018080602001828103825283818151815260200191508051906020019080838360005b8381101561213757808201518184015260208101905061211c565b50505050905090810190601f1680156121645780820380516001836020036101000a031916815260200191505b5092505050602060405180830381600087803b15801561218357600080fd5b505af1158015612197573d6000803e3d6000fd5b505050506040513d60208110156121ad57600080fd5b810190808051906020019092919050505090506000801b81141561223c577fc3c858231d63b35575acb09da666966e863f764aa377762376c845c9163122c78160405180806020018381526020018281038252600c8152602001807f6661696c656420717565727900000000000000000000000000000000000000008152506020019250505060405180910390a15b3373ffffffffffffffffffffffffffffffffffffffff167fb0d414ea5b38d8b64668bffef05f15ced84395b44b3be0c8bb3deceeb5626e0e87836040518080602001838152602001828103825284818151815260200191508051906020019080838360005b838110156122bc5780820151818401526020810190506122a1565b50505050905090810190601f1680156122e95780820380516001836020036101000a031916815260200191505b50935050505060405180910390a280945050505050919050565b6060600660003373ffffffffffffffffffffffffffffffffffffffff1673ffffffffffffffffffffffffffffffffffffffff1681526020019081526020016000208054600181600116156101000203166002900480601f0160208091040260200160405190810160405280929190818152602001828054600181600116156101000203166002900480156123d85780601f106123ad576101008083540402835291602001916123d8565b820191906000526020600020905b8154815290600101906020018083116123bb57829003601f168201915b505050505090506000815111612456576040517f08c379a000000000000000000000000000000000000000000000000000000000815260040180806020018281038252601e8152602001807f53656e64657220646f6573206e6f74206861766520612075736572204944000081525060200191505060405180910390fd5b826000151561246482611b1c565b1515146124d9576040517f08c379a00000000000000000000000000000000000000000000000000000000081526004018080602001828103825260178152602001807f5573657220697320616c726561647920636c61696d656400000000000000000081525060200191505060405180910390fd5b6000831161254f576040517f08c379a00000000000000000000000000000000000000000000000000000000081526004018080602001828103825260148152602001807f43616e6e6f742073656e64203020746f6b656e7300000000000000000000000081525060200191505060405180910390fd5b61255a333085613907565b826007856040518082805190602001908083835b60208310612591578051825260208201915060208101905060208303925061256e565b6001836020036101000a038019825116818451168082178552505050505050905001915050908152602001604051809103902060020160008282540192505081905550826007856040518082805190602001908083835b6020831061260b57805182526020820191506020810190506020830392506125e8565b6001836020036101000a038019825116818451168082178552505050505050905001915050908152602001604051809103902060030160003373ffffffffffffffffffffffffffffffffffffffff1673ffffffffffffffffffffffffffffffffffffffff168152602001908152602001600020819055506007846040518082805190602001908083835b602083106126b85780518252602082019150602081019050602083039250612695565b6001836020036101000a03801982511681845116808217855250505050505090500191505090815260200160405180910390206004013390806001815401808255809150509060018203906000526020600020016000909192909190916101000a81548173ffffffffffffffffffffffffffffffffffffffff021916908373ffffffffffffffffffffffffffffffffffffffff160217905550506007846040518082805190602001908083835b602083106127885780518252602082019150602081019050602083039250612765565b6001836020036101000a038019825116818451168082178552505050505050905001915050908152602001604051809103902060000160009054906101000a900473ffffffffffffffffffffffffffffffffffffffff1673ffffffffffffffffffffffffffffffffffffffff163373ffffffffffffffffffffffffffffffffffffffff167f299eb6f534c4f090c37218944eb2f615b31d9da18a8ecb624f7b76134f71784d600660003373ffffffffffffffffffffffffffffffffffffffff1673ffffffffffffffffffffffffffffffffffffffff168152602001908152602001600020878760006040518080602001806020018581526020018415151515815260200183810383528781815460018160011615610100020316600290048152602001915080546001816001161561010002031660029004801561290d5780601f106128e25761010080835404028352916020019161290d565b820191906000526020600020905b8154815290600101906020018083116128f057829003601f168201915b5050838103825286818151815260200191508051906020019080838360005b8381101561294757808201518184015260208101905061292c565b50505050905090810190601f1680156129745780820380516001836020036101000a031916815260200191505b50965050505050505060405180910390a350505050565b60055481565b6060600660003373ffffffffffffffffffffffffffffffffffffffff1673ffffffffffffffffffffffffffffffffffffffff1681526020019081526020016000208054600181600116156101000203166002900480601f016020809104026020016040519081016040528092919081815260200182805460018160011615610100020316600290048015612a665780601f10612a3b57610100808354040283529160200191612a66565b820191906000526020600020905b815481529060010190602001808311612a4957829003601f168201915b5050505050905090565b600460009054906101000a900473ffffffffffffffffffffffffffffffffffffffff1681565b6000600260008473ffffffffffffffffffffffffffffffffffffffff1673ffffffffffffffffffffffffffffffffffffffff16815260200190815260200160002060008373ffffffffffffffffffffffffffffffffffffffff1673ffffffffffffffffffffffffffffffffffffffff16815260200190815260200160002054905092915050565b612b256113db565b612b97576040517f08c379a00000000000000000000000000000000000000000000000000000000081526004018080602001828103825260208152602001807f4f776e61626c653a2063616c6c6572206973206e6f7420746865206f776e657281525060200191505060405180910390fd5b612ba081613d09565b50565b8060001515612bb182611b1c565b151514612c26576040517f08c379a00000000000000000000000000000000000000000000000000000000081526004018080602001828103825260178152602001807f5573657220697320616c726561647920636c61696d656400000000000000000081525060200191505060405180910390fd5b6008826040518082805190602001908083835b60208310612c5c5780518252602082019150602081019050602083039250612c39565b6001836020036101000a038019825116818451168082178552505050505050905001915050908152602001604051809103902060009054906101000a900473ffffffffffffffffffffffffffffffffffffffff1660011515600a60008373ffffffffffffffffffffffffffffffffffffffff1673ffffffffffffffffffffffffffffffffffffffff16815260200190815260200160002060009054906101000a900460ff16151514612d76576040517f08c379a000000000000000000000000000000000000000000000000000000000815260040180806020018281038252601d8152602001807f53656e64657220686173206e6f20726571756573742070656e64696e6700000081525060200191505060405180910390fd5b6000600460009054906101000a900473ffffffffffffffffffffffffffffffffffffffff16905060608173ffffffffffffffffffffffffffffffffffffffff1663cf2e2914866040518263ffffffff1660e01b81526004018080602001828103825283818151815260200191508051906020019080838360005b83811015612e0b578082015181840152602081019050612df0565b50505050905090810190601f168015612e385780820380516001836020036101000a031916815260200191505b509250505060006040518083038186803b158015612e5557600080fd5b505afa158015612e69573d6000803e3d6000fd5b505050506040513d6000823e3d601f19601f820116820180604052506020811015612e9357600080fd5b8101908080516040519392919084640100000000821115612eb357600080fd5b83820191506020820185811115612ec957600080fd5b8251866001820283011164010000000082111715612ee657600080fd5b8083526020830192505050908051906020019080838360005b83811015612f1a578082015181840152602081019050612eff565b50505050905090810190601f168015612f475780820380516001836020036101000a031916815260200191505b50604052505050905060006008866040518082805190602001908083835b60208310612f885780518252602082019150602081019050602083039250612f65565b6001836020036101000a038019825116818451168082178552505050505050905001915050908152602001604051809103902060009054906101000a900473ffffffffffffffffffffffffffffffffffffffff169050612fe981878461333f565b61305b576040517f08c379a00000000000000000000000000000000000000000000000000000000081526004018080602001828103825260148152602001807f696e76616c696420636c61696d20737472696e6700000000000000000000000081525060200191505060405180910390fd5b60006001905086600660008473ffffffffffffffffffffffffffffffffffffffff1673ffffffffffffffffffffffffffffffffffffffff16815260200190815260200160002090805190602001906130b4929190614c54565b50816007886040518082805190602001908083835b602083106130ec57805182526020820191506020810190506020830392506130c9565b6001836020036101000a038019825116818451168082178552505050505050905001915050908152602001604051809103902060000160006101000a81548173ffffffffffffffffffffffffffffffffffffffff021916908373ffffffffffffffffffffffffffffffffffffffff1602179055508173ffffffffffffffffffffffffffffffffffffffff167f9d2f14df77ba038ff6f9ba99bbdcfbc30f1650b9574e3b7bbae993df15a92f30886131a38a85613e4d565b6040518080602001838152602001828103825284818151815260200191508051906020019080838360005b838110156131e95780820151818401526020810190506131ce565b50505050905090810190601f1680156132165780820380516001836020036101000a031916815260200191505b50935050505060405180910390a2600160096000828254019250508190555060006008886040518082805190602001908083835b6020831061326d578051825260208201915060208101905060208303925061324a565b6001836020036101000a038019825116818451168082178552505050505050905001915050908152602001604051809103902060006101000a81548173ffffffffffffffffffffffffffffffffffffffff021916908373ffffffffffffffffffffffffffffffffffffffff160217905550505050506000600a60008373ffffffffffffffffffffffffffffffffffffffff1673ffffffffffffffffffffffffffffffffffffffff16815260200190815260200160002060006101000a81548160ff021916908315150217905550505050565b6000808473ffffffffffffffffffffffffffffffffffffffff1684600460159054906101000a900460f81b6040516020018084815260200183805190602001908083835b602083106133a65780518252602082019150602081019050602083039250613383565b6001836020036101000a038019825116818451168082178552505050505050905001827effffffffffffffffffffffffffffffffffffffffffffffffffffffffffffff19167effffffffffffffffffffffffffffffffffffffffffffffffffffffffffffff191681526001019350505050604051602081830303815290604052805190602001209050600061343a82614388565b905060606000613449866143e0565b915091506060613458836144ce565b9050600460149054906101000a900460f81b7effffffffffffffffffffffffffffffffffffffffffffffffffffffffffffff1916827effffffffffffffffffffffffffffffffffffffffffffffffffffffffffffff191614613522576040517f08c379a00000000000000000000000000000000000000000000000000000000081526004018080602001828103825260148152602001807f696e76616c696420617574682076657273696f6e00000000000000000000000081525060200191505060405180910390fd5b600061352e8583614640565b90508973ffffffffffffffffffffffffffffffffffffffff168173ffffffffffffffffffffffffffffffffffffffff16146135b4576040517f08c379a0000000000000000000000000000000000000000000000000000000008152600401808060200182810382526030815260200180614d5b6030913960400191505060405180910390fd5b60008a73ffffffffffffffffffffffffffffffffffffffff168273ffffffffffffffffffffffffffffffffffffffff161490507f2aafcfe170146f3e2f0835dfcc4558c3f7b23df8203d1b5759201f95673a0ac281838d8d60405180851515151581526020018473ffffffffffffffffffffffffffffffffffffffff1673ffffffffffffffffffffffffffffffffffffffff1681526020018373ffffffffffffffffffffffffffffffffffffffff1673ffffffffffffffffffffffffffffffffffffffff16815260200180602001828103825283818151815260200191508051906020019080838360005b838110156136ba57808201518184015260208101905061369f565b50505050905090810190601f1680156136e75780820380516001836020036101000a031916815260200191505b509550505050505060405180910390a1809750505050505050509392505050565b600033905090565b600073ffffffffffffffffffffffffffffffffffffffff168373ffffffffffffffffffffffffffffffffffffffff161415613796576040517f08c379a0000000000000000000000000000000000000000000000000000000008152600401808060200182810382526024815260200180614e6a6024913960400191505060405180910390fd5b600073ffffffffffffffffffffffffffffffffffffffff168273ffffffffffffffffffffffffffffffffffffffff16141561381c576040517f08c379a0000000000000000000000000000000000000000000000000000000008152600401808060200182810382526022815260200180614db16022913960400191505060405180910390fd5b80600260008573ffffffffffffffffffffffffffffffffffffffff1673ffffffffffffffffffffffffffffffffffffffff16815260200190815260200160002060008473ffffffffffffffffffffffffffffffffffffffff1673ffffffffffffffffffffffffffffffffffffffff168152602001908152602001600020819055508173ffffffffffffffffffffffffffffffffffffffff168373ffffffffffffffffffffffffffffffffffffffff167f8c5be1e5ebec7d5bd14f71427d1e84f3dd0314c0f7b2291e5b200ac8c7c3b925836040518082815260200191505060405180910390a3505050565b600073ffffffffffffffffffffffffffffffffffffffff168373ffffffffffffffffffffffffffffffffffffffff16141561398d576040517f08c379a0000000000000000000000000000000000000000000000000000000008152600401808060200182810382526025815260200180614e456025913960400191505060405180910390fd5b600073ffffffffffffffffffffffffffffffffffffffff168273ffffffffffffffffffffffffffffffffffffffff161415613a13576040517f08c379a0000000000000000000000000000000000000000000000000000000008152600401808060200182810382526023815260200180614d386023913960400191505060405180910390fd5b613a7f81604051806060016040528060268152602001614dd360269139600160008773ffffffffffffffffffffffffffffffffffffffff1673ffffffffffffffffffffffffffffffffffffffff16815260200190815260200160002054613bc19092919063ffffffff16565b600160008573ffffffffffffffffffffffffffffffffffffffff1673ffffffffffffffffffffffffffffffffffffffff16815260200190815260200160002081905550613b1481600160008573ffffffffffffffffffffffffffffffffffffffff1673ffffffffffffffffffffffffffffffffffffffff16815260200190815260200160002054613c8190919063ffffffff16565b600160008473ffffffffffffffffffffffffffffffffffffffff1673ffffffffffffffffffffffffffffffffffffffff168152602001908152602001600020819055508173ffffffffffffffffffffffffffffffffffffffff168373ffffffffffffffffffffffffffffffffffffffff167fddf252ad1be2c89b69c2b068fc378daa952ba7f163c4a11628f55a4df523b3ef836040518082815260200191505060405180910390a3505050565b6000838311158290613c6e576040517f08c379a00000000000000000000000000000000000000000000000000000000081526004018080602001828103825283818151815260200191508051906020019080838360005b83811015613c33578082015181840152602081019050613c18565b50505050905090810190601f168015613c605780820380516001836020036101000a031916815260200191505b509250505060405180910390fd5b5060008385039050809150509392505050565b600080828401905083811015613cff576040517f08c379a000000000000000000000000000000000000000000000000000000000815260040180806020018281038252601b8152602001807f536166654d6174683a206164646974696f6e206f766572666c6f77000000000081525060200191505060405180910390fd5b8091505092915050565b600073ffffffffffffffffffffffffffffffffffffffff168173ffffffffffffffffffffffffffffffffffffffff161415613d8f576040517f08c379a0000000000000000000000000000000000000000000000000000000008152600401808060200182810382526026815260200180614d8b6026913960400191505060405180910390fd5b8073ffffffffffffffffffffffffffffffffffffffff166000809054906101000a900473ffffffffffffffffffffffffffffffffffffffff1673ffffffffffffffffffffffffffffffffffffffff167f8be0079c531659141344cd1fd0a4f28419497f9722a3daafe3b4186f6b6457e060405160405180910390a3806000806101000a81548173ffffffffffffffffffffffffffffffffffffffff021916908373ffffffffffffffffffffffffffffffffffffffff16021790555050565b60008260011515613e5d82611b1c565b151514613ed2576040517f08c379a000000000000000000000000000000000000000000000000000000000815260040180806020018281038252601d8152602001807f5573657220686173206e6f74206265656e20636c61696d65642079657400000081525060200191505060405180910390fd5b6000613edd8461110e565b9050613ee7614cd4565b6007866040518082805190602001908083835b60208310613f1d5780518252602082019150602081019050602083039250613efa565b6001836020036101000a03801982511681845116808217855250505050505090500191505090815260200160405180910390206040518060800160405290816000820160009054906101000a900473ffffffffffffffffffffffffffffffffffffffff1673ffffffffffffffffffffffffffffffffffffffff1673ffffffffffffffffffffffffffffffffffffffff16815260200160018201548152602001600282015481526020016004820180548060200260200160405190810160405280929190818152602001828054801561404a57602002820191906000526020600020905b8160009054906101000a900473ffffffffffffffffffffffffffffffffffffffff1673ffffffffffffffffffffffffffffffffffffffff1681526020019060010190808311614000575b5050505050815250509050614063816000015183614722565b50600081604001519050600081111561436e5761408530836000015183613907565b6000826060015151111561436d5760008090505b82606001515181101561436b576000836060015182815181106140b857fe5b6020026020010151905060006141808261417b60078d6040518082805190602001908083835b6020831061410157805182526020820191506020810190506020830392506140de565b6001836020036101000a038019825116818451168082178552505050505050905001915050908152602001604051809103902060030160008673ffffffffffffffffffffffffffffffffffffffff1673ffffffffffffffffffffffffffffffffffffffff168152602001908152602001600020548c610f47565b614722565b9050600081111561432a578173ffffffffffffffffffffffffffffffffffffffff16856000015173ffffffffffffffffffffffffffffffffffffffff167fc34f78c4e0a61a7446f4555b63c4031ce1ef800e1f3a36724db362bd9346a63e8c600660008773ffffffffffffffffffffffffffffffffffffffff1673ffffffffffffffffffffffffffffffffffffffff16815260200190815260200160002085604051808060200180602001848152602001838103835286818151815260200191508051906020019080838360005b8381101561426957808201518184015260208101905061424e565b50505050905090810190601f1680156142965780820380516001836020036101000a031916815260200191505b508381038252858181546001816001161561010002031660029004815260200191508054600181600116156101000203166002900480156143185780601f106142ed57610100808354040283529160200191614318565b820191906000526020600020905b8154815290600101906020018083116142fb57829003601f168201915b50509550505050505060405180910390a35b8460600151838151811061433a57fe5b60200260200101600073ffffffffffffffffffffffffffffffffffffffff1681525050508080600101915050614099565b505b5b600082604001818152505080830194505050505092915050565b60008160405160200180807f19457468657265756d205369676e6564204d6573736167653a0a333200000000815250601c01828152602001915050604051602081830303815290604052805190602001209050919050565b6060600080836001855103815181106143f557fe5b602001015160f81c60f81b9050606060826040519080825280601f01601f1916602001820160405280156144385781602001600182028038833980820191505090505b50905060008090505b60828110156144b25785816003885103038151811061445c57fe5b602001015160f81c60f81b82826081038151811061447657fe5b60200101907effffffffffffffffffffffffffffffffffffffffffffffffffffffffffffff1916908160001a9053508080600101915050614441565b50806144c08360f81c614759565b60f81b935093505050915091565b6060600060028351816144dd57fe5b0614614534576040517f08c379a0000000000000000000000000000000000000000000000000000000008152600401808060200182810382526024815260200180614df96024913960400191505060405180910390fd5b6060600283518161454157fe5b046040519080825280601f01601f1916602001820160405280156145745781602001600182028038833980820191505090505b50905060008090505b600284518161458857fe5b048110156146365760008482600202815181106145a157fe5b602001015160f81c60f81b60f81c905060008560018460020201815181106145c557fe5b602001015160f81c60f81b60f81c90506145de81614759565b60106145e984614759565b020160f81b8484815181106145fa57fe5b60200101907effffffffffffffffffffffffffffffffffffffffffffffffffffffffffffff1916908160001a905350505080600101905061457d565b5080915050919050565b600080600080604185511461465b576000935050505061471c565b6020850151925060408501519150606085015160001a9050601b8160ff16101561468657601b810190505b601b8160ff161415801561469e5750601c8160ff1614155b156146af576000935050505061471c565b60018682858560405160008152602001604052604051808581526020018460ff1660ff1681526020018381526020018281526020019450505050506020604051602081039080840390855afa15801561470c573d6000803e3d6000fd5b5050506020604051035193505050505b92915050565b600060055461472f610f78565b830111156147465761473f610f78565b6005540391505b6147508383614a97565b81905092915050565b60007f30000000000000000000000000000000000000000000000000000000000000007effffffffffffffffffffffffffffffffffffffffffffffffffffffffffffff19168260f81b7effffffffffffffffffffffffffffffffffffffffffffffffffffffffffffff19161015801561483957507f39000000000000000000000000000000000000000000000000000000000000007effffffffffffffffffffffffffffffffffffffffffffffffffffffffffffff19168260f81b7effffffffffffffffffffffffffffffffffffffffffffffffffffffffffffff191611155b1561486b577f300000000000000000000000000000000000000000000000000000000000000060f81c82039050614a92565b7f61000000000000000000000000000000000000000000000000000000000000007effffffffffffffffffffffffffffffffffffffffffffffffffffffffffffff19168260f81b7effffffffffffffffffffffffffffffffffffffffffffffffffffffffffffff19161015801561494957507f66000000000000000000000000000000000000000000000000000000000000007effffffffffffffffffffffffffffffffffffffffffffffffffffffffffffff19168260f81b7effffffffffffffffffffffffffffffffffffffffffffffffffffffffffffff191611155b1561497e577f610000000000000000000000000000000000000000000000000000000000000060f81c82600a01039050614a92565b7f41000000000000000000000000000000000000000000000000000000000000007effffffffffffffffffffffffffffffffffffffffffffffffffffffffffffff19168260f81b7effffffffffffffffffffffffffffffffffffffffffffffffffffffffffffff191610158015614a5c57507f46000000000000000000000000000000000000000000000000000000000000007effffffffffffffffffffffffffffffffffffffffffffffffffffffffffffff19168260f81b7effffffffffffffffffffffffffffffffffffffffffffffffffffffffffffff191611155b15614a91577f410000000000000000000000000000000000000000000000000000000000000060f81c82600a01039050614a92565b5b919050565b600073ffffffffffffffffffffffffffffffffffffffff168273ffffffffffffffffffffffffffffffffffffffff161415614b3a576040517f08c379a000000000000000000000000000000000000000000000000000000000815260040180806020018281038252601f8152602001807f45524332303a206d696e7420746f20746865207a65726f20616464726573730081525060200191505060405180910390fd5b614b4f81600354613c8190919063ffffffff16565b600381905550614ba781600160008573ffffffffffffffffffffffffffffffffffffffff1673ffffffffffffffffffffffffffffffffffffffff16815260200190815260200160002054613c8190919063ffffffff16565b600160008473ffffffffffffffffffffffffffffffffffffffff1673ffffffffffffffffffffffffffffffffffffffff168152602001908152602001600020819055508173ffffffffffffffffffffffffffffffffffffffff16600073ffffffffffffffffffffffffffffffffffffffff167fddf252ad1be2c89b69c2b068fc378daa952ba7f163c4a11628f55a4df523b3ef836040518082815260200191505060405180910390a35050565b828054600181600116156101000203166002900490600052602060002090601f016020900481019282601f10614c9557805160ff1916838001178555614cc3565b82800160010185558215614cc3579182015b82811115614cc2578251825591602001919060010190614ca7565b5b509050614cd09190614d12565b5090565b6040518060800160405280600073ffffffffffffffffffffffffffffffffffffffff1681526020016000815260200160008152602001606081525090565b614d3491905b80821115614d30576000816000905550600101614d18565b5090565b9056fe45524332303a207472616e7366657220746f20746865207a65726f20616464726573735265636f7665726564206164647265737320646f6573206e6f74206d6174636820636c61696d657220616464726573734f776e61626c653a206e6577206f776e657220697320746865207a65726f206164647265737345524332303a20617070726f766520746f20746865207a65726f206164647265737345524332303a207472616e7366657220616d6f756e7420657863656564732062616c616e6365417474656d707420746f20636f6e7665727420756e6576656e2068657820737472696e6745524332303a207472616e7366657220616d6f756e74206578636565647320616c6c6f77616e636545524332303a207472616e736665722066726f6d20746865207a65726f206164647265737345524332303a20617070726f76652066726f6d20746865207a65726f206164647265737353656e64657220616c726561647920686173206120726571756573742070656e64696e6745524332303a2064656372656173656420616c6c6f77616e63652062656c6f77207a65726fa265627a7a7231582028867cfb4a6dd00db54b609663607d1ea2096ad1b4ac38498cf618c615b9907764736f6c634300050c0032",
  "source": "pragma solidity ^0.5.0;\n\nimport \"openzeppelin-solidity/contracts/ownership/Ownable.sol\";\nimport \"openzeppelin-solidity/contracts/token/ERC20/ERC20.sol\";\nimport \"./libraries/Strings.sol\";\nimport \"./libraries/ECDSA.sol\";\n\nimport \"./mocks/TwitterOracleMock.sol\";\n\n/*\n * @title WokeToken ERC20 Contract\n * @notice Deployed by dev team to set the parameters for token distribution and transfer.\n */\n\n/*\n *\tNeeds multisig with admin wallet that prevents spamming of claims to \n *\tlarge profile accounts.\n * TODO:\n *  - could get a multiplier based on the size of the unclaimed pool\n *  - Research how zeppelin implements escrow to avoid issues with unclaimed tokens\n *  - Abstract twitter client to generic social client for multiple social networks\n *  - fix context and mutator modifiers\n *  - confirm use of public vs external\n *  - separate unclaimed token pool from main token supply\n *  - fix redundancy in user validity modifiers\n *  - separate social network validation into \n *  - fix data types for gen parameters and transfers\n *  - replace @notice tag with something clearer\n *  - Evaluate neccessity of sending userID with transaction with user is alread claimed\n *  - look into replace 'Claimed' terminology with roles\n */\n\ncontract WokeToken is Ownable, ERC20 {\n\tstruct User {\n\t\taddress account;\n\t\tuint256 followers;\n\t\tuint256 unclaimedBalance;\n\t\tmapping(address => uint256) referralAmount;\n\t\taddress[] referrers;\n\t}\n\n\t/* CONTRACT STORAGE */\n\t// Protocol contracts\n\taddress public twitterClient;\n\tbyte authVersion = 0x01; // Claim string / auth token version\n\tbyte appId = 0x0A;\t\t// Auth app, only twitter for now\n\n\n\t// Token generation parameters\n\tuint256 public maxSupply;\n\t//uint32 public reward;\n\t//uint32 public multiplier;\n\t//uint32 public halving;\n\n\t// User accounts\n\tmapping(address => string) userIds; // Mapping of addresses to twitter account IDs (handles are mutable alias for ID)\n\tmapping(string => User) users;\n\tmapping(string => address) requester; // claim string needs a nonce\n\n\tuint256 private userCount;\n\n\t// Safety\n\tmapping(address => bool) private requestMutexes; // Requests are single threaded\n\t/*----------------*/\n\n\t// @dev Create token with given generation parameters\n\t// @param _twitterClient\tAddress of chainlink client contract for twitter api requests\n\t// @param _maxSupply\tTotal supply of wokeTokens allowed to exist\n\t// @param _reward\t\tLinear coeffient for token generation curve\n\t// @param _multiplier\tReward multiplier for Eth contribution\n\tconstructor(\n\t\taddress _twitterClient, \n\t\t//uint32 _reward, \n\t\t//uint32 _multiplier, \n\t\t//uint32 _halving,\n\t\tuint32 _maxSupply\n\t) \n\tpublic payable\n\t{\n\t\ttwitterClient = _twitterClient;\n\t\tmaxSupply = _maxSupply;\n\t\t//reward = _reward;\n\t\t//multiplier = _multiplier;\n\t\tuserCount = 0;\n\t}\n\n\t// @notice Connect a wallet to a Twitter user ID and claim any unclaimed TXs  \n\t// @returns Provable query ID\n\tfunction claimUser(string memory _user) public payable\n\thasNoUser\n\tuserNotClaimed(_user)\n\trequestUnlocked\n\treturns (bytes32)\n\t{\n\t\trequester[_user] = msg.sender;\n\n\t\tTwitterOracleMock client = TwitterOracleMock(twitterClient);\n\t\tbytes32 queryId = client.findTweet(_user);\n\t\t//bytes32 queryId = bytes32(0);\n\n\t\tif(queryId == bytes32(0)) {\n\t\t\t// Query failure, revert\n\t\t\temit TraceBytes32('failed query', queryId);\n\t\t}\n\n\t\temit Lodged(msg.sender, _user, queryId);\n\n\t\treturn queryId;\n\t}\n\n\t// @notice Receive claimer data from client and action claim\n\t// @param _id user id\n\t// @param _claimString tweet text which should contain a signed claim string\n\t//function _fulfillClaim(string memory _id, string memory _claimString) public\n\tfunction _fulfillClaim(string memory _id) public\n\t\t//\tonlyClient\n\t\tuserNotClaimed(_id)\n\t\trequestLocked(requester[_id])\n\t{\n\t\tTwitterOracleMock client = TwitterOracleMock(twitterClient);\n\t\tstring memory claimString = client.getTweetText(_id);\n\n\t\taddress claimer = requester[_id];\n\t\trequire(verifyClaimString(claimer, _id, claimString), 'invalid claim string');\n\n\t\tuint256 _followers = 1; // change to function argument\n\n\t\t// address _claimer\n\n\t\t// Link wallet and twitter handle\n\t\tuserIds[claimer] = _id;\n\t\tusers[_id].account = claimer;\n\n\t\t// Claim unclaimed transactions and join bonus\n\t\temit Claimed(claimer, _id, claimBonus(_id, _followers));\n\t\tuserCount += 1;\n\n\t\trequester[_id] = address(0); // @fix delete this value\n\t}\n\n\t// @notice Transfer a new userIds bonus to their account\n\t// @returns Total amount claimed\n\tfunction claimBonus(string memory _id, uint256 _followers)\n\t\tprivate\n\t\tuserIsClaimed(_id)\n\treturns (uint256)\n\t{\n\t\t// Mint new tokens based on userIds followers\n\t\tuint256 bonus = calculateBonus(_followers);\n\n\t\tUser memory user = users[_id];\n\t\tmint(user.account, bonus);\n\n\t\tuint unclaimedBalance = user.unclaimedBalance;\n\n\t\t// Transfer the unclaimed amount and bonus from the token contract to the user\n\t\tif(unclaimedBalance > 0) {\n\t\t\t_transfer(address(this), user.account,unclaimedBalance); \n\t\t\t// @dev this conditional should always pass\n\t\t\tif(user.referrers.length > 0) {\n\t\t\t\tfor(uint i = 0; i < user.referrers.length; i++) {\n\t\t\t\t\taddress referrer = user.referrers[i];\n\t\t\t\t\tuint reward = mint(\n\t\t\t\t\t\treferrer,\n\t\t\t\t\t\tcalculateReward(users[_id].referralAmount[referrer], _followers)\n\t\t\t\t\t);\n\t\t\t\t\tif(reward > 0) {\n\t\t\t\t\t\temit Reward(user.account, referrer, _id, userIds[referrer], reward);\n\t\t\t\t\t}\n\t\t\t\t\tdelete user.referrers[i];\n\t\t\t\t}\n\t\t\t}\n\t\t}\n\n\t\tuser.unclaimedBalance = 0;\n\n\t\treturn bonus + unclaimedBalance;\n\t}\n\n\t// @notice Mint the given amount, or the remaining unminted supply\n\t// @returns Amount minted\n\tfunction mint(address _recipient, uint256 _amount) internal\n\treturns (uint256)\n\t{\n\t\tif(_amount + totalSupply() > maxSupply) {\n\t\t\t_amount = maxSupply - totalSupply();\n\t\t}\n\t\t_mint(_recipient, _amount);\n\t\treturn _amount;\n\t}\n\n\t// @notice Trans\n\t//function transferUnclaimed(uint32 _from, uint32 _to, uint32 _amount)\n\tfunction transferUnclaimed(string memory _toId, uint256 _amount)\n\t\tpublic\n\t\thasUser\n\t\tuserNotClaimed(_toId)\n\t{\n\t\trequire(_amount > 0, 'Cannot send 0 tokens');\n\n\t\t// 1. Transfer the amount from the the sender to the token contract\n\t\t_transfer(msg.sender, address(this), _amount); // @dev Use safe math\n\n\t\t// 2. Set the unclaimed balance for the receiving user\n\t\tusers[_toId].unclaimedBalance += _amount;\n\t\tusers[_toId].referralAmount[msg.sender] = _amount;\n\t\tusers[_toId].referrers.push(msg.sender);\n\n\t\temit Tx(msg.sender, users[_toId].account, userIds[msg.sender], _toId, _amount, false);\n\t\t//emit Tx(userIds[msg.sender], _toId, userIds[msg.sender], _toId, _amount, false);\n\t}\n\n\t// @notice Transfer tokens between claimed userIds\n\tfunction transferClaimed(string memory _toId, uint256 _amount) \n\t\tpublic\n\t\thasUser\n\t\tuserIsClaimed(_toId)\n\t{\n\t\trequire(_amount > 0, 'Cannot send 0 tokens');\n\n\t\ttransfer(users[_toId].account, _amount);\n\t\temit Tx(msg.sender, users[_toId].account, userIds[msg.sender], _toId, _amount, true);\n\t\t//emit Tx(userIds[msg.sender], _toId, userIds[msg.sender], _toId, _amount, true);\n\t}\n\n\t/* TOKEN GENERATION PARAMETERS */\n\t// Calculate the joining bonus based\n\t// @dev Defines token generation curve\n\tfunction calculateBonus(uint256 _followers) \n\tpublic view\n\treturns(uint256)\n\t{\n\t\t// @fix factor in halving e.g. *(halving/2)\n\t\t// @fix factor in userCount\n\t\t// @fix use safeMath\n\t\tuint256 unclaimedPool = balanceOf(address(this)); // total unclaimed tokens\n\n\t\tuint256 count = userCount;\n\t\tif(count == 0) {\n\t\t\tcount = 1;\n\t\t}\n\t\t\n\t\tuint256 bonus = 50 + ((_followers * unclaimedPool) / count); // * multiplier\n\t\treturn bonus;\n\t}\n\n\t// @notice Calculate the referral reward for an unclaimed user joining\n\t// @param _contribution: Amount sent by referrer to unclaimed user\n\t// @param _followers: Unclaimed user's follwer count\n\tfunction calculateReward(uint256 _contribution, uint256 _followers) \n\tpublic view\n\treturns(uint256)\n\t{\n\t\tuint256 count = userCount;\n\t\tif(count == 0) {\n\t\t\tcount = 1;\n\t\t}\n\t\tuint reward = (_contribution * _followers) / count;\n\t\treturn reward;\n\t}\n\n\tfunction verifyClaimString(address claimer, string memory _id, string memory _claimString)\n\tpublic\n\treturns (bool)\n\t{\n\t\t// Reconstruct the message hash\n\t\t// message = address + userId + appId // @fix + nonce\n\t\tbytes32 hash = keccak256(abi.encodePacked(uint256(claimer), _id, appId));\n\t\tbytes32 msgHash = ECDSA.messageHash(hash);\n\n\t\t// Extract signature from claim string\n\t\t(bytes memory sigHex, byte _authVersion) = parseClaim(bytes(_claimString));\n\t\tbytes memory sig = Strings.fromHex(sigHex);\n\n\t\trequire(_authVersion == authVersion, 'invalid auth version');\n\n\t\taddress recovered = ECDSA.recover(msgHash, sig);\n\t\trequire(recovered == claimer, 'Recovered address does not match claimer address');\n\n\t\tbool result = (recovered == claimer);\n\t\temit Verification(result, recovered, claimer, _id);\n\n\t\treturn result;\n\t}\n\n\t// @param cs claim string\n\tfunction parseClaim(bytes memory _cs) internal\n\treturns (bytes memory, byte)\n\t{\n\t\tbyte version = _cs[_cs.length - 1];\n\t\t//uint prefixLen = _cs.length - 67; // [prefix][sig],<version>\n\t\tbytes memory sig = new bytes(130);\n\n\t\t// @fix replace loop with mload to save gas\n\t\tfor(uint i = 0; i < 130; i++) {\n\t\t\tsig[129 - i] = _cs[_cs.length - 3 - i];\n\t\t}\n\n\t\treturn (sig, byte(Strings.fromHexChar(uint8(version))));\n\t}\n\t/*-----------------------------*/\n\n\n\t/* HELPERS */\n\tfunction getUser(address account) public view\n\treturns (string memory)\n\t{\n\t\treturn userIds[account];\n\t}\n\n\tfunction myUser() public view\n\treturns (string memory)\n\t{\n\t\treturn userIds[msg.sender];\n\t}\n\n\tfunction getUserCount() public view\n\treturns (uint256)\n\t{\n\t\treturn userCount;\n\t}\n\n\tfunction userClaimed(string memory _userId) public view\n\treturns (bool)\n\t{\n\t\tif(users[_userId].account == address(0)) {\n\t\t\treturn false;\n\t\t}\n\t\treturn true;\n\t}\n\n\t// @TODO rename to hasLodgedRequest\n\tfunction lodgedRequest(string memory _userId) public view\n\treturns (bool)\n\t{\n\t\tif(requester[_userId] == msg.sender) {\n\t\t\treturn true;\n\t\t}\n\t\treturn false;\n\t}\n\t/*---------*/\n\n\t/* MODIFIERS */\n\tmodifier userNotClaimed(string memory _user) {\n\t\trequire(userClaimed(_user) == false, \"User is already claimed\");\n\t\t_;\n\t}\n\n\tmodifier userIsClaimed(string memory _user) {\n\t\trequire(userClaimed(_user) == true, \"User has not been claimed yet\");\n\t\t_;\n\t}\n\n\t// @note has<Type>() implies check for mapping of (msg.sender => <Type>)\n\t// @notice Check if sending account has a claimed user\n\tmodifier hasUser() {\n\t\tbytes memory temp = bytes(userIds[msg.sender]);\n\t\trequire(temp.length > 0, \"Sender does not have a user ID\");\n\t\t_;\n\t}\n\n\tmodifier hasNoUser() {\n\t\tbytes memory temp = bytes(userIds[msg.sender]);\n\t\trequire(temp.length == 0, \"Sender already has a user ID\");\n\t\temit TraceString('hasNoUser', userIds[msg.sender]);\n\t\t_;\n\t}\n\n\t// @notice Authenticate account is owner of user ID\n\t// @dev This should be redundant given the user claiming process, but\n\t//\t    it is left in for added safety during development.\n\tmodifier isUser(string memory _id) {\n\t\tstring memory temp = string(userIds[msg.sender]);\n\t\trequire(keccak256(abi.encodePacked((temp))) == keccak256(abi.encodePacked((_id))),\n\t\t\t\t\"Sender is not the owner of this user ID\");\n\t\t\t\t_;\n\t}\n\n\t// @notice Acquire twitterClient request lock for sender iniating request\n\t// @dev Require the request lock is available\n\tmodifier requestUnlocked() {\n\t\trequire(requestMutexes[msg.sender] == false, \"Sender already has a request pending\");\n\t\trequestMutexes[msg.sender] = true;\n\t\t_;\n\t}\n\n\t// @notice Release twitterClient for account that initiated request\n\t// @dev Requires the request lock to be acquired\n\tmodifier requestLocked(address _requester) {\n\t\trequire(requestMutexes[_requester] == true, \"Sender has no request pending\");\n\t\t_;\n\t\trequestMutexes[_requester] = false;\n\t}\n\n\tmodifier onlyClient() {\n\t\trequire(msg.sender == twitterClient, \"Sender is not Twitter Client\");\n\t\t_;\n\t}\n\n\t/* EVENTS */\n\tevent TraceString(string m, string v);\n\tevent TraceUint256(string m, uint256 v);\n\tevent TraceBytes32(string m, bytes32 v);\n\tevent TraceBytes(string m, bytes v);\n\tevent TraceByte(string m, byte v);\n\n\t// @param claimed: recipient is claimed\n\t//event Tx(string fromId, string toId, string indexed fromId_ind, string indexed toId_ind, uint256 amount, bool claimed);\n\tevent Tx(address indexed from, address indexed to, string fromId, string toId, uint256 amount, bool claimed);\n\n\tevent Claimed (address indexed account, string userId, uint256 amount);\n\tevent Reward (address indexed claimer, address indexed referrer, string claimerId, string referrerId, uint256 amount);\n\tevent Verification(bool value, address recovered, address claimer, string userId);\n\tevent Lodged (address indexed claimer, string userId, bytes32 queryId);\n}\n",
  "sourcePath": "/home/jack/Repositories/jgitgud/woke-dapp/@woke/contracts-src/contracts/WokeToken.sol",
  "compiler": {
    "name": "solc",
    "version": "0.5.12+commit.7709ece9.Emscripten.clang"
  },
  "schemaVersion": "3.0.20",
  "updatedAt": "2020-02-05T22:32:47.863Z",
  "networkType": "ethereum",
  "devdoc": {
    "methods": {
      "allowance(address,address)": {
        "details": "See {IERC20-allowance}."
      },
      "approve(address,uint256)": {
        "details": "See {IERC20-approve}.     * Requirements:     * - `spender` cannot be the zero address."
      },
      "balanceOf(address)": {
        "details": "See {IERC20-balanceOf}."
      },
      "decreaseAllowance(address,uint256)": {
        "details": "Atomically decreases the allowance granted to `spender` by the caller.     * This is an alternative to {approve} that can be used as a mitigation for problems described in {IERC20-approve}.     * Emits an {Approval} event indicating the updated allowance.     * Requirements:     * - `spender` cannot be the zero address. - `spender` must have allowance for the caller of at least `subtractedValue`."
      },
      "increaseAllowance(address,uint256)": {
        "details": "Atomically increases the allowance granted to `spender` by the caller.     * This is an alternative to {approve} that can be used as a mitigation for problems described in {IERC20-approve}.     * Emits an {Approval} event indicating the updated allowance.     * Requirements:     * - `spender` cannot be the zero address."
      },
      "isOwner()": {
        "details": "Returns true if the caller is the current owner."
      },
      "owner()": {
        "details": "Returns the address of the current owner."
      },
      "renounceOwnership()": {
        "details": "Leaves the contract without owner. It will not be possible to call `onlyOwner` functions anymore. Can only be called by the current owner.     * NOTE: Renouncing ownership will leave the contract without an owner, thereby removing any functionality that is only available to the owner."
      },
      "totalSupply()": {
        "details": "See {IERC20-totalSupply}."
      },
      "transfer(address,uint256)": {
        "details": "See {IERC20-transfer}.     * Requirements:     * - `recipient` cannot be the zero address. - the caller must have a balance of at least `amount`."
      },
      "transferFrom(address,address,uint256)": {
        "details": "See {IERC20-transferFrom}.     * Emits an {Approval} event indicating the updated allowance. This is not required by the EIP. See the note at the beginning of {ERC20};     * Requirements: - `sender` and `recipient` cannot be the zero address. - `sender` must have a balance of at least `amount`. - the caller must have allowance for `sender`'s tokens of at least `amount`."
      },
      "transferOwnership(address)": {
        "details": "Transfers ownership of the contract to a new account (`newOwner`). Can only be called by the current owner."
      }
    }
  },
  "userdoc": {
    "methods": {}
  }
}