{
  "contractName": "OraclizeAddrResolver",
  "abi": [
    {
      "inputs": [
        {
          "internalType": "address",
          "name": "_oraclizedAddress",
          "type": "address"
        }
      ],
      "payable": false,
      "stateMutability": "nonpayable",
      "type": "constructor"
    },
    {
      "constant": true,
      "inputs": [],
      "name": "getAddress",
      "outputs": [
        {
          "internalType": "address",
          "name": "",
          "type": "address"
        }
      ],
      "payable": false,
      "stateMutability": "view",
      "type": "function"
    }
  ],
  "bytecode": "0x608060405234801561001057600080fd5b506040516101663803806101668339818101604052602081101561003357600080fd5b8101908080519060200190929190505050806000806101000a81548173ffffffffffffffffffffffffffffffffffffffff021916908373ffffffffffffffffffffffffffffffffffffffff1602179055505060d3806100936000396000f3fe6080604052348015600f57600080fd5b506004361060285760003560e01c806338cc483114602d575b600080fd5b60336075565b604051808273ffffffffffffffffffffffffffffffffffffffff1673ffffffffffffffffffffffffffffffffffffffff16815260200191505060405180910390f35b60008060009054906101000a900473ffffffffffffffffffffffffffffffffffffffff1690509056fea265627a7a723158203cca7379b20535a92591d3008dcb6f499c44518fbd74cd52a94aa4975def91d864736f6c634300050c0032",
  "source": "pragma solidity ^0.5.0;\n\n\ncontract OraclizeConnector {\n\n    address public cbAddress;\n    uint gasPrice;\n    byte public proofType;\n\n    constructor(address _cbAddress) public {\n        cbAddress = _cbAddress;\n    }\n\n    function query(string memory _arg) private pure returns (bytes32){\n        return keccak256(bytes(_arg));\n    }\n\n    function query(uint _timestamp, string calldata _datasource, string calldata _arg) external payable returns (bytes32) {\n        if (_timestamp == 0 && bytes(_datasource).length == 0){\n            return query(_arg);\n        }\n        return keccak256(bytes(_arg));\n    }\n\n    function query_withGasLimit(uint _timestamp, string calldata _datasource, string calldata _arg, uint _gaslimit) external payable returns (bytes32) {\n        if (_timestamp == 0 && bytes(_datasource).length == 0 && _gaslimit == 0){\n            return query(_arg);\n        }\n        return keccak256(bytes(_arg));\n    }\n\n    function getPrice(string memory _datasource) public pure returns (uint) {\n        if (bytes(_datasource).length == 0){\n            return 1000000;\n        }\n        return 1000000; //10^6\n    }\n\n    function getPrice(string memory _datasource, uint gaslimit) public pure returns (uint) {\n        if (gaslimit == 0){\n            return getPrice(_datasource);\n        }\n        return 1000000; //10^6\n    }\n\n    function setProofType(byte _proofType) external {\n        proofType = _proofType;\n    }\n\n    function setCustomGasPrice(uint _gasPrice) external {\n        gasPrice = _gasPrice;\n    }\n}\n\ncontract OraclizeAddrResolver {\n\n    address private oraclizedAddress;\n\n    constructor(address _oraclizedAddress) public {\n        oraclizedAddress = _oraclizedAddress;\n    }\n\n    function getAddress() public view returns (address) {\n        return oraclizedAddress;\n    }\n}\n",
  "sourcePath": "/home/jack/Repositories/jgitgud/woke-dapp/@woke/contracts/contracts/mocks/OraclizeMock.sol",
  "compiler": {
    "name": "solc",
    "version": "0.5.12+commit.7709ece9.Emscripten.clang"
  },
  "schemaVersion": "3.0.20",
  "updatedAt": "2020-01-30T00:46:47.461Z",
  "devdoc": {
    "methods": {}
  },
  "userdoc": {
    "methods": {}
  }
}