{
  "contractName": "OraclizeConnector",
  "abi": [
    {
      "inputs": [
        {
          "internalType": "address",
          "name": "_cbAddress",
          "type": "address"
        }
      ],
      "payable": false,
      "stateMutability": "nonpayable",
      "type": "constructor"
    },
    {
      "constant": true,
      "inputs": [],
      "name": "cbAddress",
      "outputs": [
        {
          "internalType": "address",
          "name": "",
          "type": "address"
        }
      ],
      "payable": false,
      "stateMutability": "view",
      "type": "function"
    },
    {
      "constant": true,
      "inputs": [],
      "name": "proofType",
      "outputs": [
        {
          "internalType": "bytes1",
          "name": "",
          "type": "bytes1"
        }
      ],
      "payable": false,
      "stateMutability": "view",
      "type": "function"
    },
    {
      "constant": false,
      "inputs": [
        {
          "internalType": "uint256",
          "name": "_timestamp",
          "type": "uint256"
        },
        {
          "internalType": "string",
          "name": "_datasource",
          "type": "string"
        },
        {
          "internalType": "string",
          "name": "_arg",
          "type": "string"
        }
      ],
      "name": "query",
      "outputs": [
        {
          "internalType": "bytes32",
          "name": "",
          "type": "bytes32"
        }
      ],
      "payable": true,
      "stateMutability": "payable",
      "type": "function"
    },
    {
      "constant": false,
      "inputs": [
        {
          "internalType": "uint256",
          "name": "_timestamp",
          "type": "uint256"
        },
        {
          "internalType": "string",
          "name": "_datasource",
          "type": "string"
        },
        {
          "internalType": "string",
          "name": "_arg",
          "type": "string"
        },
        {
          "internalType": "uint256",
          "name": "_gaslimit",
          "type": "uint256"
        }
      ],
      "name": "query_withGasLimit",
      "outputs": [
        {
          "internalType": "bytes32",
          "name": "",
          "type": "bytes32"
        }
      ],
      "payable": true,
      "stateMutability": "payable",
      "type": "function"
    },
    {
      "constant": true,
      "inputs": [
        {
          "internalType": "string",
          "name": "_datasource",
          "type": "string"
        },
        {
          "internalType": "uint256",
          "name": "gaslimit",
          "type": "uint256"
        }
      ],
      "name": "getPrice",
      "outputs": [
        {
          "internalType": "uint256",
          "name": "",
          "type": "uint256"
        }
      ],
      "payable": false,
      "stateMutability": "pure",
      "type": "function"
    },
    {
      "constant": true,
      "inputs": [
        {
          "internalType": "string",
          "name": "_datasource",
          "type": "string"
        }
      ],
      "name": "getPrice",
      "outputs": [
        {
          "internalType": "uint256",
          "name": "",
          "type": "uint256"
        }
      ],
      "payable": false,
      "stateMutability": "pure",
      "type": "function"
    },
    {
      "constant": false,
      "inputs": [
        {
          "internalType": "bytes1",
          "name": "_proofType",
          "type": "bytes1"
        }
      ],
      "name": "setProofType",
      "outputs": [],
      "payable": false,
      "stateMutability": "nonpayable",
      "type": "function"
    },
    {
      "constant": false,
      "inputs": [
        {
          "internalType": "uint256",
          "name": "_gasPrice",
          "type": "uint256"
        }
      ],
      "name": "setCustomGasPrice",
      "outputs": [],
      "payable": false,
      "stateMutability": "nonpayable",
      "type": "function"
    }
  ],
  "bytecode": "0x608060405234801561001057600080fd5b506040516108423803806108428339818101604052602081101561003357600080fd5b8101908080519060200190929190505050806000806101000a81548173ffffffffffffffffffffffffffffffffffffffff021916908373ffffffffffffffffffffffffffffffffffffffff160217905550506107ae806100946000396000f3fe60806040526004361061007b5760003560e01c8063adf59f991161004e578063adf59f991461030e578063c281d19e146103fa578063c51be90f14610451578063ca6ad1e4146105475761007b565b806305af5d35146100805780632ef3accc146100ef578063524f3889146101d5578063688dcfd7146102b1575b600080fd5b34801561008c57600080fd5b50610095610582565b60405180827effffffffffffffffffffffffffffffffffffffffffffffffffffffffffffff19167effffffffffffffffffffffffffffffffffffffffffffffffffffffffffffff1916815260200191505060405180910390f35b3480156100fb57600080fd5b506101bf6004803603604081101561011257600080fd5b810190808035906020019064010000000081111561012f57600080fd5b82018360208201111561014157600080fd5b8035906020019184600183028401116401000000008311171561016357600080fd5b91908080601f016020809104026020016040519081016040528093929190818152602001838380828437600081840152601f19601f82011690508083019250505050505050919291929080359060200190929190505050610595565b6040518082815260200191505060405180910390f35b3480156101e157600080fd5b5061029b600480360360208110156101f857600080fd5b810190808035906020019064010000000081111561021557600080fd5b82018360208201111561022757600080fd5b8035906020019184600183028401116401000000008311171561024957600080fd5b91908080601f016020809104026020016040519081016040528093929190818152602001838380828437600081840152601f19601f8201169050808301925050505050505091929192905050506105bc565b6040518082815260200191505060405180910390f35b3480156102bd57600080fd5b5061030c600480360360208110156102d457600080fd5b8101908080357effffffffffffffffffffffffffffffffffffffffffffffffffffffffffffff191690602001909291905050506105de565b005b6103e46004803603606081101561032457600080fd5b81019080803590602001909291908035906020019064010000000081111561034b57600080fd5b82018360208201111561035d57600080fd5b8035906020019184600183028401116401000000008311171561037f57600080fd5b9091929391929390803590602001906401000000008111156103a057600080fd5b8201836020820111156103b257600080fd5b803590602001918460018302840111640100000000831117156103d457600080fd5b90919293919293905050506105fc565b6040518082815260200191505060405180910390f35b34801561040657600080fd5b5061040f610694565b604051808273ffffffffffffffffffffffffffffffffffffffff1673ffffffffffffffffffffffffffffffffffffffff16815260200191505060405180910390f35b6105316004803603608081101561046757600080fd5b81019080803590602001909291908035906020019064010000000081111561048e57600080fd5b8201836020820111156104a057600080fd5b803590602001918460018302840111640100000000831117156104c257600080fd5b9091929391929390803590602001906401000000008111156104e357600080fd5b8201836020820111156104f557600080fd5b8035906020019184600183028401116401000000008311171561051757600080fd5b9091929391929390803590602001909291905050506106b9565b6040518082815260200191505060405180910390f35b34801561055357600080fd5b506105806004803603602081101561056a57600080fd5b810190808035906020019092919050505061075e565b005b600260009054906101000a900460f81b81565b6000808214156105af576105a8836105bc565b90506105b6565b620f424090505b92915050565b600080825114156105d257620f424090506105d9565b620f424090505b919050565b80600260006101000a81548160ff021916908360f81c021790555050565b600080861480156106105750600085859050145b156106695761066283838080601f016020809104026020016040519081016040528093929190818152602001838380828437600081840152601f19601f82011690508083019250505050505050610768565b905061068b565b8282604051808383808284378083019250505092505050604051809103902090505b95945050505050565b6000809054906101000a900473ffffffffffffffffffffffffffffffffffffffff1681565b600080871480156106cd5750600086869050145b80156106d95750600082145b156107325761072b84848080601f016020809104026020016040519081016040528093929190818152602001838380828437600081840152601f19601f82011690508083019250505050505050610768565b9050610754565b8383604051808383808284378083019250505092505050604051809103902090505b9695505050505050565b8060018190555050565b60008180519060200120905091905056fea265627a7a723158209b78916ec6a76b60ef9261786cce751422b100b166f92c53f1527aa2bdb987db64736f6c634300050c0032",
  "source": "pragma solidity ^0.5.0;\n\n\ncontract OraclizeConnector {\n\n    address public cbAddress;\n    uint gasPrice;\n    byte public proofType;\n\n    constructor(address _cbAddress) public {\n        cbAddress = _cbAddress;\n    }\n\n    function query(string memory _arg) private pure returns (bytes32){\n        return keccak256(bytes(_arg));\n    }\n\n    function query(uint _timestamp, string calldata _datasource, string calldata _arg) external payable returns (bytes32) {\n        if (_timestamp == 0 && bytes(_datasource).length == 0){\n            return query(_arg);\n        }\n        return keccak256(bytes(_arg));\n    }\n\n    function query_withGasLimit(uint _timestamp, string calldata _datasource, string calldata _arg, uint _gaslimit) external payable returns (bytes32) {\n        if (_timestamp == 0 && bytes(_datasource).length == 0 && _gaslimit == 0){\n            return query(_arg);\n        }\n        return keccak256(bytes(_arg));\n    }\n\n    function getPrice(string memory _datasource) public pure returns (uint) {\n        if (bytes(_datasource).length == 0){\n            return 1000000;\n        }\n        return 1000000; //10^6\n    }\n\n    function getPrice(string memory _datasource, uint gaslimit) public pure returns (uint) {\n        if (gaslimit == 0){\n            return getPrice(_datasource);\n        }\n        return 1000000; //10^6\n    }\n\n    function setProofType(byte _proofType) external {\n        proofType = _proofType;\n    }\n\n    function setCustomGasPrice(uint _gasPrice) external {\n        gasPrice = _gasPrice;\n    }\n}\n\ncontract OraclizeAddrResolver {\n\n    address private oraclizedAddress;\n\n    constructor(address _oraclizedAddress) public {\n        oraclizedAddress = _oraclizedAddress;\n    }\n\n    function getAddress() public view returns (address) {\n        return oraclizedAddress;\n    }\n}\n",
  "sourcePath": "/home/jack/Repositories/jgitgud/woke-dapp/@woke/contracts/contracts/mocks/OraclizeMock.sol",
  "compiler": {
    "name": "solc",
    "version": "0.5.12+commit.7709ece9.Emscripten.clang"
  },
  "schemaVersion": "3.0.20",
  "updatedAt": "2020-01-30T00:46:47.464Z",
  "devdoc": {
    "methods": {}
  },
  "userdoc": {
    "methods": {}
  }
}