{
  "contractName": "TwitterOracle",
  "abi": [
    {
      "inputs": [],
      "payable": true,
      "stateMutability": "payable",
      "type": "constructor"
    },
    {
      "anonymous": false,
      "inputs": [
        {
          "indexed": false,
          "internalType": "bytes32",
          "name": "queryId",
          "type": "bytes32"
        },
        {
          "indexed": false,
          "internalType": "string",
          "name": "userId",
          "type": "string"
        }
      ],
      "name": "FindTweetLodged",
      "type": "event"
    },
    {
      "anonymous": false,
      "inputs": [
        {
          "indexed": false,
          "internalType": "string",
          "name": "description",
          "type": "string"
        }
      ],
      "name": "LogNewQuery",
      "type": "event"
    },
    {
      "anonymous": false,
      "inputs": [
        {
          "indexed": false,
          "internalType": "string",
          "name": "result",
          "type": "string"
        },
        {
          "indexed": false,
          "internalType": "bytes",
          "name": "proof",
          "type": "bytes"
        }
      ],
      "name": "LogResult",
      "type": "event"
    },
    {
      "anonymous": false,
      "inputs": [
        {
          "indexed": true,
          "internalType": "address",
          "name": "_owner",
          "type": "address"
        },
        {
          "indexed": true,
          "internalType": "uint256",
          "name": "_balance",
          "type": "uint256"
        }
      ],
      "name": "LogUpdate",
      "type": "event"
    },
    {
      "anonymous": false,
      "inputs": [
        {
          "indexed": true,
          "internalType": "address",
          "name": "previousOwner",
          "type": "address"
        },
        {
          "indexed": true,
          "internalType": "address",
          "name": "newOwner",
          "type": "address"
        }
      ],
      "name": "OwnershipTransferred",
      "type": "event"
    },
    {
      "anonymous": false,
      "inputs": [
        {
          "indexed": false,
          "internalType": "address",
          "name": "account",
          "type": "address"
        }
      ],
      "name": "Paused",
      "type": "event"
    },
    {
      "anonymous": false,
      "inputs": [
        {
          "indexed": true,
          "internalType": "address",
          "name": "account",
          "type": "address"
        }
      ],
      "name": "PauserAdded",
      "type": "event"
    },
    {
      "anonymous": false,
      "inputs": [
        {
          "indexed": true,
          "internalType": "address",
          "name": "account",
          "type": "address"
        }
      ],
      "name": "PauserRemoved",
      "type": "event"
    },
    {
      "anonymous": false,
      "inputs": [
        {
          "indexed": false,
          "internalType": "string",
          "name": "m",
          "type": "string"
        }
      ],
      "name": "QueryString",
      "type": "event"
    },
    {
      "anonymous": false,
      "inputs": [
        {
          "indexed": false,
          "internalType": "string",
          "name": "m",
          "type": "string"
        },
        {
          "indexed": false,
          "internalType": "uint256",
          "name": "v",
          "type": "uint256"
        }
      ],
      "name": "TraceUint",
      "type": "event"
    },
    {
      "anonymous": false,
      "inputs": [
        {
          "indexed": false,
          "internalType": "string",
          "name": "userId",
          "type": "string"
        },
        {
          "indexed": false,
          "internalType": "string",
          "name": "tweetText",
          "type": "string"
        }
      ],
      "name": "TweetStored",
      "type": "event"
    },
    {
      "anonymous": false,
      "inputs": [
        {
          "indexed": false,
          "internalType": "address",
          "name": "account",
          "type": "address"
        }
      ],
      "name": "Unpaused",
      "type": "event"
    },
    {
      "payable": false,
      "stateMutability": "nonpayable",
      "type": "fallback"
    },
    {
      "constant": false,
      "inputs": [
        {
          "internalType": "address",
          "name": "account",
          "type": "address"
        }
      ],
      "name": "addPauser",
      "outputs": [],
      "payable": false,
      "stateMutability": "nonpayable",
      "type": "function"
    },
    {
      "constant": true,
      "inputs": [],
      "name": "isOwner",
      "outputs": [
        {
          "internalType": "bool",
          "name": "",
          "type": "bool"
        }
      ],
      "payable": false,
      "stateMutability": "view",
      "type": "function"
    },
    {
      "constant": true,
      "inputs": [
        {
          "internalType": "address",
          "name": "account",
          "type": "address"
        }
      ],
      "name": "isPauser",
      "outputs": [
        {
          "internalType": "bool",
          "name": "",
          "type": "bool"
        }
      ],
      "payable": false,
      "stateMutability": "view",
      "type": "function"
    },
    {
      "constant": true,
      "inputs": [],
      "name": "owner",
      "outputs": [
        {
          "internalType": "address",
          "name": "",
          "type": "address"
        }
      ],
      "payable": false,
      "stateMutability": "view",
      "type": "function"
    },
    {
      "constant": false,
      "inputs": [],
      "name": "pause",
      "outputs": [],
      "payable": false,
      "stateMutability": "nonpayable",
      "type": "function"
    },
    {
      "constant": true,
      "inputs": [],
      "name": "paused",
      "outputs": [
        {
          "internalType": "bool",
          "name": "",
          "type": "bool"
        }
      ],
      "payable": false,
      "stateMutability": "view",
      "type": "function"
    },
    {
      "constant": false,
      "inputs": [],
      "name": "renounceOwnership",
      "outputs": [],
      "payable": false,
      "stateMutability": "nonpayable",
      "type": "function"
    },
    {
      "constant": false,
      "inputs": [],
      "name": "renouncePauser",
      "outputs": [],
      "payable": false,
      "stateMutability": "nonpayable",
      "type": "function"
    },
    {
      "constant": false,
      "inputs": [
        {
          "internalType": "address",
          "name": "newOwner",
          "type": "address"
        }
      ],
      "name": "transferOwnership",
      "outputs": [],
      "payable": false,
      "stateMutability": "nonpayable",
      "type": "function"
    },
    {
      "constant": false,
      "inputs": [],
      "name": "unpause",
      "outputs": [],
      "payable": false,
      "stateMutability": "nonpayable",
      "type": "function"
    },
    {
      "constant": false,
      "inputs": [
        {
          "internalType": "bytes32",
          "name": "_myid",
          "type": "bytes32"
        },
        {
          "internalType": "string",
          "name": "_result",
          "type": "string"
        }
      ],
      "name": "__callback",
      "outputs": [],
      "payable": false,
      "stateMutability": "nonpayable",
      "type": "function"
    },
    {
      "constant": false,
      "inputs": [
        {
          "internalType": "bytes32",
          "name": "_queryId",
          "type": "bytes32"
        },
        {
          "internalType": "string",
          "name": "_result",
          "type": "string"
        },
        {
          "internalType": "bytes",
          "name": "_proof",
          "type": "bytes"
        }
      ],
      "name": "__callback",
      "outputs": [],
      "payable": false,
      "stateMutability": "nonpayable",
      "type": "function"
    },
    {
      "constant": false,
      "inputs": [
        {
          "internalType": "string",
          "name": "_userId",
          "type": "string"
        }
      ],
      "name": "findTweet",
      "outputs": [
        {
          "internalType": "bytes32",
          "name": "",
          "type": "bytes32"
        }
      ],
      "payable": true,
      "stateMutability": "payable",
      "type": "function"
    },
    {
      "constant": false,
      "inputs": [
        {
          "internalType": "string",
          "name": "_query",
          "type": "string"
        },
        {
          "internalType": "string",
          "name": "_method",
          "type": "string"
        },
        {
          "internalType": "string",
          "name": "_url",
          "type": "string"
        },
        {
          "internalType": "string",
          "name": "_kwargs",
          "type": "string"
        }
      ],
      "name": "request",
      "outputs": [
        {
          "internalType": "bytes32",
          "name": "",
          "type": "bytes32"
        }
      ],
      "payable": false,
      "stateMutability": "nonpayable",
      "type": "function"
    },
    {
      "constant": true,
      "inputs": [
        {
          "internalType": "string",
          "name": "_userId",
          "type": "string"
        }
      ],
      "name": "getTweetText",
      "outputs": [
        {
          "internalType": "string",
          "name": "",
          "type": "string"
        }
      ],
      "payable": false,
      "stateMutability": "view",
      "type": "function"
    },
    {
      "constant": true,
      "inputs": [],
      "name": "getBalance",
      "outputs": [
        {
          "internalType": "uint256",
          "name": "_balance",
          "type": "uint256"
        }
      ],
      "payable": false,
      "stateMutability": "view",
      "type": "function"
    }
  ],
  "bytecode": "0x608060405262000014620001ea60201b60201c565b6000806101000a81548173ffffffffffffffffffffffffffffffffffffffff021916908373ffffffffffffffffffffffffffffffffffffffff1602179055506000809054906101000a900473ffffffffffffffffffffffffffffffffffffffff1673ffffffffffffffffffffffffffffffffffffffff16600073ffffffffffffffffffffffffffffffffffffffff167f8be0079c531659141344cd1fd0a4f28419497f9722a3daafe3b4186f6b6457e060405160405180910390a3620000ef620000e3620001ea60201b60201c565b620001f260201b60201c565b6000600260006101000a81548160ff0219169083151502179055503073ffffffffffffffffffffffffffffffffffffffff1631620001326200025360201b60201c565b73ffffffffffffffffffffffffffffffffffffffff167fd176e7c6abd789c341ab22cef27aa1fbc7461f5f9d6a6e55faa0b9df32a7051460405160405180910390a3736abc93b0e36cdf449e121c6225eb25db8671523c600360006101000a81548173ffffffffffffffffffffffffffffffffffffffff021916908373ffffffffffffffffffffffffffffffffffffffff160217905550620001e4600160f81b604060f81b176200027c60201b60201c565b62000d91565b600033905090565b6200020d816001620005e260201b620029621790919060201c565b8073ffffffffffffffffffffffffffffffffffffffff167f6719d08c1888103bea251a4ed56406bd0c3e69723c8a1686e017e7bbe159b6f860405160405180910390a250565b60008060009054906101000a900473ffffffffffffffffffffffffffffffffffffffff16905090565b600073ffffffffffffffffffffffffffffffffffffffff16600360009054906101000a900473ffffffffffffffffffffffffffffffffffffffff1673ffffffffffffffffffffffffffffffffffffffff1614806200030c575060006200030a600360009054906101000a900473ffffffffffffffffffffffffffffffffffffffff16620006c660201b60201c565b145b156200032657620003246000620006d160201b60201c565b505b600360009054906101000a900473ffffffffffffffffffffffffffffffffffffffff1673ffffffffffffffffffffffffffffffffffffffff166338cc48316040518163ffffffff1660e01b8152600401602060405180830381600087803b1580156200039157600080fd5b505af1158015620003a6573d6000803e3d6000fd5b505050506040513d6020811015620003bd57600080fd5b810190808051906020019092919050505073ffffffffffffffffffffffffffffffffffffffff16600260019054906101000a900473ffffffffffffffffffffffffffffffffffffffff1673ffffffffffffffffffffffffffffffffffffffff16146200050c57600360009054906101000a900473ffffffffffffffffffffffffffffffffffffffff1673ffffffffffffffffffffffffffffffffffffffff166338cc48316040518163ffffffff1660e01b8152600401602060405180830381600087803b1580156200048e57600080fd5b505af1158015620004a3573d6000803e3d6000fd5b505050506040513d6020811015620004ba57600080fd5b8101908080519060200190929190505050600260016101000a81548173ffffffffffffffffffffffffffffffffffffffff021916908373ffffffffffffffffffffffffffffffffffffffff1602179055505b600260019054906101000a900473ffffffffffffffffffffffffffffffffffffffff1673ffffffffffffffffffffffffffffffffffffffff1663688dcfd7826040518263ffffffff1660e01b815260040180827effffffffffffffffffffffffffffffffffffffffffffffffffffffffffffff19167effffffffffffffffffffffffffffffffffffffffffffffffffffffffffffff19168152602001915050600060405180830381600087803b158015620005c657600080fd5b505af1158015620005db573d6000803e3d6000fd5b5050505050565b620005f48282620006ea60201b60201c565b1562000668576040517f08c379a000000000000000000000000000000000000000000000000000000000815260040180806020018281038252601f8152602001807f526f6c65733a206163636f756e7420616c72656164792068617320726f6c650081525060200191505060405180910390fd5b60018260000160008373ffffffffffffffffffffffffffffffffffffffff1673ffffffffffffffffffffffffffffffffffffffff16815260200190815260200160002060006101000a81548160ff0219169083151502179055505050565b6000813b9050919050565b6000620006e3620007ca60201b60201c565b9050919050565b60008073ffffffffffffffffffffffffffffffffffffffff168273ffffffffffffffffffffffffffffffffffffffff16141562000773576040517f08c379a000000000000000000000000000000000000000000000000000000000815260040180806020018281038252602281526020018062004a596022913960400191505060405180910390fd5b8260000160008373ffffffffffffffffffffffffffffffffffffffff1673ffffffffffffffffffffffffffffffffffffffff16815260200190815260200160002060009054906101000a900460ff16905092915050565b600080620007f2731d3b2638a7cc9f2cb3d298a3da7a90b67e5506ed620006c660201b60201c565b11156200089e57731d3b2638a7cc9f2cb3d298a3da7a90b67e5506ed600360006101000a81548173ffffffffffffffffffffffffffffffffffffffff021916908373ffffffffffffffffffffffffffffffffffffffff160217905550620008946040518060400160405280600b81526020017f6574685f6d61696e6e657400000000000000000000000000000000000000000081525062000cc660201b60201c565b6001905062000cc3565b6000620008c573c03a2615d5efaf5f49f60b7bb6583eaec212fdf1620006c660201b60201c565b1115620009715773c03a2615d5efaf5f49f60b7bb6583eaec212fdf1600360006101000a81548173ffffffffffffffffffffffffffffffffffffffff021916908373ffffffffffffffffffffffffffffffffffffffff160217905550620009676040518060400160405280600c81526020017f6574685f726f707374656e33000000000000000000000000000000000000000081525062000cc660201b60201c565b6001905062000cc3565b60006200099873b7a07bcf2ba2f2703b24c0691b5278999c59ac7e620006c660201b60201c565b111562000a445773b7a07bcf2ba2f2703b24c0691b5278999c59ac7e600360006101000a81548173ffffffffffffffffffffffffffffffffffffffff021916908373ffffffffffffffffffffffffffffffffffffffff16021790555062000a3a6040518060400160405280600981526020017f6574685f6b6f76616e000000000000000000000000000000000000000000000081525062000cc660201b60201c565b6001905062000cc3565b600062000a6b73146500cfd35b22e4a392fe0adc06de1a1368ed48620006c660201b60201c565b111562000b175773146500cfd35b22e4a392fe0adc06de1a1368ed48600360006101000a81548173ffffffffffffffffffffffffffffffffffffffff021916908373ffffffffffffffffffffffffffffffffffffffff16021790555062000b0d6040518060400160405280600b81526020017f6574685f72696e6b65627900000000000000000000000000000000000000000081525062000cc660201b60201c565b6001905062000cc3565b600062000b3e736f485c8bf6fc43ea212e93bbf8ce046c7f1cb475620006c660201b60201c565b111562000ba457736f485c8bf6fc43ea212e93bbf8ce046c7f1cb475600360006101000a81548173ffffffffffffffffffffffffffffffffffffffff021916908373ffffffffffffffffffffffffffffffffffffffff1602179055506001905062000cc3565b600062000bcb7320e12a1f859b3feae5fb2a0a32c18f5a65555bbf620006c660201b60201c565b111562000c31577320e12a1f859b3feae5fb2a0a32c18f5a65555bbf600360006101000a81548173ffffffffffffffffffffffffffffffffffffffff021916908373ffffffffffffffffffffffffffffffffffffffff1602179055506001905062000cc3565b600062000c587351efaf4c8b3c9afbd5ab9f4bbc82784ab6ef8faa620006c660201b60201c565b111562000cbe577351efaf4c8b3c9afbd5ab9f4bbc82784ab6ef8faa600360006101000a81548173ffffffffffffffffffffffffffffffffffffffff021916908373ffffffffffffffffffffffffffffffffffffffff1602179055506001905062000cc3565b600090505b90565b806004908051906020019062000cde92919062000ce2565b5050565b828054600181600116156101000203166002900490600052602060002090601f016020900481019282601f1062000d2557805160ff191683800117855562000d56565b8280016001018555821562000d56579182015b8281111562000d5557825182559160200191906001019062000d38565b5b50905062000d65919062000d69565b5090565b62000d8e91905b8082111562000d8a57600081600090555060010162000d70565b5090565b90565b613cb88062000da16000396000f3fe6080604052600436106100f35760003560e01c80637f3c1e341161008a5780638f32d59b116100595780638f32d59b1461063f578063cb3007851461066e578063cf2e29141461090f578063f2fde38b14610a50576100f3565b80637f3c1e34146104b157806382dc1ec4146105805780638456cb59146105d15780638da5cb5b146105e8576100f3565b806346fbf68e116100c657806346fbf68e146103eb5780635c975abb146104545780636ef8d66d14610483578063715018a61461049a576100f3565b806312065fe01461016e57806327dc297e1461019957806338bbfa501461026b5780633f4ba83a146103d4575b3480156100ff57600080fd5b506040517f08c379a00000000000000000000000000000000000000000000000000000000081526004018080602001828103825260118152602001807f46616c6c6261636b2066756e6374696f6e00000000000000000000000000000081525060200191505060405180910390fd5b34801561017a57600080fd5b50610183610aa1565b6040518082815260200191505060405180910390f35b3480156101a557600080fd5b50610269600480360360408110156101bc57600080fd5b8101908080359060200190929190803590602001906401000000008111156101e357600080fd5b8201836020820111156101f557600080fd5b8035906020019184600183028401116401000000008311171561021757600080fd5b91908080601f016020809104026020016040519081016040528093929190818152602001838380828437600081840152601f19601f820116905080830192505050505050509192919290505050610ac0565b005b34801561027757600080fd5b506103d26004803603606081101561028e57600080fd5b8101908080359060200190929190803590602001906401000000008111156102b557600080fd5b8201836020820111156102c757600080fd5b803590602001918460018302840111640100000000831117156102e957600080fd5b91908080601f016020809104026020016040519081016040528093929190818152602001838380828437600081840152601f19601f8201169050808301925050505050505091929192908035906020019064010000000081111561034c57600080fd5b82018360208201111561035e57600080fd5b8035906020019184600183028401116401000000008311171561038057600080fd5b91908080601f016020809104026020016040519081016040528093929190818152602001838380828437600081840152601f19601f820116905080830192505050505050509192919290505050610b03565b005b3480156103e057600080fd5b506103e9611060565b005b3480156103f757600080fd5b5061043a6004803603602081101561040e57600080fd5b81019080803573ffffffffffffffffffffffffffffffffffffffff1690602001909291905050506111ce565b604051808215151515815260200191505060405180910390f35b34801561046057600080fd5b506104696111eb565b604051808215151515815260200191505060405180910390f35b34801561048f57600080fd5b50610498611202565b005b3480156104a657600080fd5b506104af611214565b005b61056a600480360360208110156104c757600080fd5b81019080803590602001906401000000008111156104e457600080fd5b8201836020820111156104f657600080fd5b8035906020019184600183028401116401000000008311171561051857600080fd5b91908080601f016020809104026020016040519081016040528093929190818152602001838380828437600081840152601f19601f82011690508083019250505050505050919291929050505061134d565b6040518082815260200191505060405180910390f35b34801561058c57600080fd5b506105cf600480360360208110156105a357600080fd5b81019080803573ffffffffffffffffffffffffffffffffffffffff16906020019092919050505061151f565b005b3480156105dd57600080fd5b506105e6611590565b005b3480156105f457600080fd5b506105fd6116ff565b604051808273ffffffffffffffffffffffffffffffffffffffff1673ffffffffffffffffffffffffffffffffffffffff16815260200191505060405180910390f35b34801561064b57600080fd5b50610654611728565b604051808215151515815260200191505060405180910390f35b34801561067a57600080fd5b506108f96004803603608081101561069157600080fd5b81019080803590602001906401000000008111156106ae57600080fd5b8201836020820111156106c057600080fd5b803590602001918460018302840111640100000000831117156106e257600080fd5b91908080601f016020809104026020016040519081016040528093929190818152602001838380828437600081840152601f19601f8201169050808301925050505050505091929192908035906020019064010000000081111561074557600080fd5b82018360208201111561075757600080fd5b8035906020019184600183028401116401000000008311171561077957600080fd5b91908080601f016020809104026020016040519081016040528093929190818152602001838380828437600081840152601f19601f820116905080830192505050505050509192919290803590602001906401000000008111156107dc57600080fd5b8201836020820111156107ee57600080fd5b8035906020019184600183028401116401000000008311171561081057600080fd5b91908080601f016020809104026020016040519081016040528093929190818152602001838380828437600081840152601f19601f8201169050808301925050505050505091929192908035906020019064010000000081111561087357600080fd5b82018360208201111561088557600080fd5b803590602001918460018302840111640100000000831117156108a757600080fd5b91908080601f016020809104026020016040519081016040528093929190818152602001838380828437600081840152601f19601f820116905080830192505050505050509192919290505050611786565b6040518082815260200191505060405180910390f35b34801561091b57600080fd5b506109d56004803603602081101561093257600080fd5b810190808035906020019064010000000081111561094f57600080fd5b82018360208201111561096157600080fd5b8035906020019184600183028401116401000000008311171561098357600080fd5b91908080601f016020809104026020016040519081016040528093929190818152602001838380828437600081840152601f19601f82011690508083019250505050505050919291929050505061196e565b6040518080602001828103825283818151815260200191508051906020019080838360005b83811015610a155780820151818401526020810190506109fa565b50505050905090810190601f168015610a425780820380516001836020036101000a031916815260200191505b509250505060405180910390f35b348015610a5c57600080fd5b50610a9f60048036036020811015610a7357600080fd5b81019080803573ffffffffffffffffffffffffffffffffffffffff169060200190929190505050611adc565b005b60003073ffffffffffffffffffffffffffffffffffffffff1631905090565b610aff828260006040519080825280601f01601f191660200182016040528015610af95781602001600182028038833980820191505090505b50610b03565b5050565b600260009054906101000a900460ff1615610b86576040517f08c379a00000000000000000000000000000000000000000000000000000000081526004018080602001828103825260108152602001807f5061757361626c653a207061757365640000000000000000000000000000000081525060200191505060405180910390fd5b610b8e611b62565b73ffffffffffffffffffffffffffffffffffffffff163373ffffffffffffffffffffffffffffffffffffffff1614610c11576040517f08c379a0000000000000000000000000000000000000000000000000000000008152600401808060200182810382526049815260200180613a536049913960600191505060405180910390fd5b610cc5600760008581526020019081526020016000208054600181600116156101000203166002900480601f016020809104026020016040519081016040528092919081815260200182805460018160011615610100020316600290048015610cbb5780601f10610c9057610100808354040283529160200191610cbb565b820191906000526020600020905b815481529060010190602001808311610c9e57829003601f168201915b5050505050611e82565b610d1a576040517f08c379a0000000000000000000000000000000000000000000000000000000008152600401808060200182810382526051815260200180613c336051913960600191505060405180910390fd5b7fa985692bf0f6e75fb1a4a4816819e78421191536bab7ffdc6559c4043feb15a38282604051808060200180602001838103835285818151815260200191508051906020019080838360005b83811015610d81578082015181840152602081019050610d66565b50505050905090810190601f168015610dae5780820380516001836020036101000a031916815260200191505b50838103825284818151815260200191508051906020019080838360005b83811015610de7578082015181840152602081019050610dcc565b50505050905090810190601f168015610e145780820380516001836020036101000a031916815260200191505b5094505050505060405180910390a16060600760008581526020019081526020016000208054600181600116156101000203166002900480601f016020809104026020016040519081016040528092919081815260200182805460018160011615610100020316600290048015610ecc5780601f10610ea157610100808354040283529160200191610ecc565b820191906000526020600020905b815481529060010190602001808311610eaf57829003601f168201915b50505050509050826008826040518082805190602001908083835b60208310610f0a5780518252602082019150602081019050602083039250610ee7565b6001836020036101000a03801982511681845116808217855250505050505090500191505090815260200160405180910390209080519060200190610f5092919061385c565b507f640c52fd33dbc3be9383f963cc57a1652a5e333d51e264e17892d3de3a41ba4f8184604051808060200180602001838103835285818151815260200191508051906020019080838360005b83811015610fb8578082015181840152602081019050610f9d565b50505050905090810190601f168015610fe55780820380516001836020036101000a031916815260200191505b50838103825284818151815260200191508051906020019080838360005b8381101561101e578082015181840152602081019050611003565b50505050905090810190601f16801561104b5780820380516001836020036101000a031916815260200191505b5094505050505060405180910390a150505050565b61107061106b611ea8565b6111ce565b6110c5576040517f08c379a00000000000000000000000000000000000000000000000000000000081526004018080602001828103825260308152602001806139fd6030913960400191505060405180910390fd5b600260009054906101000a900460ff16611147576040517f08c379a00000000000000000000000000000000000000000000000000000000081526004018080602001828103825260148152602001807f5061757361626c653a206e6f742070617573656400000000000000000000000081525060200191505060405180910390fd5b6000600260006101000a81548160ff0219169083151502179055507f5db9ee0a495bf2e6ff9c91a7834c1ba4fdd244a5e8aa4e537bd38aeae4b073aa61118b611ea8565b604051808273ffffffffffffffffffffffffffffffffffffffff1673ffffffffffffffffffffffffffffffffffffffff16815260200191505060405180910390a1565b60006111e4826001611eb090919063ffffffff16565b9050919050565b6000600260009054906101000a900460ff16905090565b61121261120d611ea8565b611f8e565b565b61121c611728565b61128e576040517f08c379a00000000000000000000000000000000000000000000000000000000081526004018080602001828103825260208152602001807f4f776e61626c653a2063616c6c6572206973206e6f7420746865206f776e657281525060200191505060405180910390fd5b600073ffffffffffffffffffffffffffffffffffffffff166000809054906101000a900473ffffffffffffffffffffffffffffffffffffffff1673ffffffffffffffffffffffffffffffffffffffff167f8be0079c531659141344cd1fd0a4f28419497f9722a3daafe3b4186f6b6457e060405160405180910390a360008060006101000a81548173ffffffffffffffffffffffffffffffffffffffff021916908373ffffffffffffffffffffffffffffffffffffffff160217905550565b60006060826040516020018080613a9c603b9139603b0182805190602001908083835b602083106113935780518252602082019150602081019050602083039250611370565b6001836020036101000a03801982511681845116808217855250505050505090500180613ad7607d9139607d0191505060405160208183030381529060405290506000611447604051806080016040528060428152602001613b75604291396040518060400160405280600381526020017f4745540000000000000000000000000000000000000000000000000000000000815250846040518060e0016040528060b7815260200161394660b79139611786565b90508360076000838152602001908152602001600020908051906020019061147092919061385c565b507fe5d85242f0078c93b45bf90642d76990a0944afb431d2c7d61f4c32b339c780a81856040518083815260200180602001828103825283818151815260200191508051906020019080838360005b838110156114da5780820151818401526020810190506114bf565b50505050905090810190601f1680156115075780820380516001836020036101000a031916815260200191505b50935050505060405180910390a18092505050919050565b61152f61152a611ea8565b6111ce565b611584576040517f08c379a00000000000000000000000000000000000000000000000000000000081526004018080602001828103825260308152602001806139fd6030913960400191505060405180910390fd5b61158d81611fe8565b50565b6115a061159b611ea8565b6111ce565b6115f5576040517f08c379a00000000000000000000000000000000000000000000000000000000081526004018080602001828103825260308152602001806139fd6030913960400191505060405180910390fd5b600260009054906101000a900460ff1615611678576040517f08c379a00000000000000000000000000000000000000000000000000000000081526004018080602001828103825260108152602001807f5061757361626c653a207061757365640000000000000000000000000000000081525060200191505060405180910390fd5b6001600260006101000a81548160ff0219169083151502179055507f62e78cea01bee320cd4e420270b5ea74000d11b0c9f74754ebdbfc544b05a2586116bc611ea8565b604051808273ffffffffffffffffffffffffffffffffffffffff1673ffffffffffffffffffffffffffffffffffffffff16815260200191505060405180910390a1565b60008060009054906101000a900473ffffffffffffffffffffffffffffffffffffffff16905090565b60008060009054906101000a900473ffffffffffffffffffffffffffffffffffffffff1673ffffffffffffffffffffffffffffffffffffffff1661176a611ea8565b73ffffffffffffffffffffffffffffffffffffffff1614905090565b6000806117c76040518060400160405280600b81526020017f636f6d7075746174696f6e000000000000000000000000000000000000000000815250612042565b90507f778b3d35646bbb5c4089ff920a1c80805f7a007853995690307cce435bc1eaf78160405180806020018381526020018281038252600b8152602001807f71756572792070726963650000000000000000000000000000000000000000008152506020019250505060405180910390a13073ffffffffffffffffffffffffffffffffffffffff16318111156118a8577f746f97619dd4e795da5586af48fcbd8a87f2860948dec93277b5b67b2f105cab604051808060200182810382526037815260200180613bfc6037913960400191505060405180910390a1611964565b7f746f97619dd4e795da5586af48fcbd8a87f2860948dec93277b5b67b2f105cab60405180806020018281038252602a81526020018061391c602a913960400191505060405180910390a160006119586040518060400160405280600b81526020017f636f6d7075746174696f6e00000000000000000000000000000000000000000081525060405180608001604052808a8152602001898152602001888152602001878152506207a1206123d6565b90508092505050611966565b505b949350505050565b6060806008836040518082805190602001908083835b602083106119a75780518252602082019150602081019050602083039250611984565b6001836020036101000a03801982511681845116808217855250505050505090500191505090815260200160405180910390208054600181600116156101000203166002900480601f016020809104026020016040519081016040528092919081815260200182805460018160011615610100020316600290048015611a6e5780601f10611a4357610100808354040283529160200191611a6e565b820191906000526020600020905b815481529060010190602001808311611a5157829003601f168201915b50505050509050611a7e81611e82565b611ad3576040517f08c379a0000000000000000000000000000000000000000000000000000000008152600401808060200182810382526023815260200180613bd96023913960400191505060405180910390fd5b80915050919050565b611ae4611728565b611b56576040517f08c379a00000000000000000000000000000000000000000000000000000000081526004018080602001828103825260208152602001807f4f776e61626c653a2063616c6c6572206973206e6f7420746865206f776e657281525060200191505060405180910390fd5b611b5f81612745565b50565b60008073ffffffffffffffffffffffffffffffffffffffff16600360009054906101000a900473ffffffffffffffffffffffffffffffffffffffff1673ffffffffffffffffffffffffffffffffffffffff161480611bea57506000611be8600360009054906101000a900473ffffffffffffffffffffffffffffffffffffffff16612889565b145b15611bfb57611bf96000612894565b505b600360009054906101000a900473ffffffffffffffffffffffffffffffffffffffff1673ffffffffffffffffffffffffffffffffffffffff166338cc48316040518163ffffffff1660e01b8152600401602060405180830381600087803b158015611c6557600080fd5b505af1158015611c79573d6000803e3d6000fd5b505050506040513d6020811015611c8f57600080fd5b810190808051906020019092919050505073ffffffffffffffffffffffffffffffffffffffff16600260019054906101000a900473ffffffffffffffffffffffffffffffffffffffff1673ffffffffffffffffffffffffffffffffffffffff1614611dda57600360009054906101000a900473ffffffffffffffffffffffffffffffffffffffff1673ffffffffffffffffffffffffffffffffffffffff166338cc48316040518163ffffffff1660e01b8152600401602060405180830381600087803b158015611d5e57600080fd5b505af1158015611d72573d6000803e3d6000fd5b505050506040513d6020811015611d8857600080fd5b8101908080519060200190929190505050600260016101000a81548173ffffffffffffffffffffffffffffffffffffffff021916908373ffffffffffffffffffffffffffffffffffffffff1602179055505b600260019054906101000a900473ffffffffffffffffffffffffffffffffffffffff1673ffffffffffffffffffffffffffffffffffffffff1663c281d19e6040518163ffffffff1660e01b815260040160206040518083038186803b158015611e4257600080fd5b505afa158015611e56573d6000803e3d6000fd5b505050506040513d6020811015611e6c57600080fd5b8101908080519060200190929190505050905090565b60006060829050600081511415611e9d576000915050611ea3565b60019150505b919050565b600033905090565b60008073ffffffffffffffffffffffffffffffffffffffff168273ffffffffffffffffffffffffffffffffffffffff161415611f37576040517f08c379a0000000000000000000000000000000000000000000000000000000008152600401808060200182810382526022815260200180613bb76022913960400191505060405180910390fd5b8260000160008373ffffffffffffffffffffffffffffffffffffffff1673ffffffffffffffffffffffffffffffffffffffff16815260200190815260200160002060009054906101000a900460ff16905092915050565b611fa28160016128a590919063ffffffff16565b8073ffffffffffffffffffffffffffffffffffffffff167fcd265ebaf09df2871cc7bd4133404a235ba12eff2041bb89d9c714a2621c7c7e60405160405180910390a250565b611ffc81600161296290919063ffffffff16565b8073ffffffffffffffffffffffffffffffffffffffff167f6719d08c1888103bea251a4ed56406bd0c3e69723c8a1686e017e7bbe159b6f860405160405180910390a250565b60008073ffffffffffffffffffffffffffffffffffffffff16600360009054906101000a900473ffffffffffffffffffffffffffffffffffffffff1673ffffffffffffffffffffffffffffffffffffffff1614806120ca575060006120c8600360009054906101000a900473ffffffffffffffffffffffffffffffffffffffff16612889565b145b156120db576120d96000612894565b505b600360009054906101000a900473ffffffffffffffffffffffffffffffffffffffff1673ffffffffffffffffffffffffffffffffffffffff166338cc48316040518163ffffffff1660e01b8152600401602060405180830381600087803b15801561214557600080fd5b505af1158015612159573d6000803e3d6000fd5b505050506040513d602081101561216f57600080fd5b810190808051906020019092919050505073ffffffffffffffffffffffffffffffffffffffff16600260019054906101000a900473ffffffffffffffffffffffffffffffffffffffff1673ffffffffffffffffffffffffffffffffffffffff16146122ba57600360009054906101000a900473ffffffffffffffffffffffffffffffffffffffff1673ffffffffffffffffffffffffffffffffffffffff166338cc48316040518163ffffffff1660e01b8152600401602060405180830381600087803b15801561223e57600080fd5b505af1158015612252573d6000803e3d6000fd5b505050506040513d602081101561226857600080fd5b8101908080519060200190929190505050600260016101000a81548173ffffffffffffffffffffffffffffffffffffffff021916908373ffffffffffffffffffffffffffffffffffffffff1602179055505b600260019054906101000a900473ffffffffffffffffffffffffffffffffffffffff1673ffffffffffffffffffffffffffffffffffffffff1663524f3889836040518263ffffffff1660e01b81526004018080602001828103825283818151815260200191508051906020019080838360005b8381101561234857808201518184015260208101905061232d565b50505050905090810190601f1680156123755780820380516001836020036101000a031916815260200191505b5092505050602060405180830381600087803b15801561239457600080fd5b505af11580156123a8573d6000803e3d6000fd5b505050506040513d60208110156123be57600080fd5b81019080805190602001909291905050509050919050565b60008073ffffffffffffffffffffffffffffffffffffffff16600360009054906101000a900473ffffffffffffffffffffffffffffffffffffffff1673ffffffffffffffffffffffffffffffffffffffff16148061245e5750600061245c600360009054906101000a900473ffffffffffffffffffffffffffffffffffffffff16612889565b145b1561246f5761246d6000612894565b505b600360009054906101000a900473ffffffffffffffffffffffffffffffffffffffff1673ffffffffffffffffffffffffffffffffffffffff166338cc48316040518163ffffffff1660e01b8152600401602060405180830381600087803b1580156124d957600080fd5b505af11580156124ed573d6000803e3d6000fd5b505050506040513d602081101561250357600080fd5b810190808051906020019092919050505073ffffffffffffffffffffffffffffffffffffffff16600260019054906101000a900473ffffffffffffffffffffffffffffffffffffffff1673ffffffffffffffffffffffffffffffffffffffff161461264e57600360009054906101000a900473ffffffffffffffffffffffffffffffffffffffff1673ffffffffffffffffffffffffffffffffffffffff166338cc48316040518163ffffffff1660e01b8152600401602060405180830381600087803b1580156125d257600080fd5b505af11580156125e6573d6000803e3d6000fd5b505050506040513d60208110156125fc57600080fd5b8101908080519060200190929190505050600260016101000a81548173ffffffffffffffffffffffffffffffffffffffff021916908373ffffffffffffffffffffffffffffffffffffffff1602179055505b6060600460405190808252806020026020018201604052801561268557816020015b60608152602001906001900390816126705790505b5090508360006004811061269557fe5b6020020151816000815181106126a757fe5b6020026020010181905250836001600481106126bf57fe5b6020020151816001815181106126d157fe5b6020026020010181905250836002600481106126e957fe5b6020020151816002815181106126fb57fe5b60200260200101819052508360036004811061271357fe5b60200201518160038151811061272557fe5b602002602001018190525061273b858285612a3d565b9150509392505050565b600073ffffffffffffffffffffffffffffffffffffffff168173ffffffffffffffffffffffffffffffffffffffff1614156127cb576040517f08c379a0000000000000000000000000000000000000000000000000000000008152600401808060200182810382526026815260200180613a2d6026913960400191505060405180910390fd5b8073ffffffffffffffffffffffffffffffffffffffff166000809054906101000a900473ffffffffffffffffffffffffffffffffffffffff1673ffffffffffffffffffffffffffffffffffffffff167f8be0079c531659141344cd1fd0a4f28419497f9722a3daafe3b4186f6b6457e060405160405180910390a3806000806101000a81548173ffffffffffffffffffffffffffffffffffffffff021916908373ffffffffffffffffffffffffffffffffffffffff16021790555050565b6000813b9050919050565b600061289e612fa3565b9050919050565b6128af8282611eb0565b612904576040517f08c379a0000000000000000000000000000000000000000000000000000000008152600401808060200182810382526021815260200180613b546021913960400191505060405180910390fd5b60008260000160008373ffffffffffffffffffffffffffffffffffffffff1673ffffffffffffffffffffffffffffffffffffffff16815260200190815260200160002060006101000a81548160ff0219169083151502179055505050565b61296c8282611eb0565b156129df576040517f08c379a000000000000000000000000000000000000000000000000000000000815260040180806020018281038252601f8152602001807f526f6c65733a206163636f756e7420616c72656164792068617320726f6c650081525060200191505060405180910390fd5b60018260000160008373ffffffffffffffffffffffffffffffffffffffff1673ffffffffffffffffffffffffffffffffffffffff16815260200190815260200160002060006101000a81548160ff0219169083151502179055505050565b60008073ffffffffffffffffffffffffffffffffffffffff16600360009054906101000a900473ffffffffffffffffffffffffffffffffffffffff1673ffffffffffffffffffffffffffffffffffffffff161480612ac557506000612ac3600360009054906101000a900473ffffffffffffffffffffffffffffffffffffffff16612889565b145b15612ad657612ad46000612894565b505b600360009054906101000a900473ffffffffffffffffffffffffffffffffffffffff1673ffffffffffffffffffffffffffffffffffffffff166338cc48316040518163ffffffff1660e01b8152600401602060405180830381600087803b158015612b4057600080fd5b505af1158015612b54573d6000803e3d6000fd5b505050506040513d6020811015612b6a57600080fd5b810190808051906020019092919050505073ffffffffffffffffffffffffffffffffffffffff16600260019054906101000a900473ffffffffffffffffffffffffffffffffffffffff1673ffffffffffffffffffffffffffffffffffffffff1614612cb557600360009054906101000a900473ffffffffffffffffffffffffffffffffffffffff1673ffffffffffffffffffffffffffffffffffffffff166338cc48316040518163ffffffff1660e01b8152600401602060405180830381600087803b158015612c3957600080fd5b505af1158015612c4d573d6000803e3d6000fd5b505050506040513d6020811015612c6357600080fd5b8101908080519060200190929190505050600260016101000a81548173ffffffffffffffffffffffffffffffffffffffff021916908373ffffffffffffffffffffffffffffffffffffffff1602179055505b6000600260019054906101000a900473ffffffffffffffffffffffffffffffffffffffff1673ffffffffffffffffffffffffffffffffffffffff16632ef3accc86856040518363ffffffff1660e01b81526004018080602001838152602001828103825284818151815260200191508051906020019080838360005b83811015612d4c578082015181840152602081019050612d31565b50505050905090810190601f168015612d795780820380516001836020036101000a031916815260200191505b509350505050602060405180830381600087803b158015612d9957600080fd5b505af1158015612dad573d6000803e3d6000fd5b505050506040513d6020811015612dc357600080fd5b81019080805190602001909291905050509050823a02670de0b6b3a764000001811115612df6576000801b915050612f9c565b6060612e0185613439565b9050600260019054906101000a900473ffffffffffffffffffffffffffffffffffffffff1673ffffffffffffffffffffffffffffffffffffffff1663c55c1cb68360008985896040518663ffffffff1660e01b8152600401808581526020018060200180602001848152602001838103835286818151815260200191508051906020019080838360005b83811015612ea6578082015181840152602081019050612e8b565b50505050905090810190601f168015612ed35780820380516001836020036101000a031916815260200191505b50838103825285818151815260200191508051906020019080838360005b83811015612f0c578082015181840152602081019050612ef1565b50505050905090810190601f168015612f395780820380516001836020036101000a031916815260200191505b5096505050505050506020604051808303818588803b158015612f5b57600080fd5b505af1158015612f6f573d6000803e3d6000fd5b50505050506040513d6020811015612f8657600080fd5b8101908080519060200190929190505050925050505b9392505050565b600080612fc3731d3b2638a7cc9f2cb3d298a3da7a90b67e5506ed612889565b111561306557731d3b2638a7cc9f2cb3d298a3da7a90b67e5506ed600360006101000a81548173ffffffffffffffffffffffffffffffffffffffff021916908373ffffffffffffffffffffffffffffffffffffffff16021790555061305c6040518060400160405280600b81526020017f6574685f6d61696e6e65740000000000000000000000000000000000000000008152506134b9565b60019050613436565b600061308473c03a2615d5efaf5f49f60b7bb6583eaec212fdf1612889565b11156131265773c03a2615d5efaf5f49f60b7bb6583eaec212fdf1600360006101000a81548173ffffffffffffffffffffffffffffffffffffffff021916908373ffffffffffffffffffffffffffffffffffffffff16021790555061311d6040518060400160405280600c81526020017f6574685f726f707374656e3300000000000000000000000000000000000000008152506134b9565b60019050613436565b600061314573b7a07bcf2ba2f2703b24c0691b5278999c59ac7e612889565b11156131e75773b7a07bcf2ba2f2703b24c0691b5278999c59ac7e600360006101000a81548173ffffffffffffffffffffffffffffffffffffffff021916908373ffffffffffffffffffffffffffffffffffffffff1602179055506131de6040518060400160405280600981526020017f6574685f6b6f76616e00000000000000000000000000000000000000000000008152506134b9565b60019050613436565b600061320673146500cfd35b22e4a392fe0adc06de1a1368ed48612889565b11156132a85773146500cfd35b22e4a392fe0adc06de1a1368ed48600360006101000a81548173ffffffffffffffffffffffffffffffffffffffff021916908373ffffffffffffffffffffffffffffffffffffffff16021790555061329f6040518060400160405280600b81526020017f6574685f72696e6b6562790000000000000000000000000000000000000000008152506134b9565b60019050613436565b60006132c7736f485c8bf6fc43ea212e93bbf8ce046c7f1cb475612889565b111561332b57736f485c8bf6fc43ea212e93bbf8ce046c7f1cb475600360006101000a81548173ffffffffffffffffffffffffffffffffffffffff021916908373ffffffffffffffffffffffffffffffffffffffff16021790555060019050613436565b600061334a7320e12a1f859b3feae5fb2a0a32c18f5a65555bbf612889565b11156133ae577320e12a1f859b3feae5fb2a0a32c18f5a65555bbf600360006101000a81548173ffffffffffffffffffffffffffffffffffffffff021916908373ffffffffffffffffffffffffffffffffffffffff16021790555060019050613436565b60006133cd7351efaf4c8b3c9afbd5ab9f4bbc82784ab6ef8faa612889565b1115613431577351efaf4c8b3c9afbd5ab9f4bbc82784ab6ef8faa600360006101000a81548173ffffffffffffffffffffffffffffffffffffffff021916908373ffffffffffffffffffffffffffffffffffffffff16021790555060019050613436565b600090505b90565b60606134436134d3565b61344b6138dc565b613457816104006134df565b61346081613529565b60008090505b83518110156134a25761349584828151811061347e57fe5b60200260200101518361353790919063ffffffff16565b8080600101915050613466565b506134ac8161355c565b8060000151915050919050565b80600490805190602001906134cf92919061385c565b5050565b60405180590338823950565b60008190506000602082816134f057fe5b0614613509576020818161350057fe5b06602003810190505b808360200181815250506040518084526000815281810160405250505050565b61353481600461356a565b50565b613544826003835161358b565b61355781836136cb90919063ffffffff16565b505050565b61356781600761356a565b50565b613587601f60058360ff16901b178361377690919063ffffffff16565b5050565b601781116135b7576135b28160058460ff16901b60ff16178461377690919063ffffffff16565b6136c6565b60ff81116135f8576135dc601860058460ff16901b178461377690919063ffffffff16565b6135f2816001856137b69092919063ffffffff16565b506136c5565b61ffff811161363a5761361e601960058460ff16901b178461377690919063ffffffff16565b613634816002856137b69092919063ffffffff16565b506136c4565b63ffffffff811161367e57613662601a60058460ff16901b178461377690919063ffffffff16565b613678816004856137b69092919063ffffffff16565b506136c3565b67ffffffffffffffff81116136c2576136aa601b60058460ff16901b178461377690919063ffffffff16565b6136c0816008856137b69092919063ffffffff16565b505b5b5b5b5b505050565b6136d36138dc565b82602001518360000151518351011115613703576137028360026136fc8660200151865161381d565b02613839565b5b60008060008451905085518051602081830101945086518101825260208701935050505b6020811061374a5781518352602083019250602082019150602081039050613727565b60006001826020036101000a039050801983511681855116818117865250508694505050505092915050565b8160200151600183600001515101111561379c5761379b826002846020015102613839565b5b815180516020818301018381536001820183525050505050565b6137be6138dc565b8360200151846000015151830111156137ec576137eb8460026137e587602001518661381d565b02613839565b5b60006001836101000a0390508451805184818301018684198251161781528582018352505050849150509392505050565b60008183111561382f57829050613833565b8190505b92915050565b60608260000151905061384c83836134df565b61385683826136cb565b50505050565b828054600181600116156101000203166002900490600052602060002090601f016020900481019282601f1061389d57805160ff19168380011785556138cb565b828001600101855582156138cb579182015b828111156138ca5782518255916020019190600101906138af565b5b5090506138d891906138f6565b5090565b604051806040016040528060608152602001600081525090565b61391891905b808211156139145760008160009055506001016138fc565b5090565b9056fe50726f7661626c652071756572792073656e742c207374616e642d627920666f7220726573706f6e73657b2768656164657273273a207b27636f6e74656e742d74797065273a20276a736f6e272c2027417574686f72697a6174696f6e273a202742656172657220414141414141414141414141414141414141414141447150253246414141414141414f2532427544344335707a584f4d594259513925324263726959596b507745253344374f7a546a576f344b78644d62507164764a71516e4d616f574d666a696353625178794d653857535a4b465559644f61496e277d7d506175736572526f6c653a2063616c6c657220646f6573206e6f742068617665207468652050617573657220726f6c654f776e61626c653a206e6577206f776e657220697320746865207a65726f20616464726573735468652063616c6c6572206f6620746869732066756e6374696f6e206973206e6f7420746865206f66666963616c204f7261636c697a652043616c6c6261636b20416464726573732e68747470733a2f2f6170692e747769747465722e636f6d2f312e312f73746174757365732f757365725f74696d656c696e652e6a736f6e3f69643d393332353936353431383232343138393434267472696d5f757365723d66616c73652674776565745f6d6f64653d657874656e64656426696e636c7564655f656e7469746965733d66616c736526636f756e743d31266578636c7564655f7265706c6965733d66616c736526696e636c7564655f7274733d66616c7365526f6c65733a206163636f756e7420646f6573206e6f74206861766520726f6c656a736f6e28516d644b4b333139566568613833683641596751716878395952734a394d4a45377933336f4358795a344d714845292e5b305d2e66756c6c5f74657874526f6c65733a206163636f756e7420697320746865207a65726f20616464726573734e6f20747765657420746578742073746f72656420666f72207468697320757365722e50726f7661626c65207175657279204e4f542073656e742c206164642045544820746f20636f7665722074686520717565727920666565546865204f7261636c697a6520717565727920494420646f6573206e6f74206d6174636820616e204f7261636c697a652072657175657374206d6164652066726f6d207468697320636f6e74726163742ea265627a7a723158203be27c640b39670a7594fdf5e46397cc7c7caa74b08781aa1dd4679e95f6454664736f6c634300050c0032526f6c65733a206163636f756e7420697320746865207a65726f2061646472657373",
  "source": "pragma solidity ^0.5.0;\n\nimport \"./oraclizeAPI.sol\";\nimport \"openzeppelin-solidity/contracts/ownership/Ownable.sol\";\nimport \"openzeppelin-solidity/contracts/lifecycle/Pausable.sol\";\n//import \"openzeppelin-solidity/contracts/lifecycle/Destructible.sol\";\n\n\n// Claims contract will use ecrecover(bytes32 data, uint8 v, bytes32 r, bytes32 s) returns (address)\n// to verify address and id originate from correct wallet\n\n// @title TwitterClient\n// @notice Use Provable to retrieve post text from Twitter\n//contract UrlRequests is Ownable, Pausable, Destructible, usingOraclize {\ncontract TwitterOracle is Ownable, Pausable, usingOraclize {\n\n    /* Storage */\n    mapping(bytes32 => string) statusId;  // query id => tweet id\n    mapping(string => string) statusText; // tweet id => tweet text\n\n    event LogNewQuery(string description);\n    event LogResult(string result, bytes proof);\n    event LogUpdate(address indexed _owner, uint indexed _balance);\n    event TweetStored(string userId, string tweetText);\n    event FindTweetLodged(bytes32 queryId, string userId);\n\n    event TraceUint(string m, uint256 v);\n    event QueryString(string m);\n\n    constructor() public payable {\n        emit LogUpdate(owner(), address(this).balance);\n\n        //OAR = OraclizeAddrResolverI(0x6f485C8BF6fc43eA212E93BBF8ce046C7f1cb475);\n        OAR = OraclizeAddrResolverI(0x6abc93b0e36cdF449E121c6225eb25DB8671523C);\n        oraclize_setProof(proofType_Android | proofStorage_IPFS);\n        //oraclize_setProof(proofType_TLSNotary | proofStorage_IPFS);\n    }\n\n   /*\n    * @notice Fallback function \n    * @dev Always revert\n    */\n    function() external {\n        revert(\"Fallback function\");\n    }\n\n   /* @notice Callback for Provable to return query response\n    * @dev Will store the text of a tweet into this contract's storage\n    * @param _queryId query ID generated when calling oraclize_query\n    * @param _result query result from Provable, should be the tweet text\n    * @param _proof authenticity proof returned by Oraclize - unused\n    */\n    function __callback(\n        bytes32 _queryId,\n        string memory _result,\n        bytes memory _proof\n    )\n        public\n\twhenNotPaused\n\tonlyOracle\n    {\n        require(\n            stringNotEmpty(statusId[_queryId]),\n            \"The Oraclize query ID does not match an Oraclize request made from this contract.\"\n            );\n\n        emit LogResult(_result, _proof);\n\t\n\tstring memory tweetId = statusId[_queryId];\n\tstatusText[tweetId] = _result; // @fix this should not be stored due to gas cost\n\n\temit TweetStored(tweetId, _result);\n    }\n\n    // example post id 1146384868630130689\n    // @dev Retrieve text for a specific tweet id\n    function findTweet(string memory _userId)\n        public\n        payable\n\treturns (bytes32)\n    {\n        // Use computation-resource to add headers to GET request - access app-only Twitter API\n\t// TODO: move query string to separate contract for updating (twitter constantly changing their API)\n\t\n\tstring memory query = string(abi.encodePacked(\"https://api.twitter.com/1.1/statuses/user_timeline.json?id=\", _userId, \"932596541822418944&trim_user=false&tweet_mode=extended&include_entities=false&count=1&exclude_replies=false&include_rts=false\"));\n\tbytes32 queryId = request(\n\t\t\"json(QmdKK319Veha83h6AYgQqhx9YRsJ9MJE7y33oCXyZ4MqHE).[0].full_text\",\n                \"GET\",\n\t\tquery,\n                \"{'headers': {'content-type': 'json', 'Authorization': 'Bearer AAAAAAAAAAAAAAAAAAAAADqP%2FAAAAAAAO%2BuD4C5pzXOMYBYQ9%2BcriYYkPwE%3D7OzTjWo4KxdMbPqdvJqQnMaoWMfjicSbQxyMe8WSZKFUYdOaIn'}}\"\n        );\n\n        statusId[queryId] = _userId;\n\temit FindTweetLodged(queryId, _userId);\n\n\treturn queryId;\n    }\n\n    /**\n     * @dev Sends a custom content-type in header and returns the header used\n     * as result. Wrap first argument of computation ds with helper needed,\n     * such as json in this case\n     */\n    function request(\n        string memory _query,\n        string memory _method,\n        string memory _url,\n        string memory _kwargs\n    ) \n        public\n\treturns (bytes32)\n    {\n\tuint queryPrice = oraclize_getPrice(\"computation\");\n\temit TraceUint(\"query price\", queryPrice);\n        if (queryPrice > address(this).balance) {\n            emit LogNewQuery(\"Provable query NOT sent, add ETH to cover the query fee\");\n\t    // revert?\n        } else {\n            emit LogNewQuery(\"Provable query sent, stand-by for response\");\n            bytes32 queryId = oraclize_query(\"computation\",\n                [_query,\n                _method,\n                _url,\n                _kwargs]\n\t\t, 500000\n            );\n\n\t    return queryId;\n        }\n    }\n    /// @notice This function returns the text of a specific Twitter post stored in this contract\n    /// @dev This function will return an empty string in the situation where the Twitter post has not been stored yet\n    /// @param _userId status ID for status text to be retrieved\n    /// @return Returns the text of the twitter post, or an empty string in the case where the post has not been stored yet\n    function getTweetText(string memory _userId)\n    public\n    view\n    returns(string memory)\n    {\n      //  bytes32 postHash = keccak256(abi.encodePacked(_postId));\n        string memory text = statusText[_userId];\n\trequire(stringNotEmpty(text), \"No tweet text stored for this user.\");\n\treturn text;\n    }\n\n    /// @notice Returns the balance of this contract\n    /// @dev This contract needs ether to be able to interact with the oracle\n    /// @return Returns the ether balance of this contract\n    function getBalance()\n    public\n    view\n    returns (uint _balance)\n    {\n        return address(this).balance;\n    }\n\n    /// @notice An internal function which checks that a particular string is not empty\n    /// @dev To be used in the Oraclize callback function to make sure the resulting text is not null\n    /// @param _s The string to check if empty/null\n    /// @return Returns false if the string is empty, and true otherwise\n    function stringNotEmpty(string memory _s)\n    internal\n    pure\n    returns(bool)\n    {\n        bytes memory tempString = bytes(_s);\n        if (tempString.length == 0) {\n            return false;\n        } else {\n            return true;\n        }\n    }\n\n    modifier onlyOracle {\n        require(\n            msg.sender == oraclize_cbAddress(),\n            \"The caller of this function is not the offical Oraclize Callback Address.\"\n            );\n\t_;\n    }\n}\n",
  "sourcePath": "/home/jack/Repositories/jgitgud/woke-dapp/@woke/contracts/contracts/TwitterOracle.sol",
  "compiler": {
    "name": "solc",
    "version": "0.5.12+commit.7709ece9.Emscripten.clang"
  },
  "schemaVersion": "3.0.20",
  "updatedAt": "2020-01-30T00:46:47.412Z",
  "devdoc": {
    "methods": {
      "getBalance()": {
        "details": "This contract needs ether to be able to interact with the oracle",
        "return": "Returns the ether balance of this contract"
      },
      "getTweetText(string)": {
        "details": "This function will return an empty string in the situation where the Twitter post has not been stored yet",
        "params": {
          "_userId": "status ID for status text to be retrieved"
        },
        "return": "Returns the text of the twitter post, or an empty string in the case where the post has not been stored yet"
      },
      "isOwner()": {
        "details": "Returns true if the caller is the current owner."
      },
      "owner()": {
        "details": "Returns the address of the current owner."
      },
      "pause()": {
        "details": "Called by a pauser to pause, triggers stopped state."
      },
      "paused()": {
        "details": "Returns true if the contract is paused, and false otherwise."
      },
      "renounceOwnership()": {
        "details": "Leaves the contract without owner. It will not be possible to call `onlyOwner` functions anymore. Can only be called by the current owner.     * NOTE: Renouncing ownership will leave the contract without an owner, thereby removing any functionality that is only available to the owner."
      },
      "request(string,string,string,string)": {
        "details": "Sends a custom content-type in header and returns the header used as result. Wrap first argument of computation ds with helper needed, such as json in this case"
      },
      "transferOwnership(address)": {
        "details": "Transfers ownership of the contract to a new account (`newOwner`). Can only be called by the current owner."
      },
      "unpause()": {
        "details": "Called by a pauser to unpause, returns to normal state."
      }
    }
  },
  "userdoc": {
    "methods": {
      "getBalance()": {
        "notice": "Returns the balance of this contract"
      },
      "getTweetText(string)": {
        "notice": "This function returns the text of a specific Twitter post stored in this contract"
      }
    }
  }
}